{
  "_format": "hh-sol-artifact-1",
  "contractName": "AccountTypes",
  "sourceName": "contracts/workers.sol",
  "abi": [
    {
      "inputs": [],
      "stateMutability": "nonpayable",
      "type": "constructor"
    },
    {
      "inputs": [],
      "name": "GetAllUsers",
      "outputs": [
        {
          "components": [
            {
              "internalType": "uint256",
              "name": "ID",
              "type": "uint256"
            },
            {
              "internalType": "address",
              "name": "user",
              "type": "address"
            },
            {
              "internalType": "string",
              "name": "Name",
              "type": "string"
            },
            {
              "internalType": "string",
              "name": "Surname",
              "type": "string"
            },
            {
              "internalType": "string",
              "name": "Email",
              "type": "string"
            },
            {
              "internalType": "enum AccountTypes.role",
              "name": "Rank",
              "type": "uint8"
            }
          ],
          "internalType": "struct AccountTypes.user_t[]",
          "name": "",
          "type": "tuple[]"
        }
      ],
      "stateMutability": "view",
      "type": "function"
    },
    {
      "inputs": [
        {
          "internalType": "address",
          "name": "user",
          "type": "address"
        },
        {
          "internalType": "string",
          "name": "name",
          "type": "string"
        },
        {
          "internalType": "string",
          "name": "surname",
          "type": "string"
        },
        {
          "internalType": "string",
          "name": "email",
          "type": "string"
        },
        {
          "internalType": "enum AccountTypes.role",
          "name": "rank",
          "type": "uint8"
        }
      ],
      "name": "addUser",
      "outputs": [],
      "stateMutability": "nonpayable",
      "type": "function"
    },
    {
      "inputs": [
        {
          "internalType": "uint256",
          "name": "_id",
          "type": "uint256"
        },
        {
          "internalType": "enum AccountTypes.role",
          "name": "new_role",
          "type": "uint8"
        }
      ],
      "name": "change_role",
      "outputs": [
        {
          "internalType": "bool",
          "name": "",
          "type": "bool"
        }
      ],
      "stateMutability": "nonpayable",
      "type": "function"
    },
    {
      "inputs": [
        {
          "internalType": "string",
          "name": "a",
          "type": "string"
        },
        {
          "internalType": "string",
          "name": "b",
          "type": "string"
        }
      ],
      "name": "compareStrings",
      "outputs": [
        {
          "internalType": "bool",
          "name": "",
          "type": "bool"
        }
      ],
      "stateMutability": "pure",
      "type": "function"
    },
    {
      "inputs": [
        {
          "internalType": "address",
          "name": "user",
          "type": "address"
        },
        {
          "internalType": "string",
          "name": "name",
          "type": "string"
        },
        {
          "internalType": "string",
          "name": "surname",
          "type": "string"
        }
      ],
      "name": "findUser",
      "outputs": [
        {
          "internalType": "bool",
          "name": "",
          "type": "bool"
        }
      ],
      "stateMutability": "view",
      "type": "function"
    },
    {
      "inputs": [
        {
          "internalType": "address",
          "name": "wallet",
          "type": "address"
        }
      ],
      "name": "findWallet",
      "outputs": [
        {
          "internalType": "bool",
          "name": "",
          "type": "bool"
        }
      ],
      "stateMutability": "view",
      "type": "function"
    },
    {
      "inputs": [
        {
          "internalType": "uint256",
          "name": "",
          "type": "uint256"
        }
      ],
      "name": "workers",
      "outputs": [
        {
          "internalType": "uint256",
          "name": "ID",
          "type": "uint256"
        },
        {
          "internalType": "address",
          "name": "user",
          "type": "address"
        },
        {
          "internalType": "string",
          "name": "Name",
          "type": "string"
        },
        {
          "internalType": "string",
          "name": "Surname",
          "type": "string"
        },
        {
          "internalType": "string",
          "name": "Email",
          "type": "string"
        },
        {
          "internalType": "enum AccountTypes.role",
          "name": "Rank",
          "type": "uint8"
        }
      ],
      "stateMutability": "view",
      "type": "function"
    }
  ],
  "bytecode": "0x608060405234801561001057600080fd5b50611ce3806100206000396000f3fe608060405234801561001057600080fd5b506004361061007d5760003560e01c8063bed34bba1161005b578063bed34bba146100fe578063d286c5a81461012e578063f1a22dc21461015e578063f37a9fcc146101935761007d565b806366590a601461008257806371d6f2131461009e578063a03e1490146100ce575b600080fd5b61009c6004803603810190610097919061111e565b6101b1565b005b6100b860048036038101906100b391906111fa565b6104f0565b6040516100c59190611242565b60405180910390f35b6100e860048036038101906100e39190611293565b6105a6565b6040516100f59190611242565b60405180910390f35b61011860048036038101906101139190611414565b610689565b6040516101259190611242565b60405180910390f35b6101486004803603810190610143919061148c565b6106e2565b6040516101559190611242565b60405180910390f35b61017860048036038101906101739190611521565b6109a2565b60405161018a9695949392919061166b565b60405180910390f35b61019b610bb3565b6040516101a891906118b1565b60405180910390f35b600015153073ffffffffffffffffffffffffffffffffffffffff1663d286c5a88a8a8a8a8a6040518663ffffffff1660e01b81526004016101f6959493929190611900565b602060405180830381865afa158015610213573d6000803e3d6000fd5b505050506040513d601f19601f820116820180604052508101906102379190611975565b151514610279576040517f08c379a0000000000000000000000000000000000000000000000000000000008152600401610270906119ee565b60405180910390fd5b610281610f21565b60018054905081600001818152505088816020019073ffffffffffffffffffffffffffffffffffffffff16908173ffffffffffffffffffffffffffffffffffffffff168152505087878080601f016020809104026020016040519081016040528093929190818152602001838380828437600081840152601f19601f82011690508083019250505050505050816040018190525085858080601f016020809104026020016040519081016040528093929190818152602001838380828437600081840152601f19601f82011690508083019250505050505050816060018190525083838080601f016020809104026020016040519081016040528093929190818152602001838380828437600081840152601f19601f820116905080830192505050505050508160800181905250818160a0019060048111156103c7576103c66115f4565b5b908160048111156103db576103da6115f4565b5b8152505060018190806001815401808255809150506001900390600052602060002090600602016000909190919091506000820151816000015560208201518160010160006101000a81548173ffffffffffffffffffffffffffffffffffffffff021916908373ffffffffffffffffffffffffffffffffffffffff1602179055506040820151816002019080519060200190610478929190610f7f565b506060820151816003019080519060200190610495929190610f7f565b5060808201518160040190805190602001906104b2929190610f7f565b5060a08201518160050160006101000a81548160ff021916908360048111156104de576104dd6115f4565b5b02179055505050505050505050505050565b600080600090505b60018054905081101561059b578273ffffffffffffffffffffffffffffffffffffffff16600182815481106105305761052f611a0e565b5b906000526020600020906006020160010160009054906101000a900473ffffffffffffffffffffffffffffffffffffffff1673ffffffffffffffffffffffffffffffffffffffff1614156105885760019150506105a1565b808061059390611a6c565b9150506104f8565b50600090505b919050565b6000808310156105eb576040517f08c379a00000000000000000000000000000000000000000000000000000000081526004016105e290611b01565b60405180910390fd5b6001805490508310610632576040517f08c379a000000000000000000000000000000000000000000000000000000000815260040161062990611b6d565b60405180910390fd5b816001848154811061064757610646611a0e565b5b906000526020600020906006020160050160006101000a81548160ff0219169083600481111561067a576106796115f4565b5b02179055506001905092915050565b60008160405160200161069c9190611bc9565b60405160208183030381529060405280519060200120836040516020016106c39190611bc9565b6040516020818303038152906040528051906020012014905092915050565b600080600090505b600180549050811015610993576001818154811061070b5761070a611a0e565b5b906000526020600020906006020160010160009054906101000a900473ffffffffffffffffffffffffffffffffffffffff1673ffffffffffffffffffffffffffffffffffffffff168773ffffffffffffffffffffffffffffffffffffffff1614801561086e575061086d86868080601f016020809104026020016040519081016040528093929190818152602001838380828437600081840152601f19601f82011690508083019250505050505050600183815481106107ce576107cd611a0e565b5b906000526020600020906006020160020180546107ea90611c0f565b80601f016020809104026020016040519081016040528092919081815260200182805461081690611c0f565b80156108635780601f1061083857610100808354040283529160200191610863565b820191906000526020600020905b81548152906001019060200180831161084657829003601f168201915b5050505050610689565b5b8015610971575061097084848080601f016020809104026020016040519081016040528093929190818152602001838380828437600081840152601f19601f82011690508083019250505050505050600183815481106108d1576108d0611a0e565b5b906000526020600020906006020160030180546108ed90611c0f565b80601f016020809104026020016040519081016040528092919081815260200182805461091990611c0f565b80156109665780601f1061093b57610100808354040283529160200191610966565b820191906000526020600020905b81548152906001019060200180831161094957829003601f168201915b5050505050610689565b5b15610980576001915050610999565b808061098b90611a6c565b9150506106ea565b50600090505b95945050505050565b600181815481106109b257600080fd5b90600052602060002090600602016000915090508060000154908060010160009054906101000a900473ffffffffffffffffffffffffffffffffffffffff1690806002018054610a0190611c0f565b80601f0160208091040260200160405190810160405280929190818152602001828054610a2d90611c0f565b8015610a7a5780601f10610a4f57610100808354040283529160200191610a7a565b820191906000526020600020905b815481529060010190602001808311610a5d57829003601f168201915b505050505090806003018054610a8f90611c0f565b80601f0160208091040260200160405190810160405280929190818152602001828054610abb90611c0f565b8015610b085780601f10610add57610100808354040283529160200191610b08565b820191906000526020600020905b815481529060010190602001808311610aeb57829003601f168201915b505050505090806004018054610b1d90611c0f565b80601f0160208091040260200160405190810160405280929190818152602001828054610b4990611c0f565b8015610b965780601f10610b6b57610100808354040283529160200191610b96565b820191906000526020600020905b815481529060010190602001808311610b7957829003601f168201915b5050505050908060050160009054906101000a900460ff16905086565b6060600060018054905011610bfd576040517f08c379a0000000000000000000000000000000000000000000000000000000008152600401610bf490611c8d565b60405180910390fd5b600060018054905067ffffffffffffffff811115610c1e57610c1d6112e9565b5b604051908082528060200260200182016040528015610c5757816020015b610c44610f21565b815260200190600190039081610c3c5790505b50905060005b600180549050811015610f195760018181548110610c7e57610c7d611a0e565b5b90600052602060002090600602016040518060c0016040529081600082015481526020016001820160009054906101000a900473ffffffffffffffffffffffffffffffffffffffff1673ffffffffffffffffffffffffffffffffffffffff1673ffffffffffffffffffffffffffffffffffffffff168152602001600282018054610d0790611c0f565b80601f0160208091040260200160405190810160405280929190818152602001828054610d3390611c0f565b8015610d805780601f10610d5557610100808354040283529160200191610d80565b820191906000526020600020905b815481529060010190602001808311610d6357829003601f168201915b50505050508152602001600382018054610d9990611c0f565b80601f0160208091040260200160405190810160405280929190818152602001828054610dc590611c0f565b8015610e125780601f10610de757610100808354040283529160200191610e12565b820191906000526020600020905b815481529060010190602001808311610df557829003601f168201915b50505050508152602001600482018054610e2b90611c0f565b80601f0160208091040260200160405190810160405280929190818152602001828054610e5790611c0f565b8015610ea45780601f10610e7957610100808354040283529160200191610ea4565b820191906000526020600020905b815481529060010190602001808311610e8757829003601f168201915b505050505081526020016005820160009054906101000a900460ff166004811115610ed257610ed16115f4565b5b6004811115610ee457610ee36115f4565b5b81525050828281518110610efb57610efa611a0e565b5b60200260200101819052508080610f1190611a6c565b915050610c5d565b508091505090565b6040518060c0016040528060008152602001600073ffffffffffffffffffffffffffffffffffffffff16815260200160608152602001606081526020016060815260200160006004811115610f7957610f786115f4565b5b81525090565b828054610f8b90611c0f565b90600052602060002090601f016020900481019282610fad5760008555610ff4565b82601f10610fc657805160ff1916838001178555610ff4565b82800160010185558215610ff4579182015b82811115610ff3578251825591602001919060010190610fd8565b5b5090506110019190611005565b5090565b5b8082111561101e576000816000905550600101611006565b5090565b6000604051905090565b600080fd5b600080fd5b600073ffffffffffffffffffffffffffffffffffffffff82169050919050565b600061106182611036565b9050919050565b61107181611056565b811461107c57600080fd5b50565b60008135905061108e81611068565b92915050565b600080fd5b600080fd5b600080fd5b60008083601f8401126110b9576110b8611094565b5b8235905067ffffffffffffffff8111156110d6576110d5611099565b5b6020830191508360018202830111156110f2576110f161109e565b5b9250929050565b6005811061110657600080fd5b50565b600081359050611118816110f9565b92915050565b60008060008060008060008060a0898b03121561113e5761113d61102c565b5b600061114c8b828c0161107f565b985050602089013567ffffffffffffffff81111561116d5761116c611031565b5b6111798b828c016110a3565b9750975050604089013567ffffffffffffffff81111561119c5761119b611031565b5b6111a88b828c016110a3565b9550955050606089013567ffffffffffffffff8111156111cb576111ca611031565b5b6111d78b828c016110a3565b935093505060806111ea8b828c01611109565b9150509295985092959890939650565b6000602082840312156112105761120f61102c565b5b600061121e8482850161107f565b91505092915050565b60008115159050919050565b61123c81611227565b82525050565b60006020820190506112576000830184611233565b92915050565b6000819050919050565b6112708161125d565b811461127b57600080fd5b50565b60008135905061128d81611267565b92915050565b600080604083850312156112aa576112a961102c565b5b60006112b88582860161127e565b92505060206112c985828601611109565b9150509250929050565b600080fd5b6000601f19601f8301169050919050565b7f4e487b7100000000000000000000000000000000000000000000000000000000600052604160045260246000fd5b611321826112d8565b810181811067ffffffffffffffff821117156113405761133f6112e9565b5b80604052505050565b6000611353611022565b905061135f8282611318565b919050565b600067ffffffffffffffff82111561137f5761137e6112e9565b5b611388826112d8565b9050602081019050919050565b82818337600083830152505050565b60006113b76113b284611364565b611349565b9050828152602081018484840111156113d3576113d26112d3565b5b6113de848285611395565b509392505050565b600082601f8301126113fb576113fa611094565b5b813561140b8482602086016113a4565b91505092915050565b6000806040838503121561142b5761142a61102c565b5b600083013567ffffffffffffffff81111561144957611448611031565b5b611455858286016113e6565b925050602083013567ffffffffffffffff81111561147657611475611031565b5b611482858286016113e6565b9150509250929050565b6000806000806000606086880312156114a8576114a761102c565b5b60006114b68882890161107f565b955050602086013567ffffffffffffffff8111156114d7576114d6611031565b5b6114e3888289016110a3565b9450945050604086013567ffffffffffffffff81111561150657611505611031565b5b611512888289016110a3565b92509250509295509295909350565b6000602082840312156115375761153661102c565b5b60006115458482850161127e565b91505092915050565b6115578161125d565b82525050565b61156681611056565b82525050565b600081519050919050565b600082825260208201905092915050565b60005b838110156115a657808201518184015260208101905061158b565b838111156115b5576000848401525b50505050565b60006115c68261156c565b6115d08185611577565b93506115e0818560208601611588565b6115e9816112d8565b840191505092915050565b7f4e487b7100000000000000000000000000000000000000000000000000000000600052602160045260246000fd5b60058110611634576116336115f4565b5b50565b600081905061164582611623565b919050565b600061165582611637565b9050919050565b6116658161164a565b82525050565b600060c082019050611680600083018961154e565b61168d602083018861155d565b818103604083015261169f81876115bb565b905081810360608301526116b381866115bb565b905081810360808301526116c781856115bb565b90506116d660a083018461165c565b979650505050505050565b600081519050919050565b600082825260208201905092915050565b6000819050602082019050919050565b6117168161125d565b82525050565b61172581611056565b82525050565b600082825260208201905092915050565b60006117478261156c565b611751818561172b565b9350611761818560208601611588565b61176a816112d8565b840191505092915050565b61177e8161164a565b82525050565b600060c08301600083015161179c600086018261170d565b5060208301516117af602086018261171c565b50604083015184820360408601526117c7828261173c565b915050606083015184820360608601526117e1828261173c565b915050608083015184820360808601526117fb828261173c565b91505060a083015161181060a0860182611775565b508091505092915050565b60006118278383611784565b905092915050565b6000602082019050919050565b6000611847826116e1565b61185181856116ec565b935083602082028501611863856116fd565b8060005b8581101561189f5784840389528151611880858261181b565b945061188b8361182f565b925060208a01995050600181019050611867565b50829750879550505050505092915050565b600060208201905081810360008301526118cb818461183c565b905092915050565b60006118df8385611577565b93506118ec838584611395565b6118f5836112d8565b840190509392505050565b6000606082019050611915600083018861155d565b81810360208301526119288186886118d3565b9050818103604083015261193d8184866118d3565b90509695505050505050565b61195281611227565b811461195d57600080fd5b50565b60008151905061196f81611949565b92915050565b60006020828403121561198b5761198a61102c565b5b600061199984828501611960565b91505092915050565b7f55736572206973206578697374696e6700000000000000000000000000000000600082015250565b60006119d8601083611577565b91506119e3826119a2565b602082019050919050565b60006020820190508181036000830152611a07816119cb565b9050919050565b7f4e487b7100000000000000000000000000000000000000000000000000000000600052603260045260246000fd5b7f4e487b7100000000000000000000000000000000000000000000000000000000600052601160045260246000fd5b6000611a778261125d565b91507fffffffffffffffffffffffffffffffffffffffffffffffffffffffffffffffff821415611aaa57611aa9611a3d565b5b600182019050919050565b7f4944206973206e65676174697665000000000000000000000000000000000000600082015250565b6000611aeb600e83611577565b9150611af682611ab5565b602082019050919050565b60006020820190508181036000830152611b1a81611ade565b9050919050565b7f4944206f7574206f66207468652073636f706500000000000000000000000000600082015250565b6000611b57601383611577565b9150611b6282611b21565b602082019050919050565b60006020820190508181036000830152611b8681611b4a565b9050919050565b600081905092915050565b6000611ba38261156c565b611bad8185611b8d565b9350611bbd818560208601611588565b80840191505092915050565b6000611bd58284611b98565b915081905092915050565b7f4e487b7100000000000000000000000000000000000000000000000000000000600052602260045260246000fd5b60006002820490506001821680611c2757607f821691505b60208210811415611c3b57611c3a611be0565b5b50919050565b7f456d70747920737461636b000000000000000000000000000000000000000000600082015250565b6000611c77600b83611577565b9150611c8282611c41565b602082019050919050565b60006020820190508181036000830152611ca681611c6a565b905091905056fea2646970667358221220304e72dba658f8639070cdc312e499a43ad3dec60b82d19c07457098a8777d3d64736f6c634300080c0033",
  "linkReferences": {},
  "deployedLinkReferences": {}
}