{
  "_format": "hh-sol-artifact-1",
  "contractName": "AccountTypes",
  "sourceName": "contracts/workers.sol",
  "abi": [
    {
      "inputs": [],
      "stateMutability": "nonpayable",
      "type": "constructor"
    },
    {
      "inputs": [
        {
          "internalType": "address",
          "name": "user",
          "type": "address"
        },
        {
          "internalType": "string",
          "name": "name",
          "type": "string"
        },
        {
          "internalType": "string",
          "name": "surname",
          "type": "string"
        },
        {
          "internalType": "string",
          "name": "email",
          "type": "string"
        },
        {
          "internalType": "enum AccountTypes.role",
          "name": "rank",
          "type": "uint8"
        }
      ],
      "name": "addUser",
      "outputs": [],
      "stateMutability": "nonpayable",
      "type": "function"
    },
    {
      "inputs": [
        {
          "internalType": "uint256",
          "name": "_id",
          "type": "uint256"
        },
        {
          "internalType": "enum AccountTypes.role",
          "name": "new_role",
          "type": "uint8"
        }
      ],
      "name": "change_role",
      "outputs": [
        {
          "internalType": "bool",
          "name": "",
          "type": "bool"
        }
      ],
      "stateMutability": "nonpayable",
      "type": "function"
    },
    {
      "inputs": [
        {
          "internalType": "string",
          "name": "a",
          "type": "string"
        },
        {
          "internalType": "string",
          "name": "b",
          "type": "string"
        }
      ],
      "name": "compareStrings",
      "outputs": [
        {
          "internalType": "bool",
          "name": "",
          "type": "bool"
        }
      ],
      "stateMutability": "pure",
      "type": "function"
    },
    {
      "inputs": [
        {
          "internalType": "address",
          "name": "user",
          "type": "address"
        },
        {
          "internalType": "string",
          "name": "name",
          "type": "string"
        },
        {
          "internalType": "string",
          "name": "surname",
          "type": "string"
        }
      ],
      "name": "findUser",
      "outputs": [
        {
          "internalType": "bool",
          "name": "",
          "type": "bool"
        }
      ],
      "stateMutability": "view",
      "type": "function"
    },
    {
      "inputs": [
        {
          "internalType": "address",
          "name": "wallet",
          "type": "address"
        }
      ],
      "name": "findWallet",
      "outputs": [
        {
          "internalType": "bool",
          "name": "",
          "type": "bool"
        }
      ],
      "stateMutability": "view",
      "type": "function"
    },
    {
      "inputs": [],
      "name": "getAllUsers",
      "outputs": [
        {
          "components": [
            {
              "internalType": "uint256",
              "name": "ID",
              "type": "uint256"
            },
            {
              "internalType": "address",
              "name": "user",
              "type": "address"
            },
            {
              "internalType": "string",
              "name": "Name",
              "type": "string"
            },
            {
              "internalType": "string",
              "name": "Surname",
              "type": "string"
            },
            {
              "internalType": "string",
              "name": "Email",
              "type": "string"
            },
            {
              "internalType": "enum AccountTypes.role",
              "name": "Rank",
              "type": "uint8"
            }
          ],
          "internalType": "struct AccountTypes.user_t[]",
          "name": "",
          "type": "tuple[]"
        }
      ],
      "stateMutability": "view",
      "type": "function"
    },
    {
      "inputs": [
        {
          "internalType": "address",
          "name": "userAddress",
          "type": "address"
        }
      ],
      "name": "getUser",
      "outputs": [
        {
          "components": [
            {
              "internalType": "uint256",
              "name": "ID",
              "type": "uint256"
            },
            {
              "internalType": "address",
              "name": "user",
              "type": "address"
            },
            {
              "internalType": "string",
              "name": "Name",
              "type": "string"
            },
            {
              "internalType": "string",
              "name": "Surname",
              "type": "string"
            },
            {
              "internalType": "string",
              "name": "Email",
              "type": "string"
            },
            {
              "internalType": "enum AccountTypes.role",
              "name": "Rank",
              "type": "uint8"
            }
          ],
          "internalType": "struct AccountTypes.user_t",
          "name": "",
          "type": "tuple"
        }
      ],
      "stateMutability": "view",
      "type": "function"
    },
    {
      "inputs": [
        {
          "internalType": "uint256",
          "name": "",
          "type": "uint256"
        }
      ],
      "name": "workers",
      "outputs": [
        {
          "internalType": "uint256",
          "name": "ID",
          "type": "uint256"
        },
        {
          "internalType": "address",
          "name": "user",
          "type": "address"
        },
        {
          "internalType": "string",
          "name": "Name",
          "type": "string"
        },
        {
          "internalType": "string",
          "name": "Surname",
          "type": "string"
        },
        {
          "internalType": "string",
          "name": "Email",
          "type": "string"
        },
        {
          "internalType": "enum AccountTypes.role",
          "name": "Rank",
          "type": "uint8"
        }
      ],
      "stateMutability": "view",
      "type": "function"
    }
  ],
  "bytecode": "0x608060405234801561001057600080fd5b50612192806100206000396000f3fe608060405234801561001057600080fd5b50600436106100885760003560e01c8063bed34bba1161005b578063bed34bba14610139578063d286c5a814610169578063e2842d7914610199578063f1a22dc2146101b757610088565b806366590a601461008d5780636f77926b146100a957806371d6f213146100d9578063a03e149014610109575b600080fd5b6100a760048036038101906100a29190611514565b6101ec565b005b6100c360048036038101906100be91906115f0565b61052b565b6040516100d091906117ec565b60405180910390f35b6100f360048036038101906100ee91906115f0565b6108e6565b6040516101009190611829565b60405180910390f35b610123600480360381019061011e9190611870565b61099c565b6040516101309190611829565b60405180910390f35b610153600480360381019061014e91906119e0565b610a7f565b6040516101609190611829565b60405180910390f35b610183600480360381019061017e9190611a58565b610ad8565b6040516101909190611829565b60405180910390f35b6101a1610d98565b6040516101ae9190611c46565b60405180910390f35b6101d160048036038101906101cc9190611c68565b611106565b6040516101e396959493929190611d0c565b60405180910390f35b600015153073ffffffffffffffffffffffffffffffffffffffff1663d286c5a88a8a8a8a8a6040518663ffffffff1660e01b8152600401610231959493929190611daf565b602060405180830381865afa15801561024e573d6000803e3d6000fd5b505050506040513d601f19601f820116820180604052508101906102729190611e24565b1515146102b4576040517f08c379a00000000000000000000000000000000000000000000000000000000081526004016102ab90611e9d565b60405180910390fd5b6102bc611317565b60018054905081600001818152505088816020019073ffffffffffffffffffffffffffffffffffffffff16908173ffffffffffffffffffffffffffffffffffffffff168152505087878080601f016020809104026020016040519081016040528093929190818152602001838380828437600081840152601f19601f82011690508083019250505050505050816040018190525085858080601f016020809104026020016040519081016040528093929190818152602001838380828437600081840152601f19601f82011690508083019250505050505050816060018190525083838080601f016020809104026020016040519081016040528093929190818152602001838380828437600081840152601f19601f820116905080830192505050505050508160800181905250818160a001906004811115610402576104016116de565b5b90816004811115610416576104156116de565b5b8152505060018190806001815401808255809150506001900390600052602060002090600602016000909190919091506000820151816000015560208201518160010160006101000a81548173ffffffffffffffffffffffffffffffffffffffff021916908373ffffffffffffffffffffffffffffffffffffffff16021790555060408201518160020190805190602001906104b3929190611375565b5060608201518160030190805190602001906104d0929190611375565b5060808201518160040190805190602001906104ed929190611375565b5060a08201518160050160006101000a81548160ff02191690836004811115610519576105186116de565b5b02179055505050505050505050505050565b610533611317565b60006040518060c0016040528060008152602001600073ffffffffffffffffffffffffffffffffffffffff1681526020016040518060200160405280600081525081526020016040518060200160405280600081525081526020016040518060200160405280600081525081526020016004808111156105b6576105b56116de565b5b815250905060005b6001805490508110156108dc578373ffffffffffffffffffffffffffffffffffffffff16600182815481106105f6576105f5611ebd565b5b906000526020600020906006020160010160009054906101000a900473ffffffffffffffffffffffffffffffffffffffff1673ffffffffffffffffffffffffffffffffffffffff1614156108c9576001818154811061065857610657611ebd565b5b90600052602060002090600602016040518060c0016040529081600082015481526020016001820160009054906101000a900473ffffffffffffffffffffffffffffffffffffffff1673ffffffffffffffffffffffffffffffffffffffff1673ffffffffffffffffffffffffffffffffffffffff1681526020016002820180546106e190611f1b565b80601f016020809104026020016040519081016040528092919081815260200182805461070d90611f1b565b801561075a5780601f1061072f5761010080835404028352916020019161075a565b820191906000526020600020905b81548152906001019060200180831161073d57829003601f168201915b5050505050815260200160038201805461077390611f1b565b80601f016020809104026020016040519081016040528092919081815260200182805461079f90611f1b565b80156107ec5780601f106107c1576101008083540402835291602001916107ec565b820191906000526020600020905b8154815290600101906020018083116107cf57829003601f168201915b5050505050815260200160048201805461080590611f1b565b80601f016020809104026020016040519081016040528092919081815260200182805461083190611f1b565b801561087e5780601f106108535761010080835404028352916020019161087e565b820191906000526020600020905b81548152906001019060200180831161086157829003601f168201915b505050505081526020016005820160009054906101000a900460ff1660048111156108ac576108ab6116de565b5b60048111156108be576108bd6116de565b5b8152505091506108dc565b80806108d490611f7c565b9150506105be565b5080915050919050565b600080600090505b600180549050811015610991578273ffffffffffffffffffffffffffffffffffffffff166001828154811061092657610925611ebd565b5b906000526020600020906006020160010160009054906101000a900473ffffffffffffffffffffffffffffffffffffffff1673ffffffffffffffffffffffffffffffffffffffff16141561097e576001915050610997565b808061098990611f7c565b9150506108ee565b50600090505b919050565b6000808310156109e1576040517f08c379a00000000000000000000000000000000000000000000000000000000081526004016109d890612011565b60405180910390fd5b6001805490508310610a28576040517f08c379a0000000000000000000000000000000000000000000000000000000008152600401610a1f9061207d565b60405180910390fd5b8160018481548110610a3d57610a3c611ebd565b5b906000526020600020906006020160050160006101000a81548160ff02191690836004811115610a7057610a6f6116de565b5b02179055506001905092915050565b600081604051602001610a9291906120d9565b6040516020818303038152906040528051906020012083604051602001610ab991906120d9565b6040516020818303038152906040528051906020012014905092915050565b600080600090505b600180549050811015610d895760018181548110610b0157610b00611ebd565b5b906000526020600020906006020160010160009054906101000a900473ffffffffffffffffffffffffffffffffffffffff1673ffffffffffffffffffffffffffffffffffffffff168773ffffffffffffffffffffffffffffffffffffffff16148015610c645750610c6386868080601f016020809104026020016040519081016040528093929190818152602001838380828437600081840152601f19601f8201169050808301925050505050505060018381548110610bc457610bc3611ebd565b5b90600052602060002090600602016002018054610be090611f1b565b80601f0160208091040260200160405190810160405280929190818152602001828054610c0c90611f1b565b8015610c595780601f10610c2e57610100808354040283529160200191610c59565b820191906000526020600020905b815481529060010190602001808311610c3c57829003601f168201915b5050505050610a7f565b5b8015610d675750610d6684848080601f016020809104026020016040519081016040528093929190818152602001838380828437600081840152601f19601f8201169050808301925050505050505060018381548110610cc757610cc6611ebd565b5b90600052602060002090600602016003018054610ce390611f1b565b80601f0160208091040260200160405190810160405280929190818152602001828054610d0f90611f1b565b8015610d5c5780601f10610d3157610100808354040283529160200191610d5c565b820191906000526020600020905b815481529060010190602001808311610d3f57829003601f168201915b5050505050610a7f565b5b15610d76576001915050610d8f565b8080610d8190611f7c565b915050610ae0565b50600090505b95945050505050565b6060600060018054905011610de2576040517f08c379a0000000000000000000000000000000000000000000000000000000008152600401610dd99061213c565b60405180910390fd5b600060018054905067ffffffffffffffff811115610e0357610e026118b5565b5b604051908082528060200260200182016040528015610e3c57816020015b610e29611317565b815260200190600190039081610e215790505b50905060005b6001805490508110156110fe5760018181548110610e6357610e62611ebd565b5b90600052602060002090600602016040518060c0016040529081600082015481526020016001820160009054906101000a900473ffffffffffffffffffffffffffffffffffffffff1673ffffffffffffffffffffffffffffffffffffffff1673ffffffffffffffffffffffffffffffffffffffff168152602001600282018054610eec90611f1b565b80601f0160208091040260200160405190810160405280929190818152602001828054610f1890611f1b565b8015610f655780601f10610f3a57610100808354040283529160200191610f65565b820191906000526020600020905b815481529060010190602001808311610f4857829003601f168201915b50505050508152602001600382018054610f7e90611f1b565b80601f0160208091040260200160405190810160405280929190818152602001828054610faa90611f1b565b8015610ff75780601f10610fcc57610100808354040283529160200191610ff7565b820191906000526020600020905b815481529060010190602001808311610fda57829003601f168201915b5050505050815260200160048201805461101090611f1b565b80601f016020809104026020016040519081016040528092919081815260200182805461103c90611f1b565b80156110895780601f1061105e57610100808354040283529160200191611089565b820191906000526020600020905b81548152906001019060200180831161106c57829003601f168201915b505050505081526020016005820160009054906101000a900460ff1660048111156110b7576110b66116de565b5b60048111156110c9576110c86116de565b5b815250508282815181106110e0576110df611ebd565b5b602002602001018190525080806110f690611f7c565b915050610e42565b508091505090565b6001818154811061111657600080fd5b90600052602060002090600602016000915090508060000154908060010160009054906101000a900473ffffffffffffffffffffffffffffffffffffffff169080600201805461116590611f1b565b80601f016020809104026020016040519081016040528092919081815260200182805461119190611f1b565b80156111de5780601f106111b3576101008083540402835291602001916111de565b820191906000526020600020905b8154815290600101906020018083116111c157829003601f168201915b5050505050908060030180546111f390611f1b565b80601f016020809104026020016040519081016040528092919081815260200182805461121f90611f1b565b801561126c5780601f106112415761010080835404028352916020019161126c565b820191906000526020600020905b81548152906001019060200180831161124f57829003601f168201915b50505050509080600401805461128190611f1b565b80601f01602080910402602001604051908101604052809291908181526020018280546112ad90611f1b565b80156112fa5780601f106112cf576101008083540402835291602001916112fa565b820191906000526020600020905b8154815290600101906020018083116112dd57829003601f168201915b5050505050908060050160009054906101000a900460ff16905086565b6040518060c0016040528060008152602001600073ffffffffffffffffffffffffffffffffffffffff1681526020016060815260200160608152602001606081526020016000600481111561136f5761136e6116de565b5b81525090565b82805461138190611f1b565b90600052602060002090601f0160209004810192826113a357600085556113ea565b82601f106113bc57805160ff19168380011785556113ea565b828001600101855582156113ea579182015b828111156113e95782518255916020019190600101906113ce565b5b5090506113f791906113fb565b5090565b5b808211156114145760008160009055506001016113fc565b5090565b6000604051905090565b600080fd5b600080fd5b600073ffffffffffffffffffffffffffffffffffffffff82169050919050565b60006114578261142c565b9050919050565b6114678161144c565b811461147257600080fd5b50565b6000813590506114848161145e565b92915050565b600080fd5b600080fd5b600080fd5b60008083601f8401126114af576114ae61148a565b5b8235905067ffffffffffffffff8111156114cc576114cb61148f565b5b6020830191508360018202830111156114e8576114e7611494565b5b9250929050565b600581106114fc57600080fd5b50565b60008135905061150e816114ef565b92915050565b60008060008060008060008060a0898b03121561153457611533611422565b5b60006115428b828c01611475565b985050602089013567ffffffffffffffff81111561156357611562611427565b5b61156f8b828c01611499565b9750975050604089013567ffffffffffffffff81111561159257611591611427565b5b61159e8b828c01611499565b9550955050606089013567ffffffffffffffff8111156115c1576115c0611427565b5b6115cd8b828c01611499565b935093505060806115e08b828c016114ff565b9150509295985092959890939650565b60006020828403121561160657611605611422565b5b600061161484828501611475565b91505092915050565b6000819050919050565b6116308161161d565b82525050565b61163f8161144c565b82525050565b600081519050919050565b600082825260208201905092915050565b60005b8381101561167f578082015181840152602081019050611664565b8381111561168e576000848401525b50505050565b6000601f19601f8301169050919050565b60006116b082611645565b6116ba8185611650565b93506116ca818560208601611661565b6116d381611694565b840191505092915050565b7f4e487b7100000000000000000000000000000000000000000000000000000000600052602160045260246000fd5b6005811061171e5761171d6116de565b5b50565b600081905061172f8261170d565b919050565b600061173f82611721565b9050919050565b61174f81611734565b82525050565b600060c08301600083015161176d6000860182611627565b5060208301516117806020860182611636565b506040830151848203604086015261179882826116a5565b915050606083015184820360608601526117b282826116a5565b915050608083015184820360808601526117cc82826116a5565b91505060a08301516117e160a0860182611746565b508091505092915050565b600060208201905081810360008301526118068184611755565b905092915050565b60008115159050919050565b6118238161180e565b82525050565b600060208201905061183e600083018461181a565b92915050565b61184d8161161d565b811461185857600080fd5b50565b60008135905061186a81611844565b92915050565b6000806040838503121561188757611886611422565b5b60006118958582860161185b565b92505060206118a6858286016114ff565b9150509250929050565b600080fd5b7f4e487b7100000000000000000000000000000000000000000000000000000000600052604160045260246000fd5b6118ed82611694565b810181811067ffffffffffffffff8211171561190c5761190b6118b5565b5b80604052505050565b600061191f611418565b905061192b82826118e4565b919050565b600067ffffffffffffffff82111561194b5761194a6118b5565b5b61195482611694565b9050602081019050919050565b82818337600083830152505050565b600061198361197e84611930565b611915565b90508281526020810184848401111561199f5761199e6118b0565b5b6119aa848285611961565b509392505050565b600082601f8301126119c7576119c661148a565b5b81356119d7848260208601611970565b91505092915050565b600080604083850312156119f7576119f6611422565b5b600083013567ffffffffffffffff811115611a1557611a14611427565b5b611a21858286016119b2565b925050602083013567ffffffffffffffff811115611a4257611a41611427565b5b611a4e858286016119b2565b9150509250929050565b600080600080600060608688031215611a7457611a73611422565b5b6000611a8288828901611475565b955050602086013567ffffffffffffffff811115611aa357611aa2611427565b5b611aaf88828901611499565b9450945050604086013567ffffffffffffffff811115611ad257611ad1611427565b5b611ade88828901611499565b92509250509295509295909350565b600081519050919050565b600082825260208201905092915050565b6000819050602082019050919050565b600060c083016000830151611b316000860182611627565b506020830151611b446020860182611636565b5060408301518482036040860152611b5c82826116a5565b91505060608301518482036060860152611b7682826116a5565b91505060808301518482036080860152611b9082826116a5565b91505060a0830151611ba560a0860182611746565b508091505092915050565b6000611bbc8383611b19565b905092915050565b6000602082019050919050565b6000611bdc82611aed565b611be68185611af8565b935083602082028501611bf885611b09565b8060005b85811015611c345784840389528151611c158582611bb0565b9450611c2083611bc4565b925060208a01995050600181019050611bfc565b50829750879550505050505092915050565b60006020820190508181036000830152611c608184611bd1565b905092915050565b600060208284031215611c7e57611c7d611422565b5b6000611c8c8482850161185b565b91505092915050565b611c9e8161161d565b82525050565b611cad8161144c565b82525050565b600082825260208201905092915050565b6000611ccf82611645565b611cd98185611cb3565b9350611ce9818560208601611661565b611cf281611694565b840191505092915050565b611d0681611734565b82525050565b600060c082019050611d216000830189611c95565b611d2e6020830188611ca4565b8181036040830152611d408187611cc4565b90508181036060830152611d548186611cc4565b90508181036080830152611d688185611cc4565b9050611d7760a0830184611cfd565b979650505050505050565b6000611d8e8385611cb3565b9350611d9b838584611961565b611da483611694565b840190509392505050565b6000606082019050611dc46000830188611ca4565b8181036020830152611dd7818688611d82565b90508181036040830152611dec818486611d82565b90509695505050505050565b611e018161180e565b8114611e0c57600080fd5b50565b600081519050611e1e81611df8565b92915050565b600060208284031215611e3a57611e39611422565b5b6000611e4884828501611e0f565b91505092915050565b7f55736572206973206578697374696e6700000000000000000000000000000000600082015250565b6000611e87601083611cb3565b9150611e9282611e51565b602082019050919050565b60006020820190508181036000830152611eb681611e7a565b9050919050565b7f4e487b7100000000000000000000000000000000000000000000000000000000600052603260045260246000fd5b7f4e487b7100000000000000000000000000000000000000000000000000000000600052602260045260246000fd5b60006002820490506001821680611f3357607f821691505b60208210811415611f4757611f46611eec565b5b50919050565b7f4e487b7100000000000000000000000000000000000000000000000000000000600052601160045260246000fd5b6000611f878261161d565b91507fffffffffffffffffffffffffffffffffffffffffffffffffffffffffffffffff821415611fba57611fb9611f4d565b5b600182019050919050565b7f4944206973206e65676174697665000000000000000000000000000000000000600082015250565b6000611ffb600e83611cb3565b915061200682611fc5565b602082019050919050565b6000602082019050818103600083015261202a81611fee565b9050919050565b7f4944206f7574206f66207468652073636f706500000000000000000000000000600082015250565b6000612067601383611cb3565b915061207282612031565b602082019050919050565b600060208201905081810360008301526120968161205a565b9050919050565b600081905092915050565b60006120b382611645565b6120bd818561209d565b93506120cd818560208601611661565b80840191505092915050565b60006120e582846120a8565b915081905092915050565b7f456d70747920737461636b000000000000000000000000000000000000000000600082015250565b6000612126600b83611cb3565b9150612131826120f0565b602082019050919050565b6000602082019050818103600083015261215581612119565b905091905056fea2646970667358221220d38c9ff8353240899ba486a157f27d7e81d5434645b1625fd00b9fadbca3d83764736f6c634300080c0033",
  "linkReferences": {},
  "deployedLinkReferences": {}
}