{
  "_format": "hh-sol-artifact-1",
  "contractName": "Kontrakt",
  "sourceName": "contracts/kontrakt.sol",
  "abi": [
    {
      "inputs": [
        {
          "internalType": "string",
          "name": "_name",
          "type": "string"
        },
        {
          "internalType": "uint256",
          "name": "_price",
          "type": "uint256"
        }
      ],
      "name": "AddItem",
      "outputs": [],
      "stateMutability": "nonpayable",
      "type": "function"
    },
    {
      "inputs": [
        {
          "internalType": "uint256",
          "name": "_productID",
          "type": "uint256"
        },
        {
          "internalType": "address",
          "name": "user",
          "type": "address"
        }
      ],
      "name": "AddToHistory",
      "outputs": [
        {
          "internalType": "bool",
          "name": "",
          "type": "bool"
        }
      ],
      "stateMutability": "nonpayable",
      "type": "function"
    },
    {
      "inputs": [
        {
          "internalType": "uint256",
          "name": "_id",
          "type": "uint256"
        }
      ],
      "name": "ArchiveItem",
      "outputs": [],
      "stateMutability": "nonpayable",
      "type": "function"
    },
    {
      "inputs": [],
      "name": "GetAll",
      "outputs": [
        {
          "components": [
            {
              "internalType": "uint256",
              "name": "id",
              "type": "uint256"
            },
            {
              "internalType": "uint256",
              "name": "NotificationData",
              "type": "uint256"
            },
            {
              "internalType": "string",
              "name": "Explenation",
              "type": "string"
            },
            {
              "internalType": "uint256",
              "name": "TokenAmount",
              "type": "uint256"
            },
            {
              "internalType": "address",
              "name": "SenderWallet",
              "type": "address"
            },
            {
              "internalType": "address",
              "name": "ReciverWallet",
              "type": "address"
            },
            {
              "internalType": "enum Notifications.statuses",
              "name": "Status",
              "type": "uint8"
            },
            {
              "internalType": "string",
              "name": "StatusExplanation",
              "type": "string"
            }
          ],
          "internalType": "struct Notifications.Notification[]",
          "name": "",
          "type": "tuple[]"
        }
      ],
      "stateMutability": "view",
      "type": "function"
    },
    {
      "inputs": [],
      "name": "GetAllHistory",
      "outputs": [
        {
          "components": [
            {
              "internalType": "uint256",
              "name": "id",
              "type": "uint256"
            },
            {
              "internalType": "address",
              "name": "buyer",
              "type": "address"
            },
            {
              "internalType": "uint256",
              "name": "data",
              "type": "uint256"
            },
            {
              "internalType": "uint256",
              "name": "item_ID",
              "type": "uint256"
            }
          ],
          "internalType": "struct marketplace.history[]",
          "name": "",
          "type": "tuple[]"
        }
      ],
      "stateMutability": "view",
      "type": "function"
    },
    {
      "inputs": [],
      "name": "GetAllItems",
      "outputs": [
        {
          "components": [
            {
              "internalType": "uint256",
              "name": "id",
              "type": "uint256"
            },
            {
              "internalType": "string",
              "name": "name",
              "type": "string"
            },
            {
              "internalType": "uint256",
              "name": "price",
              "type": "uint256"
            },
            {
              "internalType": "enum marketplace.item_status",
              "name": "status",
              "type": "uint8"
            }
          ],
          "internalType": "struct marketplace.items[]",
          "name": "",
          "type": "tuple[]"
        }
      ],
      "stateMutability": "view",
      "type": "function"
    },
    {
      "inputs": [
        {
          "internalType": "address",
          "name": "_owner",
          "type": "address"
        }
      ],
      "name": "GetMy",
      "outputs": [
        {
          "components": [
            {
              "internalType": "uint256",
              "name": "id",
              "type": "uint256"
            },
            {
              "internalType": "uint256",
              "name": "NotificationData",
              "type": "uint256"
            },
            {
              "internalType": "string",
              "name": "Explenation",
              "type": "string"
            },
            {
              "internalType": "uint256",
              "name": "TokenAmount",
              "type": "uint256"
            },
            {
              "internalType": "address",
              "name": "SenderWallet",
              "type": "address"
            },
            {
              "internalType": "address",
              "name": "ReciverWallet",
              "type": "address"
            },
            {
              "internalType": "enum Notifications.statuses",
              "name": "Status",
              "type": "uint8"
            },
            {
              "internalType": "string",
              "name": "StatusExplanation",
              "type": "string"
            }
          ],
          "internalType": "struct Notifications.Notification[]",
          "name": "",
          "type": "tuple[]"
        }
      ],
      "stateMutability": "view",
      "type": "function"
    },
    {
      "inputs": [
        {
          "internalType": "uint256",
          "name": "",
          "type": "uint256"
        }
      ],
      "name": "Items",
      "outputs": [
        {
          "internalType": "uint256",
          "name": "id",
          "type": "uint256"
        },
        {
          "internalType": "string",
          "name": "name",
          "type": "string"
        },
        {
          "internalType": "uint256",
          "name": "price",
          "type": "uint256"
        },
        {
          "internalType": "enum marketplace.item_status",
          "name": "status",
          "type": "uint8"
        }
      ],
      "stateMutability": "view",
      "type": "function"
    },
    {
      "inputs": [
        {
          "internalType": "string",
          "name": "_Explenation",
          "type": "string"
        },
        {
          "internalType": "uint256",
          "name": "_TokenAmount",
          "type": "uint256"
        },
        {
          "internalType": "address",
          "name": "_ReciverWallet",
          "type": "address"
        },
        {
          "internalType": "address",
          "name": "_SenderWallet",
          "type": "address"
        }
      ],
      "name": "NewTicket",
      "outputs": [],
      "stateMutability": "nonpayable",
      "type": "function"
    },
    {
      "inputs": [
        {
          "internalType": "uint256",
          "name": "_id",
          "type": "uint256"
        }
      ],
      "name": "SellItem",
      "outputs": [],
      "stateMutability": "nonpayable",
      "type": "function"
    },
    {
      "inputs": [
        {
          "internalType": "uint256",
          "name": "",
          "type": "uint256"
        }
      ],
      "name": "Table",
      "outputs": [
        {
          "internalType": "uint256",
          "name": "id",
          "type": "uint256"
        },
        {
          "internalType": "uint256",
          "name": "NotificationData",
          "type": "uint256"
        },
        {
          "internalType": "string",
          "name": "Explenation",
          "type": "string"
        },
        {
          "internalType": "uint256",
          "name": "TokenAmount",
          "type": "uint256"
        },
        {
          "internalType": "address",
          "name": "SenderWallet",
          "type": "address"
        },
        {
          "internalType": "address",
          "name": "ReciverWallet",
          "type": "address"
        },
        {
          "internalType": "enum Notifications.statuses",
          "name": "Status",
          "type": "uint8"
        },
        {
          "internalType": "string",
          "name": "StatusExplanation",
          "type": "string"
        }
      ],
      "stateMutability": "view",
      "type": "function"
    },
    {
      "inputs": [
        {
          "internalType": "address",
          "name": "user",
          "type": "address"
        },
        {
          "internalType": "string",
          "name": "name",
          "type": "string"
        },
        {
          "internalType": "string",
          "name": "surname",
          "type": "string"
        },
        {
          "internalType": "string",
          "name": "email",
          "type": "string"
        },
        {
          "internalType": "enum AccountTypes.role",
          "name": "rank",
          "type": "uint8"
        }
      ],
      "name": "addUser",
      "outputs": [],
      "stateMutability": "nonpayable",
      "type": "function"
    },
    {
      "inputs": [
        {
          "internalType": "uint256",
          "name": "_id",
          "type": "uint256"
        },
        {
          "internalType": "string",
          "name": "_Explenation",
          "type": "string"
        },
        {
          "internalType": "address",
          "name": "moneyAddres",
          "type": "address"
        }
      ],
      "name": "approveTicket",
      "outputs": [],
      "stateMutability": "payable",
      "type": "function"
    },
    {
      "inputs": [
        {
          "internalType": "uint256",
          "name": "_id",
          "type": "uint256"
        }
      ],
      "name": "archiveTicket",
      "outputs": [],
      "stateMutability": "nonpayable",
      "type": "function"
    },
    {
      "inputs": [
        {
          "internalType": "uint256",
          "name": "item_id",
          "type": "uint256"
        },
        {
          "internalType": "address",
          "name": "_buyer",
          "type": "address"
        },
        {
          "internalType": "address",
          "name": "moneyAddres",
          "type": "address"
        }
      ],
      "name": "buyItem",
      "outputs": [],
      "stateMutability": "payable",
      "type": "function"
    },
    {
      "inputs": [
        {
          "internalType": "uint256",
          "name": "_id",
          "type": "uint256"
        },
        {
          "internalType": "enum AccountTypes.role",
          "name": "new_role",
          "type": "uint8"
        }
      ],
      "name": "change_role",
      "outputs": [
        {
          "internalType": "bool",
          "name": "",
          "type": "bool"
        }
      ],
      "stateMutability": "nonpayable",
      "type": "function"
    },
    {
      "inputs": [
        {
          "internalType": "string",
          "name": "a",
          "type": "string"
        },
        {
          "internalType": "string",
          "name": "b",
          "type": "string"
        }
      ],
      "name": "compareStrings",
      "outputs": [
        {
          "internalType": "bool",
          "name": "",
          "type": "bool"
        }
      ],
      "stateMutability": "pure",
      "type": "function"
    },
    {
      "inputs": [
        {
          "internalType": "address",
          "name": "user",
          "type": "address"
        },
        {
          "internalType": "string",
          "name": "name",
          "type": "string"
        },
        {
          "internalType": "string",
          "name": "surname",
          "type": "string"
        }
      ],
      "name": "findUser",
      "outputs": [
        {
          "internalType": "bool",
          "name": "",
          "type": "bool"
        }
      ],
      "stateMutability": "view",
      "type": "function"
    },
    {
      "inputs": [
        {
          "internalType": "address",
          "name": "wallet",
          "type": "address"
        }
      ],
      "name": "findWallet",
      "outputs": [
        {
          "internalType": "bool",
          "name": "",
          "type": "bool"
        }
      ],
      "stateMutability": "view",
      "type": "function"
    },
    {
      "inputs": [],
      "name": "getAllUsers",
      "outputs": [
        {
          "components": [
            {
              "internalType": "uint256",
              "name": "ID",
              "type": "uint256"
            },
            {
              "internalType": "address",
              "name": "user",
              "type": "address"
            },
            {
              "internalType": "string",
              "name": "Name",
              "type": "string"
            },
            {
              "internalType": "string",
              "name": "Surname",
              "type": "string"
            },
            {
              "internalType": "string",
              "name": "Email",
              "type": "string"
            },
            {
              "internalType": "enum AccountTypes.role",
              "name": "Rank",
              "type": "uint8"
            }
          ],
          "internalType": "struct AccountTypes.user_t[]",
          "name": "",
          "type": "tuple[]"
        }
      ],
      "stateMutability": "view",
      "type": "function"
    },
    {
      "inputs": [
        {
          "internalType": "address",
          "name": "userAddress",
          "type": "address"
        }
      ],
      "name": "getUser",
      "outputs": [
        {
          "components": [
            {
              "internalType": "uint256",
              "name": "ID",
              "type": "uint256"
            },
            {
              "internalType": "address",
              "name": "user",
              "type": "address"
            },
            {
              "internalType": "string",
              "name": "Name",
              "type": "string"
            },
            {
              "internalType": "string",
              "name": "Surname",
              "type": "string"
            },
            {
              "internalType": "string",
              "name": "Email",
              "type": "string"
            },
            {
              "internalType": "enum AccountTypes.role",
              "name": "Rank",
              "type": "uint8"
            }
          ],
          "internalType": "struct AccountTypes.user_t",
          "name": "",
          "type": "tuple"
        }
      ],
      "stateMutability": "view",
      "type": "function"
    },
    {
      "inputs": [
        {
          "internalType": "uint256",
          "name": "",
          "type": "uint256"
        }
      ],
      "name": "historia",
      "outputs": [
        {
          "internalType": "uint256",
          "name": "id",
          "type": "uint256"
        },
        {
          "internalType": "address",
          "name": "buyer",
          "type": "address"
        },
        {
          "internalType": "uint256",
          "name": "data",
          "type": "uint256"
        },
        {
          "internalType": "uint256",
          "name": "item_ID",
          "type": "uint256"
        }
      ],
      "stateMutability": "view",
      "type": "function"
    },
    {
      "inputs": [
        {
          "internalType": "uint256",
          "name": "_id",
          "type": "uint256"
        },
        {
          "internalType": "string",
          "name": "_Explenation",
          "type": "string"
        }
      ],
      "name": "reject",
      "outputs": [],
      "stateMutability": "nonpayable",
      "type": "function"
    },
    {
      "inputs": [
        {
          "internalType": "uint256",
          "name": "",
          "type": "uint256"
        }
      ],
      "name": "workers",
      "outputs": [
        {
          "internalType": "uint256",
          "name": "ID",
          "type": "uint256"
        },
        {
          "internalType": "address",
          "name": "user",
          "type": "address"
        },
        {
          "internalType": "string",
          "name": "Name",
          "type": "string"
        },
        {
          "internalType": "string",
          "name": "Surname",
          "type": "string"
        },
        {
          "internalType": "string",
          "name": "Email",
          "type": "string"
        },
        {
          "internalType": "enum AccountTypes.role",
          "name": "Rank",
          "type": "uint8"
        }
      ],
      "stateMutability": "view",
      "type": "function"
    }
  ],
  "bytecode": "0x608060405230600760006101000a81548173ffffffffffffffffffffffffffffffffffffffff021916908373ffffffffffffffffffffffffffffffffffffffff16021790555034801561005157600080fd5b506157a980620000626000396000f3fe60806040526004361061014b5760003560e01c806371d6f213116100b6578063a5904d211161006f578063a5904d21146104b0578063bed34bba146104f4578063d286c5a814610531578063e2842d791461056e578063f1a22dc214610599578063f6961809146105db5761014b565b806371d6f2131461039d57806375364049146103da57806390303f16146104035780639b6d756a1461042c578063a03e149014610448578063a5440fa0146104855761014b565b80634064f254116101085780634064f2541461027f57806355d96d4f146102a857806366590a60146102e55780636e5380781461030e5780636f77926b1461033757806371d68a97146103745761014b565b8063040828b61461015057806317b47cc41461017b578063260cbf6e146101bb5780633504d935146101f8578063357b4b1314610214578063389271ed14610254575b600080fd5b34801561015c57600080fd5b50610165610604565b6040516101729190613bec565b60405180910390f35b34801561018757600080fd5b506101a2600480360381019061019d9190613c4e565b610795565b6040516101b29493929190613d9a565b60405180910390f35b3480156101c757600080fd5b506101e260048036038101906101dd9190613e12565b61086a565b6040516101ef9190613e6d565b60405180910390f35b610212600480360381019061020d9190613e88565b610998565b005b34801561022057600080fd5b5061023b60048036038101906102369190613c4e565b610bc0565b60405161024b9493929190613eea565b60405180910390f35b34801561026057600080fd5b50610269610c20565b60405161027691906140ad565b60405180910390f35b34801561028b57600080fd5b506102a660048036038101906102a19190614134565b610e1e565b005b3480156102b457600080fd5b506102cf60048036038101906102ca91906141bc565b6110cf565b6040516102dc91906143aa565b60405180910390f35b3480156102f157600080fd5b5061030c600480360381019061030791906143f1565b611590565b005b34801561031a57600080fd5b5061033560048036038101906103309190613c4e565b6118cf565b005b34801561034357600080fd5b5061035e600480360381019061035991906141bc565b611a49565b60405161036b91906145ac565b60405180910390f35b34801561038057600080fd5b5061039b600480360381019061039691906145ce565b611e4c565b005b3480156103a957600080fd5b506103c460048036038101906103bf91906141bc565b612087565b6040516103d19190613e6d565b60405180910390f35b3480156103e657600080fd5b5061040160048036038101906103fc919061462e565b61213d565b005b34801561040f57600080fd5b5061042a60048036038101906104259190613c4e565b6122de565b005b6104466004803603810190610441919061468e565b612456565b005b34801561045457600080fd5b5061046f600480360381019061046a9190614702565b61273a565b60405161047c9190613e6d565b60405180910390f35b34801561049157600080fd5b5061049a612821565b6040516104a791906143aa565b60405180910390f35b3480156104bc57600080fd5b506104d760048036038101906104d29190613c4e565b612b68565b6040516104eb989796959493929190614751565b60405180910390f35b34801561050057600080fd5b5061051b6004803603810190610516919061490d565b612d1d565b6040516105289190613e6d565b60405180910390f35b34801561053d57600080fd5b5061055860048036038101906105539190614985565b612d76565b6040516105659190613e6d565b60405180910390f35b34801561057a57600080fd5b50610583613036565b6040516105909190614b73565b60405180910390f35b3480156105a557600080fd5b506105c060048036038101906105bb9190613c4e565b6133a4565b6040516105d296959493929190614ba4565b60405180910390f35b3480156105e757600080fd5b5061060260048036038101906105fd9190613c4e565b6135b5565b005b606060006002805490501161064e576040517f08c379a000000000000000000000000000000000000000000000000000000000815260040161064590614c66565b60405180910390fd5b600060028054905067ffffffffffffffff81111561066f5761066e6147e2565b5b6040519080825280602002602001820160405280156106a857816020015b61069561380c565b81526020019060019003908161068d5790505b50905060005b60028054905081101561078d57600281815481106106cf576106ce614c86565b5b9060005260206000209060040201604051806080016040529081600082015481526020016001820160009054906101000a900473ffffffffffffffffffffffffffffffffffffffff1673ffffffffffffffffffffffffffffffffffffffff1673ffffffffffffffffffffffffffffffffffffffff1681526020016002820154815260200160038201548152505082828151811061076f5761076e614c86565b5b6020026020010181905250808061078590614ce4565b9150506106ae565b508091505090565b600181815481106107a557600080fd5b90600052602060002090600402016000915090508060000154908060010180546107ce90614d5c565b80601f01602080910402602001604051908101604052809291908181526020018280546107fa90614d5c565b80156108475780601f1061081c57610100808354040283529160200191610847565b820191906000526020600020905b81548152906001019060200180831161082a57829003601f168201915b5050505050908060020154908060030160009054906101000a900460ff16905084565b60006001805490508311156108b4576040517f08c379a00000000000000000000000000000000000000000000000000000000081526004016108ab90614dda565b60405180910390fd5b600060028054905090506000429050600260405180608001604052808481526020018673ffffffffffffffffffffffffffffffffffffffff1681526020018381526020018781525090806001815401808255809150506001900390600052602060002090600402016000909190919091506000820151816000015560208201518160010160006101000a81548173ffffffffffffffffffffffffffffffffffffffff021916908373ffffffffffffffffffffffffffffffffffffffff1602179055506040820151816002015560608201518160030155505060019250505092915050565b60008310156109dc576040517f08c379a00000000000000000000000000000000000000000000000000000000081526004016109d390614e46565b60405180910390fd5b600060018054905011610a24576040517f08c379a0000000000000000000000000000000000000000000000000000000008152600401610a1b90614c66565b60405180910390fd5b6001805490508310610a6b576040517f08c379a0000000000000000000000000000000000000000000000000000000008152600401610a6290614eb2565b60405180910390fd5b60006001811115610a7f57610a7e613d23565b5b60018481548110610a9357610a92614c86565b5b906000526020600020906004020160030160009054906101000a900460ff166001811115610ac457610ac3613d23565b5b14610b04576040517f08c379a0000000000000000000000000000000000000000000000000000000008152600401610afb90614f1e565b60405180910390fd5b60008190508073ffffffffffffffffffffffffffffffffffffffff166323b872dd848460018881548110610b3b57610b3a614c86565b5b9060005260206000209060040201600201546040518463ffffffff1660e01b8152600401610b6b93929190614f9d565b6020604051808303816000875af1158015610b8a573d6000803e3d6000fd5b505050506040513d601f19601f82011682018060405250810190610bae9190615000565b50610bb9848461086a565b5050505050565b60028181548110610bd057600080fd5b90600052602060002090600402016000915090508060000154908060010160009054906101000a900473ffffffffffffffffffffffffffffffffffffffff16908060020154908060030154905084565b6060600060018054905011610c6a576040517f08c379a0000000000000000000000000000000000000000000000000000000008152600401610c6190614c66565b60405180910390fd5b600060018054905067ffffffffffffffff811115610c8b57610c8a6147e2565b5b604051908082528060200260200182016040528015610cc457816020015b610cb161384a565b815260200190600190039081610ca95790505b50905060005b600180549050811015610e165760018181548110610ceb57610cea614c86565b5b906000526020600020906004020160405180608001604052908160008201548152602001600182018054610d1e90614d5c565b80601f0160208091040260200160405190810160405280929190818152602001828054610d4a90614d5c565b8015610d975780601f10610d6c57610100808354040283529160200191610d97565b820191906000526020600020905b815481529060010190602001808311610d7a57829003601f168201915b50505050508152602001600282015481526020016003820160009054906101000a900460ff166001811115610dcf57610dce613d23565b5b6001811115610de157610de0613d23565b5b81525050828281518110610df857610df7614c86565b5b60200260200101819052508080610e0e90614ce4565b915050610cca565b508091505090565b60008311610e61576040517f08c379a0000000000000000000000000000000000000000000000000000000008152600401610e5890615079565b60405180910390fd5b6000858590501415610ea8576040517f08c379a0000000000000000000000000000000000000000000000000000000008152600401610e9f906150e5565b60405180910390fd5b600060048054905090506000429050600460405180610100016040528084815260200183815260200189898080601f016020809104026020016040519081016040528093929190818152602001838380828437600081840152601f19601f8201169050808301925050505050505081526020018781526020018573ffffffffffffffffffffffffffffffffffffffff1681526020018673ffffffffffffffffffffffffffffffffffffffff16815260200160006003811115610f6d57610f6c613d23565b5b815260200160405180602001604052806000815250815250908060018154018082558091505060019003906000526020600020906007020160009091909190915060008201518160000155602082015181600101556040820151816002019080519060200190610fde929190613884565b506060820151816003015560808201518160040160006101000a81548173ffffffffffffffffffffffffffffffffffffffff021916908373ffffffffffffffffffffffffffffffffffffffff16021790555060a08201518160050160006101000a81548173ffffffffffffffffffffffffffffffffffffffff021916908373ffffffffffffffffffffffffffffffffffffffff16021790555060c08201518160050160146101000a81548160ff021916908360038111156110a2576110a1613d23565b5b021790555060e08201518160060190805190602001906110c3929190613884565b50505050505050505050565b6060600060048054905011611119576040517f08c379a000000000000000000000000000000000000000000000000000000000815260040161111090614c66565b60405180910390fd5b6000805b6004805490508110156111c5578373ffffffffffffffffffffffffffffffffffffffff166004828154811061115557611154614c86565b5b906000526020600020906007020160050160009054906101000a900473ffffffffffffffffffffffffffffffffffffffff1673ffffffffffffffffffffffffffffffffffffffff1614156111b25781806111ae90614ce4565b9250505b80806111bd90614ce4565b91505061111d565b5060008111611209576040517f08c379a000000000000000000000000000000000000000000000000000000000815260040161120090615151565b60405180910390fd5b60008167ffffffffffffffff811115611225576112246147e2565b5b60405190808252806020026020018201604052801561125e57816020015b61124b61390a565b8152602001906001900390816112435790505b5090506000915060005b600480549050811015611585578473ffffffffffffffffffffffffffffffffffffffff16600482815481106112a05761129f614c86565b5b906000526020600020906007020160050160009054906101000a900473ffffffffffffffffffffffffffffffffffffffff1673ffffffffffffffffffffffffffffffffffffffff161415611572576004818154811061130257611301614c86565b5b906000526020600020906007020160405180610100016040529081600082015481526020016001820154815260200160028201805461134090614d5c565b80601f016020809104026020016040519081016040528092919081815260200182805461136c90614d5c565b80156113b95780601f1061138e576101008083540402835291602001916113b9565b820191906000526020600020905b81548152906001019060200180831161139c57829003601f168201915b50505050508152602001600382015481526020016004820160009054906101000a900473ffffffffffffffffffffffffffffffffffffffff1673ffffffffffffffffffffffffffffffffffffffff1673ffffffffffffffffffffffffffffffffffffffff1681526020016005820160009054906101000a900473ffffffffffffffffffffffffffffffffffffffff1673ffffffffffffffffffffffffffffffffffffffff1673ffffffffffffffffffffffffffffffffffffffff1681526020016005820160149054906101000a900460ff16600381111561149d5761149c613d23565b5b60038111156114af576114ae613d23565b5b81526020016006820180546114c390614d5c565b80601f01602080910402602001604051908101604052809291908181526020018280546114ef90614d5c565b801561153c5780601f106115115761010080835404028352916020019161153c565b820191906000526020600020905b81548152906001019060200180831161151f57829003601f168201915b50505050508152505082848151811061155857611557614c86565b5b6020026020010181905250828061156e90614ce4565b9350505b808061157d90614ce4565b915050611268565b508092505050919050565b600015153073ffffffffffffffffffffffffffffffffffffffff1663d286c5a88a8a8a8a8a6040518663ffffffff1660e01b81526004016115d595949392919061519e565b602060405180830381865afa1580156115f2573d6000803e3d6000fd5b505050506040513d601f19601f820116820180604052508101906116169190615000565b151514611658576040517f08c379a000000000000000000000000000000000000000000000000000000000815260040161164f90615233565b60405180910390fd5b61166061398d565b60068054905081600001818152505088816020019073ffffffffffffffffffffffffffffffffffffffff16908173ffffffffffffffffffffffffffffffffffffffff168152505087878080601f016020809104026020016040519081016040528093929190818152602001838380828437600081840152601f19601f82011690508083019250505050505050816040018190525085858080601f016020809104026020016040519081016040528093929190818152602001838380828437600081840152601f19601f82011690508083019250505050505050816060018190525083838080601f016020809104026020016040519081016040528093929190818152602001838380828437600081840152601f19601f820116905080830192505050505050508160800181905250818160a0019060048111156117a6576117a5613d23565b5b908160048111156117ba576117b9613d23565b5b8152505060068190806001815401808255809150506001900390600052602060002090600602016000909190919091506000820151816000015560208201518160010160006101000a81548173ffffffffffffffffffffffffffffffffffffffff021916908373ffffffffffffffffffffffffffffffffffffffff1602179055506040820151816002019080519060200190611857929190613884565b506060820151816003019080519060200190611874929190613884565b506080820151816004019080519060200190611891929190613884565b5060a08201518160050160006101000a81548160ff021916908360048111156118bd576118bc613d23565b5b02179055505050505050505050505050565b600060018054905011611917576040517f08c379a000000000000000000000000000000000000000000000000000000000815260040161190e90614c66565b60405180910390fd5b600180549050811061195e576040517f08c379a000000000000000000000000000000000000000000000000000000000815260040161195590614eb2565b60405180910390fd5b6000600181111561197257611971613d23565b5b6001828154811061198657611985614c86565b5b906000526020600020906004020160030160009054906101000a900460ff1660018111156119b7576119b6613d23565b5b14156119f8576040517f08c379a00000000000000000000000000000000000000000000000000000000081526004016119ef9061529f565b60405180910390fd5b600060018281548110611a0e57611a0d614c86565b5b906000526020600020906004020160030160006101000a81548160ff02191690836001811115611a4157611a40613d23565b5b021790555050565b611a5161398d565b600060068054905011611a99576040517f08c379a0000000000000000000000000000000000000000000000000000000008152600401611a9090614c66565b60405180910390fd5b60006040518060c0016040528060008152602001600073ffffffffffffffffffffffffffffffffffffffff168152602001604051806020016040528060008152508152602001604051806020016040528060008152508152602001604051806020016040528060008152508152602001600480811115611b1c57611b1b613d23565b5b815250905060005b600680549050811015611e42578373ffffffffffffffffffffffffffffffffffffffff1660068281548110611b5c57611b5b614c86565b5b906000526020600020906006020160010160009054906101000a900473ffffffffffffffffffffffffffffffffffffffff1673ffffffffffffffffffffffffffffffffffffffff161415611e2f5760068181548110611bbe57611bbd614c86565b5b90600052602060002090600602016040518060c0016040529081600082015481526020016001820160009054906101000a900473ffffffffffffffffffffffffffffffffffffffff1673ffffffffffffffffffffffffffffffffffffffff1673ffffffffffffffffffffffffffffffffffffffff168152602001600282018054611c4790614d5c565b80601f0160208091040260200160405190810160405280929190818152602001828054611c7390614d5c565b8015611cc05780601f10611c9557610100808354040283529160200191611cc0565b820191906000526020600020905b815481529060010190602001808311611ca357829003601f168201915b50505050508152602001600382018054611cd990614d5c565b80601f0160208091040260200160405190810160405280929190818152602001828054611d0590614d5c565b8015611d525780601f10611d2757610100808354040283529160200191611d52565b820191906000526020600020905b815481529060010190602001808311611d3557829003601f168201915b50505050508152602001600482018054611d6b90614d5c565b80601f0160208091040260200160405190810160405280929190818152602001828054611d9790614d5c565b8015611de45780601f10611db957610100808354040283529160200191611de4565b820191906000526020600020905b815481529060010190602001808311611dc757829003601f168201915b505050505081526020016005820160009054906101000a900460ff166004811115611e1257611e11613d23565b5b6004811115611e2457611e23613d23565b5b815250509150611e42565b8080611e3a90614ce4565b915050611b24565b5080915050919050565b6000831015611e90576040517f08c379a0000000000000000000000000000000000000000000000000000000008152600401611e879061530b565b60405180910390fd5b600060048054905011611ed8576040517f08c379a0000000000000000000000000000000000000000000000000000000008152600401611ecf90614c66565b60405180910390fd5b6004805490508310611f1f576040517f08c379a0000000000000000000000000000000000000000000000000000000008152600401611f1690615377565b60405180910390fd5b6000828290501415611f66576040517f08c379a0000000000000000000000000000000000000000000000000000000008152600401611f5d906150e5565b60405180910390fd5b60006003811115611f7a57611f79613d23565b5b60048481548110611f8e57611f8d614c86565b5b906000526020600020906007020160050160149054906101000a900460ff166003811115611fbf57611fbe613d23565b5b14611fff576040517f08c379a0000000000000000000000000000000000000000000000000000000008152600401611ff6906153e3565b60405180910390fd5b60026004848154811061201557612014614c86565b5b906000526020600020906007020160050160146101000a81548160ff0219169083600381111561204857612047613d23565b5b021790555081816004858154811061206357612062614c86565b5b906000526020600020906007020160060191906120819291906139eb565b50505050565b600080600090505b600680549050811015612132578273ffffffffffffffffffffffffffffffffffffffff16600682815481106120c7576120c6614c86565b5b906000526020600020906006020160010160009054906101000a900473ffffffffffffffffffffffffffffffffffffffff1673ffffffffffffffffffffffffffffffffffffffff16141561211f576001915050612138565b808061212a90614ce4565b91505061208f565b50600090505b919050565b6000811015612181576040517f08c379a00000000000000000000000000000000000000000000000000000000081526004016121789061544f565b60405180910390fd5b60008383905014156121c8576040517f08c379a00000000000000000000000000000000000000000000000000000000081526004016121bf906154bb565b60405180910390fd5b600060018054905090506001604051806080016040528083815260200186868080601f016020809104026020016040519081016040528093929190818152602001838380828437600081840152601f19601f8201169050808301925050505050505081526020018481526020016000600181111561224957612248613d23565b5b815250908060018154018082558091505060019003906000526020600020906004020160009091909190915060008201518160000155602082015181600101908051906020019061229b929190613884565b506040820151816002015560608201518160030160006101000a81548160ff021916908360018111156122d1576122d0613d23565b5b0217905550505050505050565b600060018054905011612326576040517f08c379a000000000000000000000000000000000000000000000000000000000815260040161231d90614c66565b60405180910390fd5b600180549050811061236d576040517f08c379a000000000000000000000000000000000000000000000000000000000815260040161236490614eb2565b60405180910390fd5b6001808111156123805761237f613d23565b5b6001828154811061239457612393614c86565b5b906000526020600020906004020160030160009054906101000a900460ff1660018111156123c5576123c4613d23565b5b1415612406576040517f08c379a00000000000000000000000000000000000000000000000000000000081526004016123fd90615527565b60405180910390fd5b600180828154811061241b5761241a614c86565b5b906000526020600020906004020160030160006101000a81548160ff0219169083600181111561244e5761244d613d23565b5b021790555050565b600084101561249a576040517f08c379a00000000000000000000000000000000000000000000000000000000081526004016124919061530b565b60405180910390fd5b6000600480549050116124e2576040517f08c379a00000000000000000000000000000000000000000000000000000000081526004016124d990614c66565b60405180910390fd5b6004805490508410612529576040517f08c379a000000000000000000000000000000000000000000000000000000000815260040161252090615377565b60405180910390fd5b6000600381111561253d5761253c613d23565b5b6004858154811061255157612550614c86565b5b906000526020600020906007020160050160149054906101000a900460ff16600381111561258257612581613d23565b5b146125c2576040517f08c379a00000000000000000000000000000000000000000000000000000000081526004016125b9906153e3565b60405180910390fd5b6001600485815481106125d8576125d7614c86565b5b906000526020600020906007020160050160146101000a81548160ff0219169083600381111561260b5761260a613d23565b5b021790555082826004868154811061262657612625614c86565b5b906000526020600020906007020160060191906126449291906139eb565b5060008190508073ffffffffffffffffffffffffffffffffffffffff1663a9059cbb6004878154811061267a57612679614c86565b5b906000526020600020906007020160050160009054906101000a900473ffffffffffffffffffffffffffffffffffffffff16600488815481106126c0576126bf614c86565b5b9060005260206000209060070201600301546040518363ffffffff1660e01b81526004016126ef929190615547565b6020604051808303816000875af115801561270e573d6000803e3d6000fd5b505050506040513d601f19601f820116820180604052508101906127329190615000565b505050505050565b60008060068054905011612783576040517f08c379a000000000000000000000000000000000000000000000000000000000815260040161277a906155bc565b60405180910390fd5b60068054905083106127ca576040517f08c379a00000000000000000000000000000000000000000000000000000000081526004016127c190615628565b60405180910390fd5b81600684815481106127df576127de614c86565b5b906000526020600020906006020160050160006101000a81548160ff0219169083600481111561281257612811613d23565b5b02179055506001905092915050565b606060006004805490501161286b576040517f08c379a000000000000000000000000000000000000000000000000000000000815260040161286290614c66565b60405180910390fd5b600060048054905067ffffffffffffffff81111561288c5761288b6147e2565b5b6040519080825280602002602001820160405280156128c557816020015b6128b261390a565b8152602001906001900390816128aa5790505b50905060005b600480549050811015612b6057600481815481106128ec576128eb614c86565b5b906000526020600020906007020160405180610100016040529081600082015481526020016001820154815260200160028201805461292a90614d5c565b80601f016020809104026020016040519081016040528092919081815260200182805461295690614d5c565b80156129a35780601f10612978576101008083540402835291602001916129a3565b820191906000526020600020905b81548152906001019060200180831161298657829003601f168201915b50505050508152602001600382015481526020016004820160009054906101000a900473ffffffffffffffffffffffffffffffffffffffff1673ffffffffffffffffffffffffffffffffffffffff1673ffffffffffffffffffffffffffffffffffffffff1681526020016005820160009054906101000a900473ffffffffffffffffffffffffffffffffffffffff1673ffffffffffffffffffffffffffffffffffffffff1673ffffffffffffffffffffffffffffffffffffffff1681526020016005820160149054906101000a900460ff166003811115612a8757612a86613d23565b5b6003811115612a9957612a98613d23565b5b8152602001600682018054612aad90614d5c565b80601f0160208091040260200160405190810160405280929190818152602001828054612ad990614d5c565b8015612b265780601f10612afb57610100808354040283529160200191612b26565b820191906000526020600020905b815481529060010190602001808311612b0957829003601f168201915b505050505081525050828281518110612b4257612b41614c86565b5b60200260200101819052508080612b5890614ce4565b9150506128cb565b508091505090565b60048181548110612b7857600080fd5b9060005260206000209060070201600091509050806000015490806001015490806002018054612ba790614d5c565b80601f0160208091040260200160405190810160405280929190818152602001828054612bd390614d5c565b8015612c205780601f10612bf557610100808354040283529160200191612c20565b820191906000526020600020905b815481529060010190602001808311612c0357829003601f168201915b5050505050908060030154908060040160009054906101000a900473ffffffffffffffffffffffffffffffffffffffff16908060050160009054906101000a900473ffffffffffffffffffffffffffffffffffffffff16908060050160149054906101000a900460ff1690806006018054612c9a90614d5c565b80601f0160208091040260200160405190810160405280929190818152602001828054612cc690614d5c565b8015612d135780601f10612ce857610100808354040283529160200191612d13565b820191906000526020600020905b815481529060010190602001808311612cf657829003601f168201915b5050505050905088565b600081604051602001612d309190615684565b6040516020818303038152906040528051906020012083604051602001612d579190615684565b6040516020818303038152906040528051906020012014905092915050565b600080600090505b6006805490508110156130275760068181548110612d9f57612d9e614c86565b5b906000526020600020906006020160010160009054906101000a900473ffffffffffffffffffffffffffffffffffffffff1673ffffffffffffffffffffffffffffffffffffffff168773ffffffffffffffffffffffffffffffffffffffff16148015612f025750612f0186868080601f016020809104026020016040519081016040528093929190818152602001838380828437600081840152601f19601f8201169050808301925050505050505060068381548110612e6257612e61614c86565b5b90600052602060002090600602016002018054612e7e90614d5c565b80601f0160208091040260200160405190810160405280929190818152602001828054612eaa90614d5c565b8015612ef75780601f10612ecc57610100808354040283529160200191612ef7565b820191906000526020600020905b815481529060010190602001808311612eda57829003601f168201915b5050505050612d1d565b5b8015613005575061300484848080601f016020809104026020016040519081016040528093929190818152602001838380828437600081840152601f19601f8201169050808301925050505050505060068381548110612f6557612f64614c86565b5b90600052602060002090600602016003018054612f8190614d5c565b80601f0160208091040260200160405190810160405280929190818152602001828054612fad90614d5c565b8015612ffa5780601f10612fcf57610100808354040283529160200191612ffa565b820191906000526020600020905b815481529060010190602001808311612fdd57829003601f168201915b5050505050612d1d565b5b1561301457600191505061302d565b808061301f90614ce4565b915050612d7e565b50600090505b95945050505050565b6060600060068054905011613080576040517f08c379a000000000000000000000000000000000000000000000000000000000815260040161307790614c66565b60405180910390fd5b600060068054905067ffffffffffffffff8111156130a1576130a06147e2565b5b6040519080825280602002602001820160405280156130da57816020015b6130c761398d565b8152602001906001900390816130bf5790505b50905060005b60068054905081101561339c576006818154811061310157613100614c86565b5b90600052602060002090600602016040518060c0016040529081600082015481526020016001820160009054906101000a900473ffffffffffffffffffffffffffffffffffffffff1673ffffffffffffffffffffffffffffffffffffffff1673ffffffffffffffffffffffffffffffffffffffff16815260200160028201805461318a90614d5c565b80601f01602080910402602001604051908101604052809291908181526020018280546131b690614d5c565b80156132035780601f106131d857610100808354040283529160200191613203565b820191906000526020600020905b8154815290600101906020018083116131e657829003601f168201915b5050505050815260200160038201805461321c90614d5c565b80601f016020809104026020016040519081016040528092919081815260200182805461324890614d5c565b80156132955780601f1061326a57610100808354040283529160200191613295565b820191906000526020600020905b81548152906001019060200180831161327857829003601f168201915b505050505081526020016004820180546132ae90614d5c565b80601f01602080910402602001604051908101604052809291908181526020018280546132da90614d5c565b80156133275780601f106132fc57610100808354040283529160200191613327565b820191906000526020600020905b81548152906001019060200180831161330a57829003601f168201915b505050505081526020016005820160009054906101000a900460ff16600481111561335557613354613d23565b5b600481111561336757613366613d23565b5b8152505082828151811061337e5761337d614c86565b5b6020026020010181905250808061339490614ce4565b9150506130e0565b508091505090565b600681815481106133b457600080fd5b90600052602060002090600602016000915090508060000154908060010160009054906101000a900473ffffffffffffffffffffffffffffffffffffffff169080600201805461340390614d5c565b80601f016020809104026020016040519081016040528092919081815260200182805461342f90614d5c565b801561347c5780601f106134515761010080835404028352916020019161347c565b820191906000526020600020905b81548152906001019060200180831161345f57829003601f168201915b50505050509080600301805461349190614d5c565b80601f01602080910402602001604051908101604052809291908181526020018280546134bd90614d5c565b801561350a5780601f106134df5761010080835404028352916020019161350a565b820191906000526020600020905b8154815290600101906020018083116134ed57829003601f168201915b50505050509080600401805461351f90614d5c565b80601f016020809104026020016040519081016040528092919081815260200182805461354b90614d5c565b80156135985780601f1061356d57610100808354040283529160200191613598565b820191906000526020600020905b81548152906001019060200180831161357b57829003601f168201915b5050505050908060050160009054906101000a900460ff16905086565b60008110156135f9576040517f08c379a00000000000000000000000000000000000000000000000000000000081526004016135f09061530b565b60405180910390fd5b600060048054905011613641576040517f08c379a000000000000000000000000000000000000000000000000000000000815260040161363890614c66565b60405180910390fd5b6004805490508110613688576040517f08c379a000000000000000000000000000000000000000000000000000000000815260040161367f90615377565b60405180910390fd5b6000600381111561369c5761369b613d23565b5b600482815481106136b0576136af614c86565b5b906000526020600020906007020160050160149054906101000a900460ff1660038111156136e1576136e0613d23565b5b1415613722576040517f08c379a0000000000000000000000000000000000000000000000000000000008152600401613719906156e7565b60405180910390fd5b60038081111561373557613734613d23565b5b6004828154811061374957613748614c86565b5b906000526020600020906007020160050160149054906101000a900460ff16600381111561377a57613779613d23565b5b14156137bb576040517f08c379a00000000000000000000000000000000000000000000000000000000081526004016137b290615753565b60405180910390fd5b6003600482815481106137d1576137d0614c86565b5b906000526020600020906007020160050160146101000a81548160ff0219169083600381111561380457613803613d23565b5b021790555050565b604051806080016040528060008152602001600073ffffffffffffffffffffffffffffffffffffffff16815260200160008152602001600081525090565b60405180608001604052806000815260200160608152602001600081526020016000600181111561387e5761387d613d23565b5b81525090565b82805461389090614d5c565b90600052602060002090601f0160209004810192826138b257600085556138f9565b82601f106138cb57805160ff19168380011785556138f9565b828001600101855582156138f9579182015b828111156138f85782518255916020019190600101906138dd565b5b5090506139069190613a71565b5090565b60405180610100016040528060008152602001600081526020016060815260200160008152602001600073ffffffffffffffffffffffffffffffffffffffff168152602001600073ffffffffffffffffffffffffffffffffffffffff168152602001600060038111156139805761397f613d23565b5b8152602001606081525090565b6040518060c0016040528060008152602001600073ffffffffffffffffffffffffffffffffffffffff168152602001606081526020016060815260200160608152602001600060048111156139e5576139e4613d23565b5b81525090565b8280546139f790614d5c565b90600052602060002090601f016020900481019282613a195760008555613a60565b82601f10613a3257803560ff1916838001178555613a60565b82800160010185558215613a60579182015b82811115613a5f578235825591602001919060010190613a44565b5b509050613a6d9190613a71565b5090565b5b80821115613a8a576000816000905550600101613a72565b5090565b600081519050919050565b600082825260208201905092915050565b6000819050602082019050919050565b6000819050919050565b613acd81613aba565b82525050565b600073ffffffffffffffffffffffffffffffffffffffff82169050919050565b6000613afe82613ad3565b9050919050565b613b0e81613af3565b82525050565b608082016000820151613b2a6000850182613ac4565b506020820151613b3d6020850182613b05565b506040820151613b506040850182613ac4565b506060820151613b636060850182613ac4565b50505050565b6000613b758383613b14565b60808301905092915050565b6000602082019050919050565b6000613b9982613a8e565b613ba38185613a99565b9350613bae83613aaa565b8060005b83811015613bdf578151613bc68882613b69565b9750613bd183613b81565b925050600181019050613bb2565b5085935050505092915050565b60006020820190508181036000830152613c068184613b8e565b905092915050565b6000604051905090565b600080fd5b600080fd5b613c2b81613aba565b8114613c3657600080fd5b50565b600081359050613c4881613c22565b92915050565b600060208284031215613c6457613c63613c18565b5b6000613c7284828501613c39565b91505092915050565b613c8481613aba565b82525050565b600081519050919050565b600082825260208201905092915050565b60005b83811015613cc4578082015181840152602081019050613ca9565b83811115613cd3576000848401525b50505050565b6000601f19601f8301169050919050565b6000613cf582613c8a565b613cff8185613c95565b9350613d0f818560208601613ca6565b613d1881613cd9565b840191505092915050565b7f4e487b7100000000000000000000000000000000000000000000000000000000600052602160045260246000fd5b60028110613d6357613d62613d23565b5b50565b6000819050613d7482613d52565b919050565b6000613d8482613d66565b9050919050565b613d9481613d79565b82525050565b6000608082019050613daf6000830187613c7b565b8181036020830152613dc18186613cea565b9050613dd06040830185613c7b565b613ddd6060830184613d8b565b95945050505050565b613def81613af3565b8114613dfa57600080fd5b50565b600081359050613e0c81613de6565b92915050565b60008060408385031215613e2957613e28613c18565b5b6000613e3785828601613c39565b9250506020613e4885828601613dfd565b9150509250929050565b60008115159050919050565b613e6781613e52565b82525050565b6000602082019050613e826000830184613e5e565b92915050565b600080600060608486031215613ea157613ea0613c18565b5b6000613eaf86828701613c39565b9350506020613ec086828701613dfd565b9250506040613ed186828701613dfd565b9150509250925092565b613ee481613af3565b82525050565b6000608082019050613eff6000830187613c7b565b613f0c6020830186613edb565b613f196040830185613c7b565b613f266060830184613c7b565b95945050505050565b600081519050919050565b600082825260208201905092915050565b6000819050602082019050919050565b600082825260208201905092915050565b6000613f7782613c8a565b613f818185613f5b565b9350613f91818560208601613ca6565b613f9a81613cd9565b840191505092915050565b613fae81613d79565b82525050565b6000608083016000830151613fcc6000860182613ac4565b5060208301518482036020860152613fe48282613f6c565b9150506040830151613ff96040860182613ac4565b50606083015161400c6060860182613fa5565b508091505092915050565b60006140238383613fb4565b905092915050565b6000602082019050919050565b600061404382613f2f565b61404d8185613f3a565b93508360208202850161405f85613f4b565b8060005b8581101561409b578484038952815161407c8582614017565b94506140878361402b565b925060208a01995050600181019050614063565b50829750879550505050505092915050565b600060208201905081810360008301526140c78184614038565b905092915050565b600080fd5b600080fd5b600080fd5b60008083601f8401126140f4576140f36140cf565b5b8235905067ffffffffffffffff811115614111576141106140d4565b5b60208301915083600182028301111561412d5761412c6140d9565b5b9250929050565b6000806000806000608086880312156141505761414f613c18565b5b600086013567ffffffffffffffff81111561416e5761416d613c1d565b5b61417a888289016140de565b9550955050602061418d88828901613c39565b935050604061419e88828901613dfd565b92505060606141af88828901613dfd565b9150509295509295909350565b6000602082840312156141d2576141d1613c18565b5b60006141e084828501613dfd565b91505092915050565b600081519050919050565b600082825260208201905092915050565b6000819050602082019050919050565b6004811061422657614225613d23565b5b50565b600081905061423782614215565b919050565b600061424782614229565b9050919050565b6142578161423c565b82525050565b6000610100830160008301516142766000860182613ac4565b5060208301516142896020860182613ac4565b50604083015184820360408601526142a18282613f6c565b91505060608301516142b66060860182613ac4565b5060808301516142c96080860182613b05565b5060a08301516142dc60a0860182613b05565b5060c08301516142ef60c086018261424e565b5060e083015184820360e08601526143078282613f6c565b9150508091505092915050565b6000614320838361425d565b905092915050565b6000602082019050919050565b6000614340826141e9565b61434a81856141f4565b93508360208202850161435c85614205565b8060005b8581101561439857848403895281516143798582614314565b945061438483614328565b925060208a01995050600181019050614360565b50829750879550505050505092915050565b600060208201905081810360008301526143c48184614335565b905092915050565b600581106143d957600080fd5b50565b6000813590506143eb816143cc565b92915050565b60008060008060008060008060a0898b03121561441157614410613c18565b5b600061441f8b828c01613dfd565b985050602089013567ffffffffffffffff8111156144405761443f613c1d565b5b61444c8b828c016140de565b9750975050604089013567ffffffffffffffff81111561446f5761446e613c1d565b5b61447b8b828c016140de565b9550955050606089013567ffffffffffffffff81111561449e5761449d613c1d565b5b6144aa8b828c016140de565b935093505060806144bd8b828c016143dc565b9150509295985092959890939650565b600581106144de576144dd613d23565b5b50565b60008190506144ef826144cd565b919050565b60006144ff826144e1565b9050919050565b61450f816144f4565b82525050565b600060c08301600083015161452d6000860182613ac4565b5060208301516145406020860182613b05565b50604083015184820360408601526145588282613f6c565b915050606083015184820360608601526145728282613f6c565b9150506080830151848203608086015261458c8282613f6c565b91505060a08301516145a160a0860182614506565b508091505092915050565b600060208201905081810360008301526145c68184614515565b905092915050565b6000806000604084860312156145e7576145e6613c18565b5b60006145f586828701613c39565b935050602084013567ffffffffffffffff81111561461657614615613c1d565b5b614622868287016140de565b92509250509250925092565b60008060006040848603121561464757614646613c18565b5b600084013567ffffffffffffffff81111561466557614664613c1d565b5b614671868287016140de565b9350935050602061468486828701613c39565b9150509250925092565b600080600080606085870312156146a8576146a7613c18565b5b60006146b687828801613c39565b945050602085013567ffffffffffffffff8111156146d7576146d6613c1d565b5b6146e3878288016140de565b935093505060406146f687828801613dfd565b91505092959194509250565b6000806040838503121561471957614718613c18565b5b600061472785828601613c39565b9250506020614738858286016143dc565b9150509250929050565b61474b8161423c565b82525050565b600061010082019050614767600083018b613c7b565b614774602083018a613c7b565b81810360408301526147868189613cea565b90506147956060830188613c7b565b6147a26080830187613edb565b6147af60a0830186613edb565b6147bc60c0830185614742565b81810360e08301526147ce8184613cea565b90509998505050505050505050565b600080fd5b7f4e487b7100000000000000000000000000000000000000000000000000000000600052604160045260246000fd5b61481a82613cd9565b810181811067ffffffffffffffff82111715614839576148386147e2565b5b80604052505050565b600061484c613c0e565b90506148588282614811565b919050565b600067ffffffffffffffff821115614878576148776147e2565b5b61488182613cd9565b9050602081019050919050565b82818337600083830152505050565b60006148b06148ab8461485d565b614842565b9050828152602081018484840111156148cc576148cb6147dd565b5b6148d784828561488e565b509392505050565b600082601f8301126148f4576148f36140cf565b5b813561490484826020860161489d565b91505092915050565b6000806040838503121561492457614923613c18565b5b600083013567ffffffffffffffff81111561494257614941613c1d565b5b61494e858286016148df565b925050602083013567ffffffffffffffff81111561496f5761496e613c1d565b5b61497b858286016148df565b9150509250929050565b6000806000806000606086880312156149a1576149a0613c18565b5b60006149af88828901613dfd565b955050602086013567ffffffffffffffff8111156149d0576149cf613c1d565b5b6149dc888289016140de565b9450945050604086013567ffffffffffffffff8111156149ff576149fe613c1d565b5b614a0b888289016140de565b92509250509295509295909350565b600081519050919050565b600082825260208201905092915050565b6000819050602082019050919050565b600060c083016000830151614a5e6000860182613ac4565b506020830151614a716020860182613b05565b5060408301518482036040860152614a898282613f6c565b91505060608301518482036060860152614aa38282613f6c565b91505060808301518482036080860152614abd8282613f6c565b91505060a0830151614ad260a0860182614506565b508091505092915050565b6000614ae98383614a46565b905092915050565b6000602082019050919050565b6000614b0982614a1a565b614b138185614a25565b935083602082028501614b2585614a36565b8060005b85811015614b615784840389528151614b428582614add565b9450614b4d83614af1565b925060208a01995050600181019050614b29565b50829750879550505050505092915050565b60006020820190508181036000830152614b8d8184614afe565b905092915050565b614b9e816144f4565b82525050565b600060c082019050614bb96000830189613c7b565b614bc66020830188613edb565b8181036040830152614bd88187613cea565b90508181036060830152614bec8186613cea565b90508181036080830152614c008185613cea565b9050614c0f60a0830184614b95565b979650505050505050565b7f456d70747920737461636b000000000000000000000000000000000000000000600082015250565b6000614c50600b83613c95565b9150614c5b82614c1a565b602082019050919050565b60006020820190508181036000830152614c7f81614c43565b9050919050565b7f4e487b7100000000000000000000000000000000000000000000000000000000600052603260045260246000fd5b7f4e487b7100000000000000000000000000000000000000000000000000000000600052601160045260246000fd5b6000614cef82613aba565b91507fffffffffffffffffffffffffffffffffffffffffffffffffffffffffffffffff821415614d2257614d21614cb5565b5b600182019050919050565b7f4e487b7100000000000000000000000000000000000000000000000000000000600052602260045260246000fd5b60006002820490506001821680614d7457607f821691505b60208210811415614d8857614d87614d2d565b5b50919050565b7f50726f6475637420646f6573206e6f7420657869737400000000000000000000600082015250565b6000614dc4601683613c95565b9150614dcf82614d8e565b602082019050919050565b60006020820190508181036000830152614df381614db7565b9050919050565b7f4e65676174697665204944000000000000000000000000000000000000000000600082015250565b6000614e30600b83613c95565b9150614e3b82614dfa565b602082019050919050565b60006020820190508181036000830152614e5f81614e23565b9050919050565b7f50726f64756374206f7574206f6620746865206c697374000000000000000000600082015250565b6000614e9c601783613c95565b9150614ea782614e66565b602082019050919050565b60006020820190508181036000830152614ecb81614e8f565b9050919050565b7f50726f64756374206973206e6f7420666f722073616c65000000000000000000600082015250565b6000614f08601783613c95565b9150614f1382614ed2565b602082019050919050565b60006020820190508181036000830152614f3781614efb565b9050919050565b6000819050919050565b6000614f63614f5e614f5984613ad3565b614f3e565b613ad3565b9050919050565b6000614f7582614f48565b9050919050565b6000614f8782614f6a565b9050919050565b614f9781614f7c565b82525050565b6000606082019050614fb26000830186614f8e565b614fbf6020830185614f8e565b614fcc6040830184613c7b565b949350505050565b614fdd81613e52565b8114614fe857600080fd5b50565b600081519050614ffa81614fd4565b92915050565b60006020828403121561501657615015613c18565b5b600061502484828501614feb565b91505092915050565b7f546f206c6f7720746f6b656e20616d6f756e7400000000000000000000000000600082015250565b6000615063601383613c95565b915061506e8261502d565b602082019050919050565b6000602082019050818103600083015261509281615056565b9050919050565b7f4578706c616e6174696f6e2063616e6e6f7420626520656d7074790000000000600082015250565b60006150cf601b83613c95565b91506150da82615099565b602082019050919050565b600060208201905081810360008301526150fe816150c2565b9050919050565b7f4e6f2073656e6420656c656d656e747300000000000000000000000000000000600082015250565b600061513b601083613c95565b915061514682615105565b602082019050919050565b6000602082019050818103600083015261516a8161512e565b9050919050565b600061517d8385613c95565b935061518a83858461488e565b61519383613cd9565b840190509392505050565b60006060820190506151b36000830188613edb565b81810360208301526151c6818688615171565b905081810360408301526151db818486615171565b90509695505050505050565b7f55736572206973206578697374696e6700000000000000000000000000000000600082015250565b600061521d601083613c95565b9150615228826151e7565b602082019050919050565b6000602082019050818103600083015261524c81615210565b9050919050565b7f4974656d20697320616c726561647920666f722073616c650000000000000000600082015250565b6000615289601883613c95565b915061529482615253565b602082019050919050565b600060208201905081810360008301526152b88161527c565b9050919050565b7f4e65676174697665206964000000000000000000000000000000000000000000600082015250565b60006152f5600b83613c95565b9150615300826152bf565b602082019050919050565b60006020820190508181036000830152615324816152e8565b9050919050565b7f496e646578206f7574206f662072616e67650000000000000000000000000000600082015250565b6000615361601283613c95565b915061536c8261532b565b602082019050919050565b6000602082019050818103600083015261539081615354565b9050919050565b7f5469636b657420697320636c6f73656400000000000000000000000000000000600082015250565b60006153cd601083613c95565b91506153d882615397565b602082019050919050565b600060208201905081810360008301526153fc816153c0565b9050919050565b7f50726963652063616e6e6f74206265206e656761746976650000000000000000600082015250565b6000615439601883613c95565b915061544482615403565b602082019050919050565b600060208201905081810360008301526154688161542c565b9050919050565b7f4e616d652063616e6e6f7420626520656d707479000000000000000000000000600082015250565b60006154a5601483613c95565b91506154b08261546f565b602082019050919050565b600060208201905081810360008301526154d481615498565b9050919050565b7f4974656d20697320616c72656164792061726368697665640000000000000000600082015250565b6000615511601883613c95565b915061551c826154db565b602082019050919050565b6000602082019050818103600083015261554081615504565b9050919050565b600060408201905061555c6000830185614f8e565b6155696020830184613c7b565b9392505050565b7f456d70747920537461636b000000000000000000000000000000000000000000600082015250565b60006155a6600b83613c95565b91506155b182615570565b602082019050919050565b600060208201905081810360008301526155d581615599565b9050919050565b7f4944206f7574206f66207468652073636f706500000000000000000000000000600082015250565b6000615612601383613c95565b915061561d826155dc565b602082019050919050565b6000602082019050818103600083015261564181615605565b9050919050565b600081905092915050565b600061565e82613c8a565b6156688185615648565b9350615678818560208601613ca6565b80840191505092915050565b60006156908284615653565b915081905092915050565b7f5469636b6574206973206f70656e000000000000000000000000000000000000600082015250565b60006156d1600e83613c95565b91506156dc8261569b565b602082019050919050565b60006020820190508181036000830152615700816156c4565b9050919050565b7f5469636b65742069732061726368697665640000000000000000000000000000600082015250565b600061573d601283613c95565b915061574882615707565b602082019050919050565b6000602082019050818103600083015261576c81615730565b905091905056fea26469706673582212205cde2ce11ff271dcf1a38645a3b138871dce511bfae1a7c7df25bd891c5e131764736f6c634300080c0033",
  "linkReferences": {},
  "deployedLinkReferences": {}
}