{
  "_format": "hh-sol-artifact-1",
  "contractName": "Kontrakt",
  "sourceName": "contracts/kontrakt.sol",
  "abi": [
    {
      "inputs": [
        {
          "internalType": "string",
          "name": "_name",
          "type": "string"
        },
        {
          "internalType": "uint256",
          "name": "_price",
          "type": "uint256"
        }
      ],
      "name": "AddItem",
      "outputs": [],
      "stateMutability": "nonpayable",
      "type": "function"
    },
    {
      "inputs": [
        {
          "internalType": "uint256",
          "name": "_productID",
          "type": "uint256"
        },
        {
          "internalType": "address",
          "name": "user",
          "type": "address"
        }
      ],
      "name": "AddToHistory",
      "outputs": [
        {
          "internalType": "bool",
          "name": "",
          "type": "bool"
        }
      ],
      "stateMutability": "nonpayable",
      "type": "function"
    },
    {
      "inputs": [
        {
          "internalType": "uint256",
          "name": "_id",
          "type": "uint256"
        }
      ],
      "name": "ArchiveItem",
      "outputs": [],
      "stateMutability": "nonpayable",
      "type": "function"
    },
    {
      "inputs": [],
      "name": "GetAll",
      "outputs": [
        {
          "components": [
            {
              "internalType": "uint256",
              "name": "id",
              "type": "uint256"
            },
            {
              "internalType": "uint256",
              "name": "NotificationData",
              "type": "uint256"
            },
            {
              "internalType": "string",
              "name": "Explenation",
              "type": "string"
            },
            {
              "internalType": "uint256",
              "name": "TokenAmount",
              "type": "uint256"
            },
            {
              "internalType": "address",
              "name": "SenderWallet",
              "type": "address"
            },
            {
              "internalType": "address",
              "name": "ReciverWallet",
              "type": "address"
            },
            {
              "internalType": "enum Notifications.statuses",
              "name": "Status",
              "type": "uint8"
            },
            {
              "internalType": "string",
              "name": "StatusExplanation",
              "type": "string"
            }
          ],
          "internalType": "struct Notifications.Notification[]",
          "name": "",
          "type": "tuple[]"
        }
      ],
      "stateMutability": "view",
      "type": "function"
    },
    {
      "inputs": [],
      "name": "GetAllHistory",
      "outputs": [
        {
          "components": [
            {
              "internalType": "uint256",
              "name": "id",
              "type": "uint256"
            },
            {
              "internalType": "address",
              "name": "buyer",
              "type": "address"
            },
            {
              "internalType": "uint256",
              "name": "data",
              "type": "uint256"
            },
            {
              "internalType": "uint256",
              "name": "item_ID",
              "type": "uint256"
            }
          ],
          "internalType": "struct marketplace.history[]",
          "name": "",
          "type": "tuple[]"
        }
      ],
      "stateMutability": "view",
      "type": "function"
    },
    {
      "inputs": [],
      "name": "GetAllItems",
      "outputs": [
        {
          "components": [
            {
              "internalType": "uint256",
              "name": "id",
              "type": "uint256"
            },
            {
              "internalType": "string",
              "name": "name",
              "type": "string"
            },
            {
              "internalType": "uint256",
              "name": "price",
              "type": "uint256"
            },
            {
              "internalType": "enum marketplace.item_status",
              "name": "status",
              "type": "uint8"
            }
          ],
          "internalType": "struct marketplace.items[]",
          "name": "",
          "type": "tuple[]"
        }
      ],
      "stateMutability": "view",
      "type": "function"
    },
    {
      "inputs": [],
      "name": "GetForSaleItems",
      "outputs": [
        {
          "components": [
            {
              "internalType": "uint256",
              "name": "id",
              "type": "uint256"
            },
            {
              "internalType": "string",
              "name": "name",
              "type": "string"
            },
            {
              "internalType": "uint256",
              "name": "price",
              "type": "uint256"
            },
            {
              "internalType": "enum marketplace.item_status",
              "name": "status",
              "type": "uint8"
            }
          ],
          "internalType": "struct marketplace.items[]",
          "name": "",
          "type": "tuple[]"
        }
      ],
      "stateMutability": "view",
      "type": "function"
    },
    {
      "inputs": [
        {
          "internalType": "address",
          "name": "_owner",
          "type": "address"
        }
      ],
      "name": "GetMy",
      "outputs": [
        {
          "components": [
            {
              "internalType": "uint256",
              "name": "id",
              "type": "uint256"
            },
            {
              "internalType": "uint256",
              "name": "NotificationData",
              "type": "uint256"
            },
            {
              "internalType": "string",
              "name": "Explenation",
              "type": "string"
            },
            {
              "internalType": "uint256",
              "name": "TokenAmount",
              "type": "uint256"
            },
            {
              "internalType": "address",
              "name": "SenderWallet",
              "type": "address"
            },
            {
              "internalType": "address",
              "name": "ReciverWallet",
              "type": "address"
            },
            {
              "internalType": "enum Notifications.statuses",
              "name": "Status",
              "type": "uint8"
            },
            {
              "internalType": "string",
              "name": "StatusExplanation",
              "type": "string"
            }
          ],
          "internalType": "struct Notifications.Notification[]",
          "name": "",
          "type": "tuple[]"
        }
      ],
      "stateMutability": "view",
      "type": "function"
    },
    {
      "inputs": [],
      "name": "GetSent",
      "outputs": [
        {
          "components": [
            {
              "internalType": "uint256",
              "name": "id",
              "type": "uint256"
            },
            {
              "internalType": "uint256",
              "name": "NotificationData",
              "type": "uint256"
            },
            {
              "internalType": "string",
              "name": "Explenation",
              "type": "string"
            },
            {
              "internalType": "uint256",
              "name": "TokenAmount",
              "type": "uint256"
            },
            {
              "internalType": "address",
              "name": "SenderWallet",
              "type": "address"
            },
            {
              "internalType": "address",
              "name": "ReciverWallet",
              "type": "address"
            },
            {
              "internalType": "enum Notifications.statuses",
              "name": "Status",
              "type": "uint8"
            },
            {
              "internalType": "string",
              "name": "StatusExplanation",
              "type": "string"
            }
          ],
          "internalType": "struct Notifications.Notification[]",
          "name": "",
          "type": "tuple[]"
        }
      ],
      "stateMutability": "view",
      "type": "function"
    },
    {
      "inputs": [
        {
          "internalType": "uint256",
          "name": "",
          "type": "uint256"
        }
      ],
      "name": "Items",
      "outputs": [
        {
          "internalType": "uint256",
          "name": "id",
          "type": "uint256"
        },
        {
          "internalType": "string",
          "name": "name",
          "type": "string"
        },
        {
          "internalType": "uint256",
          "name": "price",
          "type": "uint256"
        },
        {
          "internalType": "enum marketplace.item_status",
          "name": "status",
          "type": "uint8"
        }
      ],
      "stateMutability": "view",
      "type": "function"
    },
    {
      "inputs": [
        {
          "internalType": "string",
          "name": "_Explenation",
          "type": "string"
        },
        {
          "internalType": "uint256",
          "name": "_TokenAmount",
          "type": "uint256"
        },
        {
          "internalType": "address",
          "name": "_ReciverWallet",
          "type": "address"
        },
        {
          "internalType": "address",
          "name": "_SenderWallet",
          "type": "address"
        }
      ],
      "name": "NewTicket",
      "outputs": [],
      "stateMutability": "nonpayable",
      "type": "function"
    },
    {
      "inputs": [
        {
          "internalType": "uint256",
          "name": "_id",
          "type": "uint256"
        }
      ],
      "name": "SellItem",
      "outputs": [],
      "stateMutability": "nonpayable",
      "type": "function"
    },
    {
      "inputs": [
        {
          "internalType": "uint256",
          "name": "",
          "type": "uint256"
        }
      ],
      "name": "Table",
      "outputs": [
        {
          "internalType": "uint256",
          "name": "id",
          "type": "uint256"
        },
        {
          "internalType": "uint256",
          "name": "NotificationData",
          "type": "uint256"
        },
        {
          "internalType": "string",
          "name": "Explenation",
          "type": "string"
        },
        {
          "internalType": "uint256",
          "name": "TokenAmount",
          "type": "uint256"
        },
        {
          "internalType": "address",
          "name": "SenderWallet",
          "type": "address"
        },
        {
          "internalType": "address",
          "name": "ReciverWallet",
          "type": "address"
        },
        {
          "internalType": "enum Notifications.statuses",
          "name": "Status",
          "type": "uint8"
        },
        {
          "internalType": "string",
          "name": "StatusExplanation",
          "type": "string"
        }
      ],
      "stateMutability": "view",
      "type": "function"
    },
    {
      "inputs": [
        {
          "internalType": "address",
          "name": "moneyAddres",
          "type": "address"
        },
        {
          "internalType": "address",
          "name": "myAddress",
          "type": "address"
        }
      ],
      "name": "addMoney",
      "outputs": [],
      "stateMutability": "payable",
      "type": "function"
    },
    {
      "inputs": [
        {
          "internalType": "address",
          "name": "user",
          "type": "address"
        },
        {
          "internalType": "string",
          "name": "name",
          "type": "string"
        },
        {
          "internalType": "string",
          "name": "surname",
          "type": "string"
        },
        {
          "internalType": "string",
          "name": "email",
          "type": "string"
        },
        {
          "internalType": "enum AccountTypes.role",
          "name": "rank",
          "type": "uint8"
        }
      ],
      "name": "addUser",
      "outputs": [],
      "stateMutability": "nonpayable",
      "type": "function"
    },
    {
      "inputs": [
        {
          "internalType": "uint256",
          "name": "_id",
          "type": "uint256"
        },
        {
          "internalType": "string",
          "name": "_Explenation",
          "type": "string"
        },
        {
          "internalType": "address",
          "name": "moneyAddres",
          "type": "address"
        }
      ],
      "name": "approveTicket",
      "outputs": [],
      "stateMutability": "payable",
      "type": "function"
    },
    {
      "inputs": [
        {
          "internalType": "uint256",
          "name": "item_id",
          "type": "uint256"
        },
        {
          "internalType": "address",
          "name": "_buyer",
          "type": "address"
        }
      ],
      "name": "buyItem",
      "outputs": [],
      "stateMutability": "payable",
      "type": "function"
    },
    {
      "inputs": [
        {
          "internalType": "uint256",
          "name": "_id",
          "type": "uint256"
        },
        {
          "internalType": "enum AccountTypes.role",
          "name": "new_role",
          "type": "uint8"
        }
      ],
      "name": "change_role",
      "outputs": [
        {
          "internalType": "bool",
          "name": "",
          "type": "bool"
        }
      ],
      "stateMutability": "nonpayable",
      "type": "function"
    },
    {
      "inputs": [
        {
          "internalType": "string",
          "name": "a",
          "type": "string"
        },
        {
          "internalType": "string",
          "name": "b",
          "type": "string"
        }
      ],
      "name": "compareStrings",
      "outputs": [
        {
          "internalType": "bool",
          "name": "",
          "type": "bool"
        }
      ],
      "stateMutability": "pure",
      "type": "function"
    },
    {
      "inputs": [
        {
          "internalType": "address",
          "name": "user",
          "type": "address"
        },
        {
          "internalType": "string",
          "name": "name",
          "type": "string"
        },
        {
          "internalType": "string",
          "name": "surname",
          "type": "string"
        }
      ],
      "name": "findUser",
      "outputs": [
        {
          "internalType": "bool",
          "name": "",
          "type": "bool"
        }
      ],
      "stateMutability": "view",
      "type": "function"
    },
    {
      "inputs": [
        {
          "internalType": "address",
          "name": "wallet",
          "type": "address"
        }
      ],
      "name": "findWallet",
      "outputs": [
        {
          "internalType": "bool",
          "name": "",
          "type": "bool"
        }
      ],
      "stateMutability": "view",
      "type": "function"
    },
    {
      "inputs": [],
      "name": "getAllUsers",
      "outputs": [
        {
          "components": [
            {
              "internalType": "uint256",
              "name": "ID",
              "type": "uint256"
            },
            {
              "internalType": "address",
              "name": "user",
              "type": "address"
            },
            {
              "internalType": "string",
              "name": "Name",
              "type": "string"
            },
            {
              "internalType": "string",
              "name": "Surname",
              "type": "string"
            },
            {
              "internalType": "string",
              "name": "Email",
              "type": "string"
            },
            {
              "internalType": "enum AccountTypes.role",
              "name": "Rank",
              "type": "uint8"
            }
          ],
          "internalType": "struct AccountTypes.user_t[]",
          "name": "",
          "type": "tuple[]"
        }
      ],
      "stateMutability": "view",
      "type": "function"
    },
    {
      "inputs": [],
      "name": "getBalanceKontrakt",
      "outputs": [
        {
          "internalType": "uint256",
          "name": "",
          "type": "uint256"
        }
      ],
      "stateMutability": "view",
      "type": "function"
    },
    {
      "inputs": [
        {
          "internalType": "address",
          "name": "userAddress",
          "type": "address"
        }
      ],
      "name": "getUser",
      "outputs": [
        {
          "components": [
            {
              "internalType": "uint256",
              "name": "ID",
              "type": "uint256"
            },
            {
              "internalType": "address",
              "name": "user",
              "type": "address"
            },
            {
              "internalType": "string",
              "name": "Name",
              "type": "string"
            },
            {
              "internalType": "string",
              "name": "Surname",
              "type": "string"
            },
            {
              "internalType": "string",
              "name": "Email",
              "type": "string"
            },
            {
              "internalType": "enum AccountTypes.role",
              "name": "Rank",
              "type": "uint8"
            }
          ],
          "internalType": "struct AccountTypes.user_t",
          "name": "",
          "type": "tuple"
        }
      ],
      "stateMutability": "view",
      "type": "function"
    },
    {
      "inputs": [
        {
          "internalType": "uint256",
          "name": "",
          "type": "uint256"
        }
      ],
      "name": "historia",
      "outputs": [
        {
          "internalType": "uint256",
          "name": "id",
          "type": "uint256"
        },
        {
          "internalType": "address",
          "name": "buyer",
          "type": "address"
        },
        {
          "internalType": "uint256",
          "name": "data",
          "type": "uint256"
        },
        {
          "internalType": "uint256",
          "name": "item_ID",
          "type": "uint256"
        }
      ],
      "stateMutability": "view",
      "type": "function"
    },
    {
      "inputs": [
        {
          "internalType": "uint256",
          "name": "_id",
          "type": "uint256"
        },
        {
          "internalType": "string",
          "name": "_Explenation",
          "type": "string"
        }
      ],
      "name": "reject",
      "outputs": [],
      "stateMutability": "nonpayable",
      "type": "function"
    },
    {
      "inputs": [
        {
          "internalType": "uint256",
          "name": "",
          "type": "uint256"
        }
      ],
      "name": "workers",
      "outputs": [
        {
          "internalType": "uint256",
          "name": "ID",
          "type": "uint256"
        },
        {
          "internalType": "address",
          "name": "user",
          "type": "address"
        },
        {
          "internalType": "string",
          "name": "Name",
          "type": "string"
        },
        {
          "internalType": "string",
          "name": "Surname",
          "type": "string"
        },
        {
          "internalType": "string",
          "name": "Email",
          "type": "string"
        },
        {
          "internalType": "enum AccountTypes.role",
          "name": "Rank",
          "type": "uint8"
        }
      ],
      "stateMutability": "view",
      "type": "function"
    }
  ],
  "bytecode": "0x608060405230600760006101000a81548173ffffffffffffffffffffffffffffffffffffffff021916908373ffffffffffffffffffffffffffffffffffffffff16021790555034801561005157600080fd5b50615f4d80620000626000396000f3fe60806040526004361061019c5760003560e01c806375364049116100ec578063a5904d211161008a578063db2c916611610064578063db2c916614610606578063e2842d7914610631578063e951ec551461065c578063f1a22dc2146106875761019c565b8063a5904d2114610548578063bed34bba1461058c578063d286c5a8146105c95761019c565b806390303f16116100c657806390303f161461049b5780639b6d756a146104c4578063a03e1490146104e0578063a5440fa01461051d5761019c565b8063753640491461042b57806377b26af2146104545780637aa87c8c1461047f5761019c565b806355d96d4f116101595780636f77926b116101335780636f77926b1461036c57806371d68a97146103a957806371d6f213146103d25780637383d7091461040f5761019c565b806355d96d4f146102dd57806366590a601461031a5780636e538078146103435761019c565b8063040828b6146101a157806317b47cc4146101cc578063260cbf6e1461020c578063357b4b1314610249578063389271ed146102895780634064f254146102b4575b600080fd5b3480156101ad57600080fd5b506101b66106c9565b6040516101c39190614341565b60405180910390f35b3480156101d857600080fd5b506101f360048036038101906101ee91906143a3565b61085a565b60405161020394939291906144ef565b60405180910390f35b34801561021857600080fd5b50610233600480360381019061022e9190614567565b61092f565b60405161024091906145c2565b60405180910390f35b34801561025557600080fd5b50610270600480360381019061026b91906143a3565b610a5d565b60405161028094939291906145ec565b60405180910390f35b34801561029557600080fd5b5061029e610abd565b6040516102ab91906147af565b60405180910390f35b3480156102c057600080fd5b506102db60048036038101906102d69190614836565b610cbb565b005b3480156102e957600080fd5b5061030460048036038101906102ff91906148be565b610f6c565b6040516103119190614aac565b60405180910390f35b34801561032657600080fd5b50610341600480360381019061033c9190614af3565b61142d565b005b34801561034f57600080fd5b5061036a600480360381019061036591906143a3565b61176c565b005b34801561037857600080fd5b50610393600480360381019061038e91906148be565b6118e6565b6040516103a09190614cae565b60405180910390f35b3480156103b557600080fd5b506103d060048036038101906103cb9190614cd0565b611ce9565b005b3480156103de57600080fd5b506103f960048036038101906103f491906148be565b611f24565b60405161040691906145c2565b60405180910390f35b61042960048036038101906104249190614567565b611fda565b005b34801561043757600080fd5b50610452600480360381019061044d9190614d30565b6121cc565b005b34801561046057600080fd5b5061046961236d565b60405161047691906147af565b60405180910390f35b61049960048036038101906104949190614d90565b6126af565b005b3480156104a757600080fd5b506104c260048036038101906104bd91906143a3565b61273a565b005b6104de60048036038101906104d99190614dd0565b6128b2565b005b3480156104ec57600080fd5b5061050760048036038101906105029190614e44565b612b96565b60405161051491906145c2565b60405180910390f35b34801561052957600080fd5b50610532612c7d565b60405161053f9190614aac565b60405180910390f35b34801561055457600080fd5b5061056f600480360381019061056a91906143a3565b612fc4565b604051610583989796959493929190614e93565b60405180910390f35b34801561059857600080fd5b506105b360048036038101906105ae919061504f565b613179565b6040516105c091906145c2565b60405180910390f35b3480156105d557600080fd5b506105f060048036038101906105eb91906150c7565b6131d2565b6040516105fd91906145c2565b60405180910390f35b34801561061257600080fd5b5061061b613492565b604051610628919061515c565b60405180910390f35b34801561063d57600080fd5b50610646613557565b60405161065391906152d0565b60405180910390f35b34801561066857600080fd5b506106716138c5565b60405161067e9190614aac565b60405180910390f35b34801561069357600080fd5b506106ae60048036038101906106a991906143a3565b613d50565b6040516106c096959493929190615301565b60405180910390f35b6060600060028054905011610713576040517f08c379a000000000000000000000000000000000000000000000000000000000815260040161070a906153c3565b60405180910390fd5b600060028054905067ffffffffffffffff81111561073457610733614f24565b5b60405190808252806020026020018201604052801561076d57816020015b61075a613f61565b8152602001906001900390816107525790505b50905060005b6002805490508110156108525760028181548110610794576107936153e3565b5b9060005260206000209060040201604051806080016040529081600082015481526020016001820160009054906101000a900473ffffffffffffffffffffffffffffffffffffffff1673ffffffffffffffffffffffffffffffffffffffff1673ffffffffffffffffffffffffffffffffffffffff16815260200160028201548152602001600382015481525050828281518110610834576108336153e3565b5b6020026020010181905250808061084a90615441565b915050610773565b508091505090565b6001818154811061086a57600080fd5b9060005260206000209060040201600091509050806000015490806001018054610893906154b9565b80601f01602080910402602001604051908101604052809291908181526020018280546108bf906154b9565b801561090c5780601f106108e15761010080835404028352916020019161090c565b820191906000526020600020905b8154815290600101906020018083116108ef57829003601f168201915b5050505050908060020154908060030160009054906101000a900460ff16905084565b6000600180549050831115610979576040517f08c379a000000000000000000000000000000000000000000000000000000000815260040161097090615537565b60405180910390fd5b600060028054905090506000429050600260405180608001604052808481526020018673ffffffffffffffffffffffffffffffffffffffff1681526020018381526020018781525090806001815401808255809150506001900390600052602060002090600402016000909190919091506000820151816000015560208201518160010160006101000a81548173ffffffffffffffffffffffffffffffffffffffff021916908373ffffffffffffffffffffffffffffffffffffffff1602179055506040820151816002015560608201518160030155505060019250505092915050565b60028181548110610a6d57600080fd5b90600052602060002090600402016000915090508060000154908060010160009054906101000a900473ffffffffffffffffffffffffffffffffffffffff16908060020154908060030154905084565b6060600060018054905011610b07576040517f08c379a0000000000000000000000000000000000000000000000000000000008152600401610afe906153c3565b60405180910390fd5b600060018054905067ffffffffffffffff811115610b2857610b27614f24565b5b604051908082528060200260200182016040528015610b6157816020015b610b4e613f9f565b815260200190600190039081610b465790505b50905060005b600180549050811015610cb35760018181548110610b8857610b876153e3565b5b906000526020600020906004020160405180608001604052908160008201548152602001600182018054610bbb906154b9565b80601f0160208091040260200160405190810160405280929190818152602001828054610be7906154b9565b8015610c345780601f10610c0957610100808354040283529160200191610c34565b820191906000526020600020905b815481529060010190602001808311610c1757829003601f168201915b50505050508152602001600282015481526020016003820160009054906101000a900460ff166001811115610c6c57610c6b614478565b5b6001811115610c7e57610c7d614478565b5b81525050828281518110610c9557610c946153e3565b5b60200260200101819052508080610cab90615441565b915050610b67565b508091505090565b60008311610cfe576040517f08c379a0000000000000000000000000000000000000000000000000000000008152600401610cf5906155a3565b60405180910390fd5b6000858590501415610d45576040517f08c379a0000000000000000000000000000000000000000000000000000000008152600401610d3c9061560f565b60405180910390fd5b600060048054905090506000429050600460405180610100016040528084815260200183815260200189898080601f016020809104026020016040519081016040528093929190818152602001838380828437600081840152601f19601f8201169050808301925050505050505081526020018781526020018573ffffffffffffffffffffffffffffffffffffffff1681526020018673ffffffffffffffffffffffffffffffffffffffff16815260200160006002811115610e0a57610e09614478565b5b815260200160405180602001604052806000815250815250908060018154018082558091505060019003906000526020600020906007020160009091909190915060008201518160000155602082015181600101556040820151816002019080519060200190610e7b929190613fd9565b506060820151816003015560808201518160040160006101000a81548173ffffffffffffffffffffffffffffffffffffffff021916908373ffffffffffffffffffffffffffffffffffffffff16021790555060a08201518160050160006101000a81548173ffffffffffffffffffffffffffffffffffffffff021916908373ffffffffffffffffffffffffffffffffffffffff16021790555060c08201518160050160146101000a81548160ff02191690836002811115610f3f57610f3e614478565b5b021790555060e0820151816006019080519060200190610f60929190613fd9565b50505050505050505050565b6060600060048054905011610fb6576040517f08c379a0000000000000000000000000000000000000000000000000000000008152600401610fad906153c3565b60405180910390fd5b6000805b600480549050811015611062578373ffffffffffffffffffffffffffffffffffffffff1660048281548110610ff257610ff16153e3565b5b906000526020600020906007020160040160009054906101000a900473ffffffffffffffffffffffffffffffffffffffff1673ffffffffffffffffffffffffffffffffffffffff16141561104f57818061104b90615441565b9250505b808061105a90615441565b915050610fba565b50600081116110a6576040517f08c379a000000000000000000000000000000000000000000000000000000000815260040161109d9061567b565b60405180910390fd5b60008167ffffffffffffffff8111156110c2576110c1614f24565b5b6040519080825280602002602001820160405280156110fb57816020015b6110e861405f565b8152602001906001900390816110e05790505b5090506000915060005b600480549050811015611422578473ffffffffffffffffffffffffffffffffffffffff166004828154811061113d5761113c6153e3565b5b906000526020600020906007020160040160009054906101000a900473ffffffffffffffffffffffffffffffffffffffff1673ffffffffffffffffffffffffffffffffffffffff16141561140f576004818154811061119f5761119e6153e3565b5b90600052602060002090600702016040518061010001604052908160008201548152602001600182015481526020016002820180546111dd906154b9565b80601f0160208091040260200160405190810160405280929190818152602001828054611209906154b9565b80156112565780601f1061122b57610100808354040283529160200191611256565b820191906000526020600020905b81548152906001019060200180831161123957829003601f168201915b50505050508152602001600382015481526020016004820160009054906101000a900473ffffffffffffffffffffffffffffffffffffffff1673ffffffffffffffffffffffffffffffffffffffff1673ffffffffffffffffffffffffffffffffffffffff1681526020016005820160009054906101000a900473ffffffffffffffffffffffffffffffffffffffff1673ffffffffffffffffffffffffffffffffffffffff1673ffffffffffffffffffffffffffffffffffffffff1681526020016005820160149054906101000a900460ff16600281111561133a57611339614478565b5b600281111561134c5761134b614478565b5b8152602001600682018054611360906154b9565b80601f016020809104026020016040519081016040528092919081815260200182805461138c906154b9565b80156113d95780601f106113ae576101008083540402835291602001916113d9565b820191906000526020600020905b8154815290600101906020018083116113bc57829003601f168201915b5050505050815250508284815181106113f5576113f46153e3565b5b6020026020010181905250828061140b90615441565b9350505b808061141a90615441565b915050611105565b508092505050919050565b600015153073ffffffffffffffffffffffffffffffffffffffff1663d286c5a88a8a8a8a8a6040518663ffffffff1660e01b81526004016114729594939291906156c8565b602060405180830381865afa15801561148f573d6000803e3d6000fd5b505050506040513d601f19601f820116820180604052508101906114b3919061573d565b1515146114f5576040517f08c379a00000000000000000000000000000000000000000000000000000000081526004016114ec906157b6565b60405180910390fd5b6114fd6140e2565b60068054905081600001818152505088816020019073ffffffffffffffffffffffffffffffffffffffff16908173ffffffffffffffffffffffffffffffffffffffff168152505087878080601f016020809104026020016040519081016040528093929190818152602001838380828437600081840152601f19601f82011690508083019250505050505050816040018190525085858080601f016020809104026020016040519081016040528093929190818152602001838380828437600081840152601f19601f82011690508083019250505050505050816060018190525083838080601f016020809104026020016040519081016040528093929190818152602001838380828437600081840152601f19601f820116905080830192505050505050508160800181905250818160a00190600481111561164357611642614478565b5b9081600481111561165757611656614478565b5b8152505060068190806001815401808255809150506001900390600052602060002090600602016000909190919091506000820151816000015560208201518160010160006101000a81548173ffffffffffffffffffffffffffffffffffffffff021916908373ffffffffffffffffffffffffffffffffffffffff16021790555060408201518160020190805190602001906116f4929190613fd9565b506060820151816003019080519060200190611711929190613fd9565b50608082015181600401908051906020019061172e929190613fd9565b5060a08201518160050160006101000a81548160ff0219169083600481111561175a57611759614478565b5b02179055505050505050505050505050565b6000600180549050116117b4576040517f08c379a00000000000000000000000000000000000000000000000000000000081526004016117ab906153c3565b60405180910390fd5b60018054905081106117fb576040517f08c379a00000000000000000000000000000000000000000000000000000000081526004016117f290615822565b60405180910390fd5b6000600181111561180f5761180e614478565b5b60018281548110611823576118226153e3565b5b906000526020600020906004020160030160009054906101000a900460ff16600181111561185457611853614478565b5b1415611895576040517f08c379a000000000000000000000000000000000000000000000000000000000815260040161188c9061588e565b60405180910390fd5b6000600182815481106118ab576118aa6153e3565b5b906000526020600020906004020160030160006101000a81548160ff021916908360018111156118de576118dd614478565b5b021790555050565b6118ee6140e2565b600060068054905011611936576040517f08c379a000000000000000000000000000000000000000000000000000000000815260040161192d906153c3565b60405180910390fd5b60006040518060c0016040528060008152602001600073ffffffffffffffffffffffffffffffffffffffff1681526020016040518060200160405280600081525081526020016040518060200160405280600081525081526020016040518060200160405280600081525081526020016004808111156119b9576119b8614478565b5b815250905060005b600680549050811015611cdf578373ffffffffffffffffffffffffffffffffffffffff16600682815481106119f9576119f86153e3565b5b906000526020600020906006020160010160009054906101000a900473ffffffffffffffffffffffffffffffffffffffff1673ffffffffffffffffffffffffffffffffffffffff161415611ccc5760068181548110611a5b57611a5a6153e3565b5b90600052602060002090600602016040518060c0016040529081600082015481526020016001820160009054906101000a900473ffffffffffffffffffffffffffffffffffffffff1673ffffffffffffffffffffffffffffffffffffffff1673ffffffffffffffffffffffffffffffffffffffff168152602001600282018054611ae4906154b9565b80601f0160208091040260200160405190810160405280929190818152602001828054611b10906154b9565b8015611b5d5780601f10611b3257610100808354040283529160200191611b5d565b820191906000526020600020905b815481529060010190602001808311611b4057829003601f168201915b50505050508152602001600382018054611b76906154b9565b80601f0160208091040260200160405190810160405280929190818152602001828054611ba2906154b9565b8015611bef5780601f10611bc457610100808354040283529160200191611bef565b820191906000526020600020905b815481529060010190602001808311611bd257829003601f168201915b50505050508152602001600482018054611c08906154b9565b80601f0160208091040260200160405190810160405280929190818152602001828054611c34906154b9565b8015611c815780601f10611c5657610100808354040283529160200191611c81565b820191906000526020600020905b815481529060010190602001808311611c6457829003601f168201915b505050505081526020016005820160009054906101000a900460ff166004811115611caf57611cae614478565b5b6004811115611cc157611cc0614478565b5b815250509150611cdf565b8080611cd790615441565b9150506119c1565b5080915050919050565b6000831015611d2d576040517f08c379a0000000000000000000000000000000000000000000000000000000008152600401611d24906158fa565b60405180910390fd5b600060048054905011611d75576040517f08c379a0000000000000000000000000000000000000000000000000000000008152600401611d6c906153c3565b60405180910390fd5b6004805490508310611dbc576040517f08c379a0000000000000000000000000000000000000000000000000000000008152600401611db390615966565b60405180910390fd5b6000828290501415611e03576040517f08c379a0000000000000000000000000000000000000000000000000000000008152600401611dfa9061560f565b60405180910390fd5b60006002811115611e1757611e16614478565b5b60048481548110611e2b57611e2a6153e3565b5b906000526020600020906007020160050160149054906101000a900460ff166002811115611e5c57611e5b614478565b5b14611e9c576040517f08c379a0000000000000000000000000000000000000000000000000000000008152600401611e93906159d2565b60405180910390fd5b600260048481548110611eb257611eb16153e3565b5b906000526020600020906007020160050160146101000a81548160ff02191690836002811115611ee557611ee4614478565b5b0217905550818160048581548110611f0057611eff6153e3565b5b90600052602060002090600702016006019190611f1e929190614140565b50505050565b600080600090505b600680549050811015611fcf578273ffffffffffffffffffffffffffffffffffffffff1660068281548110611f6457611f636153e3565b5b906000526020600020906006020160010160009054906101000a900473ffffffffffffffffffffffffffffffffffffffff1673ffffffffffffffffffffffffffffffffffffffff161415611fbc576001915050611fd5565b8080611fc790615441565b915050611f2c565b50600090505b919050565b600082101561201e576040517f08c379a000000000000000000000000000000000000000000000000000000000815260040161201590615a3e565b60405180910390fd5b600060018054905011612066576040517f08c379a000000000000000000000000000000000000000000000000000000000815260040161205d906153c3565b60405180910390fd5b60018054905082106120ad576040517f08c379a00000000000000000000000000000000000000000000000000000000081526004016120a490615822565b60405180910390fd5b600060018111156120c1576120c0614478565b5b600183815481106120d5576120d46153e3565b5b906000526020600020906004020160030160009054906101000a900460ff16600181111561210657612105614478565b5b14612146576040517f08c379a000000000000000000000000000000000000000000000000000000000815260040161213d90615aaa565b60405180910390fd5b60008073ffffffffffffffffffffffffffffffffffffffff1663260cbf6e84846040518363ffffffff1660e01b8152600401612183929190615aca565b6020604051808303816000875af11580156121a2573d6000803e3d6000fd5b505050506040513d601f19601f820116820180604052508101906121c6919061573d565b50505050565b6000811015612210576040517f08c379a000000000000000000000000000000000000000000000000000000000815260040161220790615b3f565b60405180910390fd5b6000838390501415612257576040517f08c379a000000000000000000000000000000000000000000000000000000000815260040161224e90615bab565b60405180910390fd5b600060018054905090506001604051806080016040528083815260200186868080601f016020809104026020016040519081016040528093929190818152602001838380828437600081840152601f19601f820116905080830192505050505050508152602001848152602001600060018111156122d8576122d7614478565b5b815250908060018154018082558091505060019003906000526020600020906004020160009091909190915060008201518160000155602082015181600101908051906020019061232a929190613fd9565b506040820151816002015560608201518160030160006101000a81548160ff021916908360018111156123605761235f614478565b5b0217905550505050505050565b60606000600180549050116123b7576040517f08c379a00000000000000000000000000000000000000000000000000000000081526004016123ae906153c3565b60405180910390fd5b6000805b60018054905081101561244957600060018111156123dc576123db614478565b5b600182815481106123f0576123ef6153e3565b5b906000526020600020906004020160030160009054906101000a900460ff16600181111561242157612420614478565b5b141561243657818061243290615441565b9250505b808061244190615441565b9150506123bb565b506000811161248d576040517f08c379a000000000000000000000000000000000000000000000000000000000815260040161248490615c17565b60405180910390fd5b60008167ffffffffffffffff8111156124a9576124a8614f24565b5b6040519080825280602002602001820160405280156124e257816020015b6124cf613f9f565b8152602001906001900390816124c75790505b5090506000915060005b6001805490508110156126a6576000600181111561250d5761250c614478565b5b60018281548110612521576125206153e3565b5b906000526020600020906004020160030160009054906101000a900460ff16600181111561255257612551614478565b5b1415612693576001818154811061256c5761256b6153e3565b5b90600052602060002090600402016040518060800160405290816000820154815260200160018201805461259f906154b9565b80601f01602080910402602001604051908101604052809291908181526020018280546125cb906154b9565b80156126185780601f106125ed57610100808354040283529160200191612618565b820191906000526020600020905b8154815290600101906020018083116125fb57829003601f168201915b50505050508152602001600282015481526020016003820160009054906101000a900460ff1660018111156126505761264f614478565b5b600181111561266257612661614478565b5b81525050828481518110612679576126786153e3565b5b6020026020010181905250828061268f90615441565b9350505b808061269e90615441565b9150506124ec565b50809250505090565b60008290508073ffffffffffffffffffffffffffffffffffffffff1663a9059cbb836127106040518363ffffffff1660e01b81526004016126f1929190615cd1565b6020604051808303816000875af1158015612710573d6000803e3d6000fd5b505050506040513d601f19601f82011682018060405250810190612734919061573d565b50505050565b600060018054905011612782576040517f08c379a0000000000000000000000000000000000000000000000000000000008152600401612779906153c3565b60405180910390fd5b60018054905081106127c9576040517f08c379a00000000000000000000000000000000000000000000000000000000081526004016127c090615822565b60405180910390fd5b6001808111156127dc576127db614478565b5b600182815481106127f0576127ef6153e3565b5b906000526020600020906004020160030160009054906101000a900460ff16600181111561282157612820614478565b5b1415612862576040517f08c379a000000000000000000000000000000000000000000000000000000000815260040161285990615d46565b60405180910390fd5b6001808281548110612877576128766153e3565b5b906000526020600020906004020160030160006101000a81548160ff021916908360018111156128aa576128a9614478565b5b021790555050565b60008410156128f6576040517f08c379a00000000000000000000000000000000000000000000000000000000081526004016128ed906158fa565b60405180910390fd5b60006004805490501161293e576040517f08c379a0000000000000000000000000000000000000000000000000000000008152600401612935906153c3565b60405180910390fd5b6004805490508410612985576040517f08c379a000000000000000000000000000000000000000000000000000000000815260040161297c90615966565b60405180910390fd5b6000600281111561299957612998614478565b5b600485815481106129ad576129ac6153e3565b5b906000526020600020906007020160050160149054906101000a900460ff1660028111156129de576129dd614478565b5b14612a1e576040517f08c379a0000000000000000000000000000000000000000000000000000000008152600401612a15906159d2565b60405180910390fd5b600160048581548110612a3457612a336153e3565b5b906000526020600020906007020160050160146101000a81548160ff02191690836002811115612a6757612a66614478565b5b0217905550828260048681548110612a8257612a816153e3565b5b90600052602060002090600702016006019190612aa0929190614140565b5060008190508073ffffffffffffffffffffffffffffffffffffffff1663a9059cbb60048781548110612ad657612ad56153e3565b5b906000526020600020906007020160050160009054906101000a900473ffffffffffffffffffffffffffffffffffffffff1660048881548110612b1c57612b1b6153e3565b5b9060005260206000209060070201600301546040518363ffffffff1660e01b8152600401612b4b929190615d66565b6020604051808303816000875af1158015612b6a573d6000803e3d6000fd5b505050506040513d601f19601f82011682018060405250810190612b8e919061573d565b505050505050565b60008060068054905011612bdf576040517f08c379a0000000000000000000000000000000000000000000000000000000008152600401612bd690615ddb565b60405180910390fd5b6006805490508310612c26576040517f08c379a0000000000000000000000000000000000000000000000000000000008152600401612c1d90615e47565b60405180910390fd5b8160068481548110612c3b57612c3a6153e3565b5b906000526020600020906006020160050160006101000a81548160ff02191690836004811115612c6e57612c6d614478565b5b02179055506001905092915050565b6060600060048054905011612cc7576040517f08c379a0000000000000000000000000000000000000000000000000000000008152600401612cbe906153c3565b60405180910390fd5b600060048054905067ffffffffffffffff811115612ce857612ce7614f24565b5b604051908082528060200260200182016040528015612d2157816020015b612d0e61405f565b815260200190600190039081612d065790505b50905060005b600480549050811015612fbc5760048181548110612d4857612d476153e3565b5b9060005260206000209060070201604051806101000160405290816000820154815260200160018201548152602001600282018054612d86906154b9565b80601f0160208091040260200160405190810160405280929190818152602001828054612db2906154b9565b8015612dff5780601f10612dd457610100808354040283529160200191612dff565b820191906000526020600020905b815481529060010190602001808311612de257829003601f168201915b50505050508152602001600382015481526020016004820160009054906101000a900473ffffffffffffffffffffffffffffffffffffffff1673ffffffffffffffffffffffffffffffffffffffff1673ffffffffffffffffffffffffffffffffffffffff1681526020016005820160009054906101000a900473ffffffffffffffffffffffffffffffffffffffff1673ffffffffffffffffffffffffffffffffffffffff1673ffffffffffffffffffffffffffffffffffffffff1681526020016005820160149054906101000a900460ff166002811115612ee357612ee2614478565b5b6002811115612ef557612ef4614478565b5b8152602001600682018054612f09906154b9565b80601f0160208091040260200160405190810160405280929190818152602001828054612f35906154b9565b8015612f825780601f10612f5757610100808354040283529160200191612f82565b820191906000526020600020905b815481529060010190602001808311612f6557829003601f168201915b505050505081525050828281518110612f9e57612f9d6153e3565b5b60200260200101819052508080612fb490615441565b915050612d27565b508091505090565b60048181548110612fd457600080fd5b9060005260206000209060070201600091509050806000015490806001015490806002018054613003906154b9565b80601f016020809104026020016040519081016040528092919081815260200182805461302f906154b9565b801561307c5780601f106130515761010080835404028352916020019161307c565b820191906000526020600020905b81548152906001019060200180831161305f57829003601f168201915b5050505050908060030154908060040160009054906101000a900473ffffffffffffffffffffffffffffffffffffffff16908060050160009054906101000a900473ffffffffffffffffffffffffffffffffffffffff16908060050160149054906101000a900460ff16908060060180546130f6906154b9565b80601f0160208091040260200160405190810160405280929190818152602001828054613122906154b9565b801561316f5780601f106131445761010080835404028352916020019161316f565b820191906000526020600020905b81548152906001019060200180831161315257829003601f168201915b5050505050905088565b60008160405160200161318c9190615ea3565b60405160208183030381529060405280519060200120836040516020016131b39190615ea3565b6040516020818303038152906040528051906020012014905092915050565b600080600090505b60068054905081101561348357600681815481106131fb576131fa6153e3565b5b906000526020600020906006020160010160009054906101000a900473ffffffffffffffffffffffffffffffffffffffff1673ffffffffffffffffffffffffffffffffffffffff168773ffffffffffffffffffffffffffffffffffffffff1614801561335e575061335d86868080601f016020809104026020016040519081016040528093929190818152602001838380828437600081840152601f19601f82011690508083019250505050505050600683815481106132be576132bd6153e3565b5b906000526020600020906006020160020180546132da906154b9565b80601f0160208091040260200160405190810160405280929190818152602001828054613306906154b9565b80156133535780601f1061332857610100808354040283529160200191613353565b820191906000526020600020905b81548152906001019060200180831161333657829003601f168201915b5050505050613179565b5b8015613461575061346084848080601f016020809104026020016040519081016040528093929190818152602001838380828437600081840152601f19601f82011690508083019250505050505050600683815481106133c1576133c06153e3565b5b906000526020600020906006020160030180546133dd906154b9565b80601f0160208091040260200160405190810160405280929190818152602001828054613409906154b9565b80156134565780601f1061342b57610100808354040283529160200191613456565b820191906000526020600020905b81548152906001019060200180831161343957829003601f168201915b5050505050613179565b5b15613470576001915050613489565b808061347b90615441565b9150506131da565b50600090505b95945050505050565b6000600760009054906101000a900473ffffffffffffffffffffffffffffffffffffffff1673ffffffffffffffffffffffffffffffffffffffff166370a08231600760009054906101000a900473ffffffffffffffffffffffffffffffffffffffff166040518263ffffffff1660e01b81526004016135119190615eba565b602060405180830381865afa15801561352e573d6000803e3d6000fd5b505050506040513d601f19601f820116820180604052508101906135529190615eea565b905090565b60606000600680549050116135a1576040517f08c379a0000000000000000000000000000000000000000000000000000000008152600401613598906153c3565b60405180910390fd5b600060068054905067ffffffffffffffff8111156135c2576135c1614f24565b5b6040519080825280602002602001820160405280156135fb57816020015b6135e86140e2565b8152602001906001900390816135e05790505b50905060005b6006805490508110156138bd5760068181548110613622576136216153e3565b5b90600052602060002090600602016040518060c0016040529081600082015481526020016001820160009054906101000a900473ffffffffffffffffffffffffffffffffffffffff1673ffffffffffffffffffffffffffffffffffffffff1673ffffffffffffffffffffffffffffffffffffffff1681526020016002820180546136ab906154b9565b80601f01602080910402602001604051908101604052809291908181526020018280546136d7906154b9565b80156137245780601f106136f957610100808354040283529160200191613724565b820191906000526020600020905b81548152906001019060200180831161370757829003601f168201915b5050505050815260200160038201805461373d906154b9565b80601f0160208091040260200160405190810160405280929190818152602001828054613769906154b9565b80156137b65780601f1061378b576101008083540402835291602001916137b6565b820191906000526020600020905b81548152906001019060200180831161379957829003601f168201915b505050505081526020016004820180546137cf906154b9565b80601f01602080910402602001604051908101604052809291908181526020018280546137fb906154b9565b80156138485780601f1061381d57610100808354040283529160200191613848565b820191906000526020600020905b81548152906001019060200180831161382b57829003601f168201915b505050505081526020016005820160009054906101000a900460ff16600481111561387657613875614478565b5b600481111561388857613887614478565b5b8152505082828151811061389f5761389e6153e3565b5b602002602001018190525080806138b590615441565b915050613601565b508091505090565b606060006004805490501161390f576040517f08c379a0000000000000000000000000000000000000000000000000000000008152600401613906906153c3565b60405180910390fd5b6000805b6004805490508110156139a1576000600281111561393457613933614478565b5b60048281548110613948576139476153e3565b5b906000526020600020906007020160050160149054906101000a900460ff16600281111561397957613978614478565b5b141561398e57818061398a90615441565b9250505b808061399990615441565b915050613913565b50600081116139e5576040517f08c379a00000000000000000000000000000000000000000000000000000000081526004016139dc9061567b565b60405180910390fd5b60008167ffffffffffffffff811115613a0157613a00614f24565b5b604051908082528060200260200182016040528015613a3a57816020015b613a2761405f565b815260200190600190039081613a1f5790505b5090506000915060005b600480549050811015613d475760006002811115613a6557613a64614478565b5b60048281548110613a7957613a786153e3565b5b906000526020600020906007020160050160149054906101000a900460ff166002811115613aaa57613aa9614478565b5b1415613d345760048181548110613ac457613ac36153e3565b5b9060005260206000209060070201604051806101000160405290816000820154815260200160018201548152602001600282018054613b02906154b9565b80601f0160208091040260200160405190810160405280929190818152602001828054613b2e906154b9565b8015613b7b5780601f10613b5057610100808354040283529160200191613b7b565b820191906000526020600020905b815481529060010190602001808311613b5e57829003601f168201915b50505050508152602001600382015481526020016004820160009054906101000a900473ffffffffffffffffffffffffffffffffffffffff1673ffffffffffffffffffffffffffffffffffffffff1673ffffffffffffffffffffffffffffffffffffffff1681526020016005820160009054906101000a900473ffffffffffffffffffffffffffffffffffffffff1673ffffffffffffffffffffffffffffffffffffffff1673ffffffffffffffffffffffffffffffffffffffff1681526020016005820160149054906101000a900460ff166002811115613c5f57613c5e614478565b5b6002811115613c7157613c70614478565b5b8152602001600682018054613c85906154b9565b80601f0160208091040260200160405190810160405280929190818152602001828054613cb1906154b9565b8015613cfe5780601f10613cd357610100808354040283529160200191613cfe565b820191906000526020600020905b815481529060010190602001808311613ce157829003601f168201915b505050505081525050828481518110613d1a57613d196153e3565b5b60200260200101819052508280613d3090615441565b9350505b8080613d3f90615441565b915050613a44565b50809250505090565b60068181548110613d6057600080fd5b90600052602060002090600602016000915090508060000154908060010160009054906101000a900473ffffffffffffffffffffffffffffffffffffffff1690806002018054613daf906154b9565b80601f0160208091040260200160405190810160405280929190818152602001828054613ddb906154b9565b8015613e285780601f10613dfd57610100808354040283529160200191613e28565b820191906000526020600020905b815481529060010190602001808311613e0b57829003601f168201915b505050505090806003018054613e3d906154b9565b80601f0160208091040260200160405190810160405280929190818152602001828054613e69906154b9565b8015613eb65780601f10613e8b57610100808354040283529160200191613eb6565b820191906000526020600020905b815481529060010190602001808311613e9957829003601f168201915b505050505090806004018054613ecb906154b9565b80601f0160208091040260200160405190810160405280929190818152602001828054613ef7906154b9565b8015613f445780601f10613f1957610100808354040283529160200191613f44565b820191906000526020600020905b815481529060010190602001808311613f2757829003601f168201915b5050505050908060050160009054906101000a900460ff16905086565b604051806080016040528060008152602001600073ffffffffffffffffffffffffffffffffffffffff16815260200160008152602001600081525090565b604051806080016040528060008152602001606081526020016000815260200160006001811115613fd357613fd2614478565b5b81525090565b828054613fe5906154b9565b90600052602060002090601f016020900481019282614007576000855561404e565b82601f1061402057805160ff191683800117855561404e565b8280016001018555821561404e579182015b8281111561404d578251825591602001919060010190614032565b5b50905061405b91906141c6565b5090565b60405180610100016040528060008152602001600081526020016060815260200160008152602001600073ffffffffffffffffffffffffffffffffffffffff168152602001600073ffffffffffffffffffffffffffffffffffffffff168152602001600060028111156140d5576140d4614478565b5b8152602001606081525090565b6040518060c0016040528060008152602001600073ffffffffffffffffffffffffffffffffffffffff1681526020016060815260200160608152602001606081526020016000600481111561413a57614139614478565b5b81525090565b82805461414c906154b9565b90600052602060002090601f01602090048101928261416e57600085556141b5565b82601f1061418757803560ff19168380011785556141b5565b828001600101855582156141b5579182015b828111156141b4578235825591602001919060010190614199565b5b5090506141c291906141c6565b5090565b5b808211156141df5760008160009055506001016141c7565b5090565b600081519050919050565b600082825260208201905092915050565b6000819050602082019050919050565b6000819050919050565b6142228161420f565b82525050565b600073ffffffffffffffffffffffffffffffffffffffff82169050919050565b600061425382614228565b9050919050565b61426381614248565b82525050565b60808201600082015161427f6000850182614219565b506020820151614292602085018261425a565b5060408201516142a56040850182614219565b5060608201516142b86060850182614219565b50505050565b60006142ca8383614269565b60808301905092915050565b6000602082019050919050565b60006142ee826141e3565b6142f881856141ee565b9350614303836141ff565b8060005b8381101561433457815161431b88826142be565b9750614326836142d6565b925050600181019050614307565b5085935050505092915050565b6000602082019050818103600083015261435b81846142e3565b905092915050565b6000604051905090565b600080fd5b600080fd5b6143808161420f565b811461438b57600080fd5b50565b60008135905061439d81614377565b92915050565b6000602082840312156143b9576143b861436d565b5b60006143c78482850161438e565b91505092915050565b6143d98161420f565b82525050565b600081519050919050565b600082825260208201905092915050565b60005b838110156144195780820151818401526020810190506143fe565b83811115614428576000848401525b50505050565b6000601f19601f8301169050919050565b600061444a826143df565b61445481856143ea565b93506144648185602086016143fb565b61446d8161442e565b840191505092915050565b7f4e487b7100000000000000000000000000000000000000000000000000000000600052602160045260246000fd5b600281106144b8576144b7614478565b5b50565b60008190506144c9826144a7565b919050565b60006144d9826144bb565b9050919050565b6144e9816144ce565b82525050565b600060808201905061450460008301876143d0565b8181036020830152614516818661443f565b905061452560408301856143d0565b61453260608301846144e0565b95945050505050565b61454481614248565b811461454f57600080fd5b50565b6000813590506145618161453b565b92915050565b6000806040838503121561457e5761457d61436d565b5b600061458c8582860161438e565b925050602061459d85828601614552565b9150509250929050565b60008115159050919050565b6145bc816145a7565b82525050565b60006020820190506145d760008301846145b3565b92915050565b6145e681614248565b82525050565b600060808201905061460160008301876143d0565b61460e60208301866145dd565b61461b60408301856143d0565b61462860608301846143d0565b95945050505050565b600081519050919050565b600082825260208201905092915050565b6000819050602082019050919050565b600082825260208201905092915050565b6000614679826143df565b614683818561465d565b93506146938185602086016143fb565b61469c8161442e565b840191505092915050565b6146b0816144ce565b82525050565b60006080830160008301516146ce6000860182614219565b50602083015184820360208601526146e6828261466e565b91505060408301516146fb6040860182614219565b50606083015161470e60608601826146a7565b508091505092915050565b600061472583836146b6565b905092915050565b6000602082019050919050565b600061474582614631565b61474f818561463c565b9350836020820285016147618561464d565b8060005b8581101561479d578484038952815161477e8582614719565b94506147898361472d565b925060208a01995050600181019050614765565b50829750879550505050505092915050565b600060208201905081810360008301526147c9818461473a565b905092915050565b600080fd5b600080fd5b600080fd5b60008083601f8401126147f6576147f56147d1565b5b8235905067ffffffffffffffff811115614813576148126147d6565b5b60208301915083600182028301111561482f5761482e6147db565b5b9250929050565b6000806000806000608086880312156148525761485161436d565b5b600086013567ffffffffffffffff8111156148705761486f614372565b5b61487c888289016147e0565b9550955050602061488f8882890161438e565b93505060406148a088828901614552565b92505060606148b188828901614552565b9150509295509295909350565b6000602082840312156148d4576148d361436d565b5b60006148e284828501614552565b91505092915050565b600081519050919050565b600082825260208201905092915050565b6000819050602082019050919050565b6003811061492857614927614478565b5b50565b600081905061493982614917565b919050565b60006149498261492b565b9050919050565b6149598161493e565b82525050565b6000610100830160008301516149786000860182614219565b50602083015161498b6020860182614219565b50604083015184820360408601526149a3828261466e565b91505060608301516149b86060860182614219565b5060808301516149cb608086018261425a565b5060a08301516149de60a086018261425a565b5060c08301516149f160c0860182614950565b5060e083015184820360e0860152614a09828261466e565b9150508091505092915050565b6000614a22838361495f565b905092915050565b6000602082019050919050565b6000614a42826148eb565b614a4c81856148f6565b935083602082028501614a5e85614907565b8060005b85811015614a9a5784840389528151614a7b8582614a16565b9450614a8683614a2a565b925060208a01995050600181019050614a62565b50829750879550505050505092915050565b60006020820190508181036000830152614ac68184614a37565b905092915050565b60058110614adb57600080fd5b50565b600081359050614aed81614ace565b92915050565b60008060008060008060008060a0898b031215614b1357614b1261436d565b5b6000614b218b828c01614552565b985050602089013567ffffffffffffffff811115614b4257614b41614372565b5b614b4e8b828c016147e0565b9750975050604089013567ffffffffffffffff811115614b7157614b70614372565b5b614b7d8b828c016147e0565b9550955050606089013567ffffffffffffffff811115614ba057614b9f614372565b5b614bac8b828c016147e0565b93509350506080614bbf8b828c01614ade565b9150509295985092959890939650565b60058110614be057614bdf614478565b5b50565b6000819050614bf182614bcf565b919050565b6000614c0182614be3565b9050919050565b614c1181614bf6565b82525050565b600060c083016000830151614c2f6000860182614219565b506020830151614c42602086018261425a565b5060408301518482036040860152614c5a828261466e565b91505060608301518482036060860152614c74828261466e565b91505060808301518482036080860152614c8e828261466e565b91505060a0830151614ca360a0860182614c08565b508091505092915050565b60006020820190508181036000830152614cc88184614c17565b905092915050565b600080600060408486031215614ce957614ce861436d565b5b6000614cf78682870161438e565b935050602084013567ffffffffffffffff811115614d1857614d17614372565b5b614d24868287016147e0565b92509250509250925092565b600080600060408486031215614d4957614d4861436d565b5b600084013567ffffffffffffffff811115614d6757614d66614372565b5b614d73868287016147e0565b93509350506020614d868682870161438e565b9150509250925092565b60008060408385031215614da757614da661436d565b5b6000614db585828601614552565b9250506020614dc685828601614552565b9150509250929050565b60008060008060608587031215614dea57614de961436d565b5b6000614df88782880161438e565b945050602085013567ffffffffffffffff811115614e1957614e18614372565b5b614e25878288016147e0565b93509350506040614e3887828801614552565b91505092959194509250565b60008060408385031215614e5b57614e5a61436d565b5b6000614e698582860161438e565b9250506020614e7a85828601614ade565b9150509250929050565b614e8d8161493e565b82525050565b600061010082019050614ea9600083018b6143d0565b614eb6602083018a6143d0565b8181036040830152614ec8818961443f565b9050614ed760608301886143d0565b614ee460808301876145dd565b614ef160a08301866145dd565b614efe60c0830185614e84565b81810360e0830152614f10818461443f565b90509998505050505050505050565b600080fd5b7f4e487b7100000000000000000000000000000000000000000000000000000000600052604160045260246000fd5b614f5c8261442e565b810181811067ffffffffffffffff82111715614f7b57614f7a614f24565b5b80604052505050565b6000614f8e614363565b9050614f9a8282614f53565b919050565b600067ffffffffffffffff821115614fba57614fb9614f24565b5b614fc38261442e565b9050602081019050919050565b82818337600083830152505050565b6000614ff2614fed84614f9f565b614f84565b90508281526020810184848401111561500e5761500d614f1f565b5b615019848285614fd0565b509392505050565b600082601f830112615036576150356147d1565b5b8135615046848260208601614fdf565b91505092915050565b600080604083850312156150665761506561436d565b5b600083013567ffffffffffffffff81111561508457615083614372565b5b61509085828601615021565b925050602083013567ffffffffffffffff8111156150b1576150b0614372565b5b6150bd85828601615021565b9150509250929050565b6000806000806000606086880312156150e3576150e261436d565b5b60006150f188828901614552565b955050602086013567ffffffffffffffff81111561511257615111614372565b5b61511e888289016147e0565b9450945050604086013567ffffffffffffffff81111561514157615140614372565b5b61514d888289016147e0565b92509250509295509295909350565b600060208201905061517160008301846143d0565b92915050565b600081519050919050565b600082825260208201905092915050565b6000819050602082019050919050565b600060c0830160008301516151bb6000860182614219565b5060208301516151ce602086018261425a565b50604083015184820360408601526151e6828261466e565b91505060608301518482036060860152615200828261466e565b9150506080830151848203608086015261521a828261466e565b91505060a083015161522f60a0860182614c08565b508091505092915050565b600061524683836151a3565b905092915050565b6000602082019050919050565b600061526682615177565b6152708185615182565b93508360208202850161528285615193565b8060005b858110156152be578484038952815161529f858261523a565b94506152aa8361524e565b925060208a01995050600181019050615286565b50829750879550505050505092915050565b600060208201905081810360008301526152ea818461525b565b905092915050565b6152fb81614bf6565b82525050565b600060c08201905061531660008301896143d0565b61532360208301886145dd565b8181036040830152615335818761443f565b90508181036060830152615349818661443f565b9050818103608083015261535d818561443f565b905061536c60a08301846152f2565b979650505050505050565b7f456d70747920737461636b000000000000000000000000000000000000000000600082015250565b60006153ad600b836143ea565b91506153b882615377565b602082019050919050565b600060208201905081810360008301526153dc816153a0565b9050919050565b7f4e487b7100000000000000000000000000000000000000000000000000000000600052603260045260246000fd5b7f4e487b7100000000000000000000000000000000000000000000000000000000600052601160045260246000fd5b600061544c8261420f565b91507fffffffffffffffffffffffffffffffffffffffffffffffffffffffffffffffff82141561547f5761547e615412565b5b600182019050919050565b7f4e487b7100000000000000000000000000000000000000000000000000000000600052602260045260246000fd5b600060028204905060018216806154d157607f821691505b602082108114156154e5576154e461548a565b5b50919050565b7f50726f6475637420646f6573206e6f7420657869737400000000000000000000600082015250565b60006155216016836143ea565b915061552c826154eb565b602082019050919050565b6000602082019050818103600083015261555081615514565b9050919050565b7f546f206c6f7720746f6b656e20616d6f756e7400000000000000000000000000600082015250565b600061558d6013836143ea565b915061559882615557565b602082019050919050565b600060208201905081810360008301526155bc81615580565b9050919050565b7f4578706c616e6174696f6e2063616e6e6f7420626520656d7074790000000000600082015250565b60006155f9601b836143ea565b9150615604826155c3565b602082019050919050565b60006020820190508181036000830152615628816155ec565b9050919050565b7f4e6f2073656e6420656c656d656e747300000000000000000000000000000000600082015250565b60006156656010836143ea565b91506156708261562f565b602082019050919050565b6000602082019050818103600083015261569481615658565b9050919050565b60006156a783856143ea565b93506156b4838584614fd0565b6156bd8361442e565b840190509392505050565b60006060820190506156dd60008301886145dd565b81810360208301526156f081868861569b565b9050818103604083015261570581848661569b565b90509695505050505050565b61571a816145a7565b811461572557600080fd5b50565b60008151905061573781615711565b92915050565b6000602082840312156157535761575261436d565b5b600061576184828501615728565b91505092915050565b7f55736572206973206578697374696e6700000000000000000000000000000000600082015250565b60006157a06010836143ea565b91506157ab8261576a565b602082019050919050565b600060208201905081810360008301526157cf81615793565b9050919050565b7f50726f64756374206f7574206f6620746865206c697374000000000000000000600082015250565b600061580c6017836143ea565b9150615817826157d6565b602082019050919050565b6000602082019050818103600083015261583b816157ff565b9050919050565b7f4974656d20697320616c726561647920666f722073616c650000000000000000600082015250565b60006158786018836143ea565b915061588382615842565b602082019050919050565b600060208201905081810360008301526158a78161586b565b9050919050565b7f4e65676174697665206964000000000000000000000000000000000000000000600082015250565b60006158e4600b836143ea565b91506158ef826158ae565b602082019050919050565b60006020820190508181036000830152615913816158d7565b9050919050565b7f496e646578206f7574206f662072616e67650000000000000000000000000000600082015250565b60006159506012836143ea565b915061595b8261591a565b602082019050919050565b6000602082019050818103600083015261597f81615943565b9050919050565b7f5469636b657420697320636c6f73656400000000000000000000000000000000600082015250565b60006159bc6010836143ea565b91506159c782615986565b602082019050919050565b600060208201905081810360008301526159eb816159af565b9050919050565b7f4e65676174697665204944000000000000000000000000000000000000000000600082015250565b6000615a28600b836143ea565b9150615a33826159f2565b602082019050919050565b60006020820190508181036000830152615a5781615a1b565b9050919050565b7f50726f64756374206973206e6f7420666f722073616c65000000000000000000600082015250565b6000615a946017836143ea565b9150615a9f82615a5e565b602082019050919050565b60006020820190508181036000830152615ac381615a87565b9050919050565b6000604082019050615adf60008301856143d0565b615aec60208301846145dd565b9392505050565b7f50726963652063616e6e6f74206265206e656761746976650000000000000000600082015250565b6000615b296018836143ea565b9150615b3482615af3565b602082019050919050565b60006020820190508181036000830152615b5881615b1c565b9050919050565b7f4e616d652063616e6e6f7420626520656d707479000000000000000000000000600082015250565b6000615b956014836143ea565b9150615ba082615b5f565b602082019050919050565b60006020820190508181036000830152615bc481615b88565b9050919050565b7f4e6f206974656d7320666f722073616c65000000000000000000000000000000600082015250565b6000615c016011836143ea565b9150615c0c82615bcb565b602082019050919050565b60006020820190508181036000830152615c3081615bf4565b9050919050565b6000819050919050565b6000615c5c615c57615c5284614228565b615c37565b614228565b9050919050565b6000615c6e82615c41565b9050919050565b6000615c8082615c63565b9050919050565b615c9081615c75565b82525050565b6000819050919050565b6000615cbb615cb6615cb184615c96565b615c37565b61420f565b9050919050565b615ccb81615ca0565b82525050565b6000604082019050615ce66000830185615c87565b615cf36020830184615cc2565b9392505050565b7f4974656d20697320616c72656164792061726368697665640000000000000000600082015250565b6000615d306018836143ea565b9150615d3b82615cfa565b602082019050919050565b60006020820190508181036000830152615d5f81615d23565b9050919050565b6000604082019050615d7b6000830185615c87565b615d8860208301846143d0565b9392505050565b7f456d70747920537461636b000000000000000000000000000000000000000000600082015250565b6000615dc5600b836143ea565b9150615dd082615d8f565b602082019050919050565b60006020820190508181036000830152615df481615db8565b9050919050565b7f4944206f7574206f66207468652073636f706500000000000000000000000000600082015250565b6000615e316013836143ea565b9150615e3c82615dfb565b602082019050919050565b60006020820190508181036000830152615e6081615e24565b9050919050565b600081905092915050565b6000615e7d826143df565b615e878185615e67565b9350615e978185602086016143fb565b80840191505092915050565b6000615eaf8284615e72565b915081905092915050565b6000602082019050615ecf60008301846145dd565b92915050565b600081519050615ee481614377565b92915050565b600060208284031215615f0057615eff61436d565b5b6000615f0e84828501615ed5565b9150509291505056fea26469706673582212202dd528a8d8e4eacd50701e800e381542c309b0bff747c32a39c36ff5cb0a577b64736f6c634300080c0033",
  "linkReferences": {},
  "deployedLinkReferences": {}
}