{
  "_format": "hh-sol-artifact-1",
  "contractName": "Kontrakt",
  "sourceName": "contracts/kontrakt.sol",
  "abi": [
    {
      "inputs": [
        {
          "internalType": "string",
          "name": "_name",
          "type": "string"
        },
        {
          "internalType": "uint256",
          "name": "_price",
          "type": "uint256"
        }
      ],
      "name": "AddItem",
      "outputs": [],
      "stateMutability": "nonpayable",
      "type": "function"
    },
    {
      "inputs": [
        {
          "internalType": "uint256",
          "name": "_productID",
          "type": "uint256"
        },
        {
          "internalType": "address",
          "name": "user",
          "type": "address"
        }
      ],
      "name": "AddToHistory",
      "outputs": [
        {
          "internalType": "bool",
          "name": "",
          "type": "bool"
        }
      ],
      "stateMutability": "nonpayable",
      "type": "function"
    },
    {
      "inputs": [
        {
          "internalType": "uint256",
          "name": "_id",
          "type": "uint256"
        }
      ],
      "name": "ArchiveItem",
      "outputs": [],
      "stateMutability": "nonpayable",
      "type": "function"
    },
    {
      "inputs": [],
      "name": "GetAll",
      "outputs": [
        {
          "components": [
            {
              "internalType": "uint256",
              "name": "id",
              "type": "uint256"
            },
            {
              "internalType": "uint256",
              "name": "NotificationData",
              "type": "uint256"
            },
            {
              "internalType": "string",
              "name": "Explenation",
              "type": "string"
            },
            {
              "internalType": "uint256",
              "name": "TokenAmount",
              "type": "uint256"
            },
            {
              "internalType": "address",
              "name": "SenderWallet",
              "type": "address"
            },
            {
              "internalType": "address",
              "name": "ReciverWallet",
              "type": "address"
            },
            {
              "internalType": "enum Notifications.statuses",
              "name": "Status",
              "type": "uint8"
            },
            {
              "internalType": "string",
              "name": "StatusExplanation",
              "type": "string"
            }
          ],
          "internalType": "struct Notifications.Notification[]",
          "name": "",
          "type": "tuple[]"
        }
      ],
      "stateMutability": "view",
      "type": "function"
    },
    {
      "inputs": [],
      "name": "GetAllHistory",
      "outputs": [
        {
          "components": [
            {
              "internalType": "uint256",
              "name": "id",
              "type": "uint256"
            },
            {
              "internalType": "address",
              "name": "buyer",
              "type": "address"
            },
            {
              "internalType": "uint256",
              "name": "data",
              "type": "uint256"
            },
            {
              "internalType": "uint256",
              "name": "item_ID",
              "type": "uint256"
            }
          ],
          "internalType": "struct marketplace.history[]",
          "name": "",
          "type": "tuple[]"
        }
      ],
      "stateMutability": "view",
      "type": "function"
    },
    {
      "inputs": [],
      "name": "GetAllItems",
      "outputs": [
        {
          "components": [
            {
              "internalType": "uint256",
              "name": "id",
              "type": "uint256"
            },
            {
              "internalType": "string",
              "name": "name",
              "type": "string"
            },
            {
              "internalType": "uint256",
              "name": "price",
              "type": "uint256"
            },
            {
              "internalType": "enum marketplace.item_status",
              "name": "status",
              "type": "uint8"
            }
          ],
          "internalType": "struct marketplace.items[]",
          "name": "",
          "type": "tuple[]"
        }
      ],
      "stateMutability": "view",
      "type": "function"
    },
    {
      "inputs": [
        {
          "internalType": "address",
          "name": "_owner",
          "type": "address"
        }
      ],
      "name": "GetMy",
      "outputs": [
        {
          "components": [
            {
              "internalType": "uint256",
              "name": "id",
              "type": "uint256"
            },
            {
              "internalType": "uint256",
              "name": "NotificationData",
              "type": "uint256"
            },
            {
              "internalType": "string",
              "name": "Explenation",
              "type": "string"
            },
            {
              "internalType": "uint256",
              "name": "TokenAmount",
              "type": "uint256"
            },
            {
              "internalType": "address",
              "name": "SenderWallet",
              "type": "address"
            },
            {
              "internalType": "address",
              "name": "ReciverWallet",
              "type": "address"
            },
            {
              "internalType": "enum Notifications.statuses",
              "name": "Status",
              "type": "uint8"
            },
            {
              "internalType": "string",
              "name": "StatusExplanation",
              "type": "string"
            }
          ],
          "internalType": "struct Notifications.Notification[]",
          "name": "",
          "type": "tuple[]"
        }
      ],
      "stateMutability": "view",
      "type": "function"
    },
    {
      "inputs": [
        {
          "internalType": "uint256",
          "name": "",
          "type": "uint256"
        }
      ],
      "name": "Items",
      "outputs": [
        {
          "internalType": "uint256",
          "name": "id",
          "type": "uint256"
        },
        {
          "internalType": "string",
          "name": "name",
          "type": "string"
        },
        {
          "internalType": "uint256",
          "name": "price",
          "type": "uint256"
        },
        {
          "internalType": "enum marketplace.item_status",
          "name": "status",
          "type": "uint8"
        }
      ],
      "stateMutability": "view",
      "type": "function"
    },
    {
      "inputs": [
        {
          "internalType": "string",
          "name": "_Explenation",
          "type": "string"
        },
        {
          "internalType": "uint256",
          "name": "_TokenAmount",
          "type": "uint256"
        },
        {
          "internalType": "address",
          "name": "_ReciverWallet",
          "type": "address"
        },
        {
          "internalType": "address",
          "name": "_SenderWallet",
          "type": "address"
        }
      ],
      "name": "NewTicket",
      "outputs": [],
      "stateMutability": "nonpayable",
      "type": "function"
    },
    {
      "inputs": [
        {
          "internalType": "uint256",
          "name": "_id",
          "type": "uint256"
        }
      ],
      "name": "SellItem",
      "outputs": [],
      "stateMutability": "nonpayable",
      "type": "function"
    },
    {
      "inputs": [
        {
          "internalType": "uint256",
          "name": "",
          "type": "uint256"
        }
      ],
      "name": "Table",
      "outputs": [
        {
          "internalType": "uint256",
          "name": "id",
          "type": "uint256"
        },
        {
          "internalType": "uint256",
          "name": "NotificationData",
          "type": "uint256"
        },
        {
          "internalType": "string",
          "name": "Explenation",
          "type": "string"
        },
        {
          "internalType": "uint256",
          "name": "TokenAmount",
          "type": "uint256"
        },
        {
          "internalType": "address",
          "name": "SenderWallet",
          "type": "address"
        },
        {
          "internalType": "address",
          "name": "ReciverWallet",
          "type": "address"
        },
        {
          "internalType": "enum Notifications.statuses",
          "name": "Status",
          "type": "uint8"
        },
        {
          "internalType": "string",
          "name": "StatusExplanation",
          "type": "string"
        }
      ],
      "stateMutability": "view",
      "type": "function"
    },
    {
      "inputs": [
        {
          "internalType": "address",
          "name": "user",
          "type": "address"
        },
        {
          "internalType": "string",
          "name": "name",
          "type": "string"
        },
        {
          "internalType": "string",
          "name": "surname",
          "type": "string"
        },
        {
          "internalType": "string",
          "name": "email",
          "type": "string"
        },
        {
          "internalType": "enum AccountTypes.role",
          "name": "rank",
          "type": "uint8"
        }
      ],
      "name": "addUser",
      "outputs": [],
      "stateMutability": "nonpayable",
      "type": "function"
    },
    {
      "inputs": [
        {
          "internalType": "uint256",
          "name": "_id",
          "type": "uint256"
        },
        {
          "internalType": "string",
          "name": "_Explenation",
          "type": "string"
        },
        {
          "internalType": "address",
          "name": "moneyAddres",
          "type": "address"
        }
      ],
      "name": "approveTicket",
      "outputs": [],
      "stateMutability": "payable",
      "type": "function"
    },
    {
      "inputs": [
        {
          "internalType": "uint256",
          "name": "_id",
          "type": "uint256"
        }
      ],
      "name": "archiveTicket",
      "outputs": [],
      "stateMutability": "nonpayable",
      "type": "function"
    },
    {
      "inputs": [
        {
          "internalType": "uint256",
          "name": "item_id",
          "type": "uint256"
        },
        {
          "internalType": "address",
          "name": "_buyer",
          "type": "address"
        }
      ],
      "name": "buyItem",
      "outputs": [],
      "stateMutability": "payable",
      "type": "function"
    },
    {
      "inputs": [
        {
          "internalType": "uint256",
          "name": "_id",
          "type": "uint256"
        },
        {
          "internalType": "enum AccountTypes.role",
          "name": "new_role",
          "type": "uint8"
        }
      ],
      "name": "change_role",
      "outputs": [
        {
          "internalType": "bool",
          "name": "",
          "type": "bool"
        }
      ],
      "stateMutability": "nonpayable",
      "type": "function"
    },
    {
      "inputs": [
        {
          "internalType": "string",
          "name": "a",
          "type": "string"
        },
        {
          "internalType": "string",
          "name": "b",
          "type": "string"
        }
      ],
      "name": "compareStrings",
      "outputs": [
        {
          "internalType": "bool",
          "name": "",
          "type": "bool"
        }
      ],
      "stateMutability": "pure",
      "type": "function"
    },
    {
      "inputs": [
        {
          "internalType": "address",
          "name": "user",
          "type": "address"
        },
        {
          "internalType": "string",
          "name": "name",
          "type": "string"
        },
        {
          "internalType": "string",
          "name": "surname",
          "type": "string"
        }
      ],
      "name": "findUser",
      "outputs": [
        {
          "internalType": "bool",
          "name": "",
          "type": "bool"
        }
      ],
      "stateMutability": "view",
      "type": "function"
    },
    {
      "inputs": [
        {
          "internalType": "address",
          "name": "wallet",
          "type": "address"
        }
      ],
      "name": "findWallet",
      "outputs": [
        {
          "internalType": "bool",
          "name": "",
          "type": "bool"
        }
      ],
      "stateMutability": "view",
      "type": "function"
    },
    {
      "inputs": [],
      "name": "getAllUsers",
      "outputs": [
        {
          "components": [
            {
              "internalType": "uint256",
              "name": "ID",
              "type": "uint256"
            },
            {
              "internalType": "address",
              "name": "user",
              "type": "address"
            },
            {
              "internalType": "string",
              "name": "Name",
              "type": "string"
            },
            {
              "internalType": "string",
              "name": "Surname",
              "type": "string"
            },
            {
              "internalType": "string",
              "name": "Email",
              "type": "string"
            },
            {
              "internalType": "enum AccountTypes.role",
              "name": "Rank",
              "type": "uint8"
            }
          ],
          "internalType": "struct AccountTypes.user_t[]",
          "name": "",
          "type": "tuple[]"
        }
      ],
      "stateMutability": "view",
      "type": "function"
    },
    {
      "inputs": [
        {
          "internalType": "address",
          "name": "userAddress",
          "type": "address"
        }
      ],
      "name": "getUser",
      "outputs": [
        {
          "components": [
            {
              "internalType": "uint256",
              "name": "ID",
              "type": "uint256"
            },
            {
              "internalType": "address",
              "name": "user",
              "type": "address"
            },
            {
              "internalType": "string",
              "name": "Name",
              "type": "string"
            },
            {
              "internalType": "string",
              "name": "Surname",
              "type": "string"
            },
            {
              "internalType": "string",
              "name": "Email",
              "type": "string"
            },
            {
              "internalType": "enum AccountTypes.role",
              "name": "Rank",
              "type": "uint8"
            }
          ],
          "internalType": "struct AccountTypes.user_t",
          "name": "",
          "type": "tuple"
        }
      ],
      "stateMutability": "view",
      "type": "function"
    },
    {
      "inputs": [
        {
          "internalType": "uint256",
          "name": "",
          "type": "uint256"
        }
      ],
      "name": "historia",
      "outputs": [
        {
          "internalType": "uint256",
          "name": "id",
          "type": "uint256"
        },
        {
          "internalType": "address",
          "name": "buyer",
          "type": "address"
        },
        {
          "internalType": "uint256",
          "name": "data",
          "type": "uint256"
        },
        {
          "internalType": "uint256",
          "name": "item_ID",
          "type": "uint256"
        }
      ],
      "stateMutability": "view",
      "type": "function"
    },
    {
      "inputs": [
        {
          "internalType": "uint256",
          "name": "_id",
          "type": "uint256"
        },
        {
          "internalType": "string",
          "name": "_Explenation",
          "type": "string"
        }
      ],
      "name": "reject",
      "outputs": [],
      "stateMutability": "nonpayable",
      "type": "function"
    },
    {
      "inputs": [
        {
          "internalType": "uint256",
          "name": "",
          "type": "uint256"
        }
      ],
      "name": "workers",
      "outputs": [
        {
          "internalType": "uint256",
          "name": "ID",
          "type": "uint256"
        },
        {
          "internalType": "address",
          "name": "user",
          "type": "address"
        },
        {
          "internalType": "string",
          "name": "Name",
          "type": "string"
        },
        {
          "internalType": "string",
          "name": "Surname",
          "type": "string"
        },
        {
          "internalType": "string",
          "name": "Email",
          "type": "string"
        },
        {
          "internalType": "enum AccountTypes.role",
          "name": "Rank",
          "type": "uint8"
        }
      ],
      "stateMutability": "view",
      "type": "function"
    }
  ],
  "bytecode": "0x608060405230600760006101000a81548173ffffffffffffffffffffffffffffffffffffffff021916908373ffffffffffffffffffffffffffffffffffffffff16021790555034801561005157600080fd5b5061567280620000626000396000f3fe60806040526004361061014b5760003560e01c80637383d709116100b6578063a5904d211161006f578063a5904d21146104b0578063bed34bba146104f4578063d286c5a814610531578063e2842d791461056e578063f1a22dc214610599578063f6961809146105db5761014b565b80637383d709146103be57806375364049146103da57806390303f16146104035780639b6d756a1461042c578063a03e149014610448578063a5440fa0146104855761014b565b806355d96d4f1161010857806355d96d4f1461028c57806366590a60146102c95780636e538078146102f25780636f77926b1461031b57806371d68a971461035857806371d6f213146103815761014b565b8063040828b61461015057806317b47cc41461017b578063260cbf6e146101bb578063357b4b13146101f8578063389271ed146102385780634064f25414610263575b600080fd5b34801561015c57600080fd5b50610165610604565b6040516101729190613b3f565b60405180910390f35b34801561018757600080fd5b506101a2600480360381019061019d9190613ba1565b610795565b6040516101b29493929190613ced565b60405180910390f35b3480156101c757600080fd5b506101e260048036038101906101dd9190613d65565b61086a565b6040516101ef9190613dc0565b60405180910390f35b34801561020457600080fd5b5061021f600480360381019061021a9190613ba1565b610998565b60405161022f9493929190613dea565b60405180910390f35b34801561024457600080fd5b5061024d6109f8565b60405161025a9190613fad565b60405180910390f35b34801561026f57600080fd5b5061028a60048036038101906102859190614034565b610bf6565b005b34801561029857600080fd5b506102b360048036038101906102ae91906140bc565b610ea7565b6040516102c091906142aa565b60405180910390f35b3480156102d557600080fd5b506102f060048036038101906102eb91906142f1565b611368565b005b3480156102fe57600080fd5b5061031960048036038101906103149190613ba1565b6116a7565b005b34801561032757600080fd5b50610342600480360381019061033d91906140bc565b611821565b60405161034f91906144ac565b60405180910390f35b34801561036457600080fd5b5061037f600480360381019061037a91906144ce565b611c24565b005b34801561038d57600080fd5b506103a860048036038101906103a391906140bc565b611e5f565b6040516103b59190613dc0565b60405180910390f35b6103d860048036038101906103d39190613d65565b611f15565b005b3480156103e657600080fd5b5061040160048036038101906103fc919061452e565b612090565b005b34801561040f57600080fd5b5061042a60048036038101906104259190613ba1565b612231565b005b6104466004803603810190610441919061458e565b6123a9565b005b34801561045457600080fd5b5061046f600480360381019061046a9190614602565b61268d565b60405161047c9190613dc0565b60405180910390f35b34801561049157600080fd5b5061049a612774565b6040516104a791906142aa565b60405180910390f35b3480156104bc57600080fd5b506104d760048036038101906104d29190613ba1565b612abb565b6040516104eb989796959493929190614651565b60405180910390f35b34801561050057600080fd5b5061051b6004803603810190610516919061480d565b612c70565b6040516105289190613dc0565b60405180910390f35b34801561053d57600080fd5b5061055860048036038101906105539190614885565b612cc9565b6040516105659190613dc0565b60405180910390f35b34801561057a57600080fd5b50610583612f89565b6040516105909190614a73565b60405180910390f35b3480156105a557600080fd5b506105c060048036038101906105bb9190613ba1565b6132f7565b6040516105d296959493929190614aa4565b60405180910390f35b3480156105e757600080fd5b5061060260048036038101906105fd9190613ba1565b613508565b005b606060006002805490501161064e576040517f08c379a000000000000000000000000000000000000000000000000000000000815260040161064590614b66565b60405180910390fd5b600060028054905067ffffffffffffffff81111561066f5761066e6146e2565b5b6040519080825280602002602001820160405280156106a857816020015b61069561375f565b81526020019060019003908161068d5790505b50905060005b60028054905081101561078d57600281815481106106cf576106ce614b86565b5b9060005260206000209060040201604051806080016040529081600082015481526020016001820160009054906101000a900473ffffffffffffffffffffffffffffffffffffffff1673ffffffffffffffffffffffffffffffffffffffff1673ffffffffffffffffffffffffffffffffffffffff1681526020016002820154815260200160038201548152505082828151811061076f5761076e614b86565b5b6020026020010181905250808061078590614be4565b9150506106ae565b508091505090565b600181815481106107a557600080fd5b90600052602060002090600402016000915090508060000154908060010180546107ce90614c5c565b80601f01602080910402602001604051908101604052809291908181526020018280546107fa90614c5c565b80156108475780601f1061081c57610100808354040283529160200191610847565b820191906000526020600020905b81548152906001019060200180831161082a57829003601f168201915b5050505050908060020154908060030160009054906101000a900460ff16905084565b60006001805490508311156108b4576040517f08c379a00000000000000000000000000000000000000000000000000000000081526004016108ab90614cda565b60405180910390fd5b600060028054905090506000429050600260405180608001604052808481526020018673ffffffffffffffffffffffffffffffffffffffff1681526020018381526020018781525090806001815401808255809150506001900390600052602060002090600402016000909190919091506000820151816000015560208201518160010160006101000a81548173ffffffffffffffffffffffffffffffffffffffff021916908373ffffffffffffffffffffffffffffffffffffffff1602179055506040820151816002015560608201518160030155505060019250505092915050565b600281815481106109a857600080fd5b90600052602060002090600402016000915090508060000154908060010160009054906101000a900473ffffffffffffffffffffffffffffffffffffffff16908060020154908060030154905084565b6060600060018054905011610a42576040517f08c379a0000000000000000000000000000000000000000000000000000000008152600401610a3990614b66565b60405180910390fd5b600060018054905067ffffffffffffffff811115610a6357610a626146e2565b5b604051908082528060200260200182016040528015610a9c57816020015b610a8961379d565b815260200190600190039081610a815790505b50905060005b600180549050811015610bee5760018181548110610ac357610ac2614b86565b5b906000526020600020906004020160405180608001604052908160008201548152602001600182018054610af690614c5c565b80601f0160208091040260200160405190810160405280929190818152602001828054610b2290614c5c565b8015610b6f5780601f10610b4457610100808354040283529160200191610b6f565b820191906000526020600020905b815481529060010190602001808311610b5257829003601f168201915b50505050508152602001600282015481526020016003820160009054906101000a900460ff166001811115610ba757610ba6613c76565b5b6001811115610bb957610bb8613c76565b5b81525050828281518110610bd057610bcf614b86565b5b60200260200101819052508080610be690614be4565b915050610aa2565b508091505090565b60008311610c39576040517f08c379a0000000000000000000000000000000000000000000000000000000008152600401610c3090614d46565b60405180910390fd5b6000858590501415610c80576040517f08c379a0000000000000000000000000000000000000000000000000000000008152600401610c7790614db2565b60405180910390fd5b600060048054905090506000429050600460405180610100016040528084815260200183815260200189898080601f016020809104026020016040519081016040528093929190818152602001838380828437600081840152601f19601f8201169050808301925050505050505081526020018781526020018573ffffffffffffffffffffffffffffffffffffffff1681526020018673ffffffffffffffffffffffffffffffffffffffff16815260200160006003811115610d4557610d44613c76565b5b815260200160405180602001604052806000815250815250908060018154018082558091505060019003906000526020600020906007020160009091909190915060008201518160000155602082015181600101556040820151816002019080519060200190610db69291906137d7565b506060820151816003015560808201518160040160006101000a81548173ffffffffffffffffffffffffffffffffffffffff021916908373ffffffffffffffffffffffffffffffffffffffff16021790555060a08201518160050160006101000a81548173ffffffffffffffffffffffffffffffffffffffff021916908373ffffffffffffffffffffffffffffffffffffffff16021790555060c08201518160050160146101000a81548160ff02191690836003811115610e7a57610e79613c76565b5b021790555060e0820151816006019080519060200190610e9b9291906137d7565b50505050505050505050565b6060600060048054905011610ef1576040517f08c379a0000000000000000000000000000000000000000000000000000000008152600401610ee890614b66565b60405180910390fd5b6000805b600480549050811015610f9d578373ffffffffffffffffffffffffffffffffffffffff1660048281548110610f2d57610f2c614b86565b5b906000526020600020906007020160050160009054906101000a900473ffffffffffffffffffffffffffffffffffffffff1673ffffffffffffffffffffffffffffffffffffffff161415610f8a578180610f8690614be4565b9250505b8080610f9590614be4565b915050610ef5565b5060008111610fe1576040517f08c379a0000000000000000000000000000000000000000000000000000000008152600401610fd890614e1e565b60405180910390fd5b60008167ffffffffffffffff811115610ffd57610ffc6146e2565b5b60405190808252806020026020018201604052801561103657816020015b61102361385d565b81526020019060019003908161101b5790505b5090506000915060005b60048054905081101561135d578473ffffffffffffffffffffffffffffffffffffffff166004828154811061107857611077614b86565b5b906000526020600020906007020160050160009054906101000a900473ffffffffffffffffffffffffffffffffffffffff1673ffffffffffffffffffffffffffffffffffffffff16141561134a57600481815481106110da576110d9614b86565b5b906000526020600020906007020160405180610100016040529081600082015481526020016001820154815260200160028201805461111890614c5c565b80601f016020809104026020016040519081016040528092919081815260200182805461114490614c5c565b80156111915780601f1061116657610100808354040283529160200191611191565b820191906000526020600020905b81548152906001019060200180831161117457829003601f168201915b50505050508152602001600382015481526020016004820160009054906101000a900473ffffffffffffffffffffffffffffffffffffffff1673ffffffffffffffffffffffffffffffffffffffff1673ffffffffffffffffffffffffffffffffffffffff1681526020016005820160009054906101000a900473ffffffffffffffffffffffffffffffffffffffff1673ffffffffffffffffffffffffffffffffffffffff1673ffffffffffffffffffffffffffffffffffffffff1681526020016005820160149054906101000a900460ff16600381111561127557611274613c76565b5b600381111561128757611286613c76565b5b815260200160068201805461129b90614c5c565b80601f01602080910402602001604051908101604052809291908181526020018280546112c790614c5c565b80156113145780601f106112e957610100808354040283529160200191611314565b820191906000526020600020905b8154815290600101906020018083116112f757829003601f168201915b5050505050815250508284815181106113305761132f614b86565b5b6020026020010181905250828061134690614be4565b9350505b808061135590614be4565b915050611040565b508092505050919050565b600015153073ffffffffffffffffffffffffffffffffffffffff1663d286c5a88a8a8a8a8a6040518663ffffffff1660e01b81526004016113ad959493929190614e6b565b602060405180830381865afa1580156113ca573d6000803e3d6000fd5b505050506040513d601f19601f820116820180604052508101906113ee9190614ee0565b151514611430576040517f08c379a000000000000000000000000000000000000000000000000000000000815260040161142790614f59565b60405180910390fd5b6114386138e0565b60068054905081600001818152505088816020019073ffffffffffffffffffffffffffffffffffffffff16908173ffffffffffffffffffffffffffffffffffffffff168152505087878080601f016020809104026020016040519081016040528093929190818152602001838380828437600081840152601f19601f82011690508083019250505050505050816040018190525085858080601f016020809104026020016040519081016040528093929190818152602001838380828437600081840152601f19601f82011690508083019250505050505050816060018190525083838080601f016020809104026020016040519081016040528093929190818152602001838380828437600081840152601f19601f820116905080830192505050505050508160800181905250818160a00190600481111561157e5761157d613c76565b5b9081600481111561159257611591613c76565b5b8152505060068190806001815401808255809150506001900390600052602060002090600602016000909190919091506000820151816000015560208201518160010160006101000a81548173ffffffffffffffffffffffffffffffffffffffff021916908373ffffffffffffffffffffffffffffffffffffffff160217905550604082015181600201908051906020019061162f9291906137d7565b50606082015181600301908051906020019061164c9291906137d7565b5060808201518160040190805190602001906116699291906137d7565b5060a08201518160050160006101000a81548160ff0219169083600481111561169557611694613c76565b5b02179055505050505050505050505050565b6000600180549050116116ef576040517f08c379a00000000000000000000000000000000000000000000000000000000081526004016116e690614b66565b60405180910390fd5b6001805490508110611736576040517f08c379a000000000000000000000000000000000000000000000000000000000815260040161172d90614fc5565b60405180910390fd5b6000600181111561174a57611749613c76565b5b6001828154811061175e5761175d614b86565b5b906000526020600020906004020160030160009054906101000a900460ff16600181111561178f5761178e613c76565b5b14156117d0576040517f08c379a00000000000000000000000000000000000000000000000000000000081526004016117c790615031565b60405180910390fd5b6000600182815481106117e6576117e5614b86565b5b906000526020600020906004020160030160006101000a81548160ff0219169083600181111561181957611818613c76565b5b021790555050565b6118296138e0565b600060068054905011611871576040517f08c379a000000000000000000000000000000000000000000000000000000000815260040161186890614b66565b60405180910390fd5b60006040518060c0016040528060008152602001600073ffffffffffffffffffffffffffffffffffffffff1681526020016040518060200160405280600081525081526020016040518060200160405280600081525081526020016040518060200160405280600081525081526020016004808111156118f4576118f3613c76565b5b815250905060005b600680549050811015611c1a578373ffffffffffffffffffffffffffffffffffffffff166006828154811061193457611933614b86565b5b906000526020600020906006020160010160009054906101000a900473ffffffffffffffffffffffffffffffffffffffff1673ffffffffffffffffffffffffffffffffffffffff161415611c07576006818154811061199657611995614b86565b5b90600052602060002090600602016040518060c0016040529081600082015481526020016001820160009054906101000a900473ffffffffffffffffffffffffffffffffffffffff1673ffffffffffffffffffffffffffffffffffffffff1673ffffffffffffffffffffffffffffffffffffffff168152602001600282018054611a1f90614c5c565b80601f0160208091040260200160405190810160405280929190818152602001828054611a4b90614c5c565b8015611a985780601f10611a6d57610100808354040283529160200191611a98565b820191906000526020600020905b815481529060010190602001808311611a7b57829003601f168201915b50505050508152602001600382018054611ab190614c5c565b80601f0160208091040260200160405190810160405280929190818152602001828054611add90614c5c565b8015611b2a5780601f10611aff57610100808354040283529160200191611b2a565b820191906000526020600020905b815481529060010190602001808311611b0d57829003601f168201915b50505050508152602001600482018054611b4390614c5c565b80601f0160208091040260200160405190810160405280929190818152602001828054611b6f90614c5c565b8015611bbc5780601f10611b9157610100808354040283529160200191611bbc565b820191906000526020600020905b815481529060010190602001808311611b9f57829003601f168201915b505050505081526020016005820160009054906101000a900460ff166004811115611bea57611be9613c76565b5b6004811115611bfc57611bfb613c76565b5b815250509150611c1a565b8080611c1290614be4565b9150506118fc565b5080915050919050565b6000831015611c68576040517f08c379a0000000000000000000000000000000000000000000000000000000008152600401611c5f9061509d565b60405180910390fd5b600060048054905011611cb0576040517f08c379a0000000000000000000000000000000000000000000000000000000008152600401611ca790614b66565b60405180910390fd5b6004805490508310611cf7576040517f08c379a0000000000000000000000000000000000000000000000000000000008152600401611cee90615109565b60405180910390fd5b6000828290501415611d3e576040517f08c379a0000000000000000000000000000000000000000000000000000000008152600401611d3590614db2565b60405180910390fd5b60006003811115611d5257611d51613c76565b5b60048481548110611d6657611d65614b86565b5b906000526020600020906007020160050160149054906101000a900460ff166003811115611d9757611d96613c76565b5b14611dd7576040517f08c379a0000000000000000000000000000000000000000000000000000000008152600401611dce90615175565b60405180910390fd5b600260048481548110611ded57611dec614b86565b5b906000526020600020906007020160050160146101000a81548160ff02191690836003811115611e2057611e1f613c76565b5b0217905550818160048581548110611e3b57611e3a614b86565b5b90600052602060002090600702016006019190611e5992919061393e565b50505050565b600080600090505b600680549050811015611f0a578273ffffffffffffffffffffffffffffffffffffffff1660068281548110611e9f57611e9e614b86565b5b906000526020600020906006020160010160009054906101000a900473ffffffffffffffffffffffffffffffffffffffff1673ffffffffffffffffffffffffffffffffffffffff161415611ef7576001915050611f10565b8080611f0290614be4565b915050611e67565b50600090505b919050565b6000821015611f59576040517f08c379a0000000000000000000000000000000000000000000000000000000008152600401611f50906151e1565b60405180910390fd5b600060018054905011611fa1576040517f08c379a0000000000000000000000000000000000000000000000000000000008152600401611f9890614b66565b60405180910390fd5b6001805490508210611fe8576040517f08c379a0000000000000000000000000000000000000000000000000000000008152600401611fdf90614fc5565b60405180910390fd5b60006001811115611ffc57611ffb613c76565b5b600183815481106120105761200f614b86565b5b906000526020600020906004020160030160009054906101000a900460ff16600181111561204157612040613c76565b5b14612081576040517f08c379a00000000000000000000000000000000000000000000000000000000081526004016120789061524d565b60405180910390fd5b61208b828261086a565b505050565b60008110156120d4576040517f08c379a00000000000000000000000000000000000000000000000000000000081526004016120cb906152b9565b60405180910390fd5b600083839050141561211b576040517f08c379a000000000000000000000000000000000000000000000000000000000815260040161211290615325565b60405180910390fd5b600060018054905090506001604051806080016040528083815260200186868080601f016020809104026020016040519081016040528093929190818152602001838380828437600081840152601f19601f8201169050808301925050505050505081526020018481526020016000600181111561219c5761219b613c76565b5b81525090806001815401808255809150506001900390600052602060002090600402016000909190919091506000820151816000015560208201518160010190805190602001906121ee9291906137d7565b506040820151816002015560608201518160030160006101000a81548160ff0219169083600181111561222457612223613c76565b5b0217905550505050505050565b600060018054905011612279576040517f08c379a000000000000000000000000000000000000000000000000000000000815260040161227090614b66565b60405180910390fd5b60018054905081106122c0576040517f08c379a00000000000000000000000000000000000000000000000000000000081526004016122b790614fc5565b60405180910390fd5b6001808111156122d3576122d2613c76565b5b600182815481106122e7576122e6614b86565b5b906000526020600020906004020160030160009054906101000a900460ff16600181111561231857612317613c76565b5b1415612359576040517f08c379a000000000000000000000000000000000000000000000000000000000815260040161235090615391565b60405180910390fd5b600180828154811061236e5761236d614b86565b5b906000526020600020906004020160030160006101000a81548160ff021916908360018111156123a1576123a0613c76565b5b021790555050565b60008410156123ed576040517f08c379a00000000000000000000000000000000000000000000000000000000081526004016123e49061509d565b60405180910390fd5b600060048054905011612435576040517f08c379a000000000000000000000000000000000000000000000000000000000815260040161242c90614b66565b60405180910390fd5b600480549050841061247c576040517f08c379a000000000000000000000000000000000000000000000000000000000815260040161247390615109565b60405180910390fd5b600060038111156124905761248f613c76565b5b600485815481106124a4576124a3614b86565b5b906000526020600020906007020160050160149054906101000a900460ff1660038111156124d5576124d4613c76565b5b14612515576040517f08c379a000000000000000000000000000000000000000000000000000000000815260040161250c90615175565b60405180910390fd5b60016004858154811061252b5761252a614b86565b5b906000526020600020906007020160050160146101000a81548160ff0219169083600381111561255e5761255d613c76565b5b021790555082826004868154811061257957612578614b86565b5b9060005260206000209060070201600601919061259792919061393e565b5060008190508073ffffffffffffffffffffffffffffffffffffffff1663a9059cbb600487815481106125cd576125cc614b86565b5b906000526020600020906007020160050160009054906101000a900473ffffffffffffffffffffffffffffffffffffffff166004888154811061261357612612614b86565b5b9060005260206000209060070201600301546040518363ffffffff1660e01b8152600401612642929190615410565b6020604051808303816000875af1158015612661573d6000803e3d6000fd5b505050506040513d601f19601f820116820180604052508101906126859190614ee0565b505050505050565b600080600680549050116126d6576040517f08c379a00000000000000000000000000000000000000000000000000000000081526004016126cd90615485565b60405180910390fd5b600680549050831061271d576040517f08c379a0000000000000000000000000000000000000000000000000000000008152600401612714906154f1565b60405180910390fd5b816006848154811061273257612731614b86565b5b906000526020600020906006020160050160006101000a81548160ff0219169083600481111561276557612764613c76565b5b02179055506001905092915050565b60606000600480549050116127be576040517f08c379a00000000000000000000000000000000000000000000000000000000081526004016127b590614b66565b60405180910390fd5b600060048054905067ffffffffffffffff8111156127df576127de6146e2565b5b60405190808252806020026020018201604052801561281857816020015b61280561385d565b8152602001906001900390816127fd5790505b50905060005b600480549050811015612ab3576004818154811061283f5761283e614b86565b5b906000526020600020906007020160405180610100016040529081600082015481526020016001820154815260200160028201805461287d90614c5c565b80601f01602080910402602001604051908101604052809291908181526020018280546128a990614c5c565b80156128f65780601f106128cb576101008083540402835291602001916128f6565b820191906000526020600020905b8154815290600101906020018083116128d957829003601f168201915b50505050508152602001600382015481526020016004820160009054906101000a900473ffffffffffffffffffffffffffffffffffffffff1673ffffffffffffffffffffffffffffffffffffffff1673ffffffffffffffffffffffffffffffffffffffff1681526020016005820160009054906101000a900473ffffffffffffffffffffffffffffffffffffffff1673ffffffffffffffffffffffffffffffffffffffff1673ffffffffffffffffffffffffffffffffffffffff1681526020016005820160149054906101000a900460ff1660038111156129da576129d9613c76565b5b60038111156129ec576129eb613c76565b5b8152602001600682018054612a0090614c5c565b80601f0160208091040260200160405190810160405280929190818152602001828054612a2c90614c5c565b8015612a795780601f10612a4e57610100808354040283529160200191612a79565b820191906000526020600020905b815481529060010190602001808311612a5c57829003601f168201915b505050505081525050828281518110612a9557612a94614b86565b5b60200260200101819052508080612aab90614be4565b91505061281e565b508091505090565b60048181548110612acb57600080fd5b9060005260206000209060070201600091509050806000015490806001015490806002018054612afa90614c5c565b80601f0160208091040260200160405190810160405280929190818152602001828054612b2690614c5c565b8015612b735780601f10612b4857610100808354040283529160200191612b73565b820191906000526020600020905b815481529060010190602001808311612b5657829003601f168201915b5050505050908060030154908060040160009054906101000a900473ffffffffffffffffffffffffffffffffffffffff16908060050160009054906101000a900473ffffffffffffffffffffffffffffffffffffffff16908060050160149054906101000a900460ff1690806006018054612bed90614c5c565b80601f0160208091040260200160405190810160405280929190818152602001828054612c1990614c5c565b8015612c665780601f10612c3b57610100808354040283529160200191612c66565b820191906000526020600020905b815481529060010190602001808311612c4957829003601f168201915b5050505050905088565b600081604051602001612c83919061554d565b6040516020818303038152906040528051906020012083604051602001612caa919061554d565b6040516020818303038152906040528051906020012014905092915050565b600080600090505b600680549050811015612f7a5760068181548110612cf257612cf1614b86565b5b906000526020600020906006020160010160009054906101000a900473ffffffffffffffffffffffffffffffffffffffff1673ffffffffffffffffffffffffffffffffffffffff168773ffffffffffffffffffffffffffffffffffffffff16148015612e555750612e5486868080601f016020809104026020016040519081016040528093929190818152602001838380828437600081840152601f19601f8201169050808301925050505050505060068381548110612db557612db4614b86565b5b90600052602060002090600602016002018054612dd190614c5c565b80601f0160208091040260200160405190810160405280929190818152602001828054612dfd90614c5c565b8015612e4a5780601f10612e1f57610100808354040283529160200191612e4a565b820191906000526020600020905b815481529060010190602001808311612e2d57829003601f168201915b5050505050612c70565b5b8015612f585750612f5784848080601f016020809104026020016040519081016040528093929190818152602001838380828437600081840152601f19601f8201169050808301925050505050505060068381548110612eb857612eb7614b86565b5b90600052602060002090600602016003018054612ed490614c5c565b80601f0160208091040260200160405190810160405280929190818152602001828054612f0090614c5c565b8015612f4d5780601f10612f2257610100808354040283529160200191612f4d565b820191906000526020600020905b815481529060010190602001808311612f3057829003601f168201915b5050505050612c70565b5b15612f67576001915050612f80565b8080612f7290614be4565b915050612cd1565b50600090505b95945050505050565b6060600060068054905011612fd3576040517f08c379a0000000000000000000000000000000000000000000000000000000008152600401612fca90614b66565b60405180910390fd5b600060068054905067ffffffffffffffff811115612ff457612ff36146e2565b5b60405190808252806020026020018201604052801561302d57816020015b61301a6138e0565b8152602001906001900390816130125790505b50905060005b6006805490508110156132ef576006818154811061305457613053614b86565b5b90600052602060002090600602016040518060c0016040529081600082015481526020016001820160009054906101000a900473ffffffffffffffffffffffffffffffffffffffff1673ffffffffffffffffffffffffffffffffffffffff1673ffffffffffffffffffffffffffffffffffffffff1681526020016002820180546130dd90614c5c565b80601f016020809104026020016040519081016040528092919081815260200182805461310990614c5c565b80156131565780601f1061312b57610100808354040283529160200191613156565b820191906000526020600020905b81548152906001019060200180831161313957829003601f168201915b5050505050815260200160038201805461316f90614c5c565b80601f016020809104026020016040519081016040528092919081815260200182805461319b90614c5c565b80156131e85780601f106131bd576101008083540402835291602001916131e8565b820191906000526020600020905b8154815290600101906020018083116131cb57829003601f168201915b5050505050815260200160048201805461320190614c5c565b80601f016020809104026020016040519081016040528092919081815260200182805461322d90614c5c565b801561327a5780601f1061324f5761010080835404028352916020019161327a565b820191906000526020600020905b81548152906001019060200180831161325d57829003601f168201915b505050505081526020016005820160009054906101000a900460ff1660048111156132a8576132a7613c76565b5b60048111156132ba576132b9613c76565b5b815250508282815181106132d1576132d0614b86565b5b602002602001018190525080806132e790614be4565b915050613033565b508091505090565b6006818154811061330757600080fd5b90600052602060002090600602016000915090508060000154908060010160009054906101000a900473ffffffffffffffffffffffffffffffffffffffff169080600201805461335690614c5c565b80601f016020809104026020016040519081016040528092919081815260200182805461338290614c5c565b80156133cf5780601f106133a4576101008083540402835291602001916133cf565b820191906000526020600020905b8154815290600101906020018083116133b257829003601f168201915b5050505050908060030180546133e490614c5c565b80601f016020809104026020016040519081016040528092919081815260200182805461341090614c5c565b801561345d5780601f106134325761010080835404028352916020019161345d565b820191906000526020600020905b81548152906001019060200180831161344057829003601f168201915b50505050509080600401805461347290614c5c565b80601f016020809104026020016040519081016040528092919081815260200182805461349e90614c5c565b80156134eb5780601f106134c0576101008083540402835291602001916134eb565b820191906000526020600020905b8154815290600101906020018083116134ce57829003601f168201915b5050505050908060050160009054906101000a900460ff16905086565b600081101561354c576040517f08c379a00000000000000000000000000000000000000000000000000000000081526004016135439061509d565b60405180910390fd5b600060048054905011613594576040517f08c379a000000000000000000000000000000000000000000000000000000000815260040161358b90614b66565b60405180910390fd5b60048054905081106135db576040517f08c379a00000000000000000000000000000000000000000000000000000000081526004016135d290615109565b60405180910390fd5b600060038111156135ef576135ee613c76565b5b6004828154811061360357613602614b86565b5b906000526020600020906007020160050160149054906101000a900460ff16600381111561363457613633613c76565b5b1415613675576040517f08c379a000000000000000000000000000000000000000000000000000000000815260040161366c906155b0565b60405180910390fd5b60038081111561368857613687613c76565b5b6004828154811061369c5761369b614b86565b5b906000526020600020906007020160050160149054906101000a900460ff1660038111156136cd576136cc613c76565b5b141561370e576040517f08c379a00000000000000000000000000000000000000000000000000000000081526004016137059061561c565b60405180910390fd5b60036004828154811061372457613723614b86565b5b906000526020600020906007020160050160146101000a81548160ff0219169083600381111561375757613756613c76565b5b021790555050565b604051806080016040528060008152602001600073ffffffffffffffffffffffffffffffffffffffff16815260200160008152602001600081525090565b6040518060800160405280600081526020016060815260200160008152602001600060018111156137d1576137d0613c76565b5b81525090565b8280546137e390614c5c565b90600052602060002090601f016020900481019282613805576000855561384c565b82601f1061381e57805160ff191683800117855561384c565b8280016001018555821561384c579182015b8281111561384b578251825591602001919060010190613830565b5b50905061385991906139c4565b5090565b60405180610100016040528060008152602001600081526020016060815260200160008152602001600073ffffffffffffffffffffffffffffffffffffffff168152602001600073ffffffffffffffffffffffffffffffffffffffff168152602001600060038111156138d3576138d2613c76565b5b8152602001606081525090565b6040518060c0016040528060008152602001600073ffffffffffffffffffffffffffffffffffffffff1681526020016060815260200160608152602001606081526020016000600481111561393857613937613c76565b5b81525090565b82805461394a90614c5c565b90600052602060002090601f01602090048101928261396c57600085556139b3565b82601f1061398557803560ff19168380011785556139b3565b828001600101855582156139b3579182015b828111156139b2578235825591602001919060010190613997565b5b5090506139c091906139c4565b5090565b5b808211156139dd5760008160009055506001016139c5565b5090565b600081519050919050565b600082825260208201905092915050565b6000819050602082019050919050565b6000819050919050565b613a2081613a0d565b82525050565b600073ffffffffffffffffffffffffffffffffffffffff82169050919050565b6000613a5182613a26565b9050919050565b613a6181613a46565b82525050565b608082016000820151613a7d6000850182613a17565b506020820151613a906020850182613a58565b506040820151613aa36040850182613a17565b506060820151613ab66060850182613a17565b50505050565b6000613ac88383613a67565b60808301905092915050565b6000602082019050919050565b6000613aec826139e1565b613af681856139ec565b9350613b01836139fd565b8060005b83811015613b32578151613b198882613abc565b9750613b2483613ad4565b925050600181019050613b05565b5085935050505092915050565b60006020820190508181036000830152613b598184613ae1565b905092915050565b6000604051905090565b600080fd5b600080fd5b613b7e81613a0d565b8114613b8957600080fd5b50565b600081359050613b9b81613b75565b92915050565b600060208284031215613bb757613bb6613b6b565b5b6000613bc584828501613b8c565b91505092915050565b613bd781613a0d565b82525050565b600081519050919050565b600082825260208201905092915050565b60005b83811015613c17578082015181840152602081019050613bfc565b83811115613c26576000848401525b50505050565b6000601f19601f8301169050919050565b6000613c4882613bdd565b613c528185613be8565b9350613c62818560208601613bf9565b613c6b81613c2c565b840191505092915050565b7f4e487b7100000000000000000000000000000000000000000000000000000000600052602160045260246000fd5b60028110613cb657613cb5613c76565b5b50565b6000819050613cc782613ca5565b919050565b6000613cd782613cb9565b9050919050565b613ce781613ccc565b82525050565b6000608082019050613d026000830187613bce565b8181036020830152613d148186613c3d565b9050613d236040830185613bce565b613d306060830184613cde565b95945050505050565b613d4281613a46565b8114613d4d57600080fd5b50565b600081359050613d5f81613d39565b92915050565b60008060408385031215613d7c57613d7b613b6b565b5b6000613d8a85828601613b8c565b9250506020613d9b85828601613d50565b9150509250929050565b60008115159050919050565b613dba81613da5565b82525050565b6000602082019050613dd56000830184613db1565b92915050565b613de481613a46565b82525050565b6000608082019050613dff6000830187613bce565b613e0c6020830186613ddb565b613e196040830185613bce565b613e266060830184613bce565b95945050505050565b600081519050919050565b600082825260208201905092915050565b6000819050602082019050919050565b600082825260208201905092915050565b6000613e7782613bdd565b613e818185613e5b565b9350613e91818560208601613bf9565b613e9a81613c2c565b840191505092915050565b613eae81613ccc565b82525050565b6000608083016000830151613ecc6000860182613a17565b5060208301518482036020860152613ee48282613e6c565b9150506040830151613ef96040860182613a17565b506060830151613f0c6060860182613ea5565b508091505092915050565b6000613f238383613eb4565b905092915050565b6000602082019050919050565b6000613f4382613e2f565b613f4d8185613e3a565b935083602082028501613f5f85613e4b565b8060005b85811015613f9b5784840389528151613f7c8582613f17565b9450613f8783613f2b565b925060208a01995050600181019050613f63565b50829750879550505050505092915050565b60006020820190508181036000830152613fc78184613f38565b905092915050565b600080fd5b600080fd5b600080fd5b60008083601f840112613ff457613ff3613fcf565b5b8235905067ffffffffffffffff81111561401157614010613fd4565b5b60208301915083600182028301111561402d5761402c613fd9565b5b9250929050565b6000806000806000608086880312156140505761404f613b6b565b5b600086013567ffffffffffffffff81111561406e5761406d613b70565b5b61407a88828901613fde565b9550955050602061408d88828901613b8c565b935050604061409e88828901613d50565b92505060606140af88828901613d50565b9150509295509295909350565b6000602082840312156140d2576140d1613b6b565b5b60006140e084828501613d50565b91505092915050565b600081519050919050565b600082825260208201905092915050565b6000819050602082019050919050565b6004811061412657614125613c76565b5b50565b600081905061413782614115565b919050565b600061414782614129565b9050919050565b6141578161413c565b82525050565b6000610100830160008301516141766000860182613a17565b5060208301516141896020860182613a17565b50604083015184820360408601526141a18282613e6c565b91505060608301516141b66060860182613a17565b5060808301516141c96080860182613a58565b5060a08301516141dc60a0860182613a58565b5060c08301516141ef60c086018261414e565b5060e083015184820360e08601526142078282613e6c565b9150508091505092915050565b6000614220838361415d565b905092915050565b6000602082019050919050565b6000614240826140e9565b61424a81856140f4565b93508360208202850161425c85614105565b8060005b8581101561429857848403895281516142798582614214565b945061428483614228565b925060208a01995050600181019050614260565b50829750879550505050505092915050565b600060208201905081810360008301526142c48184614235565b905092915050565b600581106142d957600080fd5b50565b6000813590506142eb816142cc565b92915050565b60008060008060008060008060a0898b03121561431157614310613b6b565b5b600061431f8b828c01613d50565b985050602089013567ffffffffffffffff8111156143405761433f613b70565b5b61434c8b828c01613fde565b9750975050604089013567ffffffffffffffff81111561436f5761436e613b70565b5b61437b8b828c01613fde565b9550955050606089013567ffffffffffffffff81111561439e5761439d613b70565b5b6143aa8b828c01613fde565b935093505060806143bd8b828c016142dc565b9150509295985092959890939650565b600581106143de576143dd613c76565b5b50565b60008190506143ef826143cd565b919050565b60006143ff826143e1565b9050919050565b61440f816143f4565b82525050565b600060c08301600083015161442d6000860182613a17565b5060208301516144406020860182613a58565b50604083015184820360408601526144588282613e6c565b915050606083015184820360608601526144728282613e6c565b9150506080830151848203608086015261448c8282613e6c565b91505060a08301516144a160a0860182614406565b508091505092915050565b600060208201905081810360008301526144c68184614415565b905092915050565b6000806000604084860312156144e7576144e6613b6b565b5b60006144f586828701613b8c565b935050602084013567ffffffffffffffff81111561451657614515613b70565b5b61452286828701613fde565b92509250509250925092565b60008060006040848603121561454757614546613b6b565b5b600084013567ffffffffffffffff81111561456557614564613b70565b5b61457186828701613fde565b9350935050602061458486828701613b8c565b9150509250925092565b600080600080606085870312156145a8576145a7613b6b565b5b60006145b687828801613b8c565b945050602085013567ffffffffffffffff8111156145d7576145d6613b70565b5b6145e387828801613fde565b935093505060406145f687828801613d50565b91505092959194509250565b6000806040838503121561461957614618613b6b565b5b600061462785828601613b8c565b9250506020614638858286016142dc565b9150509250929050565b61464b8161413c565b82525050565b600061010082019050614667600083018b613bce565b614674602083018a613bce565b81810360408301526146868189613c3d565b90506146956060830188613bce565b6146a26080830187613ddb565b6146af60a0830186613ddb565b6146bc60c0830185614642565b81810360e08301526146ce8184613c3d565b90509998505050505050505050565b600080fd5b7f4e487b7100000000000000000000000000000000000000000000000000000000600052604160045260246000fd5b61471a82613c2c565b810181811067ffffffffffffffff82111715614739576147386146e2565b5b80604052505050565b600061474c613b61565b90506147588282614711565b919050565b600067ffffffffffffffff821115614778576147776146e2565b5b61478182613c2c565b9050602081019050919050565b82818337600083830152505050565b60006147b06147ab8461475d565b614742565b9050828152602081018484840111156147cc576147cb6146dd565b5b6147d784828561478e565b509392505050565b600082601f8301126147f4576147f3613fcf565b5b813561480484826020860161479d565b91505092915050565b6000806040838503121561482457614823613b6b565b5b600083013567ffffffffffffffff81111561484257614841613b70565b5b61484e858286016147df565b925050602083013567ffffffffffffffff81111561486f5761486e613b70565b5b61487b858286016147df565b9150509250929050565b6000806000806000606086880312156148a1576148a0613b6b565b5b60006148af88828901613d50565b955050602086013567ffffffffffffffff8111156148d0576148cf613b70565b5b6148dc88828901613fde565b9450945050604086013567ffffffffffffffff8111156148ff576148fe613b70565b5b61490b88828901613fde565b92509250509295509295909350565b600081519050919050565b600082825260208201905092915050565b6000819050602082019050919050565b600060c08301600083015161495e6000860182613a17565b5060208301516149716020860182613a58565b50604083015184820360408601526149898282613e6c565b915050606083015184820360608601526149a38282613e6c565b915050608083015184820360808601526149bd8282613e6c565b91505060a08301516149d260a0860182614406565b508091505092915050565b60006149e98383614946565b905092915050565b6000602082019050919050565b6000614a098261491a565b614a138185614925565b935083602082028501614a2585614936565b8060005b85811015614a615784840389528151614a4285826149dd565b9450614a4d836149f1565b925060208a01995050600181019050614a29565b50829750879550505050505092915050565b60006020820190508181036000830152614a8d81846149fe565b905092915050565b614a9e816143f4565b82525050565b600060c082019050614ab96000830189613bce565b614ac66020830188613ddb565b8181036040830152614ad88187613c3d565b90508181036060830152614aec8186613c3d565b90508181036080830152614b008185613c3d565b9050614b0f60a0830184614a95565b979650505050505050565b7f456d70747920737461636b000000000000000000000000000000000000000000600082015250565b6000614b50600b83613be8565b9150614b5b82614b1a565b602082019050919050565b60006020820190508181036000830152614b7f81614b43565b9050919050565b7f4e487b7100000000000000000000000000000000000000000000000000000000600052603260045260246000fd5b7f4e487b7100000000000000000000000000000000000000000000000000000000600052601160045260246000fd5b6000614bef82613a0d565b91507fffffffffffffffffffffffffffffffffffffffffffffffffffffffffffffffff821415614c2257614c21614bb5565b5b600182019050919050565b7f4e487b7100000000000000000000000000000000000000000000000000000000600052602260045260246000fd5b60006002820490506001821680614c7457607f821691505b60208210811415614c8857614c87614c2d565b5b50919050565b7f50726f6475637420646f6573206e6f7420657869737400000000000000000000600082015250565b6000614cc4601683613be8565b9150614ccf82614c8e565b602082019050919050565b60006020820190508181036000830152614cf381614cb7565b9050919050565b7f546f206c6f7720746f6b656e20616d6f756e7400000000000000000000000000600082015250565b6000614d30601383613be8565b9150614d3b82614cfa565b602082019050919050565b60006020820190508181036000830152614d5f81614d23565b9050919050565b7f4578706c616e6174696f6e2063616e6e6f7420626520656d7074790000000000600082015250565b6000614d9c601b83613be8565b9150614da782614d66565b602082019050919050565b60006020820190508181036000830152614dcb81614d8f565b9050919050565b7f4e6f2073656e6420656c656d656e747300000000000000000000000000000000600082015250565b6000614e08601083613be8565b9150614e1382614dd2565b602082019050919050565b60006020820190508181036000830152614e3781614dfb565b9050919050565b6000614e4a8385613be8565b9350614e5783858461478e565b614e6083613c2c565b840190509392505050565b6000606082019050614e806000830188613ddb565b8181036020830152614e93818688614e3e565b90508181036040830152614ea8818486614e3e565b90509695505050505050565b614ebd81613da5565b8114614ec857600080fd5b50565b600081519050614eda81614eb4565b92915050565b600060208284031215614ef657614ef5613b6b565b5b6000614f0484828501614ecb565b91505092915050565b7f55736572206973206578697374696e6700000000000000000000000000000000600082015250565b6000614f43601083613be8565b9150614f4e82614f0d565b602082019050919050565b60006020820190508181036000830152614f7281614f36565b9050919050565b7f50726f64756374206f7574206f6620746865206c697374000000000000000000600082015250565b6000614faf601783613be8565b9150614fba82614f79565b602082019050919050565b60006020820190508181036000830152614fde81614fa2565b9050919050565b7f4974656d20697320616c726561647920666f722073616c650000000000000000600082015250565b600061501b601883613be8565b915061502682614fe5565b602082019050919050565b6000602082019050818103600083015261504a8161500e565b9050919050565b7f4e65676174697665206964000000000000000000000000000000000000000000600082015250565b6000615087600b83613be8565b915061509282615051565b602082019050919050565b600060208201905081810360008301526150b68161507a565b9050919050565b7f496e646578206f7574206f662072616e67650000000000000000000000000000600082015250565b60006150f3601283613be8565b91506150fe826150bd565b602082019050919050565b60006020820190508181036000830152615122816150e6565b9050919050565b7f5469636b657420697320636c6f73656400000000000000000000000000000000600082015250565b600061515f601083613be8565b915061516a82615129565b602082019050919050565b6000602082019050818103600083015261518e81615152565b9050919050565b7f4e65676174697665204944000000000000000000000000000000000000000000600082015250565b60006151cb600b83613be8565b91506151d682615195565b602082019050919050565b600060208201905081810360008301526151fa816151be565b9050919050565b7f50726f64756374206973206e6f7420666f722073616c65000000000000000000600082015250565b6000615237601783613be8565b915061524282615201565b602082019050919050565b600060208201905081810360008301526152668161522a565b9050919050565b7f50726963652063616e6e6f74206265206e656761746976650000000000000000600082015250565b60006152a3601883613be8565b91506152ae8261526d565b602082019050919050565b600060208201905081810360008301526152d281615296565b9050919050565b7f4e616d652063616e6e6f7420626520656d707479000000000000000000000000600082015250565b600061530f601483613be8565b915061531a826152d9565b602082019050919050565b6000602082019050818103600083015261533e81615302565b9050919050565b7f4974656d20697320616c72656164792061726368697665640000000000000000600082015250565b600061537b601883613be8565b915061538682615345565b602082019050919050565b600060208201905081810360008301526153aa8161536e565b9050919050565b6000819050919050565b60006153d66153d16153cc84613a26565b6153b1565b613a26565b9050919050565b60006153e8826153bb565b9050919050565b60006153fa826153dd565b9050919050565b61540a816153ef565b82525050565b60006040820190506154256000830185615401565b6154326020830184613bce565b9392505050565b7f456d70747920537461636b000000000000000000000000000000000000000000600082015250565b600061546f600b83613be8565b915061547a82615439565b602082019050919050565b6000602082019050818103600083015261549e81615462565b9050919050565b7f4944206f7574206f66207468652073636f706500000000000000000000000000600082015250565b60006154db601383613be8565b91506154e6826154a5565b602082019050919050565b6000602082019050818103600083015261550a816154ce565b9050919050565b600081905092915050565b600061552782613bdd565b6155318185615511565b9350615541818560208601613bf9565b80840191505092915050565b6000615559828461551c565b915081905092915050565b7f5469636b6574206973206f70656e000000000000000000000000000000000000600082015250565b600061559a600e83613be8565b91506155a582615564565b602082019050919050565b600060208201905081810360008301526155c98161558d565b9050919050565b7f5469636b65742069732061726368697665640000000000000000000000000000600082015250565b6000615606601283613be8565b9150615611826155d0565b602082019050919050565b60006020820190508181036000830152615635816155f9565b905091905056fea26469706673582212208026642082fda48a7ba4ca8e0829d9016639e3fb8604e95219ff912d48ae30f264736f6c634300080c0033",
  "linkReferences": {},
  "deployedLinkReferences": {}
}