{
  "_format": "hh-sol-artifact-1",
  "contractName": "Kontrakt",
  "sourceName": "contracts/kontrakt.sol",
  "abi": [
    {
      "inputs": [
        {
          "internalType": "string",
          "name": "_name",
          "type": "string"
        },
        {
          "internalType": "uint256",
          "name": "_price",
          "type": "uint256"
        }
      ],
      "name": "AddItem",
      "outputs": [],
      "stateMutability": "nonpayable",
      "type": "function"
    },
    {
      "inputs": [
        {
          "internalType": "uint256",
          "name": "_productID",
          "type": "uint256"
        },
        {
          "internalType": "address",
          "name": "user",
          "type": "address"
        }
      ],
      "name": "AddToHistory",
      "outputs": [
        {
          "internalType": "bool",
          "name": "",
          "type": "bool"
        }
      ],
      "stateMutability": "nonpayable",
      "type": "function"
    },
    {
      "inputs": [
        {
          "internalType": "uint256",
          "name": "_id",
          "type": "uint256"
        }
      ],
      "name": "ArchiveItem",
      "outputs": [],
      "stateMutability": "nonpayable",
      "type": "function"
    },
    {
      "inputs": [],
      "name": "GetAll",
      "outputs": [
        {
          "components": [
            {
              "internalType": "uint256",
              "name": "id",
              "type": "uint256"
            },
            {
              "internalType": "uint256",
              "name": "NotificationData",
              "type": "uint256"
            },
            {
              "internalType": "string",
              "name": "Explenation",
              "type": "string"
            },
            {
              "internalType": "uint256",
              "name": "TokenAmount",
              "type": "uint256"
            },
            {
              "internalType": "address",
              "name": "SenderWallet",
              "type": "address"
            },
            {
              "internalType": "address",
              "name": "ReciverWallet",
              "type": "address"
            },
            {
              "internalType": "enum Notifications.statuses",
              "name": "Status",
              "type": "uint8"
            },
            {
              "internalType": "string",
              "name": "StatusExplanation",
              "type": "string"
            }
          ],
          "internalType": "struct Notifications.Notification[]",
          "name": "",
          "type": "tuple[]"
        }
      ],
      "stateMutability": "view",
      "type": "function"
    },
    {
      "inputs": [],
      "name": "GetAllHistory",
      "outputs": [
        {
          "components": [
            {
              "internalType": "uint256",
              "name": "id",
              "type": "uint256"
            },
            {
              "internalType": "address",
              "name": "buyer",
              "type": "address"
            },
            {
              "internalType": "uint256",
              "name": "data",
              "type": "uint256"
            },
            {
              "internalType": "uint256",
              "name": "item_ID",
              "type": "uint256"
            }
          ],
          "internalType": "struct marketplace.history[]",
          "name": "",
          "type": "tuple[]"
        }
      ],
      "stateMutability": "view",
      "type": "function"
    },
    {
      "inputs": [],
      "name": "GetAllItems",
      "outputs": [
        {
          "components": [
            {
              "internalType": "uint256",
              "name": "id",
              "type": "uint256"
            },
            {
              "internalType": "string",
              "name": "name",
              "type": "string"
            },
            {
              "internalType": "uint256",
              "name": "price",
              "type": "uint256"
            },
            {
              "internalType": "enum marketplace.item_status",
              "name": "status",
              "type": "uint8"
            }
          ],
          "internalType": "struct marketplace.items[]",
          "name": "",
          "type": "tuple[]"
        }
      ],
      "stateMutability": "view",
      "type": "function"
    },
    {
      "inputs": [],
      "name": "GetForSaleItems",
      "outputs": [
        {
          "components": [
            {
              "internalType": "uint256",
              "name": "id",
              "type": "uint256"
            },
            {
              "internalType": "string",
              "name": "name",
              "type": "string"
            },
            {
              "internalType": "uint256",
              "name": "price",
              "type": "uint256"
            },
            {
              "internalType": "enum marketplace.item_status",
              "name": "status",
              "type": "uint8"
            }
          ],
          "internalType": "struct marketplace.items[]",
          "name": "",
          "type": "tuple[]"
        }
      ],
      "stateMutability": "view",
      "type": "function"
    },
    {
      "inputs": [
        {
          "internalType": "address",
          "name": "_owner",
          "type": "address"
        }
      ],
      "name": "GetMy",
      "outputs": [
        {
          "components": [
            {
              "internalType": "uint256",
              "name": "id",
              "type": "uint256"
            },
            {
              "internalType": "uint256",
              "name": "NotificationData",
              "type": "uint256"
            },
            {
              "internalType": "string",
              "name": "Explenation",
              "type": "string"
            },
            {
              "internalType": "uint256",
              "name": "TokenAmount",
              "type": "uint256"
            },
            {
              "internalType": "address",
              "name": "SenderWallet",
              "type": "address"
            },
            {
              "internalType": "address",
              "name": "ReciverWallet",
              "type": "address"
            },
            {
              "internalType": "enum Notifications.statuses",
              "name": "Status",
              "type": "uint8"
            },
            {
              "internalType": "string",
              "name": "StatusExplanation",
              "type": "string"
            }
          ],
          "internalType": "struct Notifications.Notification[]",
          "name": "",
          "type": "tuple[]"
        }
      ],
      "stateMutability": "view",
      "type": "function"
    },
    {
      "inputs": [],
      "name": "GetSent",
      "outputs": [
        {
          "components": [
            {
              "internalType": "uint256",
              "name": "id",
              "type": "uint256"
            },
            {
              "internalType": "uint256",
              "name": "NotificationData",
              "type": "uint256"
            },
            {
              "internalType": "string",
              "name": "Explenation",
              "type": "string"
            },
            {
              "internalType": "uint256",
              "name": "TokenAmount",
              "type": "uint256"
            },
            {
              "internalType": "address",
              "name": "SenderWallet",
              "type": "address"
            },
            {
              "internalType": "address",
              "name": "ReciverWallet",
              "type": "address"
            },
            {
              "internalType": "enum Notifications.statuses",
              "name": "Status",
              "type": "uint8"
            },
            {
              "internalType": "string",
              "name": "StatusExplanation",
              "type": "string"
            }
          ],
          "internalType": "struct Notifications.Notification[]",
          "name": "",
          "type": "tuple[]"
        }
      ],
      "stateMutability": "view",
      "type": "function"
    },
    {
      "inputs": [
        {
          "internalType": "uint256",
          "name": "",
          "type": "uint256"
        }
      ],
      "name": "Items",
      "outputs": [
        {
          "internalType": "uint256",
          "name": "id",
          "type": "uint256"
        },
        {
          "internalType": "string",
          "name": "name",
          "type": "string"
        },
        {
          "internalType": "uint256",
          "name": "price",
          "type": "uint256"
        },
        {
          "internalType": "enum marketplace.item_status",
          "name": "status",
          "type": "uint8"
        }
      ],
      "stateMutability": "view",
      "type": "function"
    },
    {
      "inputs": [
        {
          "internalType": "string",
          "name": "_Explenation",
          "type": "string"
        },
        {
          "internalType": "uint256",
          "name": "_TokenAmount",
          "type": "uint256"
        },
        {
          "internalType": "address",
          "name": "_ReciverWallet",
          "type": "address"
        },
        {
          "internalType": "address",
          "name": "_SenderWallet",
          "type": "address"
        }
      ],
      "name": "NewTicket",
      "outputs": [],
      "stateMutability": "nonpayable",
      "type": "function"
    },
    {
      "inputs": [
        {
          "internalType": "uint256",
          "name": "_id",
          "type": "uint256"
        }
      ],
      "name": "SellItem",
      "outputs": [],
      "stateMutability": "nonpayable",
      "type": "function"
    },
    {
      "inputs": [
        {
          "internalType": "uint256",
          "name": "",
          "type": "uint256"
        }
      ],
      "name": "Table",
      "outputs": [
        {
          "internalType": "uint256",
          "name": "id",
          "type": "uint256"
        },
        {
          "internalType": "uint256",
          "name": "NotificationData",
          "type": "uint256"
        },
        {
          "internalType": "string",
          "name": "Explenation",
          "type": "string"
        },
        {
          "internalType": "uint256",
          "name": "TokenAmount",
          "type": "uint256"
        },
        {
          "internalType": "address",
          "name": "SenderWallet",
          "type": "address"
        },
        {
          "internalType": "address",
          "name": "ReciverWallet",
          "type": "address"
        },
        {
          "internalType": "enum Notifications.statuses",
          "name": "Status",
          "type": "uint8"
        },
        {
          "internalType": "string",
          "name": "StatusExplanation",
          "type": "string"
        }
      ],
      "stateMutability": "view",
      "type": "function"
    },
    {
      "inputs": [
        {
          "internalType": "address",
          "name": "moneyAddres",
          "type": "address"
        },
        {
          "internalType": "address",
          "name": "myAddress",
          "type": "address"
        }
      ],
      "name": "addMoney",
      "outputs": [],
      "stateMutability": "payable",
      "type": "function"
    },
    {
      "inputs": [
        {
          "internalType": "address",
          "name": "user",
          "type": "address"
        },
        {
          "internalType": "string",
          "name": "name",
          "type": "string"
        },
        {
          "internalType": "string",
          "name": "surname",
          "type": "string"
        },
        {
          "internalType": "string",
          "name": "email",
          "type": "string"
        },
        {
          "internalType": "enum AccountTypes.role",
          "name": "rank",
          "type": "uint8"
        }
      ],
      "name": "addUser",
      "outputs": [],
      "stateMutability": "nonpayable",
      "type": "function"
    },
    {
      "inputs": [
        {
          "internalType": "uint256",
          "name": "_id",
          "type": "uint256"
        },
        {
          "internalType": "string",
          "name": "_Explenation",
          "type": "string"
        },
        {
          "internalType": "address",
          "name": "moneyAddres",
          "type": "address"
        }
      ],
      "name": "approveTicket",
      "outputs": [],
      "stateMutability": "payable",
      "type": "function"
    },
    {
      "inputs": [
        {
          "internalType": "uint256",
          "name": "item_id",
          "type": "uint256"
        },
        {
          "internalType": "address",
          "name": "_buyer",
          "type": "address"
        },
        {
          "internalType": "address",
          "name": "moneyAddres",
          "type": "address"
        }
      ],
      "name": "buyItem",
      "outputs": [],
      "stateMutability": "payable",
      "type": "function"
    },
    {
      "inputs": [
        {
          "internalType": "uint256",
          "name": "_id",
          "type": "uint256"
        },
        {
          "internalType": "enum AccountTypes.role",
          "name": "new_role",
          "type": "uint8"
        }
      ],
      "name": "change_role",
      "outputs": [
        {
          "internalType": "bool",
          "name": "",
          "type": "bool"
        }
      ],
      "stateMutability": "nonpayable",
      "type": "function"
    },
    {
      "inputs": [
        {
          "internalType": "string",
          "name": "a",
          "type": "string"
        },
        {
          "internalType": "string",
          "name": "b",
          "type": "string"
        }
      ],
      "name": "compareStrings",
      "outputs": [
        {
          "internalType": "bool",
          "name": "",
          "type": "bool"
        }
      ],
      "stateMutability": "pure",
      "type": "function"
    },
    {
      "inputs": [
        {
          "internalType": "address",
          "name": "user",
          "type": "address"
        },
        {
          "internalType": "string",
          "name": "name",
          "type": "string"
        },
        {
          "internalType": "string",
          "name": "surname",
          "type": "string"
        }
      ],
      "name": "findUser",
      "outputs": [
        {
          "internalType": "bool",
          "name": "",
          "type": "bool"
        }
      ],
      "stateMutability": "view",
      "type": "function"
    },
    {
      "inputs": [
        {
          "internalType": "address",
          "name": "wallet",
          "type": "address"
        }
      ],
      "name": "findWallet",
      "outputs": [
        {
          "internalType": "bool",
          "name": "",
          "type": "bool"
        }
      ],
      "stateMutability": "view",
      "type": "function"
    },
    {
      "inputs": [],
      "name": "getAllUsers",
      "outputs": [
        {
          "components": [
            {
              "internalType": "uint256",
              "name": "ID",
              "type": "uint256"
            },
            {
              "internalType": "address",
              "name": "user",
              "type": "address"
            },
            {
              "internalType": "string",
              "name": "Name",
              "type": "string"
            },
            {
              "internalType": "string",
              "name": "Surname",
              "type": "string"
            },
            {
              "internalType": "string",
              "name": "Email",
              "type": "string"
            },
            {
              "internalType": "enum AccountTypes.role",
              "name": "Rank",
              "type": "uint8"
            }
          ],
          "internalType": "struct AccountTypes.user_t[]",
          "name": "",
          "type": "tuple[]"
        }
      ],
      "stateMutability": "view",
      "type": "function"
    },
    {
      "inputs": [],
      "name": "getBalanceKontrakt",
      "outputs": [
        {
          "internalType": "uint256",
          "name": "",
          "type": "uint256"
        }
      ],
      "stateMutability": "view",
      "type": "function"
    },
    {
      "inputs": [
        {
          "internalType": "address",
          "name": "userAddress",
          "type": "address"
        }
      ],
      "name": "getUser",
      "outputs": [
        {
          "components": [
            {
              "internalType": "uint256",
              "name": "ID",
              "type": "uint256"
            },
            {
              "internalType": "address",
              "name": "user",
              "type": "address"
            },
            {
              "internalType": "string",
              "name": "Name",
              "type": "string"
            },
            {
              "internalType": "string",
              "name": "Surname",
              "type": "string"
            },
            {
              "internalType": "string",
              "name": "Email",
              "type": "string"
            },
            {
              "internalType": "enum AccountTypes.role",
              "name": "Rank",
              "type": "uint8"
            }
          ],
          "internalType": "struct AccountTypes.user_t",
          "name": "",
          "type": "tuple"
        }
      ],
      "stateMutability": "view",
      "type": "function"
    },
    {
      "inputs": [
        {
          "internalType": "uint256",
          "name": "",
          "type": "uint256"
        }
      ],
      "name": "historia",
      "outputs": [
        {
          "internalType": "uint256",
          "name": "id",
          "type": "uint256"
        },
        {
          "internalType": "address",
          "name": "buyer",
          "type": "address"
        },
        {
          "internalType": "uint256",
          "name": "data",
          "type": "uint256"
        },
        {
          "internalType": "uint256",
          "name": "item_ID",
          "type": "uint256"
        }
      ],
      "stateMutability": "view",
      "type": "function"
    },
    {
      "inputs": [
        {
          "internalType": "uint256",
          "name": "_id",
          "type": "uint256"
        },
        {
          "internalType": "string",
          "name": "_Explenation",
          "type": "string"
        }
      ],
      "name": "reject",
      "outputs": [],
      "stateMutability": "nonpayable",
      "type": "function"
    },
    {
      "inputs": [
        {
          "internalType": "uint256",
          "name": "",
          "type": "uint256"
        }
      ],
      "name": "workers",
      "outputs": [
        {
          "internalType": "uint256",
          "name": "ID",
          "type": "uint256"
        },
        {
          "internalType": "address",
          "name": "user",
          "type": "address"
        },
        {
          "internalType": "string",
          "name": "Name",
          "type": "string"
        },
        {
          "internalType": "string",
          "name": "Surname",
          "type": "string"
        },
        {
          "internalType": "string",
          "name": "Email",
          "type": "string"
        },
        {
          "internalType": "enum AccountTypes.role",
          "name": "Rank",
          "type": "uint8"
        }
      ],
      "stateMutability": "view",
      "type": "function"
    }
  ],
  "bytecode": "0x608060405230600760006101000a81548173ffffffffffffffffffffffffffffffffffffffff021916908373ffffffffffffffffffffffffffffffffffffffff16021790555034801561005157600080fd5b50615fed80620000626000396000f3fe60806040526004361061019c5760003560e01c806375364049116100ec578063a5904d211161008a578063db2c916611610064578063db2c916614610606578063e2842d7914610631578063e951ec551461065c578063f1a22dc2146106875761019c565b8063a5904d2114610548578063bed34bba1461058c578063d286c5a8146105c95761019c565b806390303f16116100c657806390303f161461049b5780639b6d756a146104c4578063a03e1490146104e0578063a5440fa01461051d5761019c565b8063753640491461042b57806377b26af2146104545780637aa87c8c1461047f5761019c565b80634064f254116101595780636e538078116101335780636e5380781461035f5780636f77926b1461038857806371d68a97146103c557806371d6f213146103ee5761019c565b80634064f254146102d057806355d96d4f146102f957806366590a60146103365761019c565b8063040828b6146101a157806317b47cc4146101cc578063260cbf6e1461020c5780633504d93514610249578063357b4b1314610265578063389271ed146102a5575b600080fd5b3480156101ad57600080fd5b506101b66106c9565b6040516101c39190614380565b60405180910390f35b3480156101d857600080fd5b506101f360048036038101906101ee91906143e2565b61085a565b604051610203949392919061452e565b60405180910390f35b34801561021857600080fd5b50610233600480360381019061022e91906145a6565b61092f565b6040516102409190614601565b60405180910390f35b610263600480360381019061025e919061461c565b610a5d565b005b34801561027157600080fd5b5061028c600480360381019061028791906143e2565b610c8e565b60405161029c949392919061467e565b60405180910390f35b3480156102b157600080fd5b506102ba610cee565b6040516102c79190614841565b60405180910390f35b3480156102dc57600080fd5b506102f760048036038101906102f291906148c8565b610eec565b005b34801561030557600080fd5b50610320600480360381019061031b9190614950565b61119d565b60405161032d9190614b3e565b60405180910390f35b34801561034257600080fd5b5061035d60048036038101906103589190614b85565b61165e565b005b34801561036b57600080fd5b50610386600480360381019061038191906143e2565b61199d565b005b34801561039457600080fd5b506103af60048036038101906103aa9190614950565b611b17565b6040516103bc9190614d40565b60405180910390f35b3480156103d157600080fd5b506103ec60048036038101906103e79190614d62565b611f1a565b005b3480156103fa57600080fd5b5061041560048036038101906104109190614950565b612155565b6040516104229190614601565b60405180910390f35b34801561043757600080fd5b50610452600480360381019061044d9190614dc2565b61220b565b005b34801561046057600080fd5b506104696123ac565b6040516104769190614841565b60405180910390f35b61049960048036038101906104949190614e22565b6126ee565b005b3480156104a757600080fd5b506104c260048036038101906104bd91906143e2565b612779565b005b6104de60048036038101906104d99190614e62565b6128f1565b005b3480156104ec57600080fd5b5061050760048036038101906105029190614ed6565b612bd5565b6040516105149190614601565b60405180910390f35b34801561052957600080fd5b50610532612cbc565b60405161053f9190614b3e565b60405180910390f35b34801561055457600080fd5b5061056f600480360381019061056a91906143e2565b613003565b604051610583989796959493929190614f25565b60405180910390f35b34801561059857600080fd5b506105b360048036038101906105ae91906150e1565b6131b8565b6040516105c09190614601565b60405180910390f35b3480156105d557600080fd5b506105f060048036038101906105eb9190615159565b613211565b6040516105fd9190614601565b60405180910390f35b34801561061257600080fd5b5061061b6134d1565b60405161062891906151ee565b60405180910390f35b34801561063d57600080fd5b50610646613596565b6040516106539190615362565b60405180910390f35b34801561066857600080fd5b50610671613904565b60405161067e9190614b3e565b60405180910390f35b34801561069357600080fd5b506106ae60048036038101906106a991906143e2565b613d8f565b6040516106c096959493929190615393565b60405180910390f35b6060600060028054905011610713576040517f08c379a000000000000000000000000000000000000000000000000000000000815260040161070a90615455565b60405180910390fd5b600060028054905067ffffffffffffffff81111561073457610733614fb6565b5b60405190808252806020026020018201604052801561076d57816020015b61075a613fa0565b8152602001906001900390816107525790505b50905060005b600280549050811015610852576002818154811061079457610793615475565b5b9060005260206000209060040201604051806080016040529081600082015481526020016001820160009054906101000a900473ffffffffffffffffffffffffffffffffffffffff1673ffffffffffffffffffffffffffffffffffffffff1673ffffffffffffffffffffffffffffffffffffffff1681526020016002820154815260200160038201548152505082828151811061083457610833615475565b5b6020026020010181905250808061084a906154d3565b915050610773565b508091505090565b6001818154811061086a57600080fd5b90600052602060002090600402016000915090508060000154908060010180546108939061554b565b80601f01602080910402602001604051908101604052809291908181526020018280546108bf9061554b565b801561090c5780601f106108e15761010080835404028352916020019161090c565b820191906000526020600020905b8154815290600101906020018083116108ef57829003601f168201915b5050505050908060020154908060030160009054906101000a900460ff16905084565b6000600180549050831115610979576040517f08c379a0000000000000000000000000000000000000000000000000000000008152600401610970906155c9565b60405180910390fd5b600060028054905090506000429050600260405180608001604052808481526020018673ffffffffffffffffffffffffffffffffffffffff1681526020018381526020018781525090806001815401808255809150506001900390600052602060002090600402016000909190919091506000820151816000015560208201518160010160006101000a81548173ffffffffffffffffffffffffffffffffffffffff021916908373ffffffffffffffffffffffffffffffffffffffff1602179055506040820151816002015560608201518160030155505060019250505092915050565b6000831015610aa1576040517f08c379a0000000000000000000000000000000000000000000000000000000008152600401610a9890615635565b60405180910390fd5b600060018054905011610ae9576040517f08c379a0000000000000000000000000000000000000000000000000000000008152600401610ae090615455565b60405180910390fd5b6001805490508310610b30576040517f08c379a0000000000000000000000000000000000000000000000000000000008152600401610b27906156a1565b60405180910390fd5b60006001811115610b4457610b436144b7565b5b60018481548110610b5857610b57615475565b5b906000526020600020906004020160030160009054906101000a900460ff166001811115610b8957610b886144b7565b5b14610bc9576040517f08c379a0000000000000000000000000000000000000000000000000000000008152600401610bc09061570d565b60405180910390fd5b60008190508073ffffffffffffffffffffffffffffffffffffffff166323b872dd848460018881548110610c0057610bff615475565b5b9060005260206000209060040201600201546040518463ffffffff1660e01b8152600401610c309392919061578c565b6020604051808303816000875af1158015610c4f573d6000803e3d6000fd5b505050506040513d601f19601f82011682018060405250810190610c7391906157ef565b50610c7d84612779565b610c87848461092f565b5050505050565b60028181548110610c9e57600080fd5b90600052602060002090600402016000915090508060000154908060010160009054906101000a900473ffffffffffffffffffffffffffffffffffffffff16908060020154908060030154905084565b6060600060018054905011610d38576040517f08c379a0000000000000000000000000000000000000000000000000000000008152600401610d2f90615455565b60405180910390fd5b600060018054905067ffffffffffffffff811115610d5957610d58614fb6565b5b604051908082528060200260200182016040528015610d9257816020015b610d7f613fde565b815260200190600190039081610d775790505b50905060005b600180549050811015610ee45760018181548110610db957610db8615475565b5b906000526020600020906004020160405180608001604052908160008201548152602001600182018054610dec9061554b565b80601f0160208091040260200160405190810160405280929190818152602001828054610e189061554b565b8015610e655780601f10610e3a57610100808354040283529160200191610e65565b820191906000526020600020905b815481529060010190602001808311610e4857829003601f168201915b50505050508152602001600282015481526020016003820160009054906101000a900460ff166001811115610e9d57610e9c6144b7565b5b6001811115610eaf57610eae6144b7565b5b81525050828281518110610ec657610ec5615475565b5b60200260200101819052508080610edc906154d3565b915050610d98565b508091505090565b60008311610f2f576040517f08c379a0000000000000000000000000000000000000000000000000000000008152600401610f2690615868565b60405180910390fd5b6000858590501415610f76576040517f08c379a0000000000000000000000000000000000000000000000000000000008152600401610f6d906158d4565b60405180910390fd5b600060048054905090506000429050600460405180610100016040528084815260200183815260200189898080601f016020809104026020016040519081016040528093929190818152602001838380828437600081840152601f19601f8201169050808301925050505050505081526020018781526020018573ffffffffffffffffffffffffffffffffffffffff1681526020018673ffffffffffffffffffffffffffffffffffffffff1681526020016000600281111561103b5761103a6144b7565b5b8152602001604051806020016040528060008152508152509080600181540180825580915050600190039060005260206000209060070201600090919091909150600082015181600001556020820151816001015560408201518160020190805190602001906110ac929190614018565b506060820151816003015560808201518160040160006101000a81548173ffffffffffffffffffffffffffffffffffffffff021916908373ffffffffffffffffffffffffffffffffffffffff16021790555060a08201518160050160006101000a81548173ffffffffffffffffffffffffffffffffffffffff021916908373ffffffffffffffffffffffffffffffffffffffff16021790555060c08201518160050160146101000a81548160ff021916908360028111156111705761116f6144b7565b5b021790555060e0820151816006019080519060200190611191929190614018565b50505050505050505050565b60606000600480549050116111e7576040517f08c379a00000000000000000000000000000000000000000000000000000000081526004016111de90615455565b60405180910390fd5b6000805b600480549050811015611293578373ffffffffffffffffffffffffffffffffffffffff166004828154811061122357611222615475565b5b906000526020600020906007020160040160009054906101000a900473ffffffffffffffffffffffffffffffffffffffff1673ffffffffffffffffffffffffffffffffffffffff16141561128057818061127c906154d3565b9250505b808061128b906154d3565b9150506111eb565b50600081116112d7576040517f08c379a00000000000000000000000000000000000000000000000000000000081526004016112ce90615940565b60405180910390fd5b60008167ffffffffffffffff8111156112f3576112f2614fb6565b5b60405190808252806020026020018201604052801561132c57816020015b61131961409e565b8152602001906001900390816113115790505b5090506000915060005b600480549050811015611653578473ffffffffffffffffffffffffffffffffffffffff166004828154811061136e5761136d615475565b5b906000526020600020906007020160040160009054906101000a900473ffffffffffffffffffffffffffffffffffffffff1673ffffffffffffffffffffffffffffffffffffffff16141561164057600481815481106113d0576113cf615475565b5b906000526020600020906007020160405180610100016040529081600082015481526020016001820154815260200160028201805461140e9061554b565b80601f016020809104026020016040519081016040528092919081815260200182805461143a9061554b565b80156114875780601f1061145c57610100808354040283529160200191611487565b820191906000526020600020905b81548152906001019060200180831161146a57829003601f168201915b50505050508152602001600382015481526020016004820160009054906101000a900473ffffffffffffffffffffffffffffffffffffffff1673ffffffffffffffffffffffffffffffffffffffff1673ffffffffffffffffffffffffffffffffffffffff1681526020016005820160009054906101000a900473ffffffffffffffffffffffffffffffffffffffff1673ffffffffffffffffffffffffffffffffffffffff1673ffffffffffffffffffffffffffffffffffffffff1681526020016005820160149054906101000a900460ff16600281111561156b5761156a6144b7565b5b600281111561157d5761157c6144b7565b5b81526020016006820180546115919061554b565b80601f01602080910402602001604051908101604052809291908181526020018280546115bd9061554b565b801561160a5780601f106115df5761010080835404028352916020019161160a565b820191906000526020600020905b8154815290600101906020018083116115ed57829003601f168201915b50505050508152505082848151811061162657611625615475565b5b6020026020010181905250828061163c906154d3565b9350505b808061164b906154d3565b915050611336565b508092505050919050565b600015153073ffffffffffffffffffffffffffffffffffffffff1663d286c5a88a8a8a8a8a6040518663ffffffff1660e01b81526004016116a395949392919061598d565b602060405180830381865afa1580156116c0573d6000803e3d6000fd5b505050506040513d601f19601f820116820180604052508101906116e491906157ef565b151514611726576040517f08c379a000000000000000000000000000000000000000000000000000000000815260040161171d90615a22565b60405180910390fd5b61172e614121565b60068054905081600001818152505088816020019073ffffffffffffffffffffffffffffffffffffffff16908173ffffffffffffffffffffffffffffffffffffffff168152505087878080601f016020809104026020016040519081016040528093929190818152602001838380828437600081840152601f19601f82011690508083019250505050505050816040018190525085858080601f016020809104026020016040519081016040528093929190818152602001838380828437600081840152601f19601f82011690508083019250505050505050816060018190525083838080601f016020809104026020016040519081016040528093929190818152602001838380828437600081840152601f19601f820116905080830192505050505050508160800181905250818160a001906004811115611874576118736144b7565b5b90816004811115611888576118876144b7565b5b8152505060068190806001815401808255809150506001900390600052602060002090600602016000909190919091506000820151816000015560208201518160010160006101000a81548173ffffffffffffffffffffffffffffffffffffffff021916908373ffffffffffffffffffffffffffffffffffffffff1602179055506040820151816002019080519060200190611925929190614018565b506060820151816003019080519060200190611942929190614018565b50608082015181600401908051906020019061195f929190614018565b5060a08201518160050160006101000a81548160ff0219169083600481111561198b5761198a6144b7565b5b02179055505050505050505050505050565b6000600180549050116119e5576040517f08c379a00000000000000000000000000000000000000000000000000000000081526004016119dc90615455565b60405180910390fd5b6001805490508110611a2c576040517f08c379a0000000000000000000000000000000000000000000000000000000008152600401611a23906156a1565b60405180910390fd5b60006001811115611a4057611a3f6144b7565b5b60018281548110611a5457611a53615475565b5b906000526020600020906004020160030160009054906101000a900460ff166001811115611a8557611a846144b7565b5b1415611ac6576040517f08c379a0000000000000000000000000000000000000000000000000000000008152600401611abd90615a8e565b60405180910390fd5b600060018281548110611adc57611adb615475565b5b906000526020600020906004020160030160006101000a81548160ff02191690836001811115611b0f57611b0e6144b7565b5b021790555050565b611b1f614121565b600060068054905011611b67576040517f08c379a0000000000000000000000000000000000000000000000000000000008152600401611b5e90615455565b60405180910390fd5b60006040518060c0016040528060008152602001600073ffffffffffffffffffffffffffffffffffffffff168152602001604051806020016040528060008152508152602001604051806020016040528060008152508152602001604051806020016040528060008152508152602001600480811115611bea57611be96144b7565b5b815250905060005b600680549050811015611f10578373ffffffffffffffffffffffffffffffffffffffff1660068281548110611c2a57611c29615475565b5b906000526020600020906006020160010160009054906101000a900473ffffffffffffffffffffffffffffffffffffffff1673ffffffffffffffffffffffffffffffffffffffff161415611efd5760068181548110611c8c57611c8b615475565b5b90600052602060002090600602016040518060c0016040529081600082015481526020016001820160009054906101000a900473ffffffffffffffffffffffffffffffffffffffff1673ffffffffffffffffffffffffffffffffffffffff1673ffffffffffffffffffffffffffffffffffffffff168152602001600282018054611d159061554b565b80601f0160208091040260200160405190810160405280929190818152602001828054611d419061554b565b8015611d8e5780601f10611d6357610100808354040283529160200191611d8e565b820191906000526020600020905b815481529060010190602001808311611d7157829003601f168201915b50505050508152602001600382018054611da79061554b565b80601f0160208091040260200160405190810160405280929190818152602001828054611dd39061554b565b8015611e205780601f10611df557610100808354040283529160200191611e20565b820191906000526020600020905b815481529060010190602001808311611e0357829003601f168201915b50505050508152602001600482018054611e399061554b565b80601f0160208091040260200160405190810160405280929190818152602001828054611e659061554b565b8015611eb25780601f10611e8757610100808354040283529160200191611eb2565b820191906000526020600020905b815481529060010190602001808311611e9557829003601f168201915b505050505081526020016005820160009054906101000a900460ff166004811115611ee057611edf6144b7565b5b6004811115611ef257611ef16144b7565b5b815250509150611f10565b8080611f08906154d3565b915050611bf2565b5080915050919050565b6000831015611f5e576040517f08c379a0000000000000000000000000000000000000000000000000000000008152600401611f5590615afa565b60405180910390fd5b600060048054905011611fa6576040517f08c379a0000000000000000000000000000000000000000000000000000000008152600401611f9d90615455565b60405180910390fd5b6004805490508310611fed576040517f08c379a0000000000000000000000000000000000000000000000000000000008152600401611fe490615b66565b60405180910390fd5b6000828290501415612034576040517f08c379a000000000000000000000000000000000000000000000000000000000815260040161202b906158d4565b60405180910390fd5b60006002811115612048576120476144b7565b5b6004848154811061205c5761205b615475565b5b906000526020600020906007020160050160149054906101000a900460ff16600281111561208d5761208c6144b7565b5b146120cd576040517f08c379a00000000000000000000000000000000000000000000000000000000081526004016120c490615bd2565b60405180910390fd5b6002600484815481106120e3576120e2615475565b5b906000526020600020906007020160050160146101000a81548160ff02191690836002811115612116576121156144b7565b5b021790555081816004858154811061213157612130615475565b5b9060005260206000209060070201600601919061214f92919061417f565b50505050565b600080600090505b600680549050811015612200578273ffffffffffffffffffffffffffffffffffffffff166006828154811061219557612194615475565b5b906000526020600020906006020160010160009054906101000a900473ffffffffffffffffffffffffffffffffffffffff1673ffffffffffffffffffffffffffffffffffffffff1614156121ed576001915050612206565b80806121f8906154d3565b91505061215d565b50600090505b919050565b600081101561224f576040517f08c379a000000000000000000000000000000000000000000000000000000000815260040161224690615c3e565b60405180910390fd5b6000838390501415612296576040517f08c379a000000000000000000000000000000000000000000000000000000000815260040161228d90615caa565b60405180910390fd5b600060018054905090506001604051806080016040528083815260200186868080601f016020809104026020016040519081016040528093929190818152602001838380828437600081840152601f19601f82011690508083019250505050505050815260200184815260200160006001811115612317576123166144b7565b5b8152509080600181540180825580915050600190039060005260206000209060040201600090919091909150600082015181600001556020820151816001019080519060200190612369929190614018565b506040820151816002015560608201518160030160006101000a81548160ff0219169083600181111561239f5761239e6144b7565b5b0217905550505050505050565b60606000600180549050116123f6576040517f08c379a00000000000000000000000000000000000000000000000000000000081526004016123ed90615455565b60405180910390fd5b6000805b600180549050811015612488576000600181111561241b5761241a6144b7565b5b6001828154811061242f5761242e615475565b5b906000526020600020906004020160030160009054906101000a900460ff1660018111156124605761245f6144b7565b5b1415612475578180612471906154d3565b9250505b8080612480906154d3565b9150506123fa565b50600081116124cc576040517f08c379a00000000000000000000000000000000000000000000000000000000081526004016124c390615d16565b60405180910390fd5b60008167ffffffffffffffff8111156124e8576124e7614fb6565b5b60405190808252806020026020018201604052801561252157816020015b61250e613fde565b8152602001906001900390816125065790505b5090506000915060005b6001805490508110156126e5576000600181111561254c5761254b6144b7565b5b600182815481106125605761255f615475565b5b906000526020600020906004020160030160009054906101000a900460ff166001811115612591576125906144b7565b5b14156126d257600181815481106125ab576125aa615475565b5b9060005260206000209060040201604051806080016040529081600082015481526020016001820180546125de9061554b565b80601f016020809104026020016040519081016040528092919081815260200182805461260a9061554b565b80156126575780601f1061262c57610100808354040283529160200191612657565b820191906000526020600020905b81548152906001019060200180831161263a57829003601f168201915b50505050508152602001600282015481526020016003820160009054906101000a900460ff16600181111561268f5761268e6144b7565b5b60018111156126a1576126a06144b7565b5b815250508284815181106126b8576126b7615475565b5b602002602001018190525082806126ce906154d3565b9350505b80806126dd906154d3565b91505061252b565b50809250505090565b60008290508073ffffffffffffffffffffffffffffffffffffffff1663a9059cbb836127106040518363ffffffff1660e01b8152600401612730929190615d71565b6020604051808303816000875af115801561274f573d6000803e3d6000fd5b505050506040513d601f19601f8201168201806040525081019061277391906157ef565b50505050565b6000600180549050116127c1576040517f08c379a00000000000000000000000000000000000000000000000000000000081526004016127b890615455565b60405180910390fd5b6001805490508110612808576040517f08c379a00000000000000000000000000000000000000000000000000000000081526004016127ff906156a1565b60405180910390fd5b60018081111561281b5761281a6144b7565b5b6001828154811061282f5761282e615475565b5b906000526020600020906004020160030160009054906101000a900460ff1660018111156128605761285f6144b7565b5b14156128a1576040517f08c379a000000000000000000000000000000000000000000000000000000000815260040161289890615de6565b60405180910390fd5b60018082815481106128b6576128b5615475565b5b906000526020600020906004020160030160006101000a81548160ff021916908360018111156128e9576128e86144b7565b5b021790555050565b6000841015612935576040517f08c379a000000000000000000000000000000000000000000000000000000000815260040161292c90615afa565b60405180910390fd5b60006004805490501161297d576040517f08c379a000000000000000000000000000000000000000000000000000000000815260040161297490615455565b60405180910390fd5b60048054905084106129c4576040517f08c379a00000000000000000000000000000000000000000000000000000000081526004016129bb90615b66565b60405180910390fd5b600060028111156129d8576129d76144b7565b5b600485815481106129ec576129eb615475565b5b906000526020600020906007020160050160149054906101000a900460ff166002811115612a1d57612a1c6144b7565b5b14612a5d576040517f08c379a0000000000000000000000000000000000000000000000000000000008152600401612a5490615bd2565b60405180910390fd5b600160048581548110612a7357612a72615475565b5b906000526020600020906007020160050160146101000a81548160ff02191690836002811115612aa657612aa56144b7565b5b0217905550828260048681548110612ac157612ac0615475565b5b90600052602060002090600702016006019190612adf92919061417f565b5060008190508073ffffffffffffffffffffffffffffffffffffffff1663a9059cbb60048781548110612b1557612b14615475565b5b906000526020600020906007020160050160009054906101000a900473ffffffffffffffffffffffffffffffffffffffff1660048881548110612b5b57612b5a615475565b5b9060005260206000209060070201600301546040518363ffffffff1660e01b8152600401612b8a929190615e06565b6020604051808303816000875af1158015612ba9573d6000803e3d6000fd5b505050506040513d601f19601f82011682018060405250810190612bcd91906157ef565b505050505050565b60008060068054905011612c1e576040517f08c379a0000000000000000000000000000000000000000000000000000000008152600401612c1590615e7b565b60405180910390fd5b6006805490508310612c65576040517f08c379a0000000000000000000000000000000000000000000000000000000008152600401612c5c90615ee7565b60405180910390fd5b8160068481548110612c7a57612c79615475565b5b906000526020600020906006020160050160006101000a81548160ff02191690836004811115612cad57612cac6144b7565b5b02179055506001905092915050565b6060600060048054905011612d06576040517f08c379a0000000000000000000000000000000000000000000000000000000008152600401612cfd90615455565b60405180910390fd5b600060048054905067ffffffffffffffff811115612d2757612d26614fb6565b5b604051908082528060200260200182016040528015612d6057816020015b612d4d61409e565b815260200190600190039081612d455790505b50905060005b600480549050811015612ffb5760048181548110612d8757612d86615475565b5b9060005260206000209060070201604051806101000160405290816000820154815260200160018201548152602001600282018054612dc59061554b565b80601f0160208091040260200160405190810160405280929190818152602001828054612df19061554b565b8015612e3e5780601f10612e1357610100808354040283529160200191612e3e565b820191906000526020600020905b815481529060010190602001808311612e2157829003601f168201915b50505050508152602001600382015481526020016004820160009054906101000a900473ffffffffffffffffffffffffffffffffffffffff1673ffffffffffffffffffffffffffffffffffffffff1673ffffffffffffffffffffffffffffffffffffffff1681526020016005820160009054906101000a900473ffffffffffffffffffffffffffffffffffffffff1673ffffffffffffffffffffffffffffffffffffffff1673ffffffffffffffffffffffffffffffffffffffff1681526020016005820160149054906101000a900460ff166002811115612f2257612f216144b7565b5b6002811115612f3457612f336144b7565b5b8152602001600682018054612f489061554b565b80601f0160208091040260200160405190810160405280929190818152602001828054612f749061554b565b8015612fc15780601f10612f9657610100808354040283529160200191612fc1565b820191906000526020600020905b815481529060010190602001808311612fa457829003601f168201915b505050505081525050828281518110612fdd57612fdc615475565b5b60200260200101819052508080612ff3906154d3565b915050612d66565b508091505090565b6004818154811061301357600080fd5b90600052602060002090600702016000915090508060000154908060010154908060020180546130429061554b565b80601f016020809104026020016040519081016040528092919081815260200182805461306e9061554b565b80156130bb5780601f10613090576101008083540402835291602001916130bb565b820191906000526020600020905b81548152906001019060200180831161309e57829003601f168201915b5050505050908060030154908060040160009054906101000a900473ffffffffffffffffffffffffffffffffffffffff16908060050160009054906101000a900473ffffffffffffffffffffffffffffffffffffffff16908060050160149054906101000a900460ff16908060060180546131359061554b565b80601f01602080910402602001604051908101604052809291908181526020018280546131619061554b565b80156131ae5780601f10613183576101008083540402835291602001916131ae565b820191906000526020600020905b81548152906001019060200180831161319157829003601f168201915b5050505050905088565b6000816040516020016131cb9190615f43565b60405160208183030381529060405280519060200120836040516020016131f29190615f43565b6040516020818303038152906040528051906020012014905092915050565b600080600090505b6006805490508110156134c2576006818154811061323a57613239615475565b5b906000526020600020906006020160010160009054906101000a900473ffffffffffffffffffffffffffffffffffffffff1673ffffffffffffffffffffffffffffffffffffffff168773ffffffffffffffffffffffffffffffffffffffff1614801561339d575061339c86868080601f016020809104026020016040519081016040528093929190818152602001838380828437600081840152601f19601f82011690508083019250505050505050600683815481106132fd576132fc615475565b5b906000526020600020906006020160020180546133199061554b565b80601f01602080910402602001604051908101604052809291908181526020018280546133459061554b565b80156133925780601f1061336757610100808354040283529160200191613392565b820191906000526020600020905b81548152906001019060200180831161337557829003601f168201915b50505050506131b8565b5b80156134a0575061349f84848080601f016020809104026020016040519081016040528093929190818152602001838380828437600081840152601f19601f8201169050808301925050505050505060068381548110613400576133ff615475565b5b9060005260206000209060060201600301805461341c9061554b565b80601f01602080910402602001604051908101604052809291908181526020018280546134489061554b565b80156134955780601f1061346a57610100808354040283529160200191613495565b820191906000526020600020905b81548152906001019060200180831161347857829003601f168201915b50505050506131b8565b5b156134af5760019150506134c8565b80806134ba906154d3565b915050613219565b50600090505b95945050505050565b6000600760009054906101000a900473ffffffffffffffffffffffffffffffffffffffff1673ffffffffffffffffffffffffffffffffffffffff166370a08231600760009054906101000a900473ffffffffffffffffffffffffffffffffffffffff166040518263ffffffff1660e01b81526004016135509190615f5a565b602060405180830381865afa15801561356d573d6000803e3d6000fd5b505050506040513d601f19601f820116820180604052508101906135919190615f8a565b905090565b60606000600680549050116135e0576040517f08c379a00000000000000000000000000000000000000000000000000000000081526004016135d790615455565b60405180910390fd5b600060068054905067ffffffffffffffff81111561360157613600614fb6565b5b60405190808252806020026020018201604052801561363a57816020015b613627614121565b81526020019060019003908161361f5790505b50905060005b6006805490508110156138fc576006818154811061366157613660615475565b5b90600052602060002090600602016040518060c0016040529081600082015481526020016001820160009054906101000a900473ffffffffffffffffffffffffffffffffffffffff1673ffffffffffffffffffffffffffffffffffffffff1673ffffffffffffffffffffffffffffffffffffffff1681526020016002820180546136ea9061554b565b80601f01602080910402602001604051908101604052809291908181526020018280546137169061554b565b80156137635780601f1061373857610100808354040283529160200191613763565b820191906000526020600020905b81548152906001019060200180831161374657829003601f168201915b5050505050815260200160038201805461377c9061554b565b80601f01602080910402602001604051908101604052809291908181526020018280546137a89061554b565b80156137f55780601f106137ca576101008083540402835291602001916137f5565b820191906000526020600020905b8154815290600101906020018083116137d857829003601f168201915b5050505050815260200160048201805461380e9061554b565b80601f016020809104026020016040519081016040528092919081815260200182805461383a9061554b565b80156138875780601f1061385c57610100808354040283529160200191613887565b820191906000526020600020905b81548152906001019060200180831161386a57829003601f168201915b505050505081526020016005820160009054906101000a900460ff1660048111156138b5576138b46144b7565b5b60048111156138c7576138c66144b7565b5b815250508282815181106138de576138dd615475565b5b602002602001018190525080806138f4906154d3565b915050613640565b508091505090565b606060006004805490501161394e576040517f08c379a000000000000000000000000000000000000000000000000000000000815260040161394590615455565b60405180910390fd5b6000805b6004805490508110156139e05760006002811115613973576139726144b7565b5b6004828154811061398757613986615475565b5b906000526020600020906007020160050160149054906101000a900460ff1660028111156139b8576139b76144b7565b5b14156139cd5781806139c9906154d3565b9250505b80806139d8906154d3565b915050613952565b5060008111613a24576040517f08c379a0000000000000000000000000000000000000000000000000000000008152600401613a1b90615940565b60405180910390fd5b60008167ffffffffffffffff811115613a4057613a3f614fb6565b5b604051908082528060200260200182016040528015613a7957816020015b613a6661409e565b815260200190600190039081613a5e5790505b5090506000915060005b600480549050811015613d865760006002811115613aa457613aa36144b7565b5b60048281548110613ab857613ab7615475565b5b906000526020600020906007020160050160149054906101000a900460ff166002811115613ae957613ae86144b7565b5b1415613d735760048181548110613b0357613b02615475565b5b9060005260206000209060070201604051806101000160405290816000820154815260200160018201548152602001600282018054613b419061554b565b80601f0160208091040260200160405190810160405280929190818152602001828054613b6d9061554b565b8015613bba5780601f10613b8f57610100808354040283529160200191613bba565b820191906000526020600020905b815481529060010190602001808311613b9d57829003601f168201915b50505050508152602001600382015481526020016004820160009054906101000a900473ffffffffffffffffffffffffffffffffffffffff1673ffffffffffffffffffffffffffffffffffffffff1673ffffffffffffffffffffffffffffffffffffffff1681526020016005820160009054906101000a900473ffffffffffffffffffffffffffffffffffffffff1673ffffffffffffffffffffffffffffffffffffffff1673ffffffffffffffffffffffffffffffffffffffff1681526020016005820160149054906101000a900460ff166002811115613c9e57613c9d6144b7565b5b6002811115613cb057613caf6144b7565b5b8152602001600682018054613cc49061554b565b80601f0160208091040260200160405190810160405280929190818152602001828054613cf09061554b565b8015613d3d5780601f10613d1257610100808354040283529160200191613d3d565b820191906000526020600020905b815481529060010190602001808311613d2057829003601f168201915b505050505081525050828481518110613d5957613d58615475565b5b60200260200101819052508280613d6f906154d3565b9350505b8080613d7e906154d3565b915050613a83565b50809250505090565b60068181548110613d9f57600080fd5b90600052602060002090600602016000915090508060000154908060010160009054906101000a900473ffffffffffffffffffffffffffffffffffffffff1690806002018054613dee9061554b565b80601f0160208091040260200160405190810160405280929190818152602001828054613e1a9061554b565b8015613e675780601f10613e3c57610100808354040283529160200191613e67565b820191906000526020600020905b815481529060010190602001808311613e4a57829003601f168201915b505050505090806003018054613e7c9061554b565b80601f0160208091040260200160405190810160405280929190818152602001828054613ea89061554b565b8015613ef55780601f10613eca57610100808354040283529160200191613ef5565b820191906000526020600020905b815481529060010190602001808311613ed857829003601f168201915b505050505090806004018054613f0a9061554b565b80601f0160208091040260200160405190810160405280929190818152602001828054613f369061554b565b8015613f835780601f10613f5857610100808354040283529160200191613f83565b820191906000526020600020905b815481529060010190602001808311613f6657829003601f168201915b5050505050908060050160009054906101000a900460ff16905086565b604051806080016040528060008152602001600073ffffffffffffffffffffffffffffffffffffffff16815260200160008152602001600081525090565b604051806080016040528060008152602001606081526020016000815260200160006001811115614012576140116144b7565b5b81525090565b8280546140249061554b565b90600052602060002090601f016020900481019282614046576000855561408d565b82601f1061405f57805160ff191683800117855561408d565b8280016001018555821561408d579182015b8281111561408c578251825591602001919060010190614071565b5b50905061409a9190614205565b5090565b60405180610100016040528060008152602001600081526020016060815260200160008152602001600073ffffffffffffffffffffffffffffffffffffffff168152602001600073ffffffffffffffffffffffffffffffffffffffff16815260200160006002811115614114576141136144b7565b5b8152602001606081525090565b6040518060c0016040528060008152602001600073ffffffffffffffffffffffffffffffffffffffff16815260200160608152602001606081526020016060815260200160006004811115614179576141786144b7565b5b81525090565b82805461418b9061554b565b90600052602060002090601f0160209004810192826141ad57600085556141f4565b82601f106141c657803560ff19168380011785556141f4565b828001600101855582156141f4579182015b828111156141f35782358255916020019190600101906141d8565b5b5090506142019190614205565b5090565b5b8082111561421e576000816000905550600101614206565b5090565b600081519050919050565b600082825260208201905092915050565b6000819050602082019050919050565b6000819050919050565b6142618161424e565b82525050565b600073ffffffffffffffffffffffffffffffffffffffff82169050919050565b600061429282614267565b9050919050565b6142a281614287565b82525050565b6080820160008201516142be6000850182614258565b5060208201516142d16020850182614299565b5060408201516142e46040850182614258565b5060608201516142f76060850182614258565b50505050565b600061430983836142a8565b60808301905092915050565b6000602082019050919050565b600061432d82614222565b614337818561422d565b93506143428361423e565b8060005b8381101561437357815161435a88826142fd565b975061436583614315565b925050600181019050614346565b5085935050505092915050565b6000602082019050818103600083015261439a8184614322565b905092915050565b6000604051905090565b600080fd5b600080fd5b6143bf8161424e565b81146143ca57600080fd5b50565b6000813590506143dc816143b6565b92915050565b6000602082840312156143f8576143f76143ac565b5b6000614406848285016143cd565b91505092915050565b6144188161424e565b82525050565b600081519050919050565b600082825260208201905092915050565b60005b8381101561445857808201518184015260208101905061443d565b83811115614467576000848401525b50505050565b6000601f19601f8301169050919050565b60006144898261441e565b6144938185614429565b93506144a381856020860161443a565b6144ac8161446d565b840191505092915050565b7f4e487b7100000000000000000000000000000000000000000000000000000000600052602160045260246000fd5b600281106144f7576144f66144b7565b5b50565b6000819050614508826144e6565b919050565b6000614518826144fa565b9050919050565b6145288161450d565b82525050565b6000608082019050614543600083018761440f565b8181036020830152614555818661447e565b9050614564604083018561440f565b614571606083018461451f565b95945050505050565b61458381614287565b811461458e57600080fd5b50565b6000813590506145a08161457a565b92915050565b600080604083850312156145bd576145bc6143ac565b5b60006145cb858286016143cd565b92505060206145dc85828601614591565b9150509250929050565b60008115159050919050565b6145fb816145e6565b82525050565b600060208201905061461660008301846145f2565b92915050565b600080600060608486031215614635576146346143ac565b5b6000614643868287016143cd565b935050602061465486828701614591565b925050604061466586828701614591565b9150509250925092565b61467881614287565b82525050565b6000608082019050614693600083018761440f565b6146a0602083018661466f565b6146ad604083018561440f565b6146ba606083018461440f565b95945050505050565b600081519050919050565b600082825260208201905092915050565b6000819050602082019050919050565b600082825260208201905092915050565b600061470b8261441e565b61471581856146ef565b935061472581856020860161443a565b61472e8161446d565b840191505092915050565b6147428161450d565b82525050565b60006080830160008301516147606000860182614258565b50602083015184820360208601526147788282614700565b915050604083015161478d6040860182614258565b5060608301516147a06060860182614739565b508091505092915050565b60006147b78383614748565b905092915050565b6000602082019050919050565b60006147d7826146c3565b6147e181856146ce565b9350836020820285016147f3856146df565b8060005b8581101561482f578484038952815161481085826147ab565b945061481b836147bf565b925060208a019950506001810190506147f7565b50829750879550505050505092915050565b6000602082019050818103600083015261485b81846147cc565b905092915050565b600080fd5b600080fd5b600080fd5b60008083601f84011261488857614887614863565b5b8235905067ffffffffffffffff8111156148a5576148a4614868565b5b6020830191508360018202830111156148c1576148c061486d565b5b9250929050565b6000806000806000608086880312156148e4576148e36143ac565b5b600086013567ffffffffffffffff811115614902576149016143b1565b5b61490e88828901614872565b95509550506020614921888289016143cd565b935050604061493288828901614591565b925050606061494388828901614591565b9150509295509295909350565b600060208284031215614966576149656143ac565b5b600061497484828501614591565b91505092915050565b600081519050919050565b600082825260208201905092915050565b6000819050602082019050919050565b600381106149ba576149b96144b7565b5b50565b60008190506149cb826149a9565b919050565b60006149db826149bd565b9050919050565b6149eb816149d0565b82525050565b600061010083016000830151614a0a6000860182614258565b506020830151614a1d6020860182614258565b5060408301518482036040860152614a358282614700565b9150506060830151614a4a6060860182614258565b506080830151614a5d6080860182614299565b5060a0830151614a7060a0860182614299565b5060c0830151614a8360c08601826149e2565b5060e083015184820360e0860152614a9b8282614700565b9150508091505092915050565b6000614ab483836149f1565b905092915050565b6000602082019050919050565b6000614ad48261497d565b614ade8185614988565b935083602082028501614af085614999565b8060005b85811015614b2c5784840389528151614b0d8582614aa8565b9450614b1883614abc565b925060208a01995050600181019050614af4565b50829750879550505050505092915050565b60006020820190508181036000830152614b588184614ac9565b905092915050565b60058110614b6d57600080fd5b50565b600081359050614b7f81614b60565b92915050565b60008060008060008060008060a0898b031215614ba557614ba46143ac565b5b6000614bb38b828c01614591565b985050602089013567ffffffffffffffff811115614bd457614bd36143b1565b5b614be08b828c01614872565b9750975050604089013567ffffffffffffffff811115614c0357614c026143b1565b5b614c0f8b828c01614872565b9550955050606089013567ffffffffffffffff811115614c3257614c316143b1565b5b614c3e8b828c01614872565b93509350506080614c518b828c01614b70565b9150509295985092959890939650565b60058110614c7257614c716144b7565b5b50565b6000819050614c8382614c61565b919050565b6000614c9382614c75565b9050919050565b614ca381614c88565b82525050565b600060c083016000830151614cc16000860182614258565b506020830151614cd46020860182614299565b5060408301518482036040860152614cec8282614700565b91505060608301518482036060860152614d068282614700565b91505060808301518482036080860152614d208282614700565b91505060a0830151614d3560a0860182614c9a565b508091505092915050565b60006020820190508181036000830152614d5a8184614ca9565b905092915050565b600080600060408486031215614d7b57614d7a6143ac565b5b6000614d89868287016143cd565b935050602084013567ffffffffffffffff811115614daa57614da96143b1565b5b614db686828701614872565b92509250509250925092565b600080600060408486031215614ddb57614dda6143ac565b5b600084013567ffffffffffffffff811115614df957614df86143b1565b5b614e0586828701614872565b93509350506020614e18868287016143cd565b9150509250925092565b60008060408385031215614e3957614e386143ac565b5b6000614e4785828601614591565b9250506020614e5885828601614591565b9150509250929050565b60008060008060608587031215614e7c57614e7b6143ac565b5b6000614e8a878288016143cd565b945050602085013567ffffffffffffffff811115614eab57614eaa6143b1565b5b614eb787828801614872565b93509350506040614eca87828801614591565b91505092959194509250565b60008060408385031215614eed57614eec6143ac565b5b6000614efb858286016143cd565b9250506020614f0c85828601614b70565b9150509250929050565b614f1f816149d0565b82525050565b600061010082019050614f3b600083018b61440f565b614f48602083018a61440f565b8181036040830152614f5a818961447e565b9050614f69606083018861440f565b614f76608083018761466f565b614f8360a083018661466f565b614f9060c0830185614f16565b81810360e0830152614fa2818461447e565b90509998505050505050505050565b600080fd5b7f4e487b7100000000000000000000000000000000000000000000000000000000600052604160045260246000fd5b614fee8261446d565b810181811067ffffffffffffffff8211171561500d5761500c614fb6565b5b80604052505050565b60006150206143a2565b905061502c8282614fe5565b919050565b600067ffffffffffffffff82111561504c5761504b614fb6565b5b6150558261446d565b9050602081019050919050565b82818337600083830152505050565b600061508461507f84615031565b615016565b9050828152602081018484840111156150a05761509f614fb1565b5b6150ab848285615062565b509392505050565b600082601f8301126150c8576150c7614863565b5b81356150d8848260208601615071565b91505092915050565b600080604083850312156150f8576150f76143ac565b5b600083013567ffffffffffffffff811115615116576151156143b1565b5b615122858286016150b3565b925050602083013567ffffffffffffffff811115615143576151426143b1565b5b61514f858286016150b3565b9150509250929050565b600080600080600060608688031215615175576151746143ac565b5b600061518388828901614591565b955050602086013567ffffffffffffffff8111156151a4576151a36143b1565b5b6151b088828901614872565b9450945050604086013567ffffffffffffffff8111156151d3576151d26143b1565b5b6151df88828901614872565b92509250509295509295909350565b6000602082019050615203600083018461440f565b92915050565b600081519050919050565b600082825260208201905092915050565b6000819050602082019050919050565b600060c08301600083015161524d6000860182614258565b5060208301516152606020860182614299565b50604083015184820360408601526152788282614700565b915050606083015184820360608601526152928282614700565b915050608083015184820360808601526152ac8282614700565b91505060a08301516152c160a0860182614c9a565b508091505092915050565b60006152d88383615235565b905092915050565b6000602082019050919050565b60006152f882615209565b6153028185615214565b93508360208202850161531485615225565b8060005b85811015615350578484038952815161533185826152cc565b945061533c836152e0565b925060208a01995050600181019050615318565b50829750879550505050505092915050565b6000602082019050818103600083015261537c81846152ed565b905092915050565b61538d81614c88565b82525050565b600060c0820190506153a8600083018961440f565b6153b5602083018861466f565b81810360408301526153c7818761447e565b905081810360608301526153db818661447e565b905081810360808301526153ef818561447e565b90506153fe60a0830184615384565b979650505050505050565b7f456d70747920737461636b000000000000000000000000000000000000000000600082015250565b600061543f600b83614429565b915061544a82615409565b602082019050919050565b6000602082019050818103600083015261546e81615432565b9050919050565b7f4e487b7100000000000000000000000000000000000000000000000000000000600052603260045260246000fd5b7f4e487b7100000000000000000000000000000000000000000000000000000000600052601160045260246000fd5b60006154de8261424e565b91507fffffffffffffffffffffffffffffffffffffffffffffffffffffffffffffffff821415615511576155106154a4565b5b600182019050919050565b7f4e487b7100000000000000000000000000000000000000000000000000000000600052602260045260246000fd5b6000600282049050600182168061556357607f821691505b602082108114156155775761557661551c565b5b50919050565b7f50726f6475637420646f6573206e6f7420657869737400000000000000000000600082015250565b60006155b3601683614429565b91506155be8261557d565b602082019050919050565b600060208201905081810360008301526155e2816155a6565b9050919050565b7f4e65676174697665204944000000000000000000000000000000000000000000600082015250565b600061561f600b83614429565b915061562a826155e9565b602082019050919050565b6000602082019050818103600083015261564e81615612565b9050919050565b7f50726f64756374206f7574206f6620746865206c697374000000000000000000600082015250565b600061568b601783614429565b915061569682615655565b602082019050919050565b600060208201905081810360008301526156ba8161567e565b9050919050565b7f50726f64756374206973206e6f7420666f722073616c65000000000000000000600082015250565b60006156f7601783614429565b9150615702826156c1565b602082019050919050565b60006020820190508181036000830152615726816156ea565b9050919050565b6000819050919050565b600061575261574d61574884614267565b61572d565b614267565b9050919050565b600061576482615737565b9050919050565b600061577682615759565b9050919050565b6157868161576b565b82525050565b60006060820190506157a1600083018661577d565b6157ae602083018561577d565b6157bb604083018461440f565b949350505050565b6157cc816145e6565b81146157d757600080fd5b50565b6000815190506157e9816157c3565b92915050565b600060208284031215615805576158046143ac565b5b6000615813848285016157da565b91505092915050565b7f546f206c6f7720746f6b656e20616d6f756e7400000000000000000000000000600082015250565b6000615852601383614429565b915061585d8261581c565b602082019050919050565b6000602082019050818103600083015261588181615845565b9050919050565b7f4578706c616e6174696f6e2063616e6e6f7420626520656d7074790000000000600082015250565b60006158be601b83614429565b91506158c982615888565b602082019050919050565b600060208201905081810360008301526158ed816158b1565b9050919050565b7f4e6f2073656e6420656c656d656e747300000000000000000000000000000000600082015250565b600061592a601083614429565b9150615935826158f4565b602082019050919050565b600060208201905081810360008301526159598161591d565b9050919050565b600061596c8385614429565b9350615979838584615062565b6159828361446d565b840190509392505050565b60006060820190506159a2600083018861466f565b81810360208301526159b5818688615960565b905081810360408301526159ca818486615960565b90509695505050505050565b7f55736572206973206578697374696e6700000000000000000000000000000000600082015250565b6000615a0c601083614429565b9150615a17826159d6565b602082019050919050565b60006020820190508181036000830152615a3b816159ff565b9050919050565b7f4974656d20697320616c726561647920666f722073616c650000000000000000600082015250565b6000615a78601883614429565b9150615a8382615a42565b602082019050919050565b60006020820190508181036000830152615aa781615a6b565b9050919050565b7f4e65676174697665206964000000000000000000000000000000000000000000600082015250565b6000615ae4600b83614429565b9150615aef82615aae565b602082019050919050565b60006020820190508181036000830152615b1381615ad7565b9050919050565b7f496e646578206f7574206f662072616e67650000000000000000000000000000600082015250565b6000615b50601283614429565b9150615b5b82615b1a565b602082019050919050565b60006020820190508181036000830152615b7f81615b43565b9050919050565b7f5469636b657420697320636c6f73656400000000000000000000000000000000600082015250565b6000615bbc601083614429565b9150615bc782615b86565b602082019050919050565b60006020820190508181036000830152615beb81615baf565b9050919050565b7f50726963652063616e6e6f74206265206e656761746976650000000000000000600082015250565b6000615c28601883614429565b9150615c3382615bf2565b602082019050919050565b60006020820190508181036000830152615c5781615c1b565b9050919050565b7f4e616d652063616e6e6f7420626520656d707479000000000000000000000000600082015250565b6000615c94601483614429565b9150615c9f82615c5e565b602082019050919050565b60006020820190508181036000830152615cc381615c87565b9050919050565b7f4e6f206974656d7320666f722073616c65000000000000000000000000000000600082015250565b6000615d00601183614429565b9150615d0b82615cca565b602082019050919050565b60006020820190508181036000830152615d2f81615cf3565b9050919050565b6000819050919050565b6000615d5b615d56615d5184615d36565b61572d565b61424e565b9050919050565b615d6b81615d40565b82525050565b6000604082019050615d86600083018561577d565b615d936020830184615d62565b9392505050565b7f4974656d20697320616c72656164792061726368697665640000000000000000600082015250565b6000615dd0601883614429565b9150615ddb82615d9a565b602082019050919050565b60006020820190508181036000830152615dff81615dc3565b9050919050565b6000604082019050615e1b600083018561577d565b615e28602083018461440f565b9392505050565b7f456d70747920537461636b000000000000000000000000000000000000000000600082015250565b6000615e65600b83614429565b9150615e7082615e2f565b602082019050919050565b60006020820190508181036000830152615e9481615e58565b9050919050565b7f4944206f7574206f66207468652073636f706500000000000000000000000000600082015250565b6000615ed1601383614429565b9150615edc82615e9b565b602082019050919050565b60006020820190508181036000830152615f0081615ec4565b9050919050565b600081905092915050565b6000615f1d8261441e565b615f278185615f07565b9350615f3781856020860161443a565b80840191505092915050565b6000615f4f8284615f12565b915081905092915050565b6000602082019050615f6f600083018461466f565b92915050565b600081519050615f84816143b6565b92915050565b600060208284031215615fa057615f9f6143ac565b5b6000615fae84828501615f75565b9150509291505056fea264697066735822122089c279130e18f78859eca0df6a283a48031d5fc8b61305dec820c353e06cec5764736f6c634300080c0033",
  "linkReferences": {},
  "deployedLinkReferences": {}
}