{
  "_format": "hh-sol-artifact-1",
  "contractName": "Main",
  "sourceName": "contracts/kontrakt.sol",
  "abi": [
    {
      "inputs": [],
      "stateMutability": "nonpayable",
      "type": "constructor"
    },
    {
      "inputs": [
        {
          "internalType": "string",
          "name": "_name",
          "type": "string"
        },
        {
          "internalType": "uint256",
          "name": "_price",
          "type": "uint256"
        }
      ],
      "name": "AddItem",
      "outputs": [],
      "stateMutability": "nonpayable",
      "type": "function"
    },
    {
      "inputs": [
        {
          "internalType": "uint256",
          "name": "_productID",
          "type": "uint256"
        },
        {
          "internalType": "address",
          "name": "user",
          "type": "address"
        }
      ],
      "name": "AddToHistory",
      "outputs": [
        {
          "internalType": "bool",
          "name": "",
          "type": "bool"
        }
      ],
      "stateMutability": "nonpayable",
      "type": "function"
    },
    {
      "inputs": [
        {
          "internalType": "uint256",
          "name": "_id",
          "type": "uint256"
        }
      ],
      "name": "ArchiveItem",
      "outputs": [],
      "stateMutability": "nonpayable",
      "type": "function"
    },
    {
      "inputs": [
        {
          "internalType": "uint256",
          "name": "item_id",
          "type": "uint256"
        },
        {
          "internalType": "address",
          "name": "_buyer",
          "type": "address"
        }
      ],
      "name": "BuyItem",
      "outputs": [],
      "stateMutability": "nonpayable",
      "type": "function"
    },
    {
      "inputs": [],
      "name": "GetAllHistory",
      "outputs": [
        {
          "components": [
            {
              "internalType": "uint256",
              "name": "id",
              "type": "uint256"
            },
            {
              "internalType": "address",
              "name": "buyer",
              "type": "address"
            },
            {
              "internalType": "uint256",
              "name": "data",
              "type": "uint256"
            },
            {
              "internalType": "uint256",
              "name": "item_ID",
              "type": "uint256"
            }
          ],
          "internalType": "struct marketplace.history[]",
          "name": "",
          "type": "tuple[]"
        }
      ],
      "stateMutability": "view",
      "type": "function"
    },
    {
      "inputs": [],
      "name": "GetAllItems",
      "outputs": [
        {
          "components": [
            {
              "internalType": "uint256",
              "name": "id",
              "type": "uint256"
            },
            {
              "internalType": "string",
              "name": "name",
              "type": "string"
            },
            {
              "internalType": "uint256",
              "name": "price",
              "type": "uint256"
            },
            {
              "internalType": "enum marketplace.item_status",
              "name": "status",
              "type": "uint8"
            }
          ],
          "internalType": "struct marketplace.items[]",
          "name": "",
          "type": "tuple[]"
        }
      ],
      "stateMutability": "view",
      "type": "function"
    },
    {
      "inputs": [],
      "name": "GetForSaleItems",
      "outputs": [
        {
          "components": [
            {
              "internalType": "uint256",
              "name": "id",
              "type": "uint256"
            },
            {
              "internalType": "string",
              "name": "name",
              "type": "string"
            },
            {
              "internalType": "uint256",
              "name": "price",
              "type": "uint256"
            },
            {
              "internalType": "enum marketplace.item_status",
              "name": "status",
              "type": "uint8"
            }
          ],
          "internalType": "struct marketplace.items[]",
          "name": "",
          "type": "tuple[]"
        }
      ],
      "stateMutability": "view",
      "type": "function"
    },
    {
      "inputs": [
        {
          "internalType": "uint256",
          "name": "",
          "type": "uint256"
        }
      ],
      "name": "Items",
      "outputs": [
        {
          "internalType": "uint256",
          "name": "id",
          "type": "uint256"
        },
        {
          "internalType": "string",
          "name": "name",
          "type": "string"
        },
        {
          "internalType": "uint256",
          "name": "price",
          "type": "uint256"
        },
        {
          "internalType": "enum marketplace.item_status",
          "name": "status",
          "type": "uint8"
        }
      ],
      "stateMutability": "view",
      "type": "function"
    },
    {
      "inputs": [
        {
          "internalType": "string",
          "name": "_Explenation",
          "type": "string"
        },
        {
          "internalType": "uint256",
          "name": "_TokenAmount",
          "type": "uint256"
        },
        {
          "internalType": "address",
          "name": "_ReciverWallet",
          "type": "address"
        },
        {
          "internalType": "address",
          "name": "_SenderWallet",
          "type": "address"
        }
      ],
      "name": "NewTicket",
      "outputs": [],
      "stateMutability": "nonpayable",
      "type": "function"
    },
    {
      "inputs": [
        {
          "internalType": "uint256",
          "name": "_id",
          "type": "uint256"
        }
      ],
      "name": "SellItem",
      "outputs": [],
      "stateMutability": "nonpayable",
      "type": "function"
    },
    {
      "inputs": [
        {
          "internalType": "uint256",
          "name": "",
          "type": "uint256"
        }
      ],
      "name": "Table",
      "outputs": [
        {
          "internalType": "uint256",
          "name": "id",
          "type": "uint256"
        },
        {
          "internalType": "uint256",
          "name": "NotificationData",
          "type": "uint256"
        },
        {
          "internalType": "string",
          "name": "Explenation",
          "type": "string"
        },
        {
          "internalType": "uint256",
          "name": "TokenAmount",
          "type": "uint256"
        },
        {
          "internalType": "address",
          "name": "SenderWallet",
          "type": "address"
        },
        {
          "internalType": "address",
          "name": "ReciverWallet",
          "type": "address"
        },
        {
          "internalType": "enum Notifications.statuses",
          "name": "Status",
          "type": "uint8"
        },
        {
          "internalType": "string",
          "name": "StatusExplanation",
          "type": "string"
        }
      ],
      "stateMutability": "view",
      "type": "function"
    },
    {
      "inputs": [
        {
          "internalType": "address",
          "name": "user",
          "type": "address"
        },
        {
          "internalType": "string",
          "name": "name",
          "type": "string"
        },
        {
          "internalType": "string",
          "name": "surname",
          "type": "string"
        },
        {
          "internalType": "string",
          "name": "email",
          "type": "string"
        },
        {
          "internalType": "enum AccountTypes.role",
          "name": "rank",
          "type": "uint8"
        }
      ],
      "name": "addUser",
      "outputs": [],
      "stateMutability": "nonpayable",
      "type": "function"
    },
    {
      "inputs": [
        {
          "internalType": "uint256",
          "name": "_id",
          "type": "uint256"
        },
        {
          "internalType": "string",
          "name": "_Explenation",
          "type": "string"
        }
      ],
      "name": "approve",
      "outputs": [],
      "stateMutability": "nonpayable",
      "type": "function"
    },
    {
      "inputs": [
        {
          "internalType": "uint256",
          "name": "_id",
          "type": "uint256"
        },
        {
          "internalType": "enum AccountTypes.role",
          "name": "new_role",
          "type": "uint8"
        }
      ],
      "name": "changeRole",
      "outputs": [
        {
          "internalType": "bool",
          "name": "",
          "type": "bool"
        }
      ],
      "stateMutability": "nonpayable",
      "type": "function"
    },
    {
      "inputs": [
        {
          "internalType": "string",
          "name": "a",
          "type": "string"
        },
        {
          "internalType": "string",
          "name": "b",
          "type": "string"
        }
      ],
      "name": "compareStrings",
      "outputs": [
        {
          "internalType": "bool",
          "name": "",
          "type": "bool"
        }
      ],
      "stateMutability": "pure",
      "type": "function"
    },
    {
      "inputs": [
        {
          "internalType": "address",
          "name": "user",
          "type": "address"
        },
        {
          "internalType": "string",
          "name": "name",
          "type": "string"
        },
        {
          "internalType": "string",
          "name": "surname",
          "type": "string"
        }
      ],
      "name": "findUser",
      "outputs": [
        {
          "internalType": "bool",
          "name": "",
          "type": "bool"
        }
      ],
      "stateMutability": "view",
      "type": "function"
    },
    {
      "inputs": [
        {
          "internalType": "address",
          "name": "wallet",
          "type": "address"
        }
      ],
      "name": "findWallet",
      "outputs": [
        {
          "internalType": "bool",
          "name": "",
          "type": "bool"
        }
      ],
      "stateMutability": "view",
      "type": "function"
    },
    {
      "inputs": [],
      "name": "getAllTickets",
      "outputs": [
        {
          "components": [
            {
              "internalType": "uint256",
              "name": "id",
              "type": "uint256"
            },
            {
              "internalType": "uint256",
              "name": "NotificationData",
              "type": "uint256"
            },
            {
              "internalType": "string",
              "name": "Explenation",
              "type": "string"
            },
            {
              "internalType": "uint256",
              "name": "TokenAmount",
              "type": "uint256"
            },
            {
              "internalType": "address",
              "name": "SenderWallet",
              "type": "address"
            },
            {
              "internalType": "address",
              "name": "ReciverWallet",
              "type": "address"
            },
            {
              "internalType": "enum Notifications.statuses",
              "name": "Status",
              "type": "uint8"
            },
            {
              "internalType": "string",
              "name": "StatusExplanation",
              "type": "string"
            }
          ],
          "internalType": "struct Notifications.Notification[]",
          "name": "",
          "type": "tuple[]"
        }
      ],
      "stateMutability": "view",
      "type": "function"
    },
    {
      "inputs": [],
      "name": "getAllUsers",
      "outputs": [
        {
          "components": [
            {
              "internalType": "uint256",
              "name": "ID",
              "type": "uint256"
            },
            {
              "internalType": "address",
              "name": "user",
              "type": "address"
            },
            {
              "internalType": "string",
              "name": "Name",
              "type": "string"
            },
            {
              "internalType": "string",
              "name": "Surname",
              "type": "string"
            },
            {
              "internalType": "string",
              "name": "Email",
              "type": "string"
            },
            {
              "internalType": "enum AccountTypes.role",
              "name": "Rank",
              "type": "uint8"
            }
          ],
          "internalType": "struct AccountTypes.user_t[]",
          "name": "",
          "type": "tuple[]"
        }
      ],
      "stateMutability": "view",
      "type": "function"
    },
    {
      "inputs": [],
      "name": "getBalanceKontrakt",
      "outputs": [
        {
          "internalType": "uint256",
          "name": "",
          "type": "uint256"
        }
      ],
      "stateMutability": "view",
      "type": "function"
    },
    {
      "inputs": [
        {
          "internalType": "address",
          "name": "_owner",
          "type": "address"
        }
      ],
      "name": "getMyTickets",
      "outputs": [
        {
          "components": [
            {
              "internalType": "uint256",
              "name": "id",
              "type": "uint256"
            },
            {
              "internalType": "uint256",
              "name": "NotificationData",
              "type": "uint256"
            },
            {
              "internalType": "string",
              "name": "Explenation",
              "type": "string"
            },
            {
              "internalType": "uint256",
              "name": "TokenAmount",
              "type": "uint256"
            },
            {
              "internalType": "address",
              "name": "SenderWallet",
              "type": "address"
            },
            {
              "internalType": "address",
              "name": "ReciverWallet",
              "type": "address"
            },
            {
              "internalType": "enum Notifications.statuses",
              "name": "Status",
              "type": "uint8"
            },
            {
              "internalType": "string",
              "name": "StatusExplanation",
              "type": "string"
            }
          ],
          "internalType": "struct Notifications.Notification[]",
          "name": "",
          "type": "tuple[]"
        }
      ],
      "stateMutability": "view",
      "type": "function"
    },
    {
      "inputs": [],
      "name": "getSentTickets",
      "outputs": [
        {
          "components": [
            {
              "internalType": "uint256",
              "name": "id",
              "type": "uint256"
            },
            {
              "internalType": "uint256",
              "name": "NotificationData",
              "type": "uint256"
            },
            {
              "internalType": "string",
              "name": "Explenation",
              "type": "string"
            },
            {
              "internalType": "uint256",
              "name": "TokenAmount",
              "type": "uint256"
            },
            {
              "internalType": "address",
              "name": "SenderWallet",
              "type": "address"
            },
            {
              "internalType": "address",
              "name": "ReciverWallet",
              "type": "address"
            },
            {
              "internalType": "enum Notifications.statuses",
              "name": "Status",
              "type": "uint8"
            },
            {
              "internalType": "string",
              "name": "StatusExplanation",
              "type": "string"
            }
          ],
          "internalType": "struct Notifications.Notification[]",
          "name": "",
          "type": "tuple[]"
        }
      ],
      "stateMutability": "view",
      "type": "function"
    },
    {
      "inputs": [
        {
          "internalType": "address",
          "name": "userAddress",
          "type": "address"
        }
      ],
      "name": "getUser",
      "outputs": [
        {
          "components": [
            {
              "internalType": "uint256",
              "name": "ID",
              "type": "uint256"
            },
            {
              "internalType": "address",
              "name": "user",
              "type": "address"
            },
            {
              "internalType": "string",
              "name": "Name",
              "type": "string"
            },
            {
              "internalType": "string",
              "name": "Surname",
              "type": "string"
            },
            {
              "internalType": "string",
              "name": "Email",
              "type": "string"
            },
            {
              "internalType": "enum AccountTypes.role",
              "name": "Rank",
              "type": "uint8"
            }
          ],
          "internalType": "struct AccountTypes.user_t",
          "name": "",
          "type": "tuple"
        }
      ],
      "stateMutability": "view",
      "type": "function"
    },
    {
      "inputs": [
        {
          "internalType": "uint256",
          "name": "",
          "type": "uint256"
        }
      ],
      "name": "historia",
      "outputs": [
        {
          "internalType": "uint256",
          "name": "id",
          "type": "uint256"
        },
        {
          "internalType": "address",
          "name": "buyer",
          "type": "address"
        },
        {
          "internalType": "uint256",
          "name": "data",
          "type": "uint256"
        },
        {
          "internalType": "uint256",
          "name": "item_ID",
          "type": "uint256"
        }
      ],
      "stateMutability": "view",
      "type": "function"
    },
    {
      "inputs": [
        {
          "internalType": "uint256",
          "name": "_id",
          "type": "uint256"
        },
        {
          "internalType": "string",
          "name": "_Explenation",
          "type": "string"
        }
      ],
      "name": "reject",
      "outputs": [],
      "stateMutability": "nonpayable",
      "type": "function"
    },
    {
      "inputs": [
        {
          "internalType": "uint256",
          "name": "",
          "type": "uint256"
        }
      ],
      "name": "workers",
      "outputs": [
        {
          "internalType": "uint256",
          "name": "ID",
          "type": "uint256"
        },
        {
          "internalType": "address",
          "name": "user",
          "type": "address"
        },
        {
          "internalType": "string",
          "name": "Name",
          "type": "string"
        },
        {
          "internalType": "string",
          "name": "Surname",
          "type": "string"
        },
        {
          "internalType": "string",
          "name": "Email",
          "type": "string"
        },
        {
          "internalType": "enum AccountTypes.role",
          "name": "Rank",
          "type": "uint8"
        }
      ],
      "stateMutability": "view",
      "type": "function"
    }
  ],
  "bytecode": "0x608060405230600760006101000a81548173ffffffffffffffffffffffffffffffffffffffff021916908373ffffffffffffffffffffffffffffffffffffffff16021790555034801561005157600080fd5b50615b8d80620000626000396000f3fe608060405234801561001057600080fd5b506004361061018e5760003560e01c806371d68a97116100de57806390303f1611610097578063d286c5a811610071578063d286c5a8146104c6578063db2c9166146104f6578063e2842d7914610514578063f1a22dc2146105325761018e565b806390303f1614610443578063a5904d211461045f578063bed34bba146104965761018e565b806371d68a971461037157806371d6f2131461038d57806372405ab0146103bd57806375364049146103d957806377b26af2146103f55780638aaf2686146104135761018e565b8063389271ed1161014b5780634332be2a116101255780634332be2a146102eb57806366590a60146103095780636e538078146103255780636f77926b146103415761018e565b8063389271ed146102955780633b389fd4146102b35780634064f254146102cf5761018e565b806303e96fe314610193578063040828b6146101b157806317b47cc4146101cf578063260cbf6e14610202578063349204f014610232578063357b4b1314610262575b600080fd5b61019b610567565b6040516101a891906142a6565b60405180910390f35b6101b96108ae565b6040516101c691906143cc565b60405180910390f35b6101e960048036038101906101e4919061442e565b610a3f565b6040516101f994939291906144fc565b60405180910390f35b61021c60048036038101906102179190614574565b610b14565b60405161022991906145cf565b60405180910390f35b61024c6004803603810190610247919061460f565b610c42565b60405161025991906145cf565b60405180910390f35b61027c6004803603810190610277919061442e565b610d29565b60405161028c949392919061465e565b60405180910390f35b61029d610d89565b6040516102aa91906147d7565b60405180910390f35b6102cd60048036038101906102c89190614574565b610f87565b005b6102e960048036038101906102e4919061485e565b611174565b005b6102f3611425565b60405161030091906142a6565b60405180910390f35b610323600480360381019061031e91906148e6565b6118b0565b005b61033f600480360381019061033a919061442e565b611bef565b005b61035b600480360381019061035691906149c2565b611d69565b6040516103689190614ace565b60405180910390f35b61038b60048036038101906103869190614af0565b61216c565b005b6103a760048036038101906103a291906149c2565b6123a7565b6040516103b491906145cf565b60405180910390f35b6103d760048036038101906103d29190614af0565b61245d565b005b6103f360048036038101906103ee9190614b50565b612714565b005b6103fd6128b4565b60405161040a91906147d7565b60405180910390f35b61042d600480360381019061042891906149c2565b612bf6565b60405161043a91906142a6565b60405180910390f35b61045d6004803603810190610458919061442e565b6130b7565b005b6104796004803603810190610474919061442e565b61322f565b60405161048d989796959493929190614bbf565b60405180910390f35b6104b060048036038101906104ab9190614d7b565b6133e4565b6040516104bd91906145cf565b60405180910390f35b6104e060048036038101906104db9190614df3565b61343d565b6040516104ed91906145cf565b60405180910390f35b6104fe6136fd565b60405161050b9190614e88565b60405180910390f35b61051c6137c2565b6040516105299190614ffc565b60405180910390f35b61054c6004803603810190610547919061442e565b613b30565b60405161055e9695949392919061502d565b60405180910390f35b60606000600480549050116105b1576040517f08c379a00000000000000000000000000000000000000000000000000000000081526004016105a8906150ef565b60405180910390fd5b600060048054905067ffffffffffffffff8111156105d2576105d1614c50565b5b60405190808252806020026020018201604052801561060b57816020015b6105f8613d41565b8152602001906001900390816105f05790505b50905060005b6004805490508110156108a657600481815481106106325761063161510f565b5b90600052602060002090600702016040518061010001604052908160008201548152602001600182015481526020016002820180546106709061516d565b80601f016020809104026020016040519081016040528092919081815260200182805461069c9061516d565b80156106e95780601f106106be576101008083540402835291602001916106e9565b820191906000526020600020905b8154815290600101906020018083116106cc57829003601f168201915b50505050508152602001600382015481526020016004820160009054906101000a900473ffffffffffffffffffffffffffffffffffffffff1673ffffffffffffffffffffffffffffffffffffffff1673ffffffffffffffffffffffffffffffffffffffff1681526020016005820160009054906101000a900473ffffffffffffffffffffffffffffffffffffffff1673ffffffffffffffffffffffffffffffffffffffff1673ffffffffffffffffffffffffffffffffffffffff1681526020016005820160149054906101000a900460ff1660028111156107cd576107cc6140e2565b5b60028111156107df576107de6140e2565b5b81526020016006820180546107f39061516d565b80601f016020809104026020016040519081016040528092919081815260200182805461081f9061516d565b801561086c5780601f106108415761010080835404028352916020019161086c565b820191906000526020600020905b81548152906001019060200180831161084f57829003601f168201915b5050505050815250508282815181106108885761088761510f565b5b6020026020010181905250808061089e906151ce565b915050610611565b508091505090565b60606000600280549050116108f8576040517f08c379a00000000000000000000000000000000000000000000000000000000081526004016108ef906150ef565b60405180910390fd5b600060028054905067ffffffffffffffff81111561091957610918614c50565b5b60405190808252806020026020018201604052801561095257816020015b61093f613dc4565b8152602001906001900390816109375790505b50905060005b600280549050811015610a3757600281815481106109795761097861510f565b5b9060005260206000209060040201604051806080016040529081600082015481526020016001820160009054906101000a900473ffffffffffffffffffffffffffffffffffffffff1673ffffffffffffffffffffffffffffffffffffffff1673ffffffffffffffffffffffffffffffffffffffff16815260200160028201548152602001600382015481525050828281518110610a1957610a1861510f565b5b60200260200101819052508080610a2f906151ce565b915050610958565b508091505090565b60018181548110610a4f57600080fd5b9060005260206000209060040201600091509050806000015490806001018054610a789061516d565b80601f0160208091040260200160405190810160405280929190818152602001828054610aa49061516d565b8015610af15780601f10610ac657610100808354040283529160200191610af1565b820191906000526020600020905b815481529060010190602001808311610ad457829003601f168201915b5050505050908060020154908060030160009054906101000a900460ff16905084565b6000600180549050831115610b5e576040517f08c379a0000000000000000000000000000000000000000000000000000000008152600401610b5590615263565b60405180910390fd5b600060028054905090506000429050600260405180608001604052808481526020018673ffffffffffffffffffffffffffffffffffffffff1681526020018381526020018781525090806001815401808255809150506001900390600052602060002090600402016000909190919091506000820151816000015560208201518160010160006101000a81548173ffffffffffffffffffffffffffffffffffffffff021916908373ffffffffffffffffffffffffffffffffffffffff1602179055506040820151816002015560608201518160030155505060019250505092915050565b60008060068054905011610c8b576040517f08c379a0000000000000000000000000000000000000000000000000000000008152600401610c82906152cf565b60405180910390fd5b6006805490508310610cd2576040517f08c379a0000000000000000000000000000000000000000000000000000000008152600401610cc99061533b565b60405180910390fd5b8160068481548110610ce757610ce661510f565b5b906000526020600020906006020160050160006101000a81548160ff02191690836004811115610d1a57610d196140e2565b5b02179055506001905092915050565b60028181548110610d3957600080fd5b90600052602060002090600402016000915090508060000154908060010160009054906101000a900473ffffffffffffffffffffffffffffffffffffffff16908060020154908060030154905084565b6060600060018054905011610dd3576040517f08c379a0000000000000000000000000000000000000000000000000000000008152600401610dca906150ef565b60405180910390fd5b600060018054905067ffffffffffffffff811115610df457610df3614c50565b5b604051908082528060200260200182016040528015610e2d57816020015b610e1a613e02565b815260200190600190039081610e125790505b50905060005b600180549050811015610f7f5760018181548110610e5457610e5361510f565b5b906000526020600020906004020160405180608001604052908160008201548152602001600182018054610e879061516d565b80601f0160208091040260200160405190810160405280929190818152602001828054610eb39061516d565b8015610f005780601f10610ed557610100808354040283529160200191610f00565b820191906000526020600020905b815481529060010190602001808311610ee357829003601f168201915b50505050508152602001600282015481526020016003820160009054906101000a900460ff166001811115610f3857610f376140e2565b5b6001811115610f4a57610f496140e2565b5b81525050828281518110610f6157610f6061510f565b5b60200260200101819052508080610f77906151ce565b915050610e33565b508091505090565b60008211610fca576040517f08c379a0000000000000000000000000000000000000000000000000000000008152600401610fc1906153a7565b60405180910390fd5b6001805490508210611011576040517f08c379a000000000000000000000000000000000000000000000000000000000815260040161100890615413565b60405180910390fd5b60006001811115611025576110246140e2565b5b600183815481106110395761103861510f565b5b906000526020600020906004020160030160009054906101000a900460ff16600181111561106a576110696140e2565b5b146110aa576040517f08c379a00000000000000000000000000000000000000000000000000000000081526004016110a19061547f565b60405180910390fd5b600760009054906101000a900473ffffffffffffffffffffffffffffffffffffffff1673ffffffffffffffffffffffffffffffffffffffff1663095ea7b382600185815481106110fd576110fc61510f565b5b9060005260206000209060040201600201546040518363ffffffff1660e01b815260040161112c92919061549f565b6020604051808303816000875af115801561114b573d6000803e3d6000fd5b505050506040513d601f19601f8201168201806040525081019061116f91906154f4565b505050565b600083116111b7576040517f08c379a00000000000000000000000000000000000000000000000000000000081526004016111ae9061556d565b60405180910390fd5b60008585905014156111fe576040517f08c379a00000000000000000000000000000000000000000000000000000000081526004016111f5906155d9565b60405180910390fd5b600060048054905090506000429050600460405180610100016040528084815260200183815260200189898080601f016020809104026020016040519081016040528093929190818152602001838380828437600081840152601f19601f8201169050808301925050505050505081526020018781526020018573ffffffffffffffffffffffffffffffffffffffff1681526020018673ffffffffffffffffffffffffffffffffffffffff168152602001600060028111156112c3576112c26140e2565b5b815260200160405180602001604052806000815250815250908060018154018082558091505060019003906000526020600020906007020160009091909190915060008201518160000155602082015181600101556040820151816002019080519060200190611334929190613e3c565b506060820151816003015560808201518160040160006101000a81548173ffffffffffffffffffffffffffffffffffffffff021916908373ffffffffffffffffffffffffffffffffffffffff16021790555060a08201518160050160006101000a81548173ffffffffffffffffffffffffffffffffffffffff021916908373ffffffffffffffffffffffffffffffffffffffff16021790555060c08201518160050160146101000a81548160ff021916908360028111156113f8576113f76140e2565b5b021790555060e0820151816006019080519060200190611419929190613e3c565b50505050505050505050565b606060006004805490501161146f576040517f08c379a0000000000000000000000000000000000000000000000000000000008152600401611466906150ef565b60405180910390fd5b6000805b6004805490508110156115015760006002811115611494576114936140e2565b5b600482815481106114a8576114a761510f565b5b906000526020600020906007020160050160149054906101000a900460ff1660028111156114d9576114d86140e2565b5b14156114ee5781806114ea906151ce565b9250505b80806114f9906151ce565b915050611473565b5060008111611545576040517f08c379a000000000000000000000000000000000000000000000000000000000815260040161153c90615645565b60405180910390fd5b60008167ffffffffffffffff81111561156157611560614c50565b5b60405190808252806020026020018201604052801561159a57816020015b611587613d41565b81526020019060019003908161157f5790505b5090506000915060005b6004805490508110156118a757600060028111156115c5576115c46140e2565b5b600482815481106115d9576115d861510f565b5b906000526020600020906007020160050160149054906101000a900460ff16600281111561160a576116096140e2565b5b141561189457600481815481106116245761162361510f565b5b90600052602060002090600702016040518061010001604052908160008201548152602001600182015481526020016002820180546116629061516d565b80601f016020809104026020016040519081016040528092919081815260200182805461168e9061516d565b80156116db5780601f106116b0576101008083540402835291602001916116db565b820191906000526020600020905b8154815290600101906020018083116116be57829003601f168201915b50505050508152602001600382015481526020016004820160009054906101000a900473ffffffffffffffffffffffffffffffffffffffff1673ffffffffffffffffffffffffffffffffffffffff1673ffffffffffffffffffffffffffffffffffffffff1681526020016005820160009054906101000a900473ffffffffffffffffffffffffffffffffffffffff1673ffffffffffffffffffffffffffffffffffffffff1673ffffffffffffffffffffffffffffffffffffffff1681526020016005820160149054906101000a900460ff1660028111156117bf576117be6140e2565b5b60028111156117d1576117d06140e2565b5b81526020016006820180546117e59061516d565b80601f01602080910402602001604051908101604052809291908181526020018280546118119061516d565b801561185e5780601f106118335761010080835404028352916020019161185e565b820191906000526020600020905b81548152906001019060200180831161184157829003601f168201915b50505050508152505082848151811061187a5761187961510f565b5b60200260200101819052508280611890906151ce565b9350505b808061189f906151ce565b9150506115a4565b50809250505090565b600015153073ffffffffffffffffffffffffffffffffffffffff1663d286c5a88a8a8a8a8a6040518663ffffffff1660e01b81526004016118f5959493929190615692565b602060405180830381865afa158015611912573d6000803e3d6000fd5b505050506040513d601f19601f8201168201806040525081019061193691906154f4565b151514611978576040517f08c379a000000000000000000000000000000000000000000000000000000000815260040161196f90615727565b60405180910390fd5b611980613ec2565b60068054905081600001818152505088816020019073ffffffffffffffffffffffffffffffffffffffff16908173ffffffffffffffffffffffffffffffffffffffff168152505087878080601f016020809104026020016040519081016040528093929190818152602001838380828437600081840152601f19601f82011690508083019250505050505050816040018190525085858080601f016020809104026020016040519081016040528093929190818152602001838380828437600081840152601f19601f82011690508083019250505050505050816060018190525083838080601f016020809104026020016040519081016040528093929190818152602001838380828437600081840152601f19601f820116905080830192505050505050508160800181905250818160a001906004811115611ac657611ac56140e2565b5b90816004811115611ada57611ad96140e2565b5b8152505060068190806001815401808255809150506001900390600052602060002090600602016000909190919091506000820151816000015560208201518160010160006101000a81548173ffffffffffffffffffffffffffffffffffffffff021916908373ffffffffffffffffffffffffffffffffffffffff1602179055506040820151816002019080519060200190611b77929190613e3c565b506060820151816003019080519060200190611b94929190613e3c565b506080820151816004019080519060200190611bb1929190613e3c565b5060a08201518160050160006101000a81548160ff02191690836004811115611bdd57611bdc6140e2565b5b02179055505050505050505050505050565b600060018054905011611c37576040517f08c379a0000000000000000000000000000000000000000000000000000000008152600401611c2e906150ef565b60405180910390fd5b6001805490508110611c7e576040517f08c379a0000000000000000000000000000000000000000000000000000000008152600401611c7590615413565b60405180910390fd5b60006001811115611c9257611c916140e2565b5b60018281548110611ca657611ca561510f565b5b906000526020600020906004020160030160009054906101000a900460ff166001811115611cd757611cd66140e2565b5b1415611d18576040517f08c379a0000000000000000000000000000000000000000000000000000000008152600401611d0f90615793565b60405180910390fd5b600060018281548110611d2e57611d2d61510f565b5b906000526020600020906004020160030160006101000a81548160ff02191690836001811115611d6157611d606140e2565b5b021790555050565b611d71613ec2565b600060068054905011611db9576040517f08c379a0000000000000000000000000000000000000000000000000000000008152600401611db0906150ef565b60405180910390fd5b60006040518060c0016040528060008152602001600073ffffffffffffffffffffffffffffffffffffffff168152602001604051806020016040528060008152508152602001604051806020016040528060008152508152602001604051806020016040528060008152508152602001600480811115611e3c57611e3b6140e2565b5b815250905060005b600680549050811015612162578373ffffffffffffffffffffffffffffffffffffffff1660068281548110611e7c57611e7b61510f565b5b906000526020600020906006020160010160009054906101000a900473ffffffffffffffffffffffffffffffffffffffff1673ffffffffffffffffffffffffffffffffffffffff16141561214f5760068181548110611ede57611edd61510f565b5b90600052602060002090600602016040518060c0016040529081600082015481526020016001820160009054906101000a900473ffffffffffffffffffffffffffffffffffffffff1673ffffffffffffffffffffffffffffffffffffffff1673ffffffffffffffffffffffffffffffffffffffff168152602001600282018054611f679061516d565b80601f0160208091040260200160405190810160405280929190818152602001828054611f939061516d565b8015611fe05780601f10611fb557610100808354040283529160200191611fe0565b820191906000526020600020905b815481529060010190602001808311611fc357829003601f168201915b50505050508152602001600382018054611ff99061516d565b80601f01602080910402602001604051908101604052809291908181526020018280546120259061516d565b80156120725780601f1061204757610100808354040283529160200191612072565b820191906000526020600020905b81548152906001019060200180831161205557829003601f168201915b5050505050815260200160048201805461208b9061516d565b80601f01602080910402602001604051908101604052809291908181526020018280546120b79061516d565b80156121045780601f106120d957610100808354040283529160200191612104565b820191906000526020600020905b8154815290600101906020018083116120e757829003601f168201915b505050505081526020016005820160009054906101000a900460ff166004811115612132576121316140e2565b5b6004811115612144576121436140e2565b5b815250509150612162565b808061215a906151ce565b915050611e44565b5080915050919050565b60008310156121b0576040517f08c379a00000000000000000000000000000000000000000000000000000000081526004016121a7906157ff565b60405180910390fd5b6000600480549050116121f8576040517f08c379a00000000000000000000000000000000000000000000000000000000081526004016121ef906150ef565b60405180910390fd5b600480549050831061223f576040517f08c379a00000000000000000000000000000000000000000000000000000000081526004016122369061586b565b60405180910390fd5b6000828290501415612286576040517f08c379a000000000000000000000000000000000000000000000000000000000815260040161227d906155d9565b60405180910390fd5b6000600281111561229a576122996140e2565b5b600484815481106122ae576122ad61510f565b5b906000526020600020906007020160050160149054906101000a900460ff1660028111156122df576122de6140e2565b5b1461231f576040517f08c379a0000000000000000000000000000000000000000000000000000000008152600401612316906158d7565b60405180910390fd5b6002600484815481106123355761233461510f565b5b906000526020600020906007020160050160146101000a81548160ff02191690836002811115612368576123676140e2565b5b02179055508181600485815481106123835761238261510f565b5b906000526020600020906007020160060191906123a1929190613f20565b50505050565b600080600090505b600680549050811015612452578273ffffffffffffffffffffffffffffffffffffffff16600682815481106123e7576123e661510f565b5b906000526020600020906006020160010160009054906101000a900473ffffffffffffffffffffffffffffffffffffffff1673ffffffffffffffffffffffffffffffffffffffff16141561243f576001915050612458565b808061244a906151ce565b9150506123af565b50600090505b919050565b60008310156124a1576040517f08c379a0000000000000000000000000000000000000000000000000000000008152600401612498906157ff565b60405180910390fd5b60048054905083106124e8576040517f08c379a00000000000000000000000000000000000000000000000000000000081526004016124df9061586b565b60405180910390fd5b600060028111156124fc576124fb6140e2565b5b600484815481106125105761250f61510f565b5b906000526020600020906007020160050160149054906101000a900460ff166002811115612541576125406140e2565b5b14612581576040517f08c379a0000000000000000000000000000000000000000000000000000000008152600401612578906158d7565b60405180910390fd5b6001600484815481106125975761259661510f565b5b906000526020600020906007020160050160146101000a81548160ff021916908360028111156125ca576125c96140e2565b5b02179055508181600485815481106125e5576125e461510f565b5b90600052602060002090600702016006019190612603929190613f20565b50600760009054906101000a900473ffffffffffffffffffffffffffffffffffffffff1673ffffffffffffffffffffffffffffffffffffffff1663a9059cbb600485815481106126565761265561510f565b5b906000526020600020906007020160050160009054906101000a900473ffffffffffffffffffffffffffffffffffffffff166004868154811061269c5761269b61510f565b5b9060005260206000209060070201600301546040518363ffffffff1660e01b81526004016126cb92919061549f565b6020604051808303816000875af11580156126ea573d6000803e3d6000fd5b505050506040513d601f19601f8201168201806040525081019061270e91906154f4565b50505050565b60008111612757576040517f08c379a000000000000000000000000000000000000000000000000000000000815260040161274e90615943565b60405180910390fd5b600083839050141561279e576040517f08c379a0000000000000000000000000000000000000000000000000000000008152600401612795906159af565b60405180910390fd5b600060018054905090506001604051806080016040528083815260200186868080601f016020809104026020016040519081016040528093929190818152602001838380828437600081840152601f19601f8201169050808301925050505050505081526020018481526020016000600181111561281f5761281e6140e2565b5b8152509080600181540180825580915050600190039060005260206000209060040201600090919091909150600082015181600001556020820151816001019080519060200190612871929190613e3c565b506040820151816002015560608201518160030160006101000a81548160ff021916908360018111156128a7576128a66140e2565b5b0217905550505050505050565b60606000600180549050116128fe576040517f08c379a00000000000000000000000000000000000000000000000000000000081526004016128f5906150ef565b60405180910390fd5b6000805b6001805490508110156129905760006001811115612923576129226140e2565b5b600182815481106129375761293661510f565b5b906000526020600020906004020160030160009054906101000a900460ff166001811115612968576129676140e2565b5b141561297d578180612979906151ce565b9250505b8080612988906151ce565b915050612902565b50600081116129d4576040517f08c379a00000000000000000000000000000000000000000000000000000000081526004016129cb90615a1b565b60405180910390fd5b60008167ffffffffffffffff8111156129f0576129ef614c50565b5b604051908082528060200260200182016040528015612a2957816020015b612a16613e02565b815260200190600190039081612a0e5790505b5090506000915060005b600180549050811015612bed5760006001811115612a5457612a536140e2565b5b60018281548110612a6857612a6761510f565b5b906000526020600020906004020160030160009054906101000a900460ff166001811115612a9957612a986140e2565b5b1415612bda5760018181548110612ab357612ab261510f565b5b906000526020600020906004020160405180608001604052908160008201548152602001600182018054612ae69061516d565b80601f0160208091040260200160405190810160405280929190818152602001828054612b129061516d565b8015612b5f5780601f10612b3457610100808354040283529160200191612b5f565b820191906000526020600020905b815481529060010190602001808311612b4257829003601f168201915b50505050508152602001600282015481526020016003820160009054906101000a900460ff166001811115612b9757612b966140e2565b5b6001811115612ba957612ba86140e2565b5b81525050828481518110612bc057612bbf61510f565b5b60200260200101819052508280612bd6906151ce565b9350505b8080612be5906151ce565b915050612a33565b50809250505090565b6060600060048054905011612c40576040517f08c379a0000000000000000000000000000000000000000000000000000000008152600401612c37906150ef565b60405180910390fd5b6000805b600480549050811015612cec578373ffffffffffffffffffffffffffffffffffffffff1660048281548110612c7c57612c7b61510f565b5b906000526020600020906007020160040160009054906101000a900473ffffffffffffffffffffffffffffffffffffffff1673ffffffffffffffffffffffffffffffffffffffff161415612cd9578180612cd5906151ce565b9250505b8080612ce4906151ce565b915050612c44565b5060008111612d30576040517f08c379a0000000000000000000000000000000000000000000000000000000008152600401612d2790615645565b60405180910390fd5b60008167ffffffffffffffff811115612d4c57612d4b614c50565b5b604051908082528060200260200182016040528015612d8557816020015b612d72613d41565b815260200190600190039081612d6a5790505b5090506000915060005b6004805490508110156130ac578473ffffffffffffffffffffffffffffffffffffffff1660048281548110612dc757612dc661510f565b5b906000526020600020906007020160040160009054906101000a900473ffffffffffffffffffffffffffffffffffffffff1673ffffffffffffffffffffffffffffffffffffffff1614156130995760048181548110612e2957612e2861510f565b5b9060005260206000209060070201604051806101000160405290816000820154815260200160018201548152602001600282018054612e679061516d565b80601f0160208091040260200160405190810160405280929190818152602001828054612e939061516d565b8015612ee05780601f10612eb557610100808354040283529160200191612ee0565b820191906000526020600020905b815481529060010190602001808311612ec357829003601f168201915b50505050508152602001600382015481526020016004820160009054906101000a900473ffffffffffffffffffffffffffffffffffffffff1673ffffffffffffffffffffffffffffffffffffffff1673ffffffffffffffffffffffffffffffffffffffff1681526020016005820160009054906101000a900473ffffffffffffffffffffffffffffffffffffffff1673ffffffffffffffffffffffffffffffffffffffff1673ffffffffffffffffffffffffffffffffffffffff1681526020016005820160149054906101000a900460ff166002811115612fc457612fc36140e2565b5b6002811115612fd657612fd56140e2565b5b8152602001600682018054612fea9061516d565b80601f01602080910402602001604051908101604052809291908181526020018280546130169061516d565b80156130635780601f1061303857610100808354040283529160200191613063565b820191906000526020600020905b81548152906001019060200180831161304657829003601f168201915b50505050508152505082848151811061307f5761307e61510f565b5b60200260200101819052508280613095906151ce565b9350505b80806130a4906151ce565b915050612d8f565b508092505050919050565b6000600180549050116130ff576040517f08c379a00000000000000000000000000000000000000000000000000000000081526004016130f6906150ef565b60405180910390fd5b6001805490508110613146576040517f08c379a000000000000000000000000000000000000000000000000000000000815260040161313d90615413565b60405180910390fd5b600180811115613159576131586140e2565b5b6001828154811061316d5761316c61510f565b5b906000526020600020906004020160030160009054906101000a900460ff16600181111561319e5761319d6140e2565b5b14156131df576040517f08c379a00000000000000000000000000000000000000000000000000000000081526004016131d690615a87565b60405180910390fd5b60018082815481106131f4576131f361510f565b5b906000526020600020906004020160030160006101000a81548160ff02191690836001811115613227576132266140e2565b5b021790555050565b6004818154811061323f57600080fd5b906000526020600020906007020160009150905080600001549080600101549080600201805461326e9061516d565b80601f016020809104026020016040519081016040528092919081815260200182805461329a9061516d565b80156132e75780601f106132bc576101008083540402835291602001916132e7565b820191906000526020600020905b8154815290600101906020018083116132ca57829003601f168201915b5050505050908060030154908060040160009054906101000a900473ffffffffffffffffffffffffffffffffffffffff16908060050160009054906101000a900473ffffffffffffffffffffffffffffffffffffffff16908060050160149054906101000a900460ff16908060060180546133619061516d565b80601f016020809104026020016040519081016040528092919081815260200182805461338d9061516d565b80156133da5780601f106133af576101008083540402835291602001916133da565b820191906000526020600020905b8154815290600101906020018083116133bd57829003601f168201915b5050505050905088565b6000816040516020016133f79190615ae3565b604051602081830303815290604052805190602001208360405160200161341e9190615ae3565b6040516020818303038152906040528051906020012014905092915050565b600080600090505b6006805490508110156136ee57600681815481106134665761346561510f565b5b906000526020600020906006020160010160009054906101000a900473ffffffffffffffffffffffffffffffffffffffff1673ffffffffffffffffffffffffffffffffffffffff168773ffffffffffffffffffffffffffffffffffffffff161480156135c957506135c886868080601f016020809104026020016040519081016040528093929190818152602001838380828437600081840152601f19601f82011690508083019250505050505050600683815481106135295761352861510f565b5b906000526020600020906006020160020180546135459061516d565b80601f01602080910402602001604051908101604052809291908181526020018280546135719061516d565b80156135be5780601f10613593576101008083540402835291602001916135be565b820191906000526020600020905b8154815290600101906020018083116135a157829003601f168201915b50505050506133e4565b5b80156136cc57506136cb84848080601f016020809104026020016040519081016040528093929190818152602001838380828437600081840152601f19601f820116905080830192505050505050506006838154811061362c5761362b61510f565b5b906000526020600020906006020160030180546136489061516d565b80601f01602080910402602001604051908101604052809291908181526020018280546136749061516d565b80156136c15780601f10613696576101008083540402835291602001916136c1565b820191906000526020600020905b8154815290600101906020018083116136a457829003601f168201915b50505050506133e4565b5b156136db5760019150506136f4565b80806136e6906151ce565b915050613445565b50600090505b95945050505050565b6000600760009054906101000a900473ffffffffffffffffffffffffffffffffffffffff1673ffffffffffffffffffffffffffffffffffffffff166370a08231600760009054906101000a900473ffffffffffffffffffffffffffffffffffffffff166040518263ffffffff1660e01b815260040161377c9190615afa565b602060405180830381865afa158015613799573d6000803e3d6000fd5b505050506040513d601f19601f820116820180604052508101906137bd9190615b2a565b905090565b606060006006805490501161380c576040517f08c379a0000000000000000000000000000000000000000000000000000000008152600401613803906150ef565b60405180910390fd5b600060068054905067ffffffffffffffff81111561382d5761382c614c50565b5b60405190808252806020026020018201604052801561386657816020015b613853613ec2565b81526020019060019003908161384b5790505b50905060005b600680549050811015613b28576006818154811061388d5761388c61510f565b5b90600052602060002090600602016040518060c0016040529081600082015481526020016001820160009054906101000a900473ffffffffffffffffffffffffffffffffffffffff1673ffffffffffffffffffffffffffffffffffffffff1673ffffffffffffffffffffffffffffffffffffffff1681526020016002820180546139169061516d565b80601f01602080910402602001604051908101604052809291908181526020018280546139429061516d565b801561398f5780601f106139645761010080835404028352916020019161398f565b820191906000526020600020905b81548152906001019060200180831161397257829003601f168201915b505050505081526020016003820180546139a89061516d565b80601f01602080910402602001604051908101604052809291908181526020018280546139d49061516d565b8015613a215780601f106139f657610100808354040283529160200191613a21565b820191906000526020600020905b815481529060010190602001808311613a0457829003601f168201915b50505050508152602001600482018054613a3a9061516d565b80601f0160208091040260200160405190810160405280929190818152602001828054613a669061516d565b8015613ab35780601f10613a8857610100808354040283529160200191613ab3565b820191906000526020600020905b815481529060010190602001808311613a9657829003601f168201915b505050505081526020016005820160009054906101000a900460ff166004811115613ae157613ae06140e2565b5b6004811115613af357613af26140e2565b5b81525050828281518110613b0a57613b0961510f565b5b60200260200101819052508080613b20906151ce565b91505061386c565b508091505090565b60068181548110613b4057600080fd5b90600052602060002090600602016000915090508060000154908060010160009054906101000a900473ffffffffffffffffffffffffffffffffffffffff1690806002018054613b8f9061516d565b80601f0160208091040260200160405190810160405280929190818152602001828054613bbb9061516d565b8015613c085780601f10613bdd57610100808354040283529160200191613c08565b820191906000526020600020905b815481529060010190602001808311613beb57829003601f168201915b505050505090806003018054613c1d9061516d565b80601f0160208091040260200160405190810160405280929190818152602001828054613c499061516d565b8015613c965780601f10613c6b57610100808354040283529160200191613c96565b820191906000526020600020905b815481529060010190602001808311613c7957829003601f168201915b505050505090806004018054613cab9061516d565b80601f0160208091040260200160405190810160405280929190818152602001828054613cd79061516d565b8015613d245780601f10613cf957610100808354040283529160200191613d24565b820191906000526020600020905b815481529060010190602001808311613d0757829003601f168201915b5050505050908060050160009054906101000a900460ff16905086565b60405180610100016040528060008152602001600081526020016060815260200160008152602001600073ffffffffffffffffffffffffffffffffffffffff168152602001600073ffffffffffffffffffffffffffffffffffffffff16815260200160006002811115613db757613db66140e2565b5b8152602001606081525090565b604051806080016040528060008152602001600073ffffffffffffffffffffffffffffffffffffffff16815260200160008152602001600081525090565b604051806080016040528060008152602001606081526020016000815260200160006001811115613e3657613e356140e2565b5b81525090565b828054613e489061516d565b90600052602060002090601f016020900481019282613e6a5760008555613eb1565b82601f10613e8357805160ff1916838001178555613eb1565b82800160010185558215613eb1579182015b82811115613eb0578251825591602001919060010190613e95565b5b509050613ebe9190613fa6565b5090565b6040518060c0016040528060008152602001600073ffffffffffffffffffffffffffffffffffffffff16815260200160608152602001606081526020016060815260200160006004811115613f1a57613f196140e2565b5b81525090565b828054613f2c9061516d565b90600052602060002090601f016020900481019282613f4e5760008555613f95565b82601f10613f6757803560ff1916838001178555613f95565b82800160010185558215613f95579182015b82811115613f94578235825591602001919060010190613f79565b5b509050613fa29190613fa6565b5090565b5b80821115613fbf576000816000905550600101613fa7565b5090565b600081519050919050565b600082825260208201905092915050565b6000819050602082019050919050565b6000819050919050565b61400281613fef565b82525050565b600081519050919050565b600082825260208201905092915050565b60005b83811015614042578082015181840152602081019050614027565b83811115614051576000848401525b50505050565b6000601f19601f8301169050919050565b600061407382614008565b61407d8185614013565b935061408d818560208601614024565b61409681614057565b840191505092915050565b600073ffffffffffffffffffffffffffffffffffffffff82169050919050565b60006140cc826140a1565b9050919050565b6140dc816140c1565b82525050565b7f4e487b7100000000000000000000000000000000000000000000000000000000600052602160045260246000fd5b60038110614122576141216140e2565b5b50565b600081905061413382614111565b919050565b600061414382614125565b9050919050565b61415381614138565b82525050565b6000610100830160008301516141726000860182613ff9565b5060208301516141856020860182613ff9565b506040830151848203604086015261419d8282614068565b91505060608301516141b26060860182613ff9565b5060808301516141c560808601826140d3565b5060a08301516141d860a08601826140d3565b5060c08301516141eb60c086018261414a565b5060e083015184820360e08601526142038282614068565b9150508091505092915050565b600061421c8383614159565b905092915050565b6000602082019050919050565b600061423c82613fc3565b6142468185613fce565b93508360208202850161425885613fdf565b8060005b8581101561429457848403895281516142758582614210565b945061428083614224565b925060208a0199505060018101905061425c565b50829750879550505050505092915050565b600060208201905081810360008301526142c08184614231565b905092915050565b600081519050919050565b600082825260208201905092915050565b6000819050602082019050919050565b60808201600082015161430a6000850182613ff9565b50602082015161431d60208501826140d3565b5060408201516143306040850182613ff9565b5060608201516143436060850182613ff9565b50505050565b600061435583836142f4565b60808301905092915050565b6000602082019050919050565b6000614379826142c8565b61438381856142d3565b935061438e836142e4565b8060005b838110156143bf5781516143a68882614349565b97506143b183614361565b925050600181019050614392565b5085935050505092915050565b600060208201905081810360008301526143e6818461436e565b905092915050565b6000604051905090565b600080fd5b600080fd5b61440b81613fef565b811461441657600080fd5b50565b60008135905061442881614402565b92915050565b600060208284031215614444576144436143f8565b5b600061445284828501614419565b91505092915050565b61446481613fef565b82525050565b600082825260208201905092915050565b600061448682614008565b614490818561446a565b93506144a0818560208601614024565b6144a981614057565b840191505092915050565b600281106144c5576144c46140e2565b5b50565b60008190506144d6826144b4565b919050565b60006144e6826144c8565b9050919050565b6144f6816144db565b82525050565b6000608082019050614511600083018761445b565b8181036020830152614523818661447b565b9050614532604083018561445b565b61453f60608301846144ed565b95945050505050565b614551816140c1565b811461455c57600080fd5b50565b60008135905061456e81614548565b92915050565b6000806040838503121561458b5761458a6143f8565b5b600061459985828601614419565b92505060206145aa8582860161455f565b9150509250929050565b60008115159050919050565b6145c9816145b4565b82525050565b60006020820190506145e460008301846145c0565b92915050565b600581106145f757600080fd5b50565b600081359050614609816145ea565b92915050565b60008060408385031215614626576146256143f8565b5b600061463485828601614419565b9250506020614645858286016145fa565b9150509250929050565b614658816140c1565b82525050565b6000608082019050614673600083018761445b565b614680602083018661464f565b61468d604083018561445b565b61469a606083018461445b565b95945050505050565b600081519050919050565b600082825260208201905092915050565b6000819050602082019050919050565b6146d8816144db565b82525050565b60006080830160008301516146f66000860182613ff9565b506020830151848203602086015261470e8282614068565b91505060408301516147236040860182613ff9565b50606083015161473660608601826146cf565b508091505092915050565b600061474d83836146de565b905092915050565b6000602082019050919050565b600061476d826146a3565b61477781856146ae565b935083602082028501614789856146bf565b8060005b858110156147c557848403895281516147a68582614741565b94506147b183614755565b925060208a0199505060018101905061478d565b50829750879550505050505092915050565b600060208201905081810360008301526147f18184614762565b905092915050565b600080fd5b600080fd5b600080fd5b60008083601f84011261481e5761481d6147f9565b5b8235905067ffffffffffffffff81111561483b5761483a6147fe565b5b60208301915083600182028301111561485757614856614803565b5b9250929050565b60008060008060006080868803121561487a576148796143f8565b5b600086013567ffffffffffffffff811115614898576148976143fd565b5b6148a488828901614808565b955095505060206148b788828901614419565b93505060406148c88882890161455f565b92505060606148d98882890161455f565b9150509295509295909350565b60008060008060008060008060a0898b031215614906576149056143f8565b5b60006149148b828c0161455f565b985050602089013567ffffffffffffffff811115614935576149346143fd565b5b6149418b828c01614808565b9750975050604089013567ffffffffffffffff811115614964576149636143fd565b5b6149708b828c01614808565b9550955050606089013567ffffffffffffffff811115614993576149926143fd565b5b61499f8b828c01614808565b935093505060806149b28b828c016145fa565b9150509295985092959890939650565b6000602082840312156149d8576149d76143f8565b5b60006149e68482850161455f565b91505092915050565b60058110614a00576149ff6140e2565b5b50565b6000819050614a11826149ef565b919050565b6000614a2182614a03565b9050919050565b614a3181614a16565b82525050565b600060c083016000830151614a4f6000860182613ff9565b506020830151614a6260208601826140d3565b5060408301518482036040860152614a7a8282614068565b91505060608301518482036060860152614a948282614068565b91505060808301518482036080860152614aae8282614068565b91505060a0830151614ac360a0860182614a28565b508091505092915050565b60006020820190508181036000830152614ae88184614a37565b905092915050565b600080600060408486031215614b0957614b086143f8565b5b6000614b1786828701614419565b935050602084013567ffffffffffffffff811115614b3857614b376143fd565b5b614b4486828701614808565b92509250509250925092565b600080600060408486031215614b6957614b686143f8565b5b600084013567ffffffffffffffff811115614b8757614b866143fd565b5b614b9386828701614808565b93509350506020614ba686828701614419565b9150509250925092565b614bb981614138565b82525050565b600061010082019050614bd5600083018b61445b565b614be2602083018a61445b565b8181036040830152614bf4818961447b565b9050614c03606083018861445b565b614c10608083018761464f565b614c1d60a083018661464f565b614c2a60c0830185614bb0565b81810360e0830152614c3c818461447b565b90509998505050505050505050565b600080fd5b7f4e487b7100000000000000000000000000000000000000000000000000000000600052604160045260246000fd5b614c8882614057565b810181811067ffffffffffffffff82111715614ca757614ca6614c50565b5b80604052505050565b6000614cba6143ee565b9050614cc68282614c7f565b919050565b600067ffffffffffffffff821115614ce657614ce5614c50565b5b614cef82614057565b9050602081019050919050565b82818337600083830152505050565b6000614d1e614d1984614ccb565b614cb0565b905082815260208101848484011115614d3a57614d39614c4b565b5b614d45848285614cfc565b509392505050565b600082601f830112614d6257614d616147f9565b5b8135614d72848260208601614d0b565b91505092915050565b60008060408385031215614d9257614d916143f8565b5b600083013567ffffffffffffffff811115614db057614daf6143fd565b5b614dbc85828601614d4d565b925050602083013567ffffffffffffffff811115614ddd57614ddc6143fd565b5b614de985828601614d4d565b9150509250929050565b600080600080600060608688031215614e0f57614e0e6143f8565b5b6000614e1d8882890161455f565b955050602086013567ffffffffffffffff811115614e3e57614e3d6143fd565b5b614e4a88828901614808565b9450945050604086013567ffffffffffffffff811115614e6d57614e6c6143fd565b5b614e7988828901614808565b92509250509295509295909350565b6000602082019050614e9d600083018461445b565b92915050565b600081519050919050565b600082825260208201905092915050565b6000819050602082019050919050565b600060c083016000830151614ee76000860182613ff9565b506020830151614efa60208601826140d3565b5060408301518482036040860152614f128282614068565b91505060608301518482036060860152614f2c8282614068565b91505060808301518482036080860152614f468282614068565b91505060a0830151614f5b60a0860182614a28565b508091505092915050565b6000614f728383614ecf565b905092915050565b6000602082019050919050565b6000614f9282614ea3565b614f9c8185614eae565b935083602082028501614fae85614ebf565b8060005b85811015614fea5784840389528151614fcb8582614f66565b9450614fd683614f7a565b925060208a01995050600181019050614fb2565b50829750879550505050505092915050565b600060208201905081810360008301526150168184614f87565b905092915050565b61502781614a16565b82525050565b600060c082019050615042600083018961445b565b61504f602083018861464f565b8181036040830152615061818761447b565b90508181036060830152615075818661447b565b90508181036080830152615089818561447b565b905061509860a083018461501e565b979650505050505050565b7f456d70747920737461636b000000000000000000000000000000000000000000600082015250565b60006150d9600b8361446a565b91506150e4826150a3565b602082019050919050565b60006020820190508181036000830152615108816150cc565b9050919050565b7f4e487b7100000000000000000000000000000000000000000000000000000000600052603260045260246000fd5b7f4e487b7100000000000000000000000000000000000000000000000000000000600052602260045260246000fd5b6000600282049050600182168061518557607f821691505b602082108114156151995761519861513e565b5b50919050565b7f4e487b7100000000000000000000000000000000000000000000000000000000600052601160045260246000fd5b60006151d982613fef565b91507fffffffffffffffffffffffffffffffffffffffffffffffffffffffffffffffff82141561520c5761520b61519f565b5b600182019050919050565b7f50726f6475637420646f6573206e6f7420657869737400000000000000000000600082015250565b600061524d60168361446a565b915061525882615217565b602082019050919050565b6000602082019050818103600083015261527c81615240565b9050919050565b7f456d70747920537461636b000000000000000000000000000000000000000000600082015250565b60006152b9600b8361446a565b91506152c482615283565b602082019050919050565b600060208201905081810360008301526152e8816152ac565b9050919050565b7f4944206f7574206f66207468652073636f706500000000000000000000000000600082015250565b600061532560138361446a565b9150615330826152ef565b602082019050919050565b6000602082019050818103600083015261535481615318565b9050919050565b7f4e65676174697665204944000000000000000000000000000000000000000000600082015250565b6000615391600b8361446a565b915061539c8261535b565b602082019050919050565b600060208201905081810360008301526153c081615384565b9050919050565b7f50726f64756374206f7574206f6620746865206c697374000000000000000000600082015250565b60006153fd60178361446a565b9150615408826153c7565b602082019050919050565b6000602082019050818103600083015261542c816153f0565b9050919050565b7f50726f64756374206973206e6f7420666f722073616c65000000000000000000600082015250565b600061546960178361446a565b915061547482615433565b602082019050919050565b600060208201905081810360008301526154988161545c565b9050919050565b60006040820190506154b4600083018561464f565b6154c1602083018461445b565b9392505050565b6154d1816145b4565b81146154dc57600080fd5b50565b6000815190506154ee816154c8565b92915050565b60006020828403121561550a576155096143f8565b5b6000615518848285016154df565b91505092915050565b7f546f206c6f7720746f6b656e20616d6f756e7400000000000000000000000000600082015250565b600061555760138361446a565b915061556282615521565b602082019050919050565b600060208201905081810360008301526155868161554a565b9050919050565b7f4578706c616e6174696f6e2063616e6e6f7420626520656d7074790000000000600082015250565b60006155c3601b8361446a565b91506155ce8261558d565b602082019050919050565b600060208201905081810360008301526155f2816155b6565b9050919050565b7f4e6f2073656e6420656c656d656e747300000000000000000000000000000000600082015250565b600061562f60108361446a565b915061563a826155f9565b602082019050919050565b6000602082019050818103600083015261565e81615622565b9050919050565b6000615671838561446a565b935061567e838584614cfc565b61568783614057565b840190509392505050565b60006060820190506156a7600083018861464f565b81810360208301526156ba818688615665565b905081810360408301526156cf818486615665565b90509695505050505050565b7f55736572206973206578697374696e6700000000000000000000000000000000600082015250565b600061571160108361446a565b915061571c826156db565b602082019050919050565b6000602082019050818103600083015261574081615704565b9050919050565b7f4974656d20697320616c726561647920666f722073616c650000000000000000600082015250565b600061577d60188361446a565b915061578882615747565b602082019050919050565b600060208201905081810360008301526157ac81615770565b9050919050565b7f4e65676174697665206964000000000000000000000000000000000000000000600082015250565b60006157e9600b8361446a565b91506157f4826157b3565b602082019050919050565b60006020820190508181036000830152615818816157dc565b9050919050565b7f496e646578206f7574206f662072616e67650000000000000000000000000000600082015250565b600061585560128361446a565b91506158608261581f565b602082019050919050565b6000602082019050818103600083015261588481615848565b9050919050565b7f5469636b657420697320636c6f73656400000000000000000000000000000000600082015250565b60006158c160108361446a565b91506158cc8261588b565b602082019050919050565b600060208201905081810360008301526158f0816158b4565b9050919050565b7f50726963652063616e6e6f74206265206e656761746976650000000000000000600082015250565b600061592d60188361446a565b9150615938826158f7565b602082019050919050565b6000602082019050818103600083015261595c81615920565b9050919050565b7f4e616d652063616e6e6f7420626520656d707479000000000000000000000000600082015250565b600061599960148361446a565b91506159a482615963565b602082019050919050565b600060208201905081810360008301526159c88161598c565b9050919050565b7f4e6f206974656d7320666f722073616c65000000000000000000000000000000600082015250565b6000615a0560118361446a565b9150615a10826159cf565b602082019050919050565b60006020820190508181036000830152615a34816159f8565b9050919050565b7f4974656d20697320616c72656164792061726368697665640000000000000000600082015250565b6000615a7160188361446a565b9150615a7c82615a3b565b602082019050919050565b60006020820190508181036000830152615aa081615a64565b9050919050565b600081905092915050565b6000615abd82614008565b615ac78185615aa7565b9350615ad7818560208601614024565b80840191505092915050565b6000615aef8284615ab2565b915081905092915050565b6000602082019050615b0f600083018461464f565b92915050565b600081519050615b2481614402565b92915050565b600060208284031215615b4057615b3f6143f8565b5b6000615b4e84828501615b15565b9150509291505056fea26469706673582212208e63f3645579fa29a3b6b47d76688e6e680ff19a107f343c8c1abb8848797d4c64736f6c634300080c0033",
  "linkReferences": {},
  "deployedLinkReferences": {}
}