{
  "_format": "hh-sol-artifact-1",
  "contractName": "Main",
  "sourceName": "contracts/kontrakt.sol",
  "abi": [
    {
      "inputs": [],
      "stateMutability": "nonpayable",
      "type": "constructor"
    },
    {
      "inputs": [
        {
          "internalType": "string",
          "name": "_name",
          "type": "string"
        },
        {
          "internalType": "uint256",
          "name": "_price",
          "type": "uint256"
        }
      ],
      "name": "AddItem",
      "outputs": [],
      "stateMutability": "nonpayable",
      "type": "function"
    },
    {
      "inputs": [
        {
          "internalType": "uint256",
          "name": "_id",
          "type": "uint256"
        }
      ],
      "name": "ArchiveItem",
      "outputs": [],
      "stateMutability": "nonpayable",
      "type": "function"
    },
    {
      "inputs": [
        {
          "internalType": "uint256",
          "name": "item_id",
          "type": "uint256"
        },
        {
          "internalType": "address",
          "name": "_buyer",
          "type": "address"
        }
      ],
      "name": "BuyItem",
      "outputs": [],
      "stateMutability": "nonpayable",
      "type": "function"
    },
    {
      "inputs": [],
      "name": "GetAll",
      "outputs": [
        {
          "components": [
            {
              "internalType": "uint256",
              "name": "id",
              "type": "uint256"
            },
            {
              "internalType": "uint256",
              "name": "NotificationData",
              "type": "uint256"
            },
            {
              "internalType": "string",
              "name": "Explenation",
              "type": "string"
            },
            {
              "internalType": "uint256",
              "name": "TokenAmount",
              "type": "uint256"
            },
            {
              "internalType": "address",
              "name": "SenderWallet",
              "type": "address"
            },
            {
              "internalType": "address",
              "name": "ReciverWallet",
              "type": "address"
            },
            {
              "internalType": "enum Notifications.statuses",
              "name": "Status",
              "type": "uint8"
            },
            {
              "internalType": "string",
              "name": "StatusExplanation",
              "type": "string"
            }
          ],
          "internalType": "struct Notifications.Notification[]",
          "name": "",
          "type": "tuple[]"
        }
      ],
      "stateMutability": "view",
      "type": "function"
    },
    {
      "inputs": [],
      "name": "GetAllItems",
      "outputs": [
        {
          "components": [
            {
              "internalType": "uint256",
              "name": "id",
              "type": "uint256"
            },
            {
              "internalType": "string",
              "name": "name",
              "type": "string"
            },
            {
              "internalType": "uint256",
              "name": "price",
              "type": "uint256"
            },
            {
              "internalType": "enum marketplace.item_status",
              "name": "status",
              "type": "uint8"
            }
          ],
          "internalType": "struct marketplace.items[]",
          "name": "",
          "type": "tuple[]"
        }
      ],
      "stateMutability": "view",
      "type": "function"
    },
    {
      "inputs": [],
      "name": "GetAllUsers",
      "outputs": [
        {
          "components": [
            {
              "internalType": "uint256",
              "name": "ID",
              "type": "uint256"
            },
            {
              "internalType": "address",
              "name": "user",
              "type": "address"
            },
            {
              "internalType": "string",
              "name": "Name",
              "type": "string"
            },
            {
              "internalType": "string",
              "name": "Surname",
              "type": "string"
            },
            {
              "internalType": "string",
              "name": "Email",
              "type": "string"
            },
            {
              "internalType": "enum AccountTypes.role",
              "name": "Rank",
              "type": "uint8"
            }
          ],
          "internalType": "struct AccountTypes.user_t[]",
          "name": "",
          "type": "tuple[]"
        }
      ],
      "stateMutability": "view",
      "type": "function"
    },
    {
      "inputs": [],
      "name": "GetForSaleItems",
      "outputs": [
        {
          "components": [
            {
              "internalType": "uint256",
              "name": "id",
              "type": "uint256"
            },
            {
              "internalType": "string",
              "name": "name",
              "type": "string"
            },
            {
              "internalType": "uint256",
              "name": "price",
              "type": "uint256"
            },
            {
              "internalType": "enum marketplace.item_status",
              "name": "status",
              "type": "uint8"
            }
          ],
          "internalType": "struct marketplace.items[]",
          "name": "",
          "type": "tuple[]"
        }
      ],
      "stateMutability": "view",
      "type": "function"
    },
    {
      "inputs": [
        {
          "internalType": "address",
          "name": "_owner",
          "type": "address"
        }
      ],
      "name": "GetMy",
      "outputs": [
        {
          "components": [
            {
              "internalType": "uint256",
              "name": "id",
              "type": "uint256"
            },
            {
              "internalType": "uint256",
              "name": "NotificationData",
              "type": "uint256"
            },
            {
              "internalType": "string",
              "name": "Explenation",
              "type": "string"
            },
            {
              "internalType": "uint256",
              "name": "TokenAmount",
              "type": "uint256"
            },
            {
              "internalType": "address",
              "name": "SenderWallet",
              "type": "address"
            },
            {
              "internalType": "address",
              "name": "ReciverWallet",
              "type": "address"
            },
            {
              "internalType": "enum Notifications.statuses",
              "name": "Status",
              "type": "uint8"
            },
            {
              "internalType": "string",
              "name": "StatusExplanation",
              "type": "string"
            }
          ],
          "internalType": "struct Notifications.Notification[]",
          "name": "",
          "type": "tuple[]"
        }
      ],
      "stateMutability": "view",
      "type": "function"
    },
    {
      "inputs": [],
      "name": "GetSent",
      "outputs": [
        {
          "components": [
            {
              "internalType": "uint256",
              "name": "id",
              "type": "uint256"
            },
            {
              "internalType": "uint256",
              "name": "NotificationData",
              "type": "uint256"
            },
            {
              "internalType": "string",
              "name": "Explenation",
              "type": "string"
            },
            {
              "internalType": "uint256",
              "name": "TokenAmount",
              "type": "uint256"
            },
            {
              "internalType": "address",
              "name": "SenderWallet",
              "type": "address"
            },
            {
              "internalType": "address",
              "name": "ReciverWallet",
              "type": "address"
            },
            {
              "internalType": "enum Notifications.statuses",
              "name": "Status",
              "type": "uint8"
            },
            {
              "internalType": "string",
              "name": "StatusExplanation",
              "type": "string"
            }
          ],
          "internalType": "struct Notifications.Notification[]",
          "name": "",
          "type": "tuple[]"
        }
      ],
      "stateMutability": "view",
      "type": "function"
    },
    {
      "inputs": [
        {
          "internalType": "uint256",
          "name": "",
          "type": "uint256"
        }
      ],
      "name": "Items",
      "outputs": [
        {
          "internalType": "uint256",
          "name": "id",
          "type": "uint256"
        },
        {
          "internalType": "string",
          "name": "name",
          "type": "string"
        },
        {
          "internalType": "uint256",
          "name": "price",
          "type": "uint256"
        },
        {
          "internalType": "enum marketplace.item_status",
          "name": "status",
          "type": "uint8"
        }
      ],
      "stateMutability": "view",
      "type": "function"
    },
    {
      "inputs": [
        {
          "internalType": "string",
          "name": "_Explenation",
          "type": "string"
        },
        {
          "internalType": "uint256",
          "name": "_TokenAmount",
          "type": "uint256"
        },
        {
          "internalType": "address",
          "name": "_ReciverWallet",
          "type": "address"
        }
      ],
      "name": "NewTicket",
      "outputs": [],
      "stateMutability": "nonpayable",
      "type": "function"
    },
    {
      "inputs": [
        {
          "internalType": "uint256",
          "name": "_id",
          "type": "uint256"
        }
      ],
      "name": "SellItem",
      "outputs": [],
      "stateMutability": "nonpayable",
      "type": "function"
    },
    {
      "inputs": [
        {
          "internalType": "uint256",
          "name": "",
          "type": "uint256"
        }
      ],
      "name": "Table",
      "outputs": [
        {
          "internalType": "uint256",
          "name": "id",
          "type": "uint256"
        },
        {
          "internalType": "uint256",
          "name": "NotificationData",
          "type": "uint256"
        },
        {
          "internalType": "string",
          "name": "Explenation",
          "type": "string"
        },
        {
          "internalType": "uint256",
          "name": "TokenAmount",
          "type": "uint256"
        },
        {
          "internalType": "address",
          "name": "SenderWallet",
          "type": "address"
        },
        {
          "internalType": "address",
          "name": "ReciverWallet",
          "type": "address"
        },
        {
          "internalType": "enum Notifications.statuses",
          "name": "Status",
          "type": "uint8"
        },
        {
          "internalType": "string",
          "name": "StatusExplanation",
          "type": "string"
        }
      ],
      "stateMutability": "view",
      "type": "function"
    },
    {
      "inputs": [
        {
          "internalType": "address",
          "name": "user",
          "type": "address"
        },
        {
          "internalType": "string",
          "name": "name",
          "type": "string"
        },
        {
          "internalType": "string",
          "name": "surname",
          "type": "string"
        },
        {
          "internalType": "string",
          "name": "email",
          "type": "string"
        },
        {
          "internalType": "enum AccountTypes.role",
          "name": "rank",
          "type": "uint8"
        }
      ],
      "name": "addUser",
      "outputs": [],
      "stateMutability": "nonpayable",
      "type": "function"
    },
    {
      "inputs": [
        {
          "internalType": "uint256",
          "name": "_id",
          "type": "uint256"
        },
        {
          "internalType": "string",
          "name": "_Explenation",
          "type": "string"
        }
      ],
      "name": "approve",
      "outputs": [],
      "stateMutability": "nonpayable",
      "type": "function"
    },
    {
      "inputs": [
        {
          "internalType": "uint256",
          "name": "_id",
          "type": "uint256"
        },
        {
          "internalType": "enum AccountTypes.role",
          "name": "new_role",
          "type": "uint8"
        }
      ],
      "name": "change_role",
      "outputs": [
        {
          "internalType": "bool",
          "name": "",
          "type": "bool"
        }
      ],
      "stateMutability": "nonpayable",
      "type": "function"
    },
    {
      "inputs": [
        {
          "internalType": "string",
          "name": "a",
          "type": "string"
        },
        {
          "internalType": "string",
          "name": "b",
          "type": "string"
        }
      ],
      "name": "compareStrings",
      "outputs": [
        {
          "internalType": "bool",
          "name": "",
          "type": "bool"
        }
      ],
      "stateMutability": "pure",
      "type": "function"
    },
    {
      "inputs": [
        {
          "internalType": "address",
          "name": "user",
          "type": "address"
        },
        {
          "internalType": "string",
          "name": "name",
          "type": "string"
        },
        {
          "internalType": "string",
          "name": "surname",
          "type": "string"
        }
      ],
      "name": "findUser",
      "outputs": [
        {
          "internalType": "bool",
          "name": "",
          "type": "bool"
        }
      ],
      "stateMutability": "view",
      "type": "function"
    },
    {
      "inputs": [
        {
          "internalType": "address",
          "name": "wallet",
          "type": "address"
        }
      ],
      "name": "findWallet",
      "outputs": [
        {
          "internalType": "bool",
          "name": "",
          "type": "bool"
        }
      ],
      "stateMutability": "view",
      "type": "function"
    },
    {
      "inputs": [],
      "name": "getBalanceKontrakt",
      "outputs": [
        {
          "internalType": "uint256",
          "name": "",
          "type": "uint256"
        }
      ],
      "stateMutability": "view",
      "type": "function"
    },
    {
      "inputs": [
        {
          "internalType": "uint256",
          "name": "",
          "type": "uint256"
        }
      ],
      "name": "historia",
      "outputs": [
        {
          "internalType": "uint256",
          "name": "id",
          "type": "uint256"
        },
        {
          "internalType": "address",
          "name": "buyer",
          "type": "address"
        },
        {
          "internalType": "uint256",
          "name": "data",
          "type": "uint256"
        }
      ],
      "stateMutability": "view",
      "type": "function"
    },
    {
      "inputs": [
        {
          "internalType": "uint256",
          "name": "_id",
          "type": "uint256"
        },
        {
          "internalType": "string",
          "name": "_Explenation",
          "type": "string"
        }
      ],
      "name": "reject",
      "outputs": [],
      "stateMutability": "nonpayable",
      "type": "function"
    },
    {
      "inputs": [
        {
          "internalType": "uint256",
          "name": "",
          "type": "uint256"
        }
      ],
      "name": "workers",
      "outputs": [
        {
          "internalType": "uint256",
          "name": "ID",
          "type": "uint256"
        },
        {
          "internalType": "address",
          "name": "user",
          "type": "address"
        },
        {
          "internalType": "string",
          "name": "Name",
          "type": "string"
        },
        {
          "internalType": "string",
          "name": "Surname",
          "type": "string"
        },
        {
          "internalType": "string",
          "name": "Email",
          "type": "string"
        },
        {
          "internalType": "enum AccountTypes.role",
          "name": "Rank",
          "type": "uint8"
        }
      ],
      "stateMutability": "view",
      "type": "function"
    }
  ],
  "bytecode": "0x608060405230600860006101000a81548173ffffffffffffffffffffffffffffffffffffffff021916908373ffffffffffffffffffffffffffffffffffffffff16021790555034801561005157600080fd5b5033600360006101000a81548173ffffffffffffffffffffffffffffffffffffffff021916908373ffffffffffffffffffffffffffffffffffffffff16021790555061526e806100a26000396000f3fe608060405234801561001057600080fd5b506004361061014d5760003560e01c806377b26af2116100c3578063d286c5a81161007c578063d286c5a8146103cc578063db2c9166146103fc578063e7ebec621461041a578063e951ec5514610436578063f1a22dc214610454578063f37a9fcc146104895761014d565b806377b26af2146102dd57806390303f16146102fb578063a03e149014610317578063a5440fa014610347578063a5904d2114610365578063bed34bba1461039c5761014d565b806366590a601161011557806366590a60146102215780636e5380781461023d57806371d68a971461025957806371d6f2131461027557806372405ab0146102a557806375364049146102c15761014d565b806317b47cc414610152578063357b4b1314610185578063389271ed146101b75780633b389fd4146101d557806355d96d4f146101f1575b600080fd5b61016c600480360381019061016791906138ef565b6104a7565b60405161017c9493929190613a3b565b60405180910390f35b61019f600480360381019061019a91906138ef565b61057c565b6040516101ae93929190613ac8565b60405180910390f35b6101bf6105d6565b6040516101cc9190613c8c565b60405180910390f35b6101ef60048036038101906101ea9190613cda565b6107d4565b005b61020b60048036038101906102069190613d1a565b6109c1565b6040516102189190613f17565b60405180910390f35b61023b60048036038101906102369190613fc3565b610e82565b005b610257600480360381019061025291906138ef565b6111c1565b005b610273600480360381019061026e919061409f565b611337565b005b61028f600480360381019061028a9190613d1a565b61152a565b60405161029c919061411a565b60405180910390f35b6102bf60048036038101906102ba919061409f565b6115e0565b005b6102db60048036038101906102d69190614135565b611897565b005b6102e5611a37565b6040516102f29190613c8c565b60405180910390f35b610315600480360381019061031091906138ef565b611d79565b005b610331600480360381019061032c9190614195565b611eed565b60405161033e919061411a565b60405180910390f35b61034f611fd0565b60405161035c9190613f17565b60405180910390f35b61037f600480360381019061037a91906138ef565b612317565b6040516103939897969594939291906141e4565b60405180910390f35b6103b660048036038101906103b191906143a0565b6124cc565b6040516103c3919061411a565b60405180910390f35b6103e660048036038101906103e19190614418565b612525565b6040516103f3919061411a565b60405180910390f35b6104046127e5565b60405161041191906144ad565b60405180910390f35b610434600480360381019061042f91906144c8565b6128aa565b005b61043e612c57565b60405161044b9190613f17565b60405180910390f35b61046e600480360381019061046991906138ef565b6130e2565b60405161048096959493929190614584565b60405180910390f35b6104916132f3565b60405161049e9190614762565b60405180910390f35b600181815481106104b757600080fd5b90600052602060002090600402016000915090508060000154908060010180546104e0906147b3565b80601f016020809104026020016040519081016040528092919081815260200182805461050c906147b3565b80156105595780601f1061052e57610100808354040283529160200191610559565b820191906000526020600020905b81548152906001019060200180831161053c57829003601f168201915b5050505050908060020154908060030160009054906101000a900460ff16905084565b6002818154811061058c57600080fd5b90600052602060002090600302016000915090508060000154908060010160009054906101000a900473ffffffffffffffffffffffffffffffffffffffff16908060020154905083565b6060600060018054905011610620576040517f08c379a000000000000000000000000000000000000000000000000000000000815260040161061790614831565b60405180910390fd5b600060018054905067ffffffffffffffff81111561064157610640614275565b5b60405190808252806020026020018201604052801561067a57816020015b610667613661565b81526020019060019003908161065f5790505b50905060005b6001805490508110156107cc57600181815481106106a1576106a0614851565b5b9060005260206000209060040201604051806080016040529081600082015481526020016001820180546106d4906147b3565b80601f0160208091040260200160405190810160405280929190818152602001828054610700906147b3565b801561074d5780601f106107225761010080835404028352916020019161074d565b820191906000526020600020905b81548152906001019060200180831161073057829003601f168201915b50505050508152602001600282015481526020016003820160009054906101000a900460ff166001811115610785576107846139c4565b5b6001811115610797576107966139c4565b5b815250508282815181106107ae576107ad614851565b5b602002602001018190525080806107c4906148af565b915050610680565b508091505090565b60008211610817576040517f08c379a000000000000000000000000000000000000000000000000000000000815260040161080e90614944565b60405180910390fd5b600180549050821061085e576040517f08c379a0000000000000000000000000000000000000000000000000000000008152600401610855906149b0565b60405180910390fd5b60006001811115610872576108716139c4565b5b6001838154811061088657610885614851565b5b906000526020600020906004020160030160009054906101000a900460ff1660018111156108b7576108b66139c4565b5b146108f7576040517f08c379a00000000000000000000000000000000000000000000000000000000081526004016108ee90614a1c565b60405180910390fd5b600860009054906101000a900473ffffffffffffffffffffffffffffffffffffffff1673ffffffffffffffffffffffffffffffffffffffff1663095ea7b3826001858154811061094a57610949614851565b5b9060005260206000209060040201600201546040518363ffffffff1660e01b8152600401610979929190614a3c565b6020604051808303816000875af1158015610998573d6000803e3d6000fd5b505050506040513d601f19601f820116820180604052508101906109bc9190614a91565b505050565b6060600060058054905011610a0b576040517f08c379a0000000000000000000000000000000000000000000000000000000008152600401610a0290614831565b60405180910390fd5b6000805b600580549050811015610ab7578373ffffffffffffffffffffffffffffffffffffffff1660058281548110610a4757610a46614851565b5b906000526020600020906007020160040160009054906101000a900473ffffffffffffffffffffffffffffffffffffffff1673ffffffffffffffffffffffffffffffffffffffff161415610aa4578180610aa0906148af565b9250505b8080610aaf906148af565b915050610a0f565b5060008111610afb576040517f08c379a0000000000000000000000000000000000000000000000000000000008152600401610af290614b0a565b60405180910390fd5b60008167ffffffffffffffff811115610b1757610b16614275565b5b604051908082528060200260200182016040528015610b5057816020015b610b3d61369b565b815260200190600190039081610b355790505b5090506000915060005b600580549050811015610e77578473ffffffffffffffffffffffffffffffffffffffff1660058281548110610b9257610b91614851565b5b906000526020600020906007020160040160009054906101000a900473ffffffffffffffffffffffffffffffffffffffff1673ffffffffffffffffffffffffffffffffffffffff161415610e645760058181548110610bf457610bf3614851565b5b9060005260206000209060070201604051806101000160405290816000820154815260200160018201548152602001600282018054610c32906147b3565b80601f0160208091040260200160405190810160405280929190818152602001828054610c5e906147b3565b8015610cab5780601f10610c8057610100808354040283529160200191610cab565b820191906000526020600020905b815481529060010190602001808311610c8e57829003601f168201915b50505050508152602001600382015481526020016004820160009054906101000a900473ffffffffffffffffffffffffffffffffffffffff1673ffffffffffffffffffffffffffffffffffffffff1673ffffffffffffffffffffffffffffffffffffffff1681526020016005820160009054906101000a900473ffffffffffffffffffffffffffffffffffffffff1673ffffffffffffffffffffffffffffffffffffffff1673ffffffffffffffffffffffffffffffffffffffff1681526020016005820160149054906101000a900460ff166002811115610d8f57610d8e6139c4565b5b6002811115610da157610da06139c4565b5b8152602001600682018054610db5906147b3565b80601f0160208091040260200160405190810160405280929190818152602001828054610de1906147b3565b8015610e2e5780601f10610e0357610100808354040283529160200191610e2e565b820191906000526020600020905b815481529060010190602001808311610e1157829003601f168201915b505050505081525050828481518110610e4a57610e49614851565b5b60200260200101819052508280610e60906148af565b9350505b8080610e6f906148af565b915050610b5a565b508092505050919050565b600015153073ffffffffffffffffffffffffffffffffffffffff1663d286c5a88a8a8a8a8a6040518663ffffffff1660e01b8152600401610ec7959493929190614b57565b602060405180830381865afa158015610ee4573d6000803e3d6000fd5b505050506040513d601f19601f82011682018060405250810190610f089190614a91565b151514610f4a576040517f08c379a0000000000000000000000000000000000000000000000000000000008152600401610f4190614bec565b60405180910390fd5b610f5261371e565b60078054905081600001818152505088816020019073ffffffffffffffffffffffffffffffffffffffff16908173ffffffffffffffffffffffffffffffffffffffff168152505087878080601f016020809104026020016040519081016040528093929190818152602001838380828437600081840152601f19601f82011690508083019250505050505050816040018190525085858080601f016020809104026020016040519081016040528093929190818152602001838380828437600081840152601f19601f82011690508083019250505050505050816060018190525083838080601f016020809104026020016040519081016040528093929190818152602001838380828437600081840152601f19601f820116905080830192505050505050508160800181905250818160a001906004811115611098576110976139c4565b5b908160048111156110ac576110ab6139c4565b5b8152505060078190806001815401808255809150506001900390600052602060002090600602016000909190919091506000820151816000015560208201518160010160006101000a81548173ffffffffffffffffffffffffffffffffffffffff021916908373ffffffffffffffffffffffffffffffffffffffff160217905550604082015181600201908051906020019061114992919061377c565b50606082015181600301908051906020019061116692919061377c565b50608082015181600401908051906020019061118392919061377c565b5060a08201518160050160006101000a81548160ff021916908360048111156111af576111ae6139c4565b5b02179055505050505050505050505050565b6000811015611205576040517f08c379a00000000000000000000000000000000000000000000000000000000081526004016111fc90614944565b60405180910390fd5b600180549050811061124c576040517f08c379a0000000000000000000000000000000000000000000000000000000008152600401611243906149b0565b60405180910390fd5b600060018111156112605761125f6139c4565b5b6001828154811061127457611273614851565b5b906000526020600020906004020160030160009054906101000a900460ff1660018111156112a5576112a46139c4565b5b14156112e6576040517f08c379a00000000000000000000000000000000000000000000000000000000081526004016112dd90614c58565b60405180910390fd5b6000600182815481106112fc576112fb614851565b5b906000526020600020906004020160030160006101000a81548160ff0219169083600181111561132f5761132e6139c4565b5b021790555050565b600083101561137b576040517f08c379a000000000000000000000000000000000000000000000000000000000815260040161137290614cc4565b60405180910390fd5b60058054905083106113c2576040517f08c379a00000000000000000000000000000000000000000000000000000000081526004016113b990614d30565b60405180910390fd5b6000828290501415611409576040517f08c379a000000000000000000000000000000000000000000000000000000000815260040161140090614d9c565b60405180910390fd5b6000600281111561141d5761141c6139c4565b5b6005848154811061143157611430614851565b5b906000526020600020906007020160050160149054906101000a900460ff166002811115611462576114616139c4565b5b146114a2576040517f08c379a000000000000000000000000000000000000000000000000000000000815260040161149990614e08565b60405180910390fd5b6002600584815481106114b8576114b7614851565b5b906000526020600020906007020160050160146101000a81548160ff021916908360028111156114eb576114ea6139c4565b5b021790555081816005858154811061150657611505614851565b5b90600052602060002090600702016006019190611524929190613802565b50505050565b600080600090505b6007805490508110156115d5578273ffffffffffffffffffffffffffffffffffffffff166007828154811061156a57611569614851565b5b906000526020600020906006020160010160009054906101000a900473ffffffffffffffffffffffffffffffffffffffff1673ffffffffffffffffffffffffffffffffffffffff1614156115c25760019150506115db565b80806115cd906148af565b915050611532565b50600090505b919050565b6000831015611624576040517f08c379a000000000000000000000000000000000000000000000000000000000815260040161161b90614cc4565b60405180910390fd5b600580549050831061166b576040517f08c379a000000000000000000000000000000000000000000000000000000000815260040161166290614d30565b60405180910390fd5b6000600281111561167f5761167e6139c4565b5b6005848154811061169357611692614851565b5b906000526020600020906007020160050160149054906101000a900460ff1660028111156116c4576116c36139c4565b5b14611704576040517f08c379a00000000000000000000000000000000000000000000000000000000081526004016116fb90614e08565b60405180910390fd5b60016005848154811061171a57611719614851565b5b906000526020600020906007020160050160146101000a81548160ff0219169083600281111561174d5761174c6139c4565b5b021790555081816005858154811061176857611767614851565b5b90600052602060002090600702016006019190611786929190613802565b50600860009054906101000a900473ffffffffffffffffffffffffffffffffffffffff1673ffffffffffffffffffffffffffffffffffffffff1663a9059cbb600585815481106117d9576117d8614851565b5b906000526020600020906007020160050160009054906101000a900473ffffffffffffffffffffffffffffffffffffffff166005868154811061181f5761181e614851565b5b9060005260206000209060070201600301546040518363ffffffff1660e01b815260040161184e929190614a3c565b6020604051808303816000875af115801561186d573d6000803e3d6000fd5b505050506040513d601f19601f820116820180604052508101906118919190614a91565b50505050565b600081116118da576040517f08c379a00000000000000000000000000000000000000000000000000000000081526004016118d190614e74565b60405180910390fd5b6000838390501415611921576040517f08c379a000000000000000000000000000000000000000000000000000000000815260040161191890614ee0565b60405180910390fd5b600060018054905090506001604051806080016040528083815260200186868080601f016020809104026020016040519081016040528093929190818152602001838380828437600081840152601f19601f820116905080830192505050505050508152602001848152602001600060018111156119a2576119a16139c4565b5b81525090806001815401808255809150506001900390600052602060002090600402016000909190919091506000820151816000015560208201518160010190805190602001906119f492919061377c565b506040820151816002015560608201518160030160006101000a81548160ff02191690836001811115611a2a57611a296139c4565b5b0217905550505050505050565b6060600060018054905011611a81576040517f08c379a0000000000000000000000000000000000000000000000000000000008152600401611a7890614831565b60405180910390fd5b6000805b600180549050811015611b135760006001811115611aa657611aa56139c4565b5b60018281548110611aba57611ab9614851565b5b906000526020600020906004020160030160009054906101000a900460ff166001811115611aeb57611aea6139c4565b5b1415611b00578180611afc906148af565b9250505b8080611b0b906148af565b915050611a85565b5060008111611b57576040517f08c379a0000000000000000000000000000000000000000000000000000000008152600401611b4e90614f4c565b60405180910390fd5b60008167ffffffffffffffff811115611b7357611b72614275565b5b604051908082528060200260200182016040528015611bac57816020015b611b99613661565b815260200190600190039081611b915790505b5090506000915060005b600180549050811015611d705760006001811115611bd757611bd66139c4565b5b60018281548110611beb57611bea614851565b5b906000526020600020906004020160030160009054906101000a900460ff166001811115611c1c57611c1b6139c4565b5b1415611d5d5760018181548110611c3657611c35614851565b5b906000526020600020906004020160405180608001604052908160008201548152602001600182018054611c69906147b3565b80601f0160208091040260200160405190810160405280929190818152602001828054611c95906147b3565b8015611ce25780601f10611cb757610100808354040283529160200191611ce2565b820191906000526020600020905b815481529060010190602001808311611cc557829003601f168201915b50505050508152602001600282015481526020016003820160009054906101000a900460ff166001811115611d1a57611d196139c4565b5b6001811115611d2c57611d2b6139c4565b5b81525050828481518110611d4357611d42614851565b5b60200260200101819052508280611d59906148af565b9350505b8080611d68906148af565b915050611bb6565b50809250505090565b6000811015611dbd576040517f08c379a0000000000000000000000000000000000000000000000000000000008152600401611db490614944565b60405180910390fd5b6001805490508110611e04576040517f08c379a0000000000000000000000000000000000000000000000000000000008152600401611dfb906149b0565b60405180910390fd5b600180811115611e1757611e166139c4565b5b60018281548110611e2b57611e2a614851565b5b906000526020600020906004020160030160009054906101000a900460ff166001811115611e5c57611e5b6139c4565b5b1415611e9d576040517f08c379a0000000000000000000000000000000000000000000000000000000008152600401611e9490614fb8565b60405180910390fd5b6001808281548110611eb257611eb1614851565b5b906000526020600020906004020160030160006101000a81548160ff02191690836001811115611ee557611ee46139c4565b5b021790555050565b600080831015611f32576040517f08c379a0000000000000000000000000000000000000000000000000000000008152600401611f2990615024565b60405180910390fd5b6007805490508310611f79576040517f08c379a0000000000000000000000000000000000000000000000000000000008152600401611f7090615090565b60405180910390fd5b8160078481548110611f8e57611f8d614851565b5b906000526020600020906006020160050160006101000a81548160ff02191690836004811115611fc157611fc06139c4565b5b02179055506001905092915050565b606060006005805490501161201a576040517f08c379a000000000000000000000000000000000000000000000000000000000815260040161201190614831565b60405180910390fd5b600060058054905067ffffffffffffffff81111561203b5761203a614275565b5b60405190808252806020026020018201604052801561207457816020015b61206161369b565b8152602001906001900390816120595790505b50905060005b60058054905081101561230f576005818154811061209b5761209a614851565b5b90600052602060002090600702016040518061010001604052908160008201548152602001600182015481526020016002820180546120d9906147b3565b80601f0160208091040260200160405190810160405280929190818152602001828054612105906147b3565b80156121525780601f1061212757610100808354040283529160200191612152565b820191906000526020600020905b81548152906001019060200180831161213557829003601f168201915b50505050508152602001600382015481526020016004820160009054906101000a900473ffffffffffffffffffffffffffffffffffffffff1673ffffffffffffffffffffffffffffffffffffffff1673ffffffffffffffffffffffffffffffffffffffff1681526020016005820160009054906101000a900473ffffffffffffffffffffffffffffffffffffffff1673ffffffffffffffffffffffffffffffffffffffff1673ffffffffffffffffffffffffffffffffffffffff1681526020016005820160149054906101000a900460ff166002811115612236576122356139c4565b5b6002811115612248576122476139c4565b5b815260200160068201805461225c906147b3565b80601f0160208091040260200160405190810160405280929190818152602001828054612288906147b3565b80156122d55780601f106122aa576101008083540402835291602001916122d5565b820191906000526020600020905b8154815290600101906020018083116122b857829003601f168201915b5050505050815250508282815181106122f1576122f0614851565b5b60200260200101819052508080612307906148af565b91505061207a565b508091505090565b6005818154811061232757600080fd5b9060005260206000209060070201600091509050806000015490806001015490806002018054612356906147b3565b80601f0160208091040260200160405190810160405280929190818152602001828054612382906147b3565b80156123cf5780601f106123a4576101008083540402835291602001916123cf565b820191906000526020600020905b8154815290600101906020018083116123b257829003601f168201915b5050505050908060030154908060040160009054906101000a900473ffffffffffffffffffffffffffffffffffffffff16908060050160009054906101000a900473ffffffffffffffffffffffffffffffffffffffff16908060050160149054906101000a900460ff1690806006018054612449906147b3565b80601f0160208091040260200160405190810160405280929190818152602001828054612475906147b3565b80156124c25780601f10612497576101008083540402835291602001916124c2565b820191906000526020600020905b8154815290600101906020018083116124a557829003601f168201915b5050505050905088565b6000816040516020016124df91906150ec565b604051602081830303815290604052805190602001208360405160200161250691906150ec565b6040516020818303038152906040528051906020012014905092915050565b600080600090505b6007805490508110156127d6576007818154811061254e5761254d614851565b5b906000526020600020906006020160010160009054906101000a900473ffffffffffffffffffffffffffffffffffffffff1673ffffffffffffffffffffffffffffffffffffffff168773ffffffffffffffffffffffffffffffffffffffff161480156126b157506126b086868080601f016020809104026020016040519081016040528093929190818152602001838380828437600081840152601f19601f820116905080830192505050505050506007838154811061261157612610614851565b5b9060005260206000209060060201600201805461262d906147b3565b80601f0160208091040260200160405190810160405280929190818152602001828054612659906147b3565b80156126a65780601f1061267b576101008083540402835291602001916126a6565b820191906000526020600020905b81548152906001019060200180831161268957829003601f168201915b50505050506124cc565b5b80156127b457506127b384848080601f016020809104026020016040519081016040528093929190818152602001838380828437600081840152601f19601f820116905080830192505050505050506007838154811061271457612713614851565b5b90600052602060002090600602016003018054612730906147b3565b80601f016020809104026020016040519081016040528092919081815260200182805461275c906147b3565b80156127a95780601f1061277e576101008083540402835291602001916127a9565b820191906000526020600020905b81548152906001019060200180831161278c57829003601f168201915b50505050506124cc565b5b156127c35760019150506127dc565b80806127ce906148af565b91505061252d565b50600090505b95945050505050565b6000600860009054906101000a900473ffffffffffffffffffffffffffffffffffffffff1673ffffffffffffffffffffffffffffffffffffffff166370a08231600860009054906101000a900473ffffffffffffffffffffffffffffffffffffffff166040518263ffffffff1660e01b81526004016128649190615103565b602060405180830381865afa158015612881573d6000803e3d6000fd5b505050506040513d601f19601f820116820180604052508101906128a59190615133565b905090565b600460009054906101000a900473ffffffffffffffffffffffffffffffffffffffff1673ffffffffffffffffffffffffffffffffffffffff166371d6f213826040518263ffffffff1660e01b81526004016129059190615103565b602060405180830381865afa158015612922573d6000803e3d6000fd5b505050506040513d601f19601f820116820180604052508101906129469190614a91565b612985576040517f08c379a000000000000000000000000000000000000000000000000000000000815260040161297c906151ac565b60405180910390fd5b600082116129c8576040517f08c379a00000000000000000000000000000000000000000000000000000000081526004016129bf90615218565b60405180910390fd5b6000848490501415612a0f576040517f08c379a0000000000000000000000000000000000000000000000000000000008152600401612a0690614d9c565b60405180910390fd5b600060058054905090506000429050600560405180610100016040528084815260200183815260200188888080601f016020809104026020016040519081016040528093929190818152602001838380828437600081840152601f19601f820116905080830192505050505050508152602001868152602001600360009054906101000a900473ffffffffffffffffffffffffffffffffffffffff1673ffffffffffffffffffffffffffffffffffffffff1681526020018573ffffffffffffffffffffffffffffffffffffffff16815260200160006002811115612af657612af56139c4565b5b815260200160405180602001604052806000815250815250908060018154018082558091505060019003906000526020600020906007020160009091909190915060008201518160000155602082015181600101556040820151816002019080519060200190612b6792919061377c565b506060820151816003015560808201518160040160006101000a81548173ffffffffffffffffffffffffffffffffffffffff021916908373ffffffffffffffffffffffffffffffffffffffff16021790555060a08201518160050160006101000a81548173ffffffffffffffffffffffffffffffffffffffff021916908373ffffffffffffffffffffffffffffffffffffffff16021790555060c08201518160050160146101000a81548160ff02191690836002811115612c2b57612c2a6139c4565b5b021790555060e0820151816006019080519060200190612c4c92919061377c565b505050505050505050565b6060600060058054905011612ca1576040517f08c379a0000000000000000000000000000000000000000000000000000000008152600401612c9890614831565b60405180910390fd5b6000805b600580549050811015612d335760006002811115612cc657612cc56139c4565b5b60058281548110612cda57612cd9614851565b5b906000526020600020906007020160050160149054906101000a900460ff166002811115612d0b57612d0a6139c4565b5b1415612d20578180612d1c906148af565b9250505b8080612d2b906148af565b915050612ca5565b5060008111612d77576040517f08c379a0000000000000000000000000000000000000000000000000000000008152600401612d6e90614b0a565b60405180910390fd5b60008167ffffffffffffffff811115612d9357612d92614275565b5b604051908082528060200260200182016040528015612dcc57816020015b612db961369b565b815260200190600190039081612db15790505b5090506000915060005b6005805490508110156130d95760006002811115612df757612df66139c4565b5b60058281548110612e0b57612e0a614851565b5b906000526020600020906007020160050160149054906101000a900460ff166002811115612e3c57612e3b6139c4565b5b14156130c65760058181548110612e5657612e55614851565b5b9060005260206000209060070201604051806101000160405290816000820154815260200160018201548152602001600282018054612e94906147b3565b80601f0160208091040260200160405190810160405280929190818152602001828054612ec0906147b3565b8015612f0d5780601f10612ee257610100808354040283529160200191612f0d565b820191906000526020600020905b815481529060010190602001808311612ef057829003601f168201915b50505050508152602001600382015481526020016004820160009054906101000a900473ffffffffffffffffffffffffffffffffffffffff1673ffffffffffffffffffffffffffffffffffffffff1673ffffffffffffffffffffffffffffffffffffffff1681526020016005820160009054906101000a900473ffffffffffffffffffffffffffffffffffffffff1673ffffffffffffffffffffffffffffffffffffffff1673ffffffffffffffffffffffffffffffffffffffff1681526020016005820160149054906101000a900460ff166002811115612ff157612ff06139c4565b5b6002811115613003576130026139c4565b5b8152602001600682018054613017906147b3565b80601f0160208091040260200160405190810160405280929190818152602001828054613043906147b3565b80156130905780601f1061306557610100808354040283529160200191613090565b820191906000526020600020905b81548152906001019060200180831161307357829003601f168201915b5050505050815250508284815181106130ac576130ab614851565b5b602002602001018190525082806130c2906148af565b9350505b80806130d1906148af565b915050612dd6565b50809250505090565b600781815481106130f257600080fd5b90600052602060002090600602016000915090508060000154908060010160009054906101000a900473ffffffffffffffffffffffffffffffffffffffff1690806002018054613141906147b3565b80601f016020809104026020016040519081016040528092919081815260200182805461316d906147b3565b80156131ba5780601f1061318f576101008083540402835291602001916131ba565b820191906000526020600020905b81548152906001019060200180831161319d57829003601f168201915b5050505050908060030180546131cf906147b3565b80601f01602080910402602001604051908101604052809291908181526020018280546131fb906147b3565b80156132485780601f1061321d57610100808354040283529160200191613248565b820191906000526020600020905b81548152906001019060200180831161322b57829003601f168201915b50505050509080600401805461325d906147b3565b80601f0160208091040260200160405190810160405280929190818152602001828054613289906147b3565b80156132d65780601f106132ab576101008083540402835291602001916132d6565b820191906000526020600020905b8154815290600101906020018083116132b957829003601f168201915b5050505050908060050160009054906101000a900460ff16905086565b606060006007805490501161333d576040517f08c379a000000000000000000000000000000000000000000000000000000000815260040161333490614831565b60405180910390fd5b600060078054905067ffffffffffffffff81111561335e5761335d614275565b5b60405190808252806020026020018201604052801561339757816020015b61338461371e565b81526020019060019003908161337c5790505b50905060005b60078054905081101561365957600781815481106133be576133bd614851565b5b90600052602060002090600602016040518060c0016040529081600082015481526020016001820160009054906101000a900473ffffffffffffffffffffffffffffffffffffffff1673ffffffffffffffffffffffffffffffffffffffff1673ffffffffffffffffffffffffffffffffffffffff168152602001600282018054613447906147b3565b80601f0160208091040260200160405190810160405280929190818152602001828054613473906147b3565b80156134c05780601f10613495576101008083540402835291602001916134c0565b820191906000526020600020905b8154815290600101906020018083116134a357829003601f168201915b505050505081526020016003820180546134d9906147b3565b80601f0160208091040260200160405190810160405280929190818152602001828054613505906147b3565b80156135525780601f1061352757610100808354040283529160200191613552565b820191906000526020600020905b81548152906001019060200180831161353557829003601f168201915b5050505050815260200160048201805461356b906147b3565b80601f0160208091040260200160405190810160405280929190818152602001828054613597906147b3565b80156135e45780601f106135b9576101008083540402835291602001916135e4565b820191906000526020600020905b8154815290600101906020018083116135c757829003601f168201915b505050505081526020016005820160009054906101000a900460ff166004811115613612576136116139c4565b5b6004811115613624576136236139c4565b5b8152505082828151811061363b5761363a614851565b5b60200260200101819052508080613651906148af565b91505061339d565b508091505090565b604051806080016040528060008152602001606081526020016000815260200160006001811115613695576136946139c4565b5b81525090565b60405180610100016040528060008152602001600081526020016060815260200160008152602001600073ffffffffffffffffffffffffffffffffffffffff168152602001600073ffffffffffffffffffffffffffffffffffffffff16815260200160006002811115613711576137106139c4565b5b8152602001606081525090565b6040518060c0016040528060008152602001600073ffffffffffffffffffffffffffffffffffffffff16815260200160608152602001606081526020016060815260200160006004811115613776576137756139c4565b5b81525090565b828054613788906147b3565b90600052602060002090601f0160209004810192826137aa57600085556137f1565b82601f106137c357805160ff19168380011785556137f1565b828001600101855582156137f1579182015b828111156137f05782518255916020019190600101906137d5565b5b5090506137fe9190613888565b5090565b82805461380e906147b3565b90600052602060002090601f0160209004810192826138305760008555613877565b82601f1061384957803560ff1916838001178555613877565b82800160010185558215613877579182015b8281111561387657823582559160200191906001019061385b565b5b5090506138849190613888565b5090565b5b808211156138a1576000816000905550600101613889565b5090565b6000604051905090565b600080fd5b600080fd5b6000819050919050565b6138cc816138b9565b81146138d757600080fd5b50565b6000813590506138e9816138c3565b92915050565b600060208284031215613905576139046138af565b5b6000613913848285016138da565b91505092915050565b613925816138b9565b82525050565b600081519050919050565b600082825260208201905092915050565b60005b8381101561396557808201518184015260208101905061394a565b83811115613974576000848401525b50505050565b6000601f19601f8301169050919050565b60006139968261392b565b6139a08185613936565b93506139b0818560208601613947565b6139b98161397a565b840191505092915050565b7f4e487b7100000000000000000000000000000000000000000000000000000000600052602160045260246000fd5b60028110613a0457613a036139c4565b5b50565b6000819050613a15826139f3565b919050565b6000613a2582613a07565b9050919050565b613a3581613a1a565b82525050565b6000608082019050613a50600083018761391c565b8181036020830152613a62818661398b565b9050613a71604083018561391c565b613a7e6060830184613a2c565b95945050505050565b600073ffffffffffffffffffffffffffffffffffffffff82169050919050565b6000613ab282613a87565b9050919050565b613ac281613aa7565b82525050565b6000606082019050613add600083018661391c565b613aea6020830185613ab9565b613af7604083018461391c565b949350505050565b600081519050919050565b600082825260208201905092915050565b6000819050602082019050919050565b613b34816138b9565b82525050565b600082825260208201905092915050565b6000613b568261392b565b613b608185613b3a565b9350613b70818560208601613947565b613b798161397a565b840191505092915050565b613b8d81613a1a565b82525050565b6000608083016000830151613bab6000860182613b2b565b5060208301518482036020860152613bc38282613b4b565b9150506040830151613bd86040860182613b2b565b506060830151613beb6060860182613b84565b508091505092915050565b6000613c028383613b93565b905092915050565b6000602082019050919050565b6000613c2282613aff565b613c2c8185613b0a565b935083602082028501613c3e85613b1b565b8060005b85811015613c7a5784840389528151613c5b8582613bf6565b9450613c6683613c0a565b925060208a01995050600181019050613c42565b50829750879550505050505092915050565b60006020820190508181036000830152613ca68184613c17565b905092915050565b613cb781613aa7565b8114613cc257600080fd5b50565b600081359050613cd481613cae565b92915050565b60008060408385031215613cf157613cf06138af565b5b6000613cff858286016138da565b9250506020613d1085828601613cc5565b9150509250929050565b600060208284031215613d3057613d2f6138af565b5b6000613d3e84828501613cc5565b91505092915050565b600081519050919050565b600082825260208201905092915050565b6000819050602082019050919050565b613d7c81613aa7565b82525050565b60038110613d9357613d926139c4565b5b50565b6000819050613da482613d82565b919050565b6000613db482613d96565b9050919050565b613dc481613da9565b82525050565b600061010083016000830151613de36000860182613b2b565b506020830151613df66020860182613b2b565b5060408301518482036040860152613e0e8282613b4b565b9150506060830151613e236060860182613b2b565b506080830151613e366080860182613d73565b5060a0830151613e4960a0860182613d73565b5060c0830151613e5c60c0860182613dbb565b5060e083015184820360e0860152613e748282613b4b565b9150508091505092915050565b6000613e8d8383613dca565b905092915050565b6000602082019050919050565b6000613ead82613d47565b613eb78185613d52565b935083602082028501613ec985613d63565b8060005b85811015613f055784840389528151613ee68582613e81565b9450613ef183613e95565b925060208a01995050600181019050613ecd565b50829750879550505050505092915050565b60006020820190508181036000830152613f318184613ea2565b905092915050565b600080fd5b600080fd5b600080fd5b60008083601f840112613f5e57613f5d613f39565b5b8235905067ffffffffffffffff811115613f7b57613f7a613f3e565b5b602083019150836001820283011115613f9757613f96613f43565b5b9250929050565b60058110613fab57600080fd5b50565b600081359050613fbd81613f9e565b92915050565b60008060008060008060008060a0898b031215613fe357613fe26138af565b5b6000613ff18b828c01613cc5565b985050602089013567ffffffffffffffff811115614012576140116138b4565b5b61401e8b828c01613f48565b9750975050604089013567ffffffffffffffff811115614041576140406138b4565b5b61404d8b828c01613f48565b9550955050606089013567ffffffffffffffff8111156140705761406f6138b4565b5b61407c8b828c01613f48565b9350935050608061408f8b828c01613fae565b9150509295985092959890939650565b6000806000604084860312156140b8576140b76138af565b5b60006140c6868287016138da565b935050602084013567ffffffffffffffff8111156140e7576140e66138b4565b5b6140f386828701613f48565b92509250509250925092565b60008115159050919050565b614114816140ff565b82525050565b600060208201905061412f600083018461410b565b92915050565b60008060006040848603121561414e5761414d6138af565b5b600084013567ffffffffffffffff81111561416c5761416b6138b4565b5b61417886828701613f48565b9350935050602061418b868287016138da565b9150509250925092565b600080604083850312156141ac576141ab6138af565b5b60006141ba858286016138da565b92505060206141cb85828601613fae565b9150509250929050565b6141de81613da9565b82525050565b6000610100820190506141fa600083018b61391c565b614207602083018a61391c565b8181036040830152614219818961398b565b9050614228606083018861391c565b6142356080830187613ab9565b61424260a0830186613ab9565b61424f60c08301856141d5565b81810360e0830152614261818461398b565b90509998505050505050505050565b600080fd5b7f4e487b7100000000000000000000000000000000000000000000000000000000600052604160045260246000fd5b6142ad8261397a565b810181811067ffffffffffffffff821117156142cc576142cb614275565b5b80604052505050565b60006142df6138a5565b90506142eb82826142a4565b919050565b600067ffffffffffffffff82111561430b5761430a614275565b5b6143148261397a565b9050602081019050919050565b82818337600083830152505050565b600061434361433e846142f0565b6142d5565b90508281526020810184848401111561435f5761435e614270565b5b61436a848285614321565b509392505050565b600082601f83011261438757614386613f39565b5b8135614397848260208601614330565b91505092915050565b600080604083850312156143b7576143b66138af565b5b600083013567ffffffffffffffff8111156143d5576143d46138b4565b5b6143e185828601614372565b925050602083013567ffffffffffffffff811115614402576144016138b4565b5b61440e85828601614372565b9150509250929050565b600080600080600060608688031215614434576144336138af565b5b600061444288828901613cc5565b955050602086013567ffffffffffffffff811115614463576144626138b4565b5b61446f88828901613f48565b9450945050604086013567ffffffffffffffff811115614492576144916138b4565b5b61449e88828901613f48565b92509250509295509295909350565b60006020820190506144c2600083018461391c565b92915050565b600080600080606085870312156144e2576144e16138af565b5b600085013567ffffffffffffffff811115614500576144ff6138b4565b5b61450c87828801613f48565b9450945050602061451f878288016138da565b925050604061453087828801613cc5565b91505092959194509250565b6005811061454d5761454c6139c4565b5b50565b600081905061455e8261453c565b919050565b600061456e82614550565b9050919050565b61457e81614563565b82525050565b600060c082019050614599600083018961391c565b6145a66020830188613ab9565b81810360408301526145b8818761398b565b905081810360608301526145cc818661398b565b905081810360808301526145e0818561398b565b90506145ef60a0830184614575565b979650505050505050565b600081519050919050565b600082825260208201905092915050565b6000819050602082019050919050565b61462f81614563565b82525050565b600060c08301600083015161464d6000860182613b2b565b5060208301516146606020860182613d73565b50604083015184820360408601526146788282613b4b565b915050606083015184820360608601526146928282613b4b565b915050608083015184820360808601526146ac8282613b4b565b91505060a08301516146c160a0860182614626565b508091505092915050565b60006146d88383614635565b905092915050565b6000602082019050919050565b60006146f8826145fa565b6147028185614605565b93508360208202850161471485614616565b8060005b85811015614750578484038952815161473185826146cc565b945061473c836146e0565b925060208a01995050600181019050614718565b50829750879550505050505092915050565b6000602082019050818103600083015261477c81846146ed565b905092915050565b7f4e487b7100000000000000000000000000000000000000000000000000000000600052602260045260246000fd5b600060028204905060018216806147cb57607f821691505b602082108114156147df576147de614784565b5b50919050565b7f456d70747920737461636b000000000000000000000000000000000000000000600082015250565b600061481b600b83613936565b9150614826826147e5565b602082019050919050565b6000602082019050818103600083015261484a8161480e565b9050919050565b7f4e487b7100000000000000000000000000000000000000000000000000000000600052603260045260246000fd5b7f4e487b7100000000000000000000000000000000000000000000000000000000600052601160045260246000fd5b60006148ba826138b9565b91507fffffffffffffffffffffffffffffffffffffffffffffffffffffffffffffffff8214156148ed576148ec614880565b5b600182019050919050565b7f4e65676174697665204944000000000000000000000000000000000000000000600082015250565b600061492e600b83613936565b9150614939826148f8565b602082019050919050565b6000602082019050818103600083015261495d81614921565b9050919050565b7f50726f64756374206f7574206f6620746865206c697374000000000000000000600082015250565b600061499a601783613936565b91506149a582614964565b602082019050919050565b600060208201905081810360008301526149c98161498d565b9050919050565b7f50726f64756374206973206e6f7420666f722073616c65000000000000000000600082015250565b6000614a06601783613936565b9150614a11826149d0565b602082019050919050565b60006020820190508181036000830152614a35816149f9565b9050919050565b6000604082019050614a516000830185613ab9565b614a5e602083018461391c565b9392505050565b614a6e816140ff565b8114614a7957600080fd5b50565b600081519050614a8b81614a65565b92915050565b600060208284031215614aa757614aa66138af565b5b6000614ab584828501614a7c565b91505092915050565b7f4e6f2073656e6420656c656d656e747300000000000000000000000000000000600082015250565b6000614af4601083613936565b9150614aff82614abe565b602082019050919050565b60006020820190508181036000830152614b2381614ae7565b9050919050565b6000614b368385613936565b9350614b43838584614321565b614b4c8361397a565b840190509392505050565b6000606082019050614b6c6000830188613ab9565b8181036020830152614b7f818688614b2a565b90508181036040830152614b94818486614b2a565b90509695505050505050565b7f55736572206973206578697374696e6700000000000000000000000000000000600082015250565b6000614bd6601083613936565b9150614be182614ba0565b602082019050919050565b60006020820190508181036000830152614c0581614bc9565b9050919050565b7f4974656d20697320616c726561647920666f722073616c650000000000000000600082015250565b6000614c42601883613936565b9150614c4d82614c0c565b602082019050919050565b60006020820190508181036000830152614c7181614c35565b9050919050565b7f4e65676174697665206964000000000000000000000000000000000000000000600082015250565b6000614cae600b83613936565b9150614cb982614c78565b602082019050919050565b60006020820190508181036000830152614cdd81614ca1565b9050919050565b7f496e646578206f7574206f662072616e67650000000000000000000000000000600082015250565b6000614d1a601283613936565b9150614d2582614ce4565b602082019050919050565b60006020820190508181036000830152614d4981614d0d565b9050919050565b7f4578706c616e6174696f6e2063616e6e6f7420626520656d7074790000000000600082015250565b6000614d86601b83613936565b9150614d9182614d50565b602082019050919050565b60006020820190508181036000830152614db581614d79565b9050919050565b7f5469636b657420697320636c6f73656400000000000000000000000000000000600082015250565b6000614df2601083613936565b9150614dfd82614dbc565b602082019050919050565b60006020820190508181036000830152614e2181614de5565b9050919050565b7f50726963652063616e6e6f74206265206e656761746976650000000000000000600082015250565b6000614e5e601883613936565b9150614e6982614e28565b602082019050919050565b60006020820190508181036000830152614e8d81614e51565b9050919050565b7f4e616d652063616e6e6f7420626520656d707479000000000000000000000000600082015250565b6000614eca601483613936565b9150614ed582614e94565b602082019050919050565b60006020820190508181036000830152614ef981614ebd565b9050919050565b7f4e6f206974656d7320666f722073616c65000000000000000000000000000000600082015250565b6000614f36601183613936565b9150614f4182614f00565b602082019050919050565b60006020820190508181036000830152614f6581614f29565b9050919050565b7f4974656d20697320616c72656164792061726368697665640000000000000000600082015250565b6000614fa2601883613936565b9150614fad82614f6c565b602082019050919050565b60006020820190508181036000830152614fd181614f95565b9050919050565b7f4944206973206e65676174697665000000000000000000000000000000000000600082015250565b600061500e600e83613936565b915061501982614fd8565b602082019050919050565b6000602082019050818103600083015261503d81615001565b9050919050565b7f4944206f7574206f66207468652073636f706500000000000000000000000000600082015250565b600061507a601383613936565b915061508582615044565b602082019050919050565b600060208201905081810360008301526150a98161506d565b9050919050565b600081905092915050565b60006150c68261392b565b6150d081856150b0565b93506150e0818560208601613947565b80840191505092915050565b60006150f882846150bb565b915081905092915050565b60006020820190506151186000830184613ab9565b92915050565b60008151905061512d816138c3565b92915050565b600060208284031215615149576151486138af565b5b60006151578482850161511e565b91505092915050565b7f4976616c69642077616c6c657420616472657373000000000000000000000000600082015250565b6000615196601483613936565b91506151a182615160565b602082019050919050565b600060208201905081810360008301526151c581615189565b9050919050565b7f546f206c6f7720746f6b656e20616d6f756e7400000000000000000000000000600082015250565b6000615202601383613936565b915061520d826151cc565b602082019050919050565b60006020820190508181036000830152615231816151f5565b905091905056fea2646970667358221220d1b646e6a57cfa5ee261540f6128454fa5bbc9efcd812cee26530cf5934e827d64736f6c634300080c0033",
  "linkReferences": {},
  "deployedLinkReferences": {}
}