{
  "_format": "hh-sol-artifact-1",
  "contractName": "Main",
  "sourceName": "contracts/kontrakt.sol",
  "abi": [
    {
      "inputs": [],
      "stateMutability": "nonpayable",
      "type": "constructor"
    },
    {
      "inputs": [
        {
          "internalType": "string",
          "name": "_name",
          "type": "string"
        },
        {
          "internalType": "uint256",
          "name": "_price",
          "type": "uint256"
        }
      ],
      "name": "AddItem",
      "outputs": [],
      "stateMutability": "nonpayable",
      "type": "function"
    },
    {
      "inputs": [
        {
          "internalType": "uint256",
          "name": "_id",
          "type": "uint256"
        }
      ],
      "name": "ArchiveItem",
      "outputs": [],
      "stateMutability": "nonpayable",
      "type": "function"
    },
    {
      "inputs": [
        {
          "internalType": "uint256",
          "name": "item_id",
          "type": "uint256"
        },
        {
          "internalType": "address",
          "name": "_buyer",
          "type": "address"
        }
      ],
      "name": "BuyItem",
      "outputs": [],
      "stateMutability": "nonpayable",
      "type": "function"
    },
    {
      "inputs": [],
      "name": "GetAll",
      "outputs": [
        {
          "components": [
            {
              "internalType": "uint256",
              "name": "id",
              "type": "uint256"
            },
            {
              "internalType": "uint256",
              "name": "NotificationData",
              "type": "uint256"
            },
            {
              "internalType": "string",
              "name": "Explenation",
              "type": "string"
            },
            {
              "internalType": "uint256",
              "name": "TokenAmount",
              "type": "uint256"
            },
            {
              "internalType": "address",
              "name": "SenderWallet",
              "type": "address"
            },
            {
              "internalType": "address",
              "name": "ReciverWallet",
              "type": "address"
            },
            {
              "internalType": "enum Notifications.statuses",
              "name": "Status",
              "type": "uint8"
            },
            {
              "internalType": "string",
              "name": "StatusExplanation",
              "type": "string"
            }
          ],
          "internalType": "struct Notifications.Notification[]",
          "name": "",
          "type": "tuple[]"
        }
      ],
      "stateMutability": "view",
      "type": "function"
    },
    {
      "inputs": [],
      "name": "GetAllItems",
      "outputs": [
        {
          "components": [
            {
              "internalType": "uint256",
              "name": "id",
              "type": "uint256"
            },
            {
              "internalType": "string",
              "name": "name",
              "type": "string"
            },
            {
              "internalType": "uint256",
              "name": "price",
              "type": "uint256"
            },
            {
              "internalType": "enum marketplace.item_status",
              "name": "status",
              "type": "uint8"
            }
          ],
          "internalType": "struct marketplace.items[]",
          "name": "",
          "type": "tuple[]"
        }
      ],
      "stateMutability": "view",
      "type": "function"
    },
    {
      "inputs": [],
      "name": "GetForSaleItems",
      "outputs": [
        {
          "components": [
            {
              "internalType": "uint256",
              "name": "id",
              "type": "uint256"
            },
            {
              "internalType": "string",
              "name": "name",
              "type": "string"
            },
            {
              "internalType": "uint256",
              "name": "price",
              "type": "uint256"
            },
            {
              "internalType": "enum marketplace.item_status",
              "name": "status",
              "type": "uint8"
            }
          ],
          "internalType": "struct marketplace.items[]",
          "name": "",
          "type": "tuple[]"
        }
      ],
      "stateMutability": "view",
      "type": "function"
    },
    {
      "inputs": [
        {
          "internalType": "address",
          "name": "_owner",
          "type": "address"
        }
      ],
      "name": "GetMy",
      "outputs": [
        {
          "components": [
            {
              "internalType": "uint256",
              "name": "id",
              "type": "uint256"
            },
            {
              "internalType": "uint256",
              "name": "NotificationData",
              "type": "uint256"
            },
            {
              "internalType": "string",
              "name": "Explenation",
              "type": "string"
            },
            {
              "internalType": "uint256",
              "name": "TokenAmount",
              "type": "uint256"
            },
            {
              "internalType": "address",
              "name": "SenderWallet",
              "type": "address"
            },
            {
              "internalType": "address",
              "name": "ReciverWallet",
              "type": "address"
            },
            {
              "internalType": "enum Notifications.statuses",
              "name": "Status",
              "type": "uint8"
            },
            {
              "internalType": "string",
              "name": "StatusExplanation",
              "type": "string"
            }
          ],
          "internalType": "struct Notifications.Notification[]",
          "name": "",
          "type": "tuple[]"
        }
      ],
      "stateMutability": "view",
      "type": "function"
    },
    {
      "inputs": [],
      "name": "GetSent",
      "outputs": [
        {
          "components": [
            {
              "internalType": "uint256",
              "name": "id",
              "type": "uint256"
            },
            {
              "internalType": "uint256",
              "name": "NotificationData",
              "type": "uint256"
            },
            {
              "internalType": "string",
              "name": "Explenation",
              "type": "string"
            },
            {
              "internalType": "uint256",
              "name": "TokenAmount",
              "type": "uint256"
            },
            {
              "internalType": "address",
              "name": "SenderWallet",
              "type": "address"
            },
            {
              "internalType": "address",
              "name": "ReciverWallet",
              "type": "address"
            },
            {
              "internalType": "enum Notifications.statuses",
              "name": "Status",
              "type": "uint8"
            },
            {
              "internalType": "string",
              "name": "StatusExplanation",
              "type": "string"
            }
          ],
          "internalType": "struct Notifications.Notification[]",
          "name": "",
          "type": "tuple[]"
        }
      ],
      "stateMutability": "view",
      "type": "function"
    },
    {
      "inputs": [
        {
          "internalType": "uint256",
          "name": "",
          "type": "uint256"
        }
      ],
      "name": "Items",
      "outputs": [
        {
          "internalType": "uint256",
          "name": "id",
          "type": "uint256"
        },
        {
          "internalType": "string",
          "name": "name",
          "type": "string"
        },
        {
          "internalType": "uint256",
          "name": "price",
          "type": "uint256"
        },
        {
          "internalType": "enum marketplace.item_status",
          "name": "status",
          "type": "uint8"
        }
      ],
      "stateMutability": "view",
      "type": "function"
    },
    {
      "inputs": [
        {
          "internalType": "string",
          "name": "_Explenation",
          "type": "string"
        },
        {
          "internalType": "uint256",
          "name": "_TokenAmount",
          "type": "uint256"
        },
        {
          "internalType": "address",
          "name": "_ReciverWallet",
          "type": "address"
        }
      ],
      "name": "NewTicket",
      "outputs": [],
      "stateMutability": "nonpayable",
      "type": "function"
    },
    {
      "inputs": [
        {
          "internalType": "uint256",
          "name": "_id",
          "type": "uint256"
        }
      ],
      "name": "SellItem",
      "outputs": [],
      "stateMutability": "nonpayable",
      "type": "function"
    },
    {
      "inputs": [
        {
          "internalType": "uint256",
          "name": "",
          "type": "uint256"
        }
      ],
      "name": "Table",
      "outputs": [
        {
          "internalType": "uint256",
          "name": "id",
          "type": "uint256"
        },
        {
          "internalType": "uint256",
          "name": "NotificationData",
          "type": "uint256"
        },
        {
          "internalType": "string",
          "name": "Explenation",
          "type": "string"
        },
        {
          "internalType": "uint256",
          "name": "TokenAmount",
          "type": "uint256"
        },
        {
          "internalType": "address",
          "name": "SenderWallet",
          "type": "address"
        },
        {
          "internalType": "address",
          "name": "ReciverWallet",
          "type": "address"
        },
        {
          "internalType": "enum Notifications.statuses",
          "name": "Status",
          "type": "uint8"
        },
        {
          "internalType": "string",
          "name": "StatusExplanation",
          "type": "string"
        }
      ],
      "stateMutability": "view",
      "type": "function"
    },
    {
      "inputs": [
        {
          "internalType": "address",
          "name": "user",
          "type": "address"
        },
        {
          "internalType": "string",
          "name": "name",
          "type": "string"
        },
        {
          "internalType": "string",
          "name": "surname",
          "type": "string"
        },
        {
          "internalType": "string",
          "name": "email",
          "type": "string"
        },
        {
          "internalType": "enum AccountTypes.role",
          "name": "rank",
          "type": "uint8"
        }
      ],
      "name": "addUser",
      "outputs": [],
      "stateMutability": "nonpayable",
      "type": "function"
    },
    {
      "inputs": [
        {
          "internalType": "uint256",
          "name": "_id",
          "type": "uint256"
        },
        {
          "internalType": "string",
          "name": "_Explenation",
          "type": "string"
        }
      ],
      "name": "approve",
      "outputs": [],
      "stateMutability": "nonpayable",
      "type": "function"
    },
    {
      "inputs": [
        {
          "internalType": "uint256",
          "name": "_id",
          "type": "uint256"
        },
        {
          "internalType": "enum AccountTypes.role",
          "name": "new_role",
          "type": "uint8"
        }
      ],
      "name": "change_role",
      "outputs": [
        {
          "internalType": "bool",
          "name": "",
          "type": "bool"
        }
      ],
      "stateMutability": "nonpayable",
      "type": "function"
    },
    {
      "inputs": [
        {
          "internalType": "string",
          "name": "a",
          "type": "string"
        },
        {
          "internalType": "string",
          "name": "b",
          "type": "string"
        }
      ],
      "name": "compareStrings",
      "outputs": [
        {
          "internalType": "bool",
          "name": "",
          "type": "bool"
        }
      ],
      "stateMutability": "pure",
      "type": "function"
    },
    {
      "inputs": [
        {
          "internalType": "address",
          "name": "user",
          "type": "address"
        },
        {
          "internalType": "string",
          "name": "name",
          "type": "string"
        },
        {
          "internalType": "string",
          "name": "surname",
          "type": "string"
        }
      ],
      "name": "findUser",
      "outputs": [
        {
          "internalType": "bool",
          "name": "",
          "type": "bool"
        }
      ],
      "stateMutability": "view",
      "type": "function"
    },
    {
      "inputs": [
        {
          "internalType": "address",
          "name": "wallet",
          "type": "address"
        }
      ],
      "name": "findWallet",
      "outputs": [
        {
          "internalType": "bool",
          "name": "",
          "type": "bool"
        }
      ],
      "stateMutability": "view",
      "type": "function"
    },
    {
      "inputs": [],
      "name": "getAllUsers",
      "outputs": [
        {
          "components": [
            {
              "internalType": "uint256",
              "name": "ID",
              "type": "uint256"
            },
            {
              "internalType": "address",
              "name": "user",
              "type": "address"
            },
            {
              "internalType": "string",
              "name": "Name",
              "type": "string"
            },
            {
              "internalType": "string",
              "name": "Surname",
              "type": "string"
            },
            {
              "internalType": "string",
              "name": "Email",
              "type": "string"
            },
            {
              "internalType": "enum AccountTypes.role",
              "name": "Rank",
              "type": "uint8"
            }
          ],
          "internalType": "struct AccountTypes.user_t[]",
          "name": "",
          "type": "tuple[]"
        }
      ],
      "stateMutability": "view",
      "type": "function"
    },
    {
      "inputs": [],
      "name": "getBalanceKontrakt",
      "outputs": [
        {
          "internalType": "uint256",
          "name": "",
          "type": "uint256"
        }
      ],
      "stateMutability": "view",
      "type": "function"
    },
    {
      "inputs": [
        {
          "internalType": "address",
          "name": "userAddress",
          "type": "address"
        }
      ],
      "name": "getUser",
      "outputs": [
        {
          "components": [
            {
              "internalType": "uint256",
              "name": "ID",
              "type": "uint256"
            },
            {
              "internalType": "address",
              "name": "user",
              "type": "address"
            },
            {
              "internalType": "string",
              "name": "Name",
              "type": "string"
            },
            {
              "internalType": "string",
              "name": "Surname",
              "type": "string"
            },
            {
              "internalType": "string",
              "name": "Email",
              "type": "string"
            },
            {
              "internalType": "enum AccountTypes.role",
              "name": "Rank",
              "type": "uint8"
            }
          ],
          "internalType": "struct AccountTypes.user_t",
          "name": "",
          "type": "tuple"
        }
      ],
      "stateMutability": "view",
      "type": "function"
    },
    {
      "inputs": [
        {
          "internalType": "uint256",
          "name": "",
          "type": "uint256"
        }
      ],
      "name": "historia",
      "outputs": [
        {
          "internalType": "uint256",
          "name": "id",
          "type": "uint256"
        },
        {
          "internalType": "address",
          "name": "buyer",
          "type": "address"
        },
        {
          "internalType": "uint256",
          "name": "data",
          "type": "uint256"
        }
      ],
      "stateMutability": "view",
      "type": "function"
    },
    {
      "inputs": [
        {
          "internalType": "uint256",
          "name": "_id",
          "type": "uint256"
        },
        {
          "internalType": "string",
          "name": "_Explenation",
          "type": "string"
        }
      ],
      "name": "reject",
      "outputs": [],
      "stateMutability": "nonpayable",
      "type": "function"
    },
    {
      "inputs": [
        {
          "internalType": "uint256",
          "name": "",
          "type": "uint256"
        }
      ],
      "name": "workers",
      "outputs": [
        {
          "internalType": "uint256",
          "name": "ID",
          "type": "uint256"
        },
        {
          "internalType": "address",
          "name": "user",
          "type": "address"
        },
        {
          "internalType": "string",
          "name": "Name",
          "type": "string"
        },
        {
          "internalType": "string",
          "name": "Surname",
          "type": "string"
        },
        {
          "internalType": "string",
          "name": "Email",
          "type": "string"
        },
        {
          "internalType": "enum AccountTypes.role",
          "name": "Rank",
          "type": "uint8"
        }
      ],
      "stateMutability": "view",
      "type": "function"
    }
  ],
  "bytecode": "0x608060405230600860006101000a81548173ffffffffffffffffffffffffffffffffffffffff021916908373ffffffffffffffffffffffffffffffffffffffff16021790555034801561005157600080fd5b5033600360006101000a81548173ffffffffffffffffffffffffffffffffffffffff021916908373ffffffffffffffffffffffffffffffffffffffff16021790555061571d80620000a36000396000f3fe608060405234801561001057600080fd5b50600436106101585760003560e01c806377b26af2116100c3578063d286c5a81161007c578063d286c5a814610407578063db2c916614610437578063e2842d7914610455578063e7ebec6214610473578063e951ec551461048f578063f1a22dc2146104ad57610158565b806377b26af21461031857806390303f1614610336578063a03e149014610352578063a5440fa014610382578063a5904d21146103a0578063bed34bba146103d757610158565b80636e538078116101155780636e538078146102485780636f77926b1461026457806371d68a971461029457806371d6f213146102b057806372405ab0146102e057806375364049146102fc57610158565b806317b47cc41461015d578063357b4b1314610190578063389271ed146101c25780633b389fd4146101e057806355d96d4f146101fc57806366590a601461022c575b600080fd5b61017760048036038101906101729190613ce5565b6104e2565b6040516101879493929190613e31565b60405180910390f35b6101aa60048036038101906101a59190613ce5565b6105b7565b6040516101b993929190613ebe565b60405180910390f35b6101ca610611565b6040516101d79190614082565b60405180910390f35b6101fa60048036038101906101f591906140d0565b61080f565b005b61021660048036038101906102119190614110565b6109fc565b604051610223919061430d565b60405180910390f35b610246600480360381019061024191906143b9565b610ebd565b005b610262600480360381019061025d9190613ce5565b6111fc565b005b61027e60048036038101906102799190614110565b611372565b60405161028b9190614574565b60405180910390f35b6102ae60048036038101906102a99190614596565b61172d565b005b6102ca60048036038101906102c59190614110565b611920565b6040516102d79190614611565b60405180910390f35b6102fa60048036038101906102f59190614596565b6119d6565b005b6103166004803603810190610311919061462c565b611c8d565b005b610320611e2d565b60405161032d9190614082565b60405180910390f35b610350600480360381019061034b9190613ce5565b61216f565b005b61036c6004803603810190610367919061468c565b6122e3565b6040516103799190614611565b60405180910390f35b61038a6123c6565b604051610397919061430d565b60405180910390f35b6103ba60048036038101906103b59190613ce5565b61270d565b6040516103ce9897969594939291906146db565b60405180910390f35b6103f160048036038101906103ec9190614897565b6128c2565b6040516103fe9190614611565b60405180910390f35b610421600480360381019061041c919061490f565b61291b565b60405161042e9190614611565b60405180910390f35b61043f612bdb565b60405161044c91906149a4565b60405180910390f35b61045d612ca0565b60405161046a9190614b18565b60405180910390f35b61048d60048036038101906104889190614b3a565b61300e565b005b6104976133bb565b6040516104a4919061430d565b60405180910390f35b6104c760048036038101906104c29190613ce5565b613846565b6040516104d996959493929190614bbd565b60405180910390f35b600181815481106104f257600080fd5b906000526020600020906004020160009150905080600001549080600101805461051b90614c62565b80601f016020809104026020016040519081016040528092919081815260200182805461054790614c62565b80156105945780601f1061056957610100808354040283529160200191610594565b820191906000526020600020905b81548152906001019060200180831161057757829003601f168201915b5050505050908060020154908060030160009054906101000a900460ff16905084565b600281815481106105c757600080fd5b90600052602060002090600302016000915090508060000154908060010160009054906101000a900473ffffffffffffffffffffffffffffffffffffffff16908060020154905083565b606060006001805490501161065b576040517f08c379a000000000000000000000000000000000000000000000000000000000815260040161065290614ce0565b60405180910390fd5b600060018054905067ffffffffffffffff81111561067c5761067b61476c565b5b6040519080825280602002602001820160405280156106b557816020015b6106a2613a57565b81526020019060019003908161069a5790505b50905060005b60018054905081101561080757600181815481106106dc576106db614d00565b5b90600052602060002090600402016040518060800160405290816000820154815260200160018201805461070f90614c62565b80601f016020809104026020016040519081016040528092919081815260200182805461073b90614c62565b80156107885780601f1061075d57610100808354040283529160200191610788565b820191906000526020600020905b81548152906001019060200180831161076b57829003601f168201915b50505050508152602001600282015481526020016003820160009054906101000a900460ff1660018111156107c0576107bf613dba565b5b60018111156107d2576107d1613dba565b5b815250508282815181106107e9576107e8614d00565b5b602002602001018190525080806107ff90614d5e565b9150506106bb565b508091505090565b60008211610852576040517f08c379a000000000000000000000000000000000000000000000000000000000815260040161084990614df3565b60405180910390fd5b6001805490508210610899576040517f08c379a000000000000000000000000000000000000000000000000000000000815260040161089090614e5f565b60405180910390fd5b600060018111156108ad576108ac613dba565b5b600183815481106108c1576108c0614d00565b5b906000526020600020906004020160030160009054906101000a900460ff1660018111156108f2576108f1613dba565b5b14610932576040517f08c379a000000000000000000000000000000000000000000000000000000000815260040161092990614ecb565b60405180910390fd5b600860009054906101000a900473ffffffffffffffffffffffffffffffffffffffff1673ffffffffffffffffffffffffffffffffffffffff1663095ea7b3826001858154811061098557610984614d00565b5b9060005260206000209060040201600201546040518363ffffffff1660e01b81526004016109b4929190614eeb565b6020604051808303816000875af11580156109d3573d6000803e3d6000fd5b505050506040513d601f19601f820116820180604052508101906109f79190614f40565b505050565b6060600060058054905011610a46576040517f08c379a0000000000000000000000000000000000000000000000000000000008152600401610a3d90614ce0565b60405180910390fd5b6000805b600580549050811015610af2578373ffffffffffffffffffffffffffffffffffffffff1660058281548110610a8257610a81614d00565b5b906000526020600020906007020160040160009054906101000a900473ffffffffffffffffffffffffffffffffffffffff1673ffffffffffffffffffffffffffffffffffffffff161415610adf578180610adb90614d5e565b9250505b8080610aea90614d5e565b915050610a4a565b5060008111610b36576040517f08c379a0000000000000000000000000000000000000000000000000000000008152600401610b2d90614fb9565b60405180910390fd5b60008167ffffffffffffffff811115610b5257610b5161476c565b5b604051908082528060200260200182016040528015610b8b57816020015b610b78613a91565b815260200190600190039081610b705790505b5090506000915060005b600580549050811015610eb2578473ffffffffffffffffffffffffffffffffffffffff1660058281548110610bcd57610bcc614d00565b5b906000526020600020906007020160040160009054906101000a900473ffffffffffffffffffffffffffffffffffffffff1673ffffffffffffffffffffffffffffffffffffffff161415610e9f5760058181548110610c2f57610c2e614d00565b5b9060005260206000209060070201604051806101000160405290816000820154815260200160018201548152602001600282018054610c6d90614c62565b80601f0160208091040260200160405190810160405280929190818152602001828054610c9990614c62565b8015610ce65780601f10610cbb57610100808354040283529160200191610ce6565b820191906000526020600020905b815481529060010190602001808311610cc957829003601f168201915b50505050508152602001600382015481526020016004820160009054906101000a900473ffffffffffffffffffffffffffffffffffffffff1673ffffffffffffffffffffffffffffffffffffffff1673ffffffffffffffffffffffffffffffffffffffff1681526020016005820160009054906101000a900473ffffffffffffffffffffffffffffffffffffffff1673ffffffffffffffffffffffffffffffffffffffff1673ffffffffffffffffffffffffffffffffffffffff1681526020016005820160149054906101000a900460ff166002811115610dca57610dc9613dba565b5b6002811115610ddc57610ddb613dba565b5b8152602001600682018054610df090614c62565b80601f0160208091040260200160405190810160405280929190818152602001828054610e1c90614c62565b8015610e695780601f10610e3e57610100808354040283529160200191610e69565b820191906000526020600020905b815481529060010190602001808311610e4c57829003601f168201915b505050505081525050828481518110610e8557610e84614d00565b5b60200260200101819052508280610e9b90614d5e565b9350505b8080610eaa90614d5e565b915050610b95565b508092505050919050565b600015153073ffffffffffffffffffffffffffffffffffffffff1663d286c5a88a8a8a8a8a6040518663ffffffff1660e01b8152600401610f02959493929190615006565b602060405180830381865afa158015610f1f573d6000803e3d6000fd5b505050506040513d601f19601f82011682018060405250810190610f439190614f40565b151514610f85576040517f08c379a0000000000000000000000000000000000000000000000000000000008152600401610f7c9061509b565b60405180910390fd5b610f8d613b14565b60078054905081600001818152505088816020019073ffffffffffffffffffffffffffffffffffffffff16908173ffffffffffffffffffffffffffffffffffffffff168152505087878080601f016020809104026020016040519081016040528093929190818152602001838380828437600081840152601f19601f82011690508083019250505050505050816040018190525085858080601f016020809104026020016040519081016040528093929190818152602001838380828437600081840152601f19601f82011690508083019250505050505050816060018190525083838080601f016020809104026020016040519081016040528093929190818152602001838380828437600081840152601f19601f820116905080830192505050505050508160800181905250818160a0019060048111156110d3576110d2613dba565b5b908160048111156110e7576110e6613dba565b5b8152505060078190806001815401808255809150506001900390600052602060002090600602016000909190919091506000820151816000015560208201518160010160006101000a81548173ffffffffffffffffffffffffffffffffffffffff021916908373ffffffffffffffffffffffffffffffffffffffff1602179055506040820151816002019080519060200190611184929190613b72565b5060608201518160030190805190602001906111a1929190613b72565b5060808201518160040190805190602001906111be929190613b72565b5060a08201518160050160006101000a81548160ff021916908360048111156111ea576111e9613dba565b5b02179055505050505050505050505050565b6000811015611240576040517f08c379a000000000000000000000000000000000000000000000000000000000815260040161123790614df3565b60405180910390fd5b6001805490508110611287576040517f08c379a000000000000000000000000000000000000000000000000000000000815260040161127e90614e5f565b60405180910390fd5b6000600181111561129b5761129a613dba565b5b600182815481106112af576112ae614d00565b5b906000526020600020906004020160030160009054906101000a900460ff1660018111156112e0576112df613dba565b5b1415611321576040517f08c379a000000000000000000000000000000000000000000000000000000000815260040161131890615107565b60405180910390fd5b60006001828154811061133757611336614d00565b5b906000526020600020906004020160030160006101000a81548160ff0219169083600181111561136a57611369613dba565b5b021790555050565b61137a613b14565b60006040518060c0016040528060008152602001600073ffffffffffffffffffffffffffffffffffffffff1681526020016040518060200160405280600081525081526020016040518060200160405280600081525081526020016040518060200160405280600081525081526020016004808111156113fd576113fc613dba565b5b815250905060005b600780549050811015611723578373ffffffffffffffffffffffffffffffffffffffff166007828154811061143d5761143c614d00565b5b906000526020600020906006020160010160009054906101000a900473ffffffffffffffffffffffffffffffffffffffff1673ffffffffffffffffffffffffffffffffffffffff161415611710576007818154811061149f5761149e614d00565b5b90600052602060002090600602016040518060c0016040529081600082015481526020016001820160009054906101000a900473ffffffffffffffffffffffffffffffffffffffff1673ffffffffffffffffffffffffffffffffffffffff1673ffffffffffffffffffffffffffffffffffffffff16815260200160028201805461152890614c62565b80601f016020809104026020016040519081016040528092919081815260200182805461155490614c62565b80156115a15780601f10611576576101008083540402835291602001916115a1565b820191906000526020600020905b81548152906001019060200180831161158457829003601f168201915b505050505081526020016003820180546115ba90614c62565b80601f01602080910402602001604051908101604052809291908181526020018280546115e690614c62565b80156116335780601f1061160857610100808354040283529160200191611633565b820191906000526020600020905b81548152906001019060200180831161161657829003601f168201915b5050505050815260200160048201805461164c90614c62565b80601f016020809104026020016040519081016040528092919081815260200182805461167890614c62565b80156116c55780601f1061169a576101008083540402835291602001916116c5565b820191906000526020600020905b8154815290600101906020018083116116a857829003601f168201915b505050505081526020016005820160009054906101000a900460ff1660048111156116f3576116f2613dba565b5b600481111561170557611704613dba565b5b815250509150611723565b808061171b90614d5e565b915050611405565b5080915050919050565b6000831015611771576040517f08c379a000000000000000000000000000000000000000000000000000000000815260040161176890615173565b60405180910390fd5b60058054905083106117b8576040517f08c379a00000000000000000000000000000000000000000000000000000000081526004016117af906151df565b60405180910390fd5b60008282905014156117ff576040517f08c379a00000000000000000000000000000000000000000000000000000000081526004016117f69061524b565b60405180910390fd5b6000600281111561181357611812613dba565b5b6005848154811061182757611826614d00565b5b906000526020600020906007020160050160149054906101000a900460ff16600281111561185857611857613dba565b5b14611898576040517f08c379a000000000000000000000000000000000000000000000000000000000815260040161188f906152b7565b60405180910390fd5b6002600584815481106118ae576118ad614d00565b5b906000526020600020906007020160050160146101000a81548160ff021916908360028111156118e1576118e0613dba565b5b02179055508181600585815481106118fc576118fb614d00565b5b9060005260206000209060070201600601919061191a929190613bf8565b50505050565b600080600090505b6007805490508110156119cb578273ffffffffffffffffffffffffffffffffffffffff16600782815481106119605761195f614d00565b5b906000526020600020906006020160010160009054906101000a900473ffffffffffffffffffffffffffffffffffffffff1673ffffffffffffffffffffffffffffffffffffffff1614156119b85760019150506119d1565b80806119c390614d5e565b915050611928565b50600090505b919050565b6000831015611a1a576040517f08c379a0000000000000000000000000000000000000000000000000000000008152600401611a1190615173565b60405180910390fd5b6005805490508310611a61576040517f08c379a0000000000000000000000000000000000000000000000000000000008152600401611a58906151df565b60405180910390fd5b60006002811115611a7557611a74613dba565b5b60058481548110611a8957611a88614d00565b5b906000526020600020906007020160050160149054906101000a900460ff166002811115611aba57611ab9613dba565b5b14611afa576040517f08c379a0000000000000000000000000000000000000000000000000000000008152600401611af1906152b7565b60405180910390fd5b600160058481548110611b1057611b0f614d00565b5b906000526020600020906007020160050160146101000a81548160ff02191690836002811115611b4357611b42613dba565b5b0217905550818160058581548110611b5e57611b5d614d00565b5b90600052602060002090600702016006019190611b7c929190613bf8565b50600860009054906101000a900473ffffffffffffffffffffffffffffffffffffffff1673ffffffffffffffffffffffffffffffffffffffff1663a9059cbb60058581548110611bcf57611bce614d00565b5b906000526020600020906007020160050160009054906101000a900473ffffffffffffffffffffffffffffffffffffffff1660058681548110611c1557611c14614d00565b5b9060005260206000209060070201600301546040518363ffffffff1660e01b8152600401611c44929190614eeb565b6020604051808303816000875af1158015611c63573d6000803e3d6000fd5b505050506040513d601f19601f82011682018060405250810190611c879190614f40565b50505050565b60008111611cd0576040517f08c379a0000000000000000000000000000000000000000000000000000000008152600401611cc790615323565b60405180910390fd5b6000838390501415611d17576040517f08c379a0000000000000000000000000000000000000000000000000000000008152600401611d0e9061538f565b60405180910390fd5b600060018054905090506001604051806080016040528083815260200186868080601f016020809104026020016040519081016040528093929190818152602001838380828437600081840152601f19601f82011690508083019250505050505050815260200184815260200160006001811115611d9857611d97613dba565b5b8152509080600181540180825580915050600190039060005260206000209060040201600090919091909150600082015181600001556020820151816001019080519060200190611dea929190613b72565b506040820151816002015560608201518160030160006101000a81548160ff02191690836001811115611e2057611e1f613dba565b5b0217905550505050505050565b6060600060018054905011611e77576040517f08c379a0000000000000000000000000000000000000000000000000000000008152600401611e6e90614ce0565b60405180910390fd5b6000805b600180549050811015611f095760006001811115611e9c57611e9b613dba565b5b60018281548110611eb057611eaf614d00565b5b906000526020600020906004020160030160009054906101000a900460ff166001811115611ee157611ee0613dba565b5b1415611ef6578180611ef290614d5e565b9250505b8080611f0190614d5e565b915050611e7b565b5060008111611f4d576040517f08c379a0000000000000000000000000000000000000000000000000000000008152600401611f44906153fb565b60405180910390fd5b60008167ffffffffffffffff811115611f6957611f6861476c565b5b604051908082528060200260200182016040528015611fa257816020015b611f8f613a57565b815260200190600190039081611f875790505b5090506000915060005b6001805490508110156121665760006001811115611fcd57611fcc613dba565b5b60018281548110611fe157611fe0614d00565b5b906000526020600020906004020160030160009054906101000a900460ff16600181111561201257612011613dba565b5b1415612153576001818154811061202c5761202b614d00565b5b90600052602060002090600402016040518060800160405290816000820154815260200160018201805461205f90614c62565b80601f016020809104026020016040519081016040528092919081815260200182805461208b90614c62565b80156120d85780601f106120ad576101008083540402835291602001916120d8565b820191906000526020600020905b8154815290600101906020018083116120bb57829003601f168201915b50505050508152602001600282015481526020016003820160009054906101000a900460ff1660018111156121105761210f613dba565b5b600181111561212257612121613dba565b5b8152505082848151811061213957612138614d00565b5b6020026020010181905250828061214f90614d5e565b9350505b808061215e90614d5e565b915050611fac565b50809250505090565b60008110156121b3576040517f08c379a00000000000000000000000000000000000000000000000000000000081526004016121aa90614df3565b60405180910390fd5b60018054905081106121fa576040517f08c379a00000000000000000000000000000000000000000000000000000000081526004016121f190614e5f565b60405180910390fd5b60018081111561220d5761220c613dba565b5b6001828154811061222157612220614d00565b5b906000526020600020906004020160030160009054906101000a900460ff16600181111561225257612251613dba565b5b1415612293576040517f08c379a000000000000000000000000000000000000000000000000000000000815260040161228a90615467565b60405180910390fd5b60018082815481106122a8576122a7614d00565b5b906000526020600020906004020160030160006101000a81548160ff021916908360018111156122db576122da613dba565b5b021790555050565b600080831015612328576040517f08c379a000000000000000000000000000000000000000000000000000000000815260040161231f906154d3565b60405180910390fd5b600780549050831061236f576040517f08c379a00000000000000000000000000000000000000000000000000000000081526004016123669061553f565b60405180910390fd5b816007848154811061238457612383614d00565b5b906000526020600020906006020160050160006101000a81548160ff021916908360048111156123b7576123b6613dba565b5b02179055506001905092915050565b6060600060058054905011612410576040517f08c379a000000000000000000000000000000000000000000000000000000000815260040161240790614ce0565b60405180910390fd5b600060058054905067ffffffffffffffff8111156124315761243061476c565b5b60405190808252806020026020018201604052801561246a57816020015b612457613a91565b81526020019060019003908161244f5790505b50905060005b600580549050811015612705576005818154811061249157612490614d00565b5b90600052602060002090600702016040518061010001604052908160008201548152602001600182015481526020016002820180546124cf90614c62565b80601f01602080910402602001604051908101604052809291908181526020018280546124fb90614c62565b80156125485780601f1061251d57610100808354040283529160200191612548565b820191906000526020600020905b81548152906001019060200180831161252b57829003601f168201915b50505050508152602001600382015481526020016004820160009054906101000a900473ffffffffffffffffffffffffffffffffffffffff1673ffffffffffffffffffffffffffffffffffffffff1673ffffffffffffffffffffffffffffffffffffffff1681526020016005820160009054906101000a900473ffffffffffffffffffffffffffffffffffffffff1673ffffffffffffffffffffffffffffffffffffffff1673ffffffffffffffffffffffffffffffffffffffff1681526020016005820160149054906101000a900460ff16600281111561262c5761262b613dba565b5b600281111561263e5761263d613dba565b5b815260200160068201805461265290614c62565b80601f016020809104026020016040519081016040528092919081815260200182805461267e90614c62565b80156126cb5780601f106126a0576101008083540402835291602001916126cb565b820191906000526020600020905b8154815290600101906020018083116126ae57829003601f168201915b5050505050815250508282815181106126e7576126e6614d00565b5b602002602001018190525080806126fd90614d5e565b915050612470565b508091505090565b6005818154811061271d57600080fd5b906000526020600020906007020160009150905080600001549080600101549080600201805461274c90614c62565b80601f016020809104026020016040519081016040528092919081815260200182805461277890614c62565b80156127c55780601f1061279a576101008083540402835291602001916127c5565b820191906000526020600020905b8154815290600101906020018083116127a857829003601f168201915b5050505050908060030154908060040160009054906101000a900473ffffffffffffffffffffffffffffffffffffffff16908060050160009054906101000a900473ffffffffffffffffffffffffffffffffffffffff16908060050160149054906101000a900460ff169080600601805461283f90614c62565b80601f016020809104026020016040519081016040528092919081815260200182805461286b90614c62565b80156128b85780601f1061288d576101008083540402835291602001916128b8565b820191906000526020600020905b81548152906001019060200180831161289b57829003601f168201915b5050505050905088565b6000816040516020016128d5919061559b565b60405160208183030381529060405280519060200120836040516020016128fc919061559b565b6040516020818303038152906040528051906020012014905092915050565b600080600090505b600780549050811015612bcc576007818154811061294457612943614d00565b5b906000526020600020906006020160010160009054906101000a900473ffffffffffffffffffffffffffffffffffffffff1673ffffffffffffffffffffffffffffffffffffffff168773ffffffffffffffffffffffffffffffffffffffff16148015612aa75750612aa686868080601f016020809104026020016040519081016040528093929190818152602001838380828437600081840152601f19601f8201169050808301925050505050505060078381548110612a0757612a06614d00565b5b90600052602060002090600602016002018054612a2390614c62565b80601f0160208091040260200160405190810160405280929190818152602001828054612a4f90614c62565b8015612a9c5780601f10612a7157610100808354040283529160200191612a9c565b820191906000526020600020905b815481529060010190602001808311612a7f57829003601f168201915b50505050506128c2565b5b8015612baa5750612ba984848080601f016020809104026020016040519081016040528093929190818152602001838380828437600081840152601f19601f8201169050808301925050505050505060078381548110612b0a57612b09614d00565b5b90600052602060002090600602016003018054612b2690614c62565b80601f0160208091040260200160405190810160405280929190818152602001828054612b5290614c62565b8015612b9f5780601f10612b7457610100808354040283529160200191612b9f565b820191906000526020600020905b815481529060010190602001808311612b8257829003601f168201915b50505050506128c2565b5b15612bb9576001915050612bd2565b8080612bc490614d5e565b915050612923565b50600090505b95945050505050565b6000600860009054906101000a900473ffffffffffffffffffffffffffffffffffffffff1673ffffffffffffffffffffffffffffffffffffffff166370a08231600860009054906101000a900473ffffffffffffffffffffffffffffffffffffffff166040518263ffffffff1660e01b8152600401612c5a91906155b2565b602060405180830381865afa158015612c77573d6000803e3d6000fd5b505050506040513d601f19601f82011682018060405250810190612c9b91906155e2565b905090565b6060600060078054905011612cea576040517f08c379a0000000000000000000000000000000000000000000000000000000008152600401612ce190614ce0565b60405180910390fd5b600060078054905067ffffffffffffffff811115612d0b57612d0a61476c565b5b604051908082528060200260200182016040528015612d4457816020015b612d31613b14565b815260200190600190039081612d295790505b50905060005b6007805490508110156130065760078181548110612d6b57612d6a614d00565b5b90600052602060002090600602016040518060c0016040529081600082015481526020016001820160009054906101000a900473ffffffffffffffffffffffffffffffffffffffff1673ffffffffffffffffffffffffffffffffffffffff1673ffffffffffffffffffffffffffffffffffffffff168152602001600282018054612df490614c62565b80601f0160208091040260200160405190810160405280929190818152602001828054612e2090614c62565b8015612e6d5780601f10612e4257610100808354040283529160200191612e6d565b820191906000526020600020905b815481529060010190602001808311612e5057829003601f168201915b50505050508152602001600382018054612e8690614c62565b80601f0160208091040260200160405190810160405280929190818152602001828054612eb290614c62565b8015612eff5780601f10612ed457610100808354040283529160200191612eff565b820191906000526020600020905b815481529060010190602001808311612ee257829003601f168201915b50505050508152602001600482018054612f1890614c62565b80601f0160208091040260200160405190810160405280929190818152602001828054612f4490614c62565b8015612f915780601f10612f6657610100808354040283529160200191612f91565b820191906000526020600020905b815481529060010190602001808311612f7457829003601f168201915b505050505081526020016005820160009054906101000a900460ff166004811115612fbf57612fbe613dba565b5b6004811115612fd157612fd0613dba565b5b81525050828281518110612fe857612fe7614d00565b5b60200260200101819052508080612ffe90614d5e565b915050612d4a565b508091505090565b600460009054906101000a900473ffffffffffffffffffffffffffffffffffffffff1673ffffffffffffffffffffffffffffffffffffffff166371d6f213826040518263ffffffff1660e01b815260040161306991906155b2565b602060405180830381865afa158015613086573d6000803e3d6000fd5b505050506040513d601f19601f820116820180604052508101906130aa9190614f40565b6130e9576040517f08c379a00000000000000000000000000000000000000000000000000000000081526004016130e09061565b565b60405180910390fd5b6000821161312c576040517f08c379a0000000000000000000000000000000000000000000000000000000008152600401613123906156c7565b60405180910390fd5b6000848490501415613173576040517f08c379a000000000000000000000000000000000000000000000000000000000815260040161316a9061524b565b60405180910390fd5b600060058054905090506000429050600560405180610100016040528084815260200183815260200188888080601f016020809104026020016040519081016040528093929190818152602001838380828437600081840152601f19601f820116905080830192505050505050508152602001868152602001600360009054906101000a900473ffffffffffffffffffffffffffffffffffffffff1673ffffffffffffffffffffffffffffffffffffffff1681526020018573ffffffffffffffffffffffffffffffffffffffff1681526020016000600281111561325a57613259613dba565b5b8152602001604051806020016040528060008152508152509080600181540180825580915050600190039060005260206000209060070201600090919091909150600082015181600001556020820151816001015560408201518160020190805190602001906132cb929190613b72565b506060820151816003015560808201518160040160006101000a81548173ffffffffffffffffffffffffffffffffffffffff021916908373ffffffffffffffffffffffffffffffffffffffff16021790555060a08201518160050160006101000a81548173ffffffffffffffffffffffffffffffffffffffff021916908373ffffffffffffffffffffffffffffffffffffffff16021790555060c08201518160050160146101000a81548160ff0219169083600281111561338f5761338e613dba565b5b021790555060e08201518160060190805190602001906133b0929190613b72565b505050505050505050565b6060600060058054905011613405576040517f08c379a00000000000000000000000000000000000000000000000000000000081526004016133fc90614ce0565b60405180910390fd5b6000805b600580549050811015613497576000600281111561342a57613429613dba565b5b6005828154811061343e5761343d614d00565b5b906000526020600020906007020160050160149054906101000a900460ff16600281111561346f5761346e613dba565b5b141561348457818061348090614d5e565b9250505b808061348f90614d5e565b915050613409565b50600081116134db576040517f08c379a00000000000000000000000000000000000000000000000000000000081526004016134d290614fb9565b60405180910390fd5b60008167ffffffffffffffff8111156134f7576134f661476c565b5b60405190808252806020026020018201604052801561353057816020015b61351d613a91565b8152602001906001900390816135155790505b5090506000915060005b60058054905081101561383d576000600281111561355b5761355a613dba565b5b6005828154811061356f5761356e614d00565b5b906000526020600020906007020160050160149054906101000a900460ff1660028111156135a05761359f613dba565b5b141561382a57600581815481106135ba576135b9614d00565b5b90600052602060002090600702016040518061010001604052908160008201548152602001600182015481526020016002820180546135f890614c62565b80601f016020809104026020016040519081016040528092919081815260200182805461362490614c62565b80156136715780601f1061364657610100808354040283529160200191613671565b820191906000526020600020905b81548152906001019060200180831161365457829003601f168201915b50505050508152602001600382015481526020016004820160009054906101000a900473ffffffffffffffffffffffffffffffffffffffff1673ffffffffffffffffffffffffffffffffffffffff1673ffffffffffffffffffffffffffffffffffffffff1681526020016005820160009054906101000a900473ffffffffffffffffffffffffffffffffffffffff1673ffffffffffffffffffffffffffffffffffffffff1673ffffffffffffffffffffffffffffffffffffffff1681526020016005820160149054906101000a900460ff16600281111561375557613754613dba565b5b600281111561376757613766613dba565b5b815260200160068201805461377b90614c62565b80601f01602080910402602001604051908101604052809291908181526020018280546137a790614c62565b80156137f45780601f106137c9576101008083540402835291602001916137f4565b820191906000526020600020905b8154815290600101906020018083116137d757829003601f168201915b5050505050815250508284815181106138105761380f614d00565b5b6020026020010181905250828061382690614d5e565b9350505b808061383590614d5e565b91505061353a565b50809250505090565b6007818154811061385657600080fd5b90600052602060002090600602016000915090508060000154908060010160009054906101000a900473ffffffffffffffffffffffffffffffffffffffff16908060020180546138a590614c62565b80601f01602080910402602001604051908101604052809291908181526020018280546138d190614c62565b801561391e5780601f106138f35761010080835404028352916020019161391e565b820191906000526020600020905b81548152906001019060200180831161390157829003601f168201915b50505050509080600301805461393390614c62565b80601f016020809104026020016040519081016040528092919081815260200182805461395f90614c62565b80156139ac5780601f10613981576101008083540402835291602001916139ac565b820191906000526020600020905b81548152906001019060200180831161398f57829003601f168201915b5050505050908060040180546139c190614c62565b80601f01602080910402602001604051908101604052809291908181526020018280546139ed90614c62565b8015613a3a5780601f10613a0f57610100808354040283529160200191613a3a565b820191906000526020600020905b815481529060010190602001808311613a1d57829003601f168201915b5050505050908060050160009054906101000a900460ff16905086565b604051806080016040528060008152602001606081526020016000815260200160006001811115613a8b57613a8a613dba565b5b81525090565b60405180610100016040528060008152602001600081526020016060815260200160008152602001600073ffffffffffffffffffffffffffffffffffffffff168152602001600073ffffffffffffffffffffffffffffffffffffffff16815260200160006002811115613b0757613b06613dba565b5b8152602001606081525090565b6040518060c0016040528060008152602001600073ffffffffffffffffffffffffffffffffffffffff16815260200160608152602001606081526020016060815260200160006004811115613b6c57613b6b613dba565b5b81525090565b828054613b7e90614c62565b90600052602060002090601f016020900481019282613ba05760008555613be7565b82601f10613bb957805160ff1916838001178555613be7565b82800160010185558215613be7579182015b82811115613be6578251825591602001919060010190613bcb565b5b509050613bf49190613c7e565b5090565b828054613c0490614c62565b90600052602060002090601f016020900481019282613c265760008555613c6d565b82601f10613c3f57803560ff1916838001178555613c6d565b82800160010185558215613c6d579182015b82811115613c6c578235825591602001919060010190613c51565b5b509050613c7a9190613c7e565b5090565b5b80821115613c97576000816000905550600101613c7f565b5090565b6000604051905090565b600080fd5b600080fd5b6000819050919050565b613cc281613caf565b8114613ccd57600080fd5b50565b600081359050613cdf81613cb9565b92915050565b600060208284031215613cfb57613cfa613ca5565b5b6000613d0984828501613cd0565b91505092915050565b613d1b81613caf565b82525050565b600081519050919050565b600082825260208201905092915050565b60005b83811015613d5b578082015181840152602081019050613d40565b83811115613d6a576000848401525b50505050565b6000601f19601f8301169050919050565b6000613d8c82613d21565b613d968185613d2c565b9350613da6818560208601613d3d565b613daf81613d70565b840191505092915050565b7f4e487b7100000000000000000000000000000000000000000000000000000000600052602160045260246000fd5b60028110613dfa57613df9613dba565b5b50565b6000819050613e0b82613de9565b919050565b6000613e1b82613dfd565b9050919050565b613e2b81613e10565b82525050565b6000608082019050613e466000830187613d12565b8181036020830152613e588186613d81565b9050613e676040830185613d12565b613e746060830184613e22565b95945050505050565b600073ffffffffffffffffffffffffffffffffffffffff82169050919050565b6000613ea882613e7d565b9050919050565b613eb881613e9d565b82525050565b6000606082019050613ed36000830186613d12565b613ee06020830185613eaf565b613eed6040830184613d12565b949350505050565b600081519050919050565b600082825260208201905092915050565b6000819050602082019050919050565b613f2a81613caf565b82525050565b600082825260208201905092915050565b6000613f4c82613d21565b613f568185613f30565b9350613f66818560208601613d3d565b613f6f81613d70565b840191505092915050565b613f8381613e10565b82525050565b6000608083016000830151613fa16000860182613f21565b5060208301518482036020860152613fb98282613f41565b9150506040830151613fce6040860182613f21565b506060830151613fe16060860182613f7a565b508091505092915050565b6000613ff88383613f89565b905092915050565b6000602082019050919050565b600061401882613ef5565b6140228185613f00565b93508360208202850161403485613f11565b8060005b8581101561407057848403895281516140518582613fec565b945061405c83614000565b925060208a01995050600181019050614038565b50829750879550505050505092915050565b6000602082019050818103600083015261409c818461400d565b905092915050565b6140ad81613e9d565b81146140b857600080fd5b50565b6000813590506140ca816140a4565b92915050565b600080604083850312156140e7576140e6613ca5565b5b60006140f585828601613cd0565b9250506020614106858286016140bb565b9150509250929050565b60006020828403121561412657614125613ca5565b5b6000614134848285016140bb565b91505092915050565b600081519050919050565b600082825260208201905092915050565b6000819050602082019050919050565b61417281613e9d565b82525050565b6003811061418957614188613dba565b5b50565b600081905061419a82614178565b919050565b60006141aa8261418c565b9050919050565b6141ba8161419f565b82525050565b6000610100830160008301516141d96000860182613f21565b5060208301516141ec6020860182613f21565b50604083015184820360408601526142048282613f41565b91505060608301516142196060860182613f21565b50608083015161422c6080860182614169565b5060a083015161423f60a0860182614169565b5060c083015161425260c08601826141b1565b5060e083015184820360e086015261426a8282613f41565b9150508091505092915050565b600061428383836141c0565b905092915050565b6000602082019050919050565b60006142a38261413d565b6142ad8185614148565b9350836020820285016142bf85614159565b8060005b858110156142fb57848403895281516142dc8582614277565b94506142e78361428b565b925060208a019950506001810190506142c3565b50829750879550505050505092915050565b600060208201905081810360008301526143278184614298565b905092915050565b600080fd5b600080fd5b600080fd5b60008083601f8401126143545761435361432f565b5b8235905067ffffffffffffffff81111561437157614370614334565b5b60208301915083600182028301111561438d5761438c614339565b5b9250929050565b600581106143a157600080fd5b50565b6000813590506143b381614394565b92915050565b60008060008060008060008060a0898b0312156143d9576143d8613ca5565b5b60006143e78b828c016140bb565b985050602089013567ffffffffffffffff81111561440857614407613caa565b5b6144148b828c0161433e565b9750975050604089013567ffffffffffffffff81111561443757614436613caa565b5b6144438b828c0161433e565b9550955050606089013567ffffffffffffffff81111561446657614465613caa565b5b6144728b828c0161433e565b935093505060806144858b828c016143a4565b9150509295985092959890939650565b600581106144a6576144a5613dba565b5b50565b60008190506144b782614495565b919050565b60006144c7826144a9565b9050919050565b6144d7816144bc565b82525050565b600060c0830160008301516144f56000860182613f21565b5060208301516145086020860182614169565b50604083015184820360408601526145208282613f41565b9150506060830151848203606086015261453a8282613f41565b915050608083015184820360808601526145548282613f41565b91505060a083015161456960a08601826144ce565b508091505092915050565b6000602082019050818103600083015261458e81846144dd565b905092915050565b6000806000604084860312156145af576145ae613ca5565b5b60006145bd86828701613cd0565b935050602084013567ffffffffffffffff8111156145de576145dd613caa565b5b6145ea8682870161433e565b92509250509250925092565b60008115159050919050565b61460b816145f6565b82525050565b60006020820190506146266000830184614602565b92915050565b60008060006040848603121561464557614644613ca5565b5b600084013567ffffffffffffffff81111561466357614662613caa565b5b61466f8682870161433e565b9350935050602061468286828701613cd0565b9150509250925092565b600080604083850312156146a3576146a2613ca5565b5b60006146b185828601613cd0565b92505060206146c2858286016143a4565b9150509250929050565b6146d58161419f565b82525050565b6000610100820190506146f1600083018b613d12565b6146fe602083018a613d12565b81810360408301526147108189613d81565b905061471f6060830188613d12565b61472c6080830187613eaf565b61473960a0830186613eaf565b61474660c08301856146cc565b81810360e08301526147588184613d81565b90509998505050505050505050565b600080fd5b7f4e487b7100000000000000000000000000000000000000000000000000000000600052604160045260246000fd5b6147a482613d70565b810181811067ffffffffffffffff821117156147c3576147c261476c565b5b80604052505050565b60006147d6613c9b565b90506147e2828261479b565b919050565b600067ffffffffffffffff8211156148025761480161476c565b5b61480b82613d70565b9050602081019050919050565b82818337600083830152505050565b600061483a614835846147e7565b6147cc565b90508281526020810184848401111561485657614855614767565b5b614861848285614818565b509392505050565b600082601f83011261487e5761487d61432f565b5b813561488e848260208601614827565b91505092915050565b600080604083850312156148ae576148ad613ca5565b5b600083013567ffffffffffffffff8111156148cc576148cb613caa565b5b6148d885828601614869565b925050602083013567ffffffffffffffff8111156148f9576148f8613caa565b5b61490585828601614869565b9150509250929050565b60008060008060006060868803121561492b5761492a613ca5565b5b6000614939888289016140bb565b955050602086013567ffffffffffffffff81111561495a57614959613caa565b5b6149668882890161433e565b9450945050604086013567ffffffffffffffff81111561498957614988613caa565b5b6149958882890161433e565b92509250509295509295909350565b60006020820190506149b96000830184613d12565b92915050565b600081519050919050565b600082825260208201905092915050565b6000819050602082019050919050565b600060c083016000830151614a036000860182613f21565b506020830151614a166020860182614169565b5060408301518482036040860152614a2e8282613f41565b91505060608301518482036060860152614a488282613f41565b91505060808301518482036080860152614a628282613f41565b91505060a0830151614a7760a08601826144ce565b508091505092915050565b6000614a8e83836149eb565b905092915050565b6000602082019050919050565b6000614aae826149bf565b614ab881856149ca565b935083602082028501614aca856149db565b8060005b85811015614b065784840389528151614ae78582614a82565b9450614af283614a96565b925060208a01995050600181019050614ace565b50829750879550505050505092915050565b60006020820190508181036000830152614b328184614aa3565b905092915050565b60008060008060608587031215614b5457614b53613ca5565b5b600085013567ffffffffffffffff811115614b7257614b71613caa565b5b614b7e8782880161433e565b94509450506020614b9187828801613cd0565b9250506040614ba2878288016140bb565b91505092959194509250565b614bb7816144bc565b82525050565b600060c082019050614bd26000830189613d12565b614bdf6020830188613eaf565b8181036040830152614bf18187613d81565b90508181036060830152614c058186613d81565b90508181036080830152614c198185613d81565b9050614c2860a0830184614bae565b979650505050505050565b7f4e487b7100000000000000000000000000000000000000000000000000000000600052602260045260246000fd5b60006002820490506001821680614c7a57607f821691505b60208210811415614c8e57614c8d614c33565b5b50919050565b7f456d70747920737461636b000000000000000000000000000000000000000000600082015250565b6000614cca600b83613d2c565b9150614cd582614c94565b602082019050919050565b60006020820190508181036000830152614cf981614cbd565b9050919050565b7f4e487b7100000000000000000000000000000000000000000000000000000000600052603260045260246000fd5b7f4e487b7100000000000000000000000000000000000000000000000000000000600052601160045260246000fd5b6000614d6982613caf565b91507fffffffffffffffffffffffffffffffffffffffffffffffffffffffffffffffff821415614d9c57614d9b614d2f565b5b600182019050919050565b7f4e65676174697665204944000000000000000000000000000000000000000000600082015250565b6000614ddd600b83613d2c565b9150614de882614da7565b602082019050919050565b60006020820190508181036000830152614e0c81614dd0565b9050919050565b7f50726f64756374206f7574206f6620746865206c697374000000000000000000600082015250565b6000614e49601783613d2c565b9150614e5482614e13565b602082019050919050565b60006020820190508181036000830152614e7881614e3c565b9050919050565b7f50726f64756374206973206e6f7420666f722073616c65000000000000000000600082015250565b6000614eb5601783613d2c565b9150614ec082614e7f565b602082019050919050565b60006020820190508181036000830152614ee481614ea8565b9050919050565b6000604082019050614f006000830185613eaf565b614f0d6020830184613d12565b9392505050565b614f1d816145f6565b8114614f2857600080fd5b50565b600081519050614f3a81614f14565b92915050565b600060208284031215614f5657614f55613ca5565b5b6000614f6484828501614f2b565b91505092915050565b7f4e6f2073656e6420656c656d656e747300000000000000000000000000000000600082015250565b6000614fa3601083613d2c565b9150614fae82614f6d565b602082019050919050565b60006020820190508181036000830152614fd281614f96565b9050919050565b6000614fe58385613d2c565b9350614ff2838584614818565b614ffb83613d70565b840190509392505050565b600060608201905061501b6000830188613eaf565b818103602083015261502e818688614fd9565b90508181036040830152615043818486614fd9565b90509695505050505050565b7f55736572206973206578697374696e6700000000000000000000000000000000600082015250565b6000615085601083613d2c565b91506150908261504f565b602082019050919050565b600060208201905081810360008301526150b481615078565b9050919050565b7f4974656d20697320616c726561647920666f722073616c650000000000000000600082015250565b60006150f1601883613d2c565b91506150fc826150bb565b602082019050919050565b60006020820190508181036000830152615120816150e4565b9050919050565b7f4e65676174697665206964000000000000000000000000000000000000000000600082015250565b600061515d600b83613d2c565b915061516882615127565b602082019050919050565b6000602082019050818103600083015261518c81615150565b9050919050565b7f496e646578206f7574206f662072616e67650000000000000000000000000000600082015250565b60006151c9601283613d2c565b91506151d482615193565b602082019050919050565b600060208201905081810360008301526151f8816151bc565b9050919050565b7f4578706c616e6174696f6e2063616e6e6f7420626520656d7074790000000000600082015250565b6000615235601b83613d2c565b9150615240826151ff565b602082019050919050565b6000602082019050818103600083015261526481615228565b9050919050565b7f5469636b657420697320636c6f73656400000000000000000000000000000000600082015250565b60006152a1601083613d2c565b91506152ac8261526b565b602082019050919050565b600060208201905081810360008301526152d081615294565b9050919050565b7f50726963652063616e6e6f74206265206e656761746976650000000000000000600082015250565b600061530d601883613d2c565b9150615318826152d7565b602082019050919050565b6000602082019050818103600083015261533c81615300565b9050919050565b7f4e616d652063616e6e6f7420626520656d707479000000000000000000000000600082015250565b6000615379601483613d2c565b915061538482615343565b602082019050919050565b600060208201905081810360008301526153a88161536c565b9050919050565b7f4e6f206974656d7320666f722073616c65000000000000000000000000000000600082015250565b60006153e5601183613d2c565b91506153f0826153af565b602082019050919050565b60006020820190508181036000830152615414816153d8565b9050919050565b7f4974656d20697320616c72656164792061726368697665640000000000000000600082015250565b6000615451601883613d2c565b915061545c8261541b565b602082019050919050565b6000602082019050818103600083015261548081615444565b9050919050565b7f4944206973206e65676174697665000000000000000000000000000000000000600082015250565b60006154bd600e83613d2c565b91506154c882615487565b602082019050919050565b600060208201905081810360008301526154ec816154b0565b9050919050565b7f4944206f7574206f66207468652073636f706500000000000000000000000000600082015250565b6000615529601383613d2c565b9150615534826154f3565b602082019050919050565b600060208201905081810360008301526155588161551c565b9050919050565b600081905092915050565b600061557582613d21565b61557f818561555f565b935061558f818560208601613d3d565b80840191505092915050565b60006155a7828461556a565b915081905092915050565b60006020820190506155c76000830184613eaf565b92915050565b6000815190506155dc81613cb9565b92915050565b6000602082840312156155f8576155f7613ca5565b5b6000615606848285016155cd565b91505092915050565b7f4976616c69642077616c6c657420616472657373000000000000000000000000600082015250565b6000615645601483613d2c565b91506156508261560f565b602082019050919050565b6000602082019050818103600083015261567481615638565b9050919050565b7f546f206c6f7720746f6b656e20616d6f756e7400000000000000000000000000600082015250565b60006156b1601383613d2c565b91506156bc8261567b565b602082019050919050565b600060208201905081810360008301526156e0816156a4565b905091905056fea2646970667358221220feec05ab3eb716272379f1dcaab79b2ca3f0e6547a21dd37e615044c346bd56064736f6c634300080c0033",
  "linkReferences": {},
  "deployedLinkReferences": {}
}