{
  "_format": "hh-sol-artifact-1",
  "contractName": "marketplace",
  "sourceName": "contracts/marketplace.sol",
  "abi": [
    {
      "inputs": [],
      "stateMutability": "nonpayable",
      "type": "constructor"
    },
    {
      "inputs": [
        {
          "internalType": "string",
          "name": "_name",
          "type": "string"
        },
        {
          "internalType": "uint256",
          "name": "_price",
          "type": "uint256"
        }
      ],
      "name": "AddItem",
      "outputs": [],
      "stateMutability": "nonpayable",
      "type": "function"
    },
    {
      "inputs": [
        {
          "internalType": "uint256",
          "name": "_id",
          "type": "uint256"
        }
      ],
      "name": "ArchiveItem",
      "outputs": [],
      "stateMutability": "nonpayable",
      "type": "function"
    },
    {
      "inputs": [],
      "name": "GetAllItems",
      "outputs": [
        {
          "components": [
            {
              "internalType": "uint256",
              "name": "id",
              "type": "uint256"
            },
            {
              "internalType": "string",
              "name": "name",
              "type": "string"
            },
            {
              "internalType": "uint256",
              "name": "price",
              "type": "uint256"
            },
            {
              "internalType": "enum marketplace.item_status",
              "name": "status",
              "type": "uint8"
            }
          ],
          "internalType": "struct marketplace.items[]",
          "name": "",
          "type": "tuple[]"
        }
      ],
      "stateMutability": "view",
      "type": "function"
    },
    {
      "inputs": [],
      "name": "GetForSaleItems",
      "outputs": [
        {
          "components": [
            {
              "internalType": "uint256",
              "name": "id",
              "type": "uint256"
            },
            {
              "internalType": "string",
              "name": "name",
              "type": "string"
            },
            {
              "internalType": "uint256",
              "name": "price",
              "type": "uint256"
            },
            {
              "internalType": "enum marketplace.item_status",
              "name": "status",
              "type": "uint8"
            }
          ],
          "internalType": "struct marketplace.items[]",
          "name": "",
          "type": "tuple[]"
        }
      ],
      "stateMutability": "view",
      "type": "function"
    },
    {
      "inputs": [
        {
          "internalType": "uint256",
          "name": "",
          "type": "uint256"
        }
      ],
      "name": "Items",
      "outputs": [
        {
          "internalType": "uint256",
          "name": "id",
          "type": "uint256"
        },
        {
          "internalType": "string",
          "name": "name",
          "type": "string"
        },
        {
          "internalType": "uint256",
          "name": "price",
          "type": "uint256"
        },
        {
          "internalType": "enum marketplace.item_status",
          "name": "status",
          "type": "uint8"
        }
      ],
      "stateMutability": "view",
      "type": "function"
    },
    {
      "inputs": [
        {
          "internalType": "uint256",
          "name": "_id",
          "type": "uint256"
        }
      ],
      "name": "SellItem",
      "outputs": [],
      "stateMutability": "nonpayable",
      "type": "function"
    },
    {
      "inputs": [
        {
          "internalType": "uint256",
          "name": "",
          "type": "uint256"
        }
      ],
      "name": "historia",
      "outputs": [
        {
          "internalType": "uint256",
          "name": "id",
          "type": "uint256"
        },
        {
          "internalType": "address",
          "name": "buyer",
          "type": "address"
        },
        {
          "internalType": "uint256",
          "name": "data",
          "type": "uint256"
        }
      ],
      "stateMutability": "view",
      "type": "function"
    }
  ],
  "bytecode": "0x608060405234801561001057600080fd5b506116de806100206000396000f3fe608060405234801561001057600080fd5b506004361061007d5760003560e01c80636e5380781161005b5780636e53807814610105578063753640491461012157806377b26af21461013d57806390303f161461015b5761007d565b806317b47cc414610082578063357b4b13146100b5578063389271ed146100e7575b600080fd5b61009c60048036038101906100979190610d8d565b610177565b6040516100ac9493929190610ed9565b60405180910390f35b6100cf60048036038101906100ca9190610d8d565b61024c565b6040516100de93929190610f66565b60405180910390f35b6100ef6102a6565b6040516100fc919061112a565b60405180910390f35b61011f600480360381019061011a9190610d8d565b6104a4565b005b61013b600480360381019061013691906111b1565b61061a565b005b6101456107ba565b604051610152919061112a565b60405180910390f35b61017560048036038101906101709190610d8d565b610afc565b005b6001818154811061018757600080fd5b90600052602060002090600402016000915090508060000154908060010180546101b090611240565b80601f01602080910402602001604051908101604052809291908181526020018280546101dc90611240565b80156102295780601f106101fe57610100808354040283529160200191610229565b820191906000526020600020905b81548152906001019060200180831161020c57829003601f168201915b5050505050908060020154908060030160009054906101000a900460ff16905084565b6002818154811061025c57600080fd5b90600052602060002090600302016000915090508060000154908060010160009054906101000a900473ffffffffffffffffffffffffffffffffffffffff16908060020154905083565b60606000600180549050116102f0576040517f08c379a00000000000000000000000000000000000000000000000000000000081526004016102e7906112be565b60405180910390fd5b600060018054905067ffffffffffffffff811115610311576103106112de565b5b60405190808252806020026020018201604052801561034a57816020015b610337610c70565b81526020019060019003908161032f5790505b50905060005b60018054905081101561049c57600181815481106103715761037061130d565b5b9060005260206000209060040201604051806080016040529081600082015481526020016001820180546103a490611240565b80601f01602080910402602001604051908101604052809291908181526020018280546103d090611240565b801561041d5780601f106103f25761010080835404028352916020019161041d565b820191906000526020600020905b81548152906001019060200180831161040057829003601f168201915b50505050508152602001600282015481526020016003820160009054906101000a900460ff16600181111561045557610454610e62565b5b600181111561046757610466610e62565b5b8152505082828151811061047e5761047d61130d565b5b602002602001018190525080806104949061136b565b915050610350565b508091505090565b60008110156104e8576040517f08c379a00000000000000000000000000000000000000000000000000000000081526004016104df90611400565b60405180910390fd5b600180549050811061052f576040517f08c379a00000000000000000000000000000000000000000000000000000000081526004016105269061146c565b60405180910390fd5b6000600181111561054357610542610e62565b5b600182815481106105575761055661130d565b5b906000526020600020906004020160030160009054906101000a900460ff16600181111561058857610587610e62565b5b14156105c9576040517f08c379a00000000000000000000000000000000000000000000000000000000081526004016105c0906114d8565b60405180910390fd5b6000600182815481106105df576105de61130d565b5b906000526020600020906004020160030160006101000a81548160ff0219169083600181111561061257610611610e62565b5b021790555050565b6000811161065d576040517f08c379a000000000000000000000000000000000000000000000000000000000815260040161065490611544565b60405180910390fd5b60008383905014156106a4576040517f08c379a000000000000000000000000000000000000000000000000000000000815260040161069b906115b0565b60405180910390fd5b600060018054905090506001604051806080016040528083815260200186868080601f016020809104026020016040519081016040528093929190818152602001838380828437600081840152601f19601f8201169050808301925050505050505081526020018481526020016000600181111561072557610724610e62565b5b8152509080600181540180825580915050600190039060005260206000209060040201600090919091909150600082015181600001556020820151816001019080519060200190610777929190610caa565b506040820151816002015560608201518160030160006101000a81548160ff021916908360018111156107ad576107ac610e62565b5b0217905550505050505050565b6060600060018054905011610804576040517f08c379a00000000000000000000000000000000000000000000000000000000081526004016107fb906112be565b60405180910390fd5b6000805b600180549050811015610896576000600181111561082957610828610e62565b5b6001828154811061083d5761083c61130d565b5b906000526020600020906004020160030160009054906101000a900460ff16600181111561086e5761086d610e62565b5b141561088357818061087f9061136b565b9250505b808061088e9061136b565b915050610808565b50600081116108da576040517f08c379a00000000000000000000000000000000000000000000000000000000081526004016108d19061161c565b60405180910390fd5b60008167ffffffffffffffff8111156108f6576108f56112de565b5b60405190808252806020026020018201604052801561092f57816020015b61091c610c70565b8152602001906001900390816109145790505b5090506000915060005b600180549050811015610af3576000600181111561095a57610959610e62565b5b6001828154811061096e5761096d61130d565b5b906000526020600020906004020160030160009054906101000a900460ff16600181111561099f5761099e610e62565b5b1415610ae057600181815481106109b9576109b861130d565b5b9060005260206000209060040201604051806080016040529081600082015481526020016001820180546109ec90611240565b80601f0160208091040260200160405190810160405280929190818152602001828054610a1890611240565b8015610a655780601f10610a3a57610100808354040283529160200191610a65565b820191906000526020600020905b815481529060010190602001808311610a4857829003601f168201915b50505050508152602001600282015481526020016003820160009054906101000a900460ff166001811115610a9d57610a9c610e62565b5b6001811115610aaf57610aae610e62565b5b81525050828481518110610ac657610ac561130d565b5b60200260200101819052508280610adc9061136b565b9350505b8080610aeb9061136b565b915050610939565b50809250505090565b6000811015610b40576040517f08c379a0000000000000000000000000000000000000000000000000000000008152600401610b3790611400565b60405180910390fd5b6001805490508110610b87576040517f08c379a0000000000000000000000000000000000000000000000000000000008152600401610b7e9061146c565b60405180910390fd5b600180811115610b9a57610b99610e62565b5b60018281548110610bae57610bad61130d565b5b906000526020600020906004020160030160009054906101000a900460ff166001811115610bdf57610bde610e62565b5b1415610c20576040517f08c379a0000000000000000000000000000000000000000000000000000000008152600401610c1790611688565b60405180910390fd5b6001808281548110610c3557610c3461130d565b5b906000526020600020906004020160030160006101000a81548160ff02191690836001811115610c6857610c67610e62565b5b021790555050565b604051806080016040528060008152602001606081526020016000815260200160006001811115610ca457610ca3610e62565b5b81525090565b828054610cb690611240565b90600052602060002090601f016020900481019282610cd85760008555610d1f565b82601f10610cf157805160ff1916838001178555610d1f565b82800160010185558215610d1f579182015b82811115610d1e578251825591602001919060010190610d03565b5b509050610d2c9190610d30565b5090565b5b80821115610d49576000816000905550600101610d31565b5090565b600080fd5b600080fd5b6000819050919050565b610d6a81610d57565b8114610d7557600080fd5b50565b600081359050610d8781610d61565b92915050565b600060208284031215610da357610da2610d4d565b5b6000610db184828501610d78565b91505092915050565b610dc381610d57565b82525050565b600081519050919050565b600082825260208201905092915050565b60005b83811015610e03578082015181840152602081019050610de8565b83811115610e12576000848401525b50505050565b6000601f19601f8301169050919050565b6000610e3482610dc9565b610e3e8185610dd4565b9350610e4e818560208601610de5565b610e5781610e18565b840191505092915050565b7f4e487b7100000000000000000000000000000000000000000000000000000000600052602160045260246000fd5b60028110610ea257610ea1610e62565b5b50565b6000819050610eb382610e91565b919050565b6000610ec382610ea5565b9050919050565b610ed381610eb8565b82525050565b6000608082019050610eee6000830187610dba565b8181036020830152610f008186610e29565b9050610f0f6040830185610dba565b610f1c6060830184610eca565b95945050505050565b600073ffffffffffffffffffffffffffffffffffffffff82169050919050565b6000610f5082610f25565b9050919050565b610f6081610f45565b82525050565b6000606082019050610f7b6000830186610dba565b610f886020830185610f57565b610f956040830184610dba565b949350505050565b600081519050919050565b600082825260208201905092915050565b6000819050602082019050919050565b610fd281610d57565b82525050565b600082825260208201905092915050565b6000610ff482610dc9565b610ffe8185610fd8565b935061100e818560208601610de5565b61101781610e18565b840191505092915050565b61102b81610eb8565b82525050565b60006080830160008301516110496000860182610fc9565b50602083015184820360208601526110618282610fe9565b91505060408301516110766040860182610fc9565b5060608301516110896060860182611022565b508091505092915050565b60006110a08383611031565b905092915050565b6000602082019050919050565b60006110c082610f9d565b6110ca8185610fa8565b9350836020820285016110dc85610fb9565b8060005b8581101561111857848403895281516110f98582611094565b9450611104836110a8565b925060208a019950506001810190506110e0565b50829750879550505050505092915050565b6000602082019050818103600083015261114481846110b5565b905092915050565b600080fd5b600080fd5b600080fd5b60008083601f8401126111715761117061114c565b5b8235905067ffffffffffffffff81111561118e5761118d611151565b5b6020830191508360018202830111156111aa576111a9611156565b5b9250929050565b6000806000604084860312156111ca576111c9610d4d565b5b600084013567ffffffffffffffff8111156111e8576111e7610d52565b5b6111f48682870161115b565b9350935050602061120786828701610d78565b9150509250925092565b7f4e487b7100000000000000000000000000000000000000000000000000000000600052602260045260246000fd5b6000600282049050600182168061125857607f821691505b6020821081141561126c5761126b611211565b5b50919050565b7f456d70747920737461636b000000000000000000000000000000000000000000600082015250565b60006112a8600b83610dd4565b91506112b382611272565b602082019050919050565b600060208201905081810360008301526112d78161129b565b9050919050565b7f4e487b7100000000000000000000000000000000000000000000000000000000600052604160045260246000fd5b7f4e487b7100000000000000000000000000000000000000000000000000000000600052603260045260246000fd5b7f4e487b7100000000000000000000000000000000000000000000000000000000600052601160045260246000fd5b600061137682610d57565b91507fffffffffffffffffffffffffffffffffffffffffffffffffffffffffffffffff8214156113a9576113a861133c565b5b600182019050919050565b7f4e65676174697665204944000000000000000000000000000000000000000000600082015250565b60006113ea600b83610dd4565b91506113f5826113b4565b602082019050919050565b60006020820190508181036000830152611419816113dd565b9050919050565b7f50726f64756374206f7574206f6620746865206c697374000000000000000000600082015250565b6000611456601783610dd4565b915061146182611420565b602082019050919050565b6000602082019050818103600083015261148581611449565b9050919050565b7f4974656d20697320616c726561647920666f722073616c650000000000000000600082015250565b60006114c2601883610dd4565b91506114cd8261148c565b602082019050919050565b600060208201905081810360008301526114f1816114b5565b9050919050565b7f50726963652063616e6e6f74206265206e656761746976650000000000000000600082015250565b600061152e601883610dd4565b9150611539826114f8565b602082019050919050565b6000602082019050818103600083015261155d81611521565b9050919050565b7f4e616d652063616e6e6f7420626520656d707479000000000000000000000000600082015250565b600061159a601483610dd4565b91506115a582611564565b602082019050919050565b600060208201905081810360008301526115c98161158d565b9050919050565b7f4e6f206974656d7320666f722073616c65000000000000000000000000000000600082015250565b6000611606601183610dd4565b9150611611826115d0565b602082019050919050565b60006020820190508181036000830152611635816115f9565b9050919050565b7f4974656d20697320616c72656164792061726368697665640000000000000000600082015250565b6000611672601883610dd4565b915061167d8261163c565b602082019050919050565b600060208201905081810360008301526116a181611665565b905091905056fea2646970667358221220b53c737fbffb1acba312e317279238375e23dcdc5b36961a5f803e0f82925d2064736f6c634300080c0033",
  "linkReferences": {},
  "deployedLinkReferences": {}
}