{
  "_format": "hh-sol-artifact-1",
  "contractName": "Notifications",
  "sourceName": "contracts/notification.sol",
  "abi": [
    {
      "inputs": [],
      "stateMutability": "nonpayable",
      "type": "constructor"
    },
    {
      "inputs": [],
      "name": "GetAll",
      "outputs": [
        {
          "components": [
            {
              "internalType": "uint256",
              "name": "id",
              "type": "uint256"
            },
            {
              "internalType": "uint256",
              "name": "NotificationData",
              "type": "uint256"
            },
            {
              "internalType": "string",
              "name": "Explenation",
              "type": "string"
            },
            {
              "internalType": "uint256",
              "name": "TokenAmount",
              "type": "uint256"
            },
            {
              "internalType": "address",
              "name": "SenderWallet",
              "type": "address"
            },
            {
              "internalType": "address",
              "name": "ReciverWallet",
              "type": "address"
            },
            {
              "internalType": "enum Notifications.statuses",
              "name": "Status",
              "type": "uint8"
            },
            {
              "internalType": "string",
              "name": "StatusExplanation",
              "type": "string"
            }
          ],
          "internalType": "struct Notifications.Notification[]",
          "name": "",
          "type": "tuple[]"
        }
      ],
      "stateMutability": "view",
      "type": "function"
    },
    {
      "inputs": [
        {
          "internalType": "address",
          "name": "_owner",
          "type": "address"
        }
      ],
      "name": "GetMy",
      "outputs": [
        {
          "components": [
            {
              "internalType": "uint256",
              "name": "id",
              "type": "uint256"
            },
            {
              "internalType": "uint256",
              "name": "NotificationData",
              "type": "uint256"
            },
            {
              "internalType": "string",
              "name": "Explenation",
              "type": "string"
            },
            {
              "internalType": "uint256",
              "name": "TokenAmount",
              "type": "uint256"
            },
            {
              "internalType": "address",
              "name": "SenderWallet",
              "type": "address"
            },
            {
              "internalType": "address",
              "name": "ReciverWallet",
              "type": "address"
            },
            {
              "internalType": "enum Notifications.statuses",
              "name": "Status",
              "type": "uint8"
            },
            {
              "internalType": "string",
              "name": "StatusExplanation",
              "type": "string"
            }
          ],
          "internalType": "struct Notifications.Notification[]",
          "name": "",
          "type": "tuple[]"
        }
      ],
      "stateMutability": "view",
      "type": "function"
    },
    {
      "inputs": [],
      "name": "GetSent",
      "outputs": [
        {
          "components": [
            {
              "internalType": "uint256",
              "name": "id",
              "type": "uint256"
            },
            {
              "internalType": "uint256",
              "name": "NotificationData",
              "type": "uint256"
            },
            {
              "internalType": "string",
              "name": "Explenation",
              "type": "string"
            },
            {
              "internalType": "uint256",
              "name": "TokenAmount",
              "type": "uint256"
            },
            {
              "internalType": "address",
              "name": "SenderWallet",
              "type": "address"
            },
            {
              "internalType": "address",
              "name": "ReciverWallet",
              "type": "address"
            },
            {
              "internalType": "enum Notifications.statuses",
              "name": "Status",
              "type": "uint8"
            },
            {
              "internalType": "string",
              "name": "StatusExplanation",
              "type": "string"
            }
          ],
          "internalType": "struct Notifications.Notification[]",
          "name": "",
          "type": "tuple[]"
        }
      ],
      "stateMutability": "view",
      "type": "function"
    },
    {
      "inputs": [
        {
          "internalType": "string",
          "name": "_Explenation",
          "type": "string"
        },
        {
          "internalType": "uint256",
          "name": "_TokenAmount",
          "type": "uint256"
        },
        {
          "internalType": "address",
          "name": "_ReciverWallet",
          "type": "address"
        }
      ],
      "name": "NewTicket",
      "outputs": [],
      "stateMutability": "nonpayable",
      "type": "function"
    },
    {
      "inputs": [
        {
          "internalType": "uint256",
          "name": "",
          "type": "uint256"
        }
      ],
      "name": "Table",
      "outputs": [
        {
          "internalType": "uint256",
          "name": "id",
          "type": "uint256"
        },
        {
          "internalType": "uint256",
          "name": "NotificationData",
          "type": "uint256"
        },
        {
          "internalType": "string",
          "name": "Explenation",
          "type": "string"
        },
        {
          "internalType": "uint256",
          "name": "TokenAmount",
          "type": "uint256"
        },
        {
          "internalType": "address",
          "name": "SenderWallet",
          "type": "address"
        },
        {
          "internalType": "address",
          "name": "ReciverWallet",
          "type": "address"
        },
        {
          "internalType": "enum Notifications.statuses",
          "name": "Status",
          "type": "uint8"
        },
        {
          "internalType": "string",
          "name": "StatusExplanation",
          "type": "string"
        }
      ],
      "stateMutability": "view",
      "type": "function"
    },
    {
      "inputs": [
        {
          "internalType": "uint256",
          "name": "_id",
          "type": "uint256"
        },
        {
          "internalType": "string",
          "name": "_Explenation",
          "type": "string"
        }
      ],
      "name": "reject",
      "outputs": [],
      "stateMutability": "nonpayable",
      "type": "function"
    }
  ],
  "bytecode": "0x608060405234801561001057600080fd5b50336000806101000a81548173ffffffffffffffffffffffffffffffffffffffff021916908373ffffffffffffffffffffffffffffffffffffffff16021790555061221d806100606000396000f3fe608060405234801561001057600080fd5b50600436106100625760003560e01c806355d96d4f1461006757806371d68a9714610097578063a5440fa0146100b3578063a5904d21146100d1578063e7ebec6214610108578063e951ec5514610124575b600080fd5b610081600480360381019061007c919061173b565b610142565b60405161008e9190611a19565b60405180910390f35b6100b160048036038101906100ac9190611acc565b610603565b005b6100bb6107f5565b6040516100c89190611a19565b60405180910390f35b6100eb60048036038101906100e69190611b2c565b610b3c565b6040516100ff989796959493929190611bd0565b60405180910390f35b610122600480360381019061011d9190611c5c565b610cf1565b005b61012c61109c565b6040516101399190611a19565b60405180910390f35b606060006002805490501161018c576040517f08c379a000000000000000000000000000000000000000000000000000000000815260040161018390611d1c565b60405180910390fd5b6000805b600280549050811015610238578373ffffffffffffffffffffffffffffffffffffffff16600282815481106101c8576101c7611d3c565b5b906000526020600020906007020160040160009054906101000a900473ffffffffffffffffffffffffffffffffffffffff1673ffffffffffffffffffffffffffffffffffffffff16141561022557818061022190611d9a565b9250505b808061023090611d9a565b915050610190565b506000811161027c576040517f08c379a000000000000000000000000000000000000000000000000000000000815260040161027390611e2f565b60405180910390fd5b60008167ffffffffffffffff81111561029857610297611e4f565b5b6040519080825280602002602001820160405280156102d157816020015b6102be611527565b8152602001906001900390816102b65790505b5090506000915060005b6002805490508110156105f8578473ffffffffffffffffffffffffffffffffffffffff166002828154811061031357610312611d3c565b5b906000526020600020906007020160040160009054906101000a900473ffffffffffffffffffffffffffffffffffffffff1673ffffffffffffffffffffffffffffffffffffffff1614156105e5576002818154811061037557610374611d3c565b5b90600052602060002090600702016040518061010001604052908160008201548152602001600182015481526020016002820180546103b390611ead565b80601f01602080910402602001604051908101604052809291908181526020018280546103df90611ead565b801561042c5780601f106104015761010080835404028352916020019161042c565b820191906000526020600020905b81548152906001019060200180831161040f57829003601f168201915b50505050508152602001600382015481526020016004820160009054906101000a900473ffffffffffffffffffffffffffffffffffffffff1673ffffffffffffffffffffffffffffffffffffffff1673ffffffffffffffffffffffffffffffffffffffff1681526020016005820160009054906101000a900473ffffffffffffffffffffffffffffffffffffffff1673ffffffffffffffffffffffffffffffffffffffff1673ffffffffffffffffffffffffffffffffffffffff1681526020016005820160149054906101000a900460ff1660028111156105105761050f611855565b5b600281111561052257610521611855565b5b815260200160068201805461053690611ead565b80601f016020809104026020016040519081016040528092919081815260200182805461056290611ead565b80156105af5780601f10610584576101008083540402835291602001916105af565b820191906000526020600020905b81548152906001019060200180831161059257829003601f168201915b5050505050815250508284815181106105cb576105ca611d3c565b5b602002602001018190525082806105e190611d9a565b9350505b80806105f090611d9a565b9150506102db565b508092505050919050565b6000831015610647576040517f08c379a000000000000000000000000000000000000000000000000000000000815260040161063e90611f2b565b60405180910390fd5b600280549050831061068e576040517f08c379a000000000000000000000000000000000000000000000000000000000815260040161068590611f97565b60405180910390fd5b60008282905014156106d5576040517f08c379a00000000000000000000000000000000000000000000000000000000081526004016106cc90612003565b60405180910390fd5b600060028111156106e9576106e8611855565b5b600284815481106106fd576106fc611d3c565b5b906000526020600020906007020160050160149054906101000a900460ff16600281111561072e5761072d611855565b5b1461076e576040517f08c379a00000000000000000000000000000000000000000000000000000000081526004016107659061206f565b60405180910390fd5b600280848154811061078357610782611d3c565b5b906000526020600020906007020160050160146101000a81548160ff021916908360028111156107b6576107b5611855565b5b02179055508181600285815481106107d1576107d0611d3c565b5b906000526020600020906007020160060191906107ef9291906115aa565b50505050565b606060006002805490501161083f576040517f08c379a000000000000000000000000000000000000000000000000000000000815260040161083690611d1c565b60405180910390fd5b600060028054905067ffffffffffffffff8111156108605761085f611e4f565b5b60405190808252806020026020018201604052801561089957816020015b610886611527565b81526020019060019003908161087e5790505b50905060005b600280549050811015610b3457600281815481106108c0576108bf611d3c565b5b90600052602060002090600702016040518061010001604052908160008201548152602001600182015481526020016002820180546108fe90611ead565b80601f016020809104026020016040519081016040528092919081815260200182805461092a90611ead565b80156109775780601f1061094c57610100808354040283529160200191610977565b820191906000526020600020905b81548152906001019060200180831161095a57829003601f168201915b50505050508152602001600382015481526020016004820160009054906101000a900473ffffffffffffffffffffffffffffffffffffffff1673ffffffffffffffffffffffffffffffffffffffff1673ffffffffffffffffffffffffffffffffffffffff1681526020016005820160009054906101000a900473ffffffffffffffffffffffffffffffffffffffff1673ffffffffffffffffffffffffffffffffffffffff1673ffffffffffffffffffffffffffffffffffffffff1681526020016005820160149054906101000a900460ff166002811115610a5b57610a5a611855565b5b6002811115610a6d57610a6c611855565b5b8152602001600682018054610a8190611ead565b80601f0160208091040260200160405190810160405280929190818152602001828054610aad90611ead565b8015610afa5780601f10610acf57610100808354040283529160200191610afa565b820191906000526020600020905b815481529060010190602001808311610add57829003601f168201915b505050505081525050828281518110610b1657610b15611d3c565b5b60200260200101819052508080610b2c90611d9a565b91505061089f565b508091505090565b60028181548110610b4c57600080fd5b9060005260206000209060070201600091509050806000015490806001015490806002018054610b7b90611ead565b80601f0160208091040260200160405190810160405280929190818152602001828054610ba790611ead565b8015610bf45780601f10610bc957610100808354040283529160200191610bf4565b820191906000526020600020905b815481529060010190602001808311610bd757829003601f168201915b5050505050908060030154908060040160009054906101000a900473ffffffffffffffffffffffffffffffffffffffff16908060050160009054906101000a900473ffffffffffffffffffffffffffffffffffffffff16908060050160149054906101000a900460ff1690806006018054610c6e90611ead565b80601f0160208091040260200160405190810160405280929190818152602001828054610c9a90611ead565b8015610ce75780601f10610cbc57610100808354040283529160200191610ce7565b820191906000526020600020905b815481529060010190602001808311610cca57829003601f168201915b5050505050905088565b600160009054906101000a900473ffffffffffffffffffffffffffffffffffffffff1673ffffffffffffffffffffffffffffffffffffffff166371d6f213826040518263ffffffff1660e01b8152600401610d4c919061208f565b602060405180830381865afa158015610d69573d6000803e3d6000fd5b505050506040513d601f19601f82011682018060405250810190610d8d91906120e2565b610dcc576040517f08c379a0000000000000000000000000000000000000000000000000000000008152600401610dc39061215b565b60405180910390fd5b60008211610e0f576040517f08c379a0000000000000000000000000000000000000000000000000000000008152600401610e06906121c7565b60405180910390fd5b6000848490501415610e56576040517f08c379a0000000000000000000000000000000000000000000000000000000008152600401610e4d90612003565b60405180910390fd5b600060028054905090506000429050600260405180610100016040528084815260200183815260200188888080601f016020809104026020016040519081016040528093929190818152602001838380828437600081840152601f19601f82011690508083019250505050505050815260200186815260200160008054906101000a900473ffffffffffffffffffffffffffffffffffffffff1673ffffffffffffffffffffffffffffffffffffffff1681526020018573ffffffffffffffffffffffffffffffffffffffff16815260200160006002811115610f3b57610f3a611855565b5b815260200160405180602001604052806000815250815250908060018154018082558091505060019003906000526020600020906007020160009091909190915060008201518160000155602082015181600101556040820151816002019080519060200190610fac929190611630565b506060820151816003015560808201518160040160006101000a81548173ffffffffffffffffffffffffffffffffffffffff021916908373ffffffffffffffffffffffffffffffffffffffff16021790555060a08201518160050160006101000a81548173ffffffffffffffffffffffffffffffffffffffff021916908373ffffffffffffffffffffffffffffffffffffffff16021790555060c08201518160050160146101000a81548160ff021916908360028111156110705761106f611855565b5b021790555060e0820151816006019080519060200190611091929190611630565b505050505050505050565b60606000600280549050116110e6576040517f08c379a00000000000000000000000000000000000000000000000000000000081526004016110dd90611d1c565b60405180910390fd5b6000805b600280549050811015611178576000600281111561110b5761110a611855565b5b6002828154811061111f5761111e611d3c565b5b906000526020600020906007020160050160149054906101000a900460ff1660028111156111505761114f611855565b5b141561116557818061116190611d9a565b9250505b808061117090611d9a565b9150506110ea565b50600081116111bc576040517f08c379a00000000000000000000000000000000000000000000000000000000081526004016111b390611e2f565b60405180910390fd5b60008167ffffffffffffffff8111156111d8576111d7611e4f565b5b60405190808252806020026020018201604052801561121157816020015b6111fe611527565b8152602001906001900390816111f65790505b5090506000915060005b60028054905081101561151e576000600281111561123c5761123b611855565b5b600282815481106112505761124f611d3c565b5b906000526020600020906007020160050160149054906101000a900460ff16600281111561128157611280611855565b5b141561150b576002818154811061129b5761129a611d3c565b5b90600052602060002090600702016040518061010001604052908160008201548152602001600182015481526020016002820180546112d990611ead565b80601f016020809104026020016040519081016040528092919081815260200182805461130590611ead565b80156113525780601f1061132757610100808354040283529160200191611352565b820191906000526020600020905b81548152906001019060200180831161133557829003601f168201915b50505050508152602001600382015481526020016004820160009054906101000a900473ffffffffffffffffffffffffffffffffffffffff1673ffffffffffffffffffffffffffffffffffffffff1673ffffffffffffffffffffffffffffffffffffffff1681526020016005820160009054906101000a900473ffffffffffffffffffffffffffffffffffffffff1673ffffffffffffffffffffffffffffffffffffffff1673ffffffffffffffffffffffffffffffffffffffff1681526020016005820160149054906101000a900460ff16600281111561143657611435611855565b5b600281111561144857611447611855565b5b815260200160068201805461145c90611ead565b80601f016020809104026020016040519081016040528092919081815260200182805461148890611ead565b80156114d55780601f106114aa576101008083540402835291602001916114d5565b820191906000526020600020905b8154815290600101906020018083116114b857829003601f168201915b5050505050815250508284815181106114f1576114f0611d3c565b5b6020026020010181905250828061150790611d9a565b9350505b808061151690611d9a565b91505061121b565b50809250505090565b60405180610100016040528060008152602001600081526020016060815260200160008152602001600073ffffffffffffffffffffffffffffffffffffffff168152602001600073ffffffffffffffffffffffffffffffffffffffff1681526020016000600281111561159d5761159c611855565b5b8152602001606081525090565b8280546115b690611ead565b90600052602060002090601f0160209004810192826115d8576000855561161f565b82601f106115f157803560ff191683800117855561161f565b8280016001018555821561161f579182015b8281111561161e578235825591602001919060010190611603565b5b50905061162c91906116b6565b5090565b82805461163c90611ead565b90600052602060002090601f01602090048101928261165e57600085556116a5565b82601f1061167757805160ff19168380011785556116a5565b828001600101855582156116a5579182015b828111156116a4578251825591602001919060010190611689565b5b5090506116b291906116b6565b5090565b5b808211156116cf5760008160009055506001016116b7565b5090565b600080fd5b600080fd5b600073ffffffffffffffffffffffffffffffffffffffff82169050919050565b6000611708826116dd565b9050919050565b611718816116fd565b811461172357600080fd5b50565b6000813590506117358161170f565b92915050565b600060208284031215611751576117506116d3565b5b600061175f84828501611726565b91505092915050565b600081519050919050565b600082825260208201905092915050565b6000819050602082019050919050565b6000819050919050565b6117a781611794565b82525050565b600081519050919050565b600082825260208201905092915050565b60005b838110156117e75780820151818401526020810190506117cc565b838111156117f6576000848401525b50505050565b6000601f19601f8301169050919050565b6000611818826117ad565b61182281856117b8565b93506118328185602086016117c9565b61183b816117fc565b840191505092915050565b61184f816116fd565b82525050565b7f4e487b7100000000000000000000000000000000000000000000000000000000600052602160045260246000fd5b6003811061189557611894611855565b5b50565b60008190506118a682611884565b919050565b60006118b682611898565b9050919050565b6118c6816118ab565b82525050565b6000610100830160008301516118e5600086018261179e565b5060208301516118f8602086018261179e565b5060408301518482036040860152611910828261180d565b9150506060830151611925606086018261179e565b5060808301516119386080860182611846565b5060a083015161194b60a0860182611846565b5060c083015161195e60c08601826118bd565b5060e083015184820360e0860152611976828261180d565b9150508091505092915050565b600061198f83836118cc565b905092915050565b6000602082019050919050565b60006119af82611768565b6119b98185611773565b9350836020820285016119cb85611784565b8060005b85811015611a0757848403895281516119e88582611983565b94506119f383611997565b925060208a019950506001810190506119cf565b50829750879550505050505092915050565b60006020820190508181036000830152611a3381846119a4565b905092915050565b611a4481611794565b8114611a4f57600080fd5b50565b600081359050611a6181611a3b565b92915050565b600080fd5b600080fd5b600080fd5b60008083601f840112611a8c57611a8b611a67565b5b8235905067ffffffffffffffff811115611aa957611aa8611a6c565b5b602083019150836001820283011115611ac557611ac4611a71565b5b9250929050565b600080600060408486031215611ae557611ae46116d3565b5b6000611af386828701611a52565b935050602084013567ffffffffffffffff811115611b1457611b136116d8565b5b611b2086828701611a76565b92509250509250925092565b600060208284031215611b4257611b416116d3565b5b6000611b5084828501611a52565b91505092915050565b611b6281611794565b82525050565b600082825260208201905092915050565b6000611b84826117ad565b611b8e8185611b68565b9350611b9e8185602086016117c9565b611ba7816117fc565b840191505092915050565b611bbb816116fd565b82525050565b611bca816118ab565b82525050565b600061010082019050611be6600083018b611b59565b611bf3602083018a611b59565b8181036040830152611c058189611b79565b9050611c146060830188611b59565b611c216080830187611bb2565b611c2e60a0830186611bb2565b611c3b60c0830185611bc1565b81810360e0830152611c4d8184611b79565b90509998505050505050505050565b60008060008060608587031215611c7657611c756116d3565b5b600085013567ffffffffffffffff811115611c9457611c936116d8565b5b611ca087828801611a76565b94509450506020611cb387828801611a52565b9250506040611cc487828801611726565b91505092959194509250565b7f456d70747920737461636b000000000000000000000000000000000000000000600082015250565b6000611d06600b83611b68565b9150611d1182611cd0565b602082019050919050565b60006020820190508181036000830152611d3581611cf9565b9050919050565b7f4e487b7100000000000000000000000000000000000000000000000000000000600052603260045260246000fd5b7f4e487b7100000000000000000000000000000000000000000000000000000000600052601160045260246000fd5b6000611da582611794565b91507fffffffffffffffffffffffffffffffffffffffffffffffffffffffffffffffff821415611dd857611dd7611d6b565b5b600182019050919050565b7f4e6f2073656e6420656c656d656e747300000000000000000000000000000000600082015250565b6000611e19601083611b68565b9150611e2482611de3565b602082019050919050565b60006020820190508181036000830152611e4881611e0c565b9050919050565b7f4e487b7100000000000000000000000000000000000000000000000000000000600052604160045260246000fd5b7f4e487b7100000000000000000000000000000000000000000000000000000000600052602260045260246000fd5b60006002820490506001821680611ec557607f821691505b60208210811415611ed957611ed8611e7e565b5b50919050565b7f4e65676174697665206964000000000000000000000000000000000000000000600082015250565b6000611f15600b83611b68565b9150611f2082611edf565b602082019050919050565b60006020820190508181036000830152611f4481611f08565b9050919050565b7f496e646578206f7574206f662072616e67650000000000000000000000000000600082015250565b6000611f81601283611b68565b9150611f8c82611f4b565b602082019050919050565b60006020820190508181036000830152611fb081611f74565b9050919050565b7f4578706c616e6174696f6e2063616e6e6f7420626520656d7074790000000000600082015250565b6000611fed601b83611b68565b9150611ff882611fb7565b602082019050919050565b6000602082019050818103600083015261201c81611fe0565b9050919050565b7f5469636b657420697320636c6f73656400000000000000000000000000000000600082015250565b6000612059601083611b68565b915061206482612023565b602082019050919050565b600060208201905081810360008301526120888161204c565b9050919050565b60006020820190506120a46000830184611bb2565b92915050565b60008115159050919050565b6120bf816120aa565b81146120ca57600080fd5b50565b6000815190506120dc816120b6565b92915050565b6000602082840312156120f8576120f76116d3565b5b6000612106848285016120cd565b91505092915050565b7f4976616c69642077616c6c657420616472657373000000000000000000000000600082015250565b6000612145601483611b68565b91506121508261210f565b602082019050919050565b6000602082019050818103600083015261217481612138565b9050919050565b7f546f206c6f7720746f6b656e20616d6f756e7400000000000000000000000000600082015250565b60006121b1601383611b68565b91506121bc8261217b565b602082019050919050565b600060208201905081810360008301526121e0816121a4565b905091905056fea2646970667358221220e9ae9e0b7639a0ab7cef21d1f8f7e2e4980fbcafe3bdc5fde058d1bcb371372d64736f6c634300080c0033",
  "linkReferences": {},
  "deployedLinkReferences": {}
}